:100000000C943D050C9465050C9465050C946505F0
:100010000C9465050C9465050C9465050C946505B8
:100020000C9465050C9465050C9465050C946505A8
:100030000C9465050C9465050C9465050C94650598
:100040000C94AB080C9465050C94C8140C948D1496
:100050000C9465050C9465050C9465050C94650578
:100060000C9465050C946505790B8F0B8F0B8F0B2A
:100070008F0B8F0B8F0B8F0B8F0B8F0B8F0B8F0BB0
:100080008F0B870B8F0B330B3A0B410B480B4F0B2E
:10009000560B5D0B640B6B0B720B8F0B8F0B8F0B67
:1000A0008F0B8F0B800B8F0B690A700A770A7E0A01
:1000B000850A8C0A930A9A0AA70AB40ABB0AC20ADA
:1000C000C90AD00AD70ADE0AE50AEC0AF30AFA0AD4
:1000D000010B080B8F0B1E0B250B2C0B7C02D70082
:1000E0007082C7003082CE00EB81D700EB81D80050
:1000F000EA81D800EF81DB00FC81DF007C82D70041
:10010000B303260098830E008683070007830C0044
:10011000C4811800B18111009E810C00758103001B
:1001200051810000FF800500C5801900E1801C009E
:10013000ED802700EE802B00EF802E00E68043004C
:10014000CC804F00B1804F00A18040009E803600DF
:10015000A2802D009C80330095803F00B280650016
:100160000F818E003F81BD007281CB00B181C5003F
:10017000FC81BB003882B4006382B2008382D90064
:10018000C3824B01CF824B01D8824A01DF824801F2
:10019000E8824501CF82D2007283C2006E83BD0027
:1001A0006783B9003483B900C782BD00BA828F006B
:1001B000A5827C0083825F006E82510050824100E4
:1001C000B3832600E8008500D6807E00BC807300E3
:1001D000AF806A009D805C00598083000280B3007C
:1001E0000080B5000080B6001180BD004580C200CF
:1001F000E8808500DE002B00D4802000B4801C0045
:10020000A7801F00A2802700AB803C00C580420071
:10021000D8803B00DE802B00DE802B00EA017600D8
:10022000DF81A500B681AB00C9817100EA8176004B
:10023000BB016F00AA81AB00A4816B00BB816F0082
:10024000A001AD007B81B7005B81BB005081BA008B
:100250004781B9003381AB0019818D002E818C005C
:100260004E81880072817E0098816F00A081AD0070
:100270000040FD3FF63FE93FD83FC13FA63F853FE5
:10028000603F363F073FD23E993E5C3E193ED13D2E
:10029000853D343DDE3C833C233CBF3B563BE93A45
:1002A000773A003A853906398238F9376C37DB36C8
:1002B0004636AC350E356C34C6331C336E32BC3129
:1002C00006314D308F2FCE2E092E412D752CA52BAA
:1002D000D32AFC2923294628662784269E25B5246F
:1002E000C923DB22EA21F620FF1F071F0B1E0E1D6C
:1002F0000E1C0C1B071A0119F917EF16E315D6147B
:10030000C613B612A41190107B0F650E4E0D360C5D
:100310001D0B030AE808CC07B006930576045903C1
:100320003B021D0100001D015F00EE802F001D81BA
:1003300000004D812F001D815F000000F902008048
:1003400029032F8088035F80B803BE80E8037C8187
:10035000E803DC81B8030B8288033B8229033B82DC
:10036000CA020B826B02DC813B021D81DC011D8114
:100370004D011D015F00EE802F001D8100004D81A9
:100380002F001D815F002F00E8032F804D012F00FB
:100390005F0000802F002F8000005F802F002F80E3
:1003A0005F006B029A023B820B02DC81AC014D8143
:1003B0007C011D817C018E80AC012F800B020080AE
:1003C0009A020080CA022F8059038E80B8031D81D3
:1003D000E8034D81E803DC81B8033B8259036B825B
:1003E0009A026B82AC013B82BE00DC812F004D8102
:1003F0000000EE8000005F802F002F808E00EE0056
:10040000E8035F80B8032F8059032F80F9025F80D3
:100410009A02BE806B027C813B020B820B026B82D4
:10042000AC019A824D019A82BE006B825F003B82D2
:100430002F00AC810000EE8000005F802F002F8035
:100440005F000080BE0000804D012F80AC018E80D7
:100450000B021D813B02DC816B023B829A026B82A4
:10046000F9026B8259033B82B803AC81E803EE804A
:10047000E8039A02E803BE8000000000E8039A82C5
:10048000E8033B0259030B82B8037C81E8031D811A
:10049000E8038E80B8032F80290300803B02008090
:1004A0004D012F808E008E802F001D8100004D8118
:1004B0000000DC812F003B828E006B821D016B826D
:1004C0004D013B82DC01DC813B024D816B021D81D1
:1004D0006B028E803B022F80DC0100804D013B02CD
:1004E000E8035F80E8032F803B025F806B02EE80B1
:1004F0009A027C819A020B826B026B820B029A82B7
:100500007C019A821D016B828E000B822F007C8100
:100510000000EE8000005F802F002F805F000080D1
:10052000BE00DC01E80300804D01CA824D01DC0100
:10053000E803DC8100005F00E8036B82E8034D8183
:100540006B02DC816B023B823B026B820B029A8264
:100550007C019A821D016B828E000B822F007C81B0
:100560000000EE8000005F802F002F805F00008081
:10057000BE002F00F9022F8029035F8088038E8040
:10058000B803EE80E803AC81E8030B82B8033B823A
:1005900088036B8229036B82CA023B826B02DC8177
:1005A000DC01008000009A820000000029035F80C7
:1005B0005903EE80E803EE8000001D01E8038E8001
:1005C000B8032F80290300803B020080AC012F80FC
:1005D000BE008E802F001D8100007C8100000B82F8
:1005E0002F006B82BE009A82AC019A823B026B8222
:1005F00029030B82B8037C81E8031D81E8039A027A
:10060000E803008000000000E8039A82E80300008D
:1006100000009A8200000000E8037C810B027C81CC
:100620000000F902E8037C810B020000E8039A82D3
:1006300000009A02E803008000000000E803EE805A
:100640000000DC01E803EE800000DC01E803CA8260
:100650000000B803E803CA8200000000E8037C81C0
:100660000000F902E8037C8100000000E80300803C
:100670001D012F808E008E802F001D8100007C8147
:1006800000000B822F006B828E009A821D019A82DD
:10069000E8034D01E8034D8100000000E8039A8261
:1006A000E8039A0259033B82B803AC81E803EE8069
:1006B000E8035F80B803008059030080F9022F80AF
:1006C0009A025F806B02BE803B02DC81DC013B82D0
:1006D000AC016B827C019A821D019A828E003B8262
:1006E0002F00AC810000EE8000005F802F000080B2
:1006F0008E000000E803008000000000E803AC81E9
:10070000E8033B82B8036B8288039A8229039A82AA
:10071000CA026B826B023B823B02AC810B020080FF
:100720000B024D010B029A8200001D014704BE809E
:1007300017045F80B8032F8059030080CA0200802D
:10074000DC012F804D015F80EE00BE808E001D8198
:100750005F00DC815F003B828E009A82EE00CA82DD
:100760004D01F982DC01F982CA02CA8259039A82D8
:10077000B8033B821704DC8147041D814704AC01A8
:100780001D01CA8200000000E80300800000000094
:10079000E803AC81E8033B82B8036B8288039A824A
:1007A00029039A829A026B823B023B820B02AC8144
:1007B000DC010080DC011D01E803BE80B8035F801E
:1007C00059032F80F90200806B0200807C012F808A
:1007D000EE005F808E00BE802F001D810000DC8156
:1007E00000003B822F009A828E00CA82EE00F982BE
:1007F0007C01F9826B02CA82F9029A8259033B8218
:10080000B803DC81E8031D81E8030000E8030080F1
:1008100000000000E8039A8200009A02E8039A822E
:1008200000000000E803008000000000E8037C8175
:100830000000F902E8037C810000F902E803F98274
:1008400000000000E803008000003B820000000080
:10085000E803008000009A02E80300804D01EE00EA
:100860003B029A820000DC01E803DC81EE00AC81EF
:100870005F007C812F001D810000BE8000005F8032
:100880002F002F805F000080EE0000804D010000EF
:10089000E803008000000000E803008000009A02E6
:1008A000E8039A82000000000B029A820B02CA023F
:1008B000F9029A8259033B82B803DC81E8031D8167
:1008C000E803BE80B8035F8059032F80F9020080DF
:1008D0006B0200807C012F80EE005F808E00BE8066
:1008E0002F001D810000DC8100003B822F009A82D6
:1008F0008E00CA82EE00CA827C01DC017C01CA82C1
:100900007C010000E803008000000000E8036B8227
:10091000E80300000B027C810B020000E80300806A
:1009200000000000E8036B82E80300000B027C81FA
:100930000B02000000006B8200000000E803008052
:1009400000000000E8034D81E803DC81B8033B822E
:1009500059036B82F9029A826B029A827C016B8244
:10096000EE003B828E00DC812F004D810000008074
:100970000000CA02F9029A8259033B82B803DC8163
:10098000E8031D81E803BE80B8035F8059032F8010
:10099000F90200806B0200807C012F80EE005F80F6
:1009A0008E00BE802F001D810000DC8100003B8294
:1009B0002F009A828E00CA82EE000000E8030080B9
:1009C00000000000E803AC81E8033B82B8036B82BF
:1009D00088039A8229039A82CA026B826B023B8245
:1009E0003B02AC810B0200000B02AC810B023B828C
:1009F000DC016B82AC019A824D019A82BE006B824F
:100A00005F003B822F00AC810000008000007C0171
:100A1000E803008000007C01E803F98200008E00FA
:100A20004D016B824D010000000700020100000330
:100A30000406000000000000000000000000250087
:100A400028002B0000000000240027002A000404D6
:100A50000404040404040202020202020303030366
:100A60000303010204081020408001020408102042
:100A700001020408102046222C2211241FBECFEFB1
:100A8000D8E0DEBFCDBF13E0A0E0B1E0E0EBF2E5DF
:100A900002C005900D92AE37B107D9F725E0AEE759
:100AA000B3E001C01D92A535B207E1F715E0CCE334
:100AB000D5E004C02197FE010E94B628CB33D107B0
:100AC000C9F70E9402150C949A230C940000CF924F
:100AD000DF92EF92FF920F931F93CF93DF936C01FE
:100AE000EB017B01E40EF51E00E010E0CE15DF0502
:100AF00061F06991D601ED91FC910190F081E02DBA
:100B0000C6010995080F191FF1CFC801DF91CF91D8
:100B10001F910F91FF90EF90DF90CF90089589364D
:100B200021E0920718F0E0E7F2E039C09C012F5075
:100B300031402A35310528F4E8E6F1E0E81BF90BED
:100B40002AC09C01255B31092A35310530F4FC01AE
:100B5000EE0FFF1FE85FFE4F0EC09C012B553109C1
:100B60002A353105B8F4E4EBF0E0E81BF90BEE0FA1
:100B7000FF1FE059FD4F65917491CB01A0E0B0E0FB
:100B80009C01AD0166277727CB01621B730B840B99
:100B9000950B0895FC01EE0FFF1FE059FD4F659185
:100BA000749180E090E008959C01265A3F4F233CC9
:100BB000314018F0E0E7F2E03DC09C012F50314099
:100BC0002A35310530F4FC01EE0FFF1FEC5AFF4FC0
:100BD0000EC09C01255B31092A353105B8F4EEE0E1
:100BE000F1E0E81BF90BEE0FFF1FE059FD4F659197
:100BF0007491CB01A0E0B0E09C01AD01662777279E
:100C0000CB01621B730B840B950B08959C012B5534
:100C100031092A35310530F4FC01EE0FFF1FE45491
:100C2000FE4F08C0EAE5F0E0E81BF90BEE0FFF1FEE
:100C3000E059FD4F6591749180E090E00895CF9365
:100C4000DF93EC0188819981009711F00E94B42410
:100C5000198218821D821C821B821A82DF91CF9119
:100C60000895FC01248135816217730748F480815F
:100C70009181009729F0FC01E60FF71F808108950C
:100C800080E00895FC01248135816217730720F408
:100C900080819181009729F41092940384E993E074
:100CA0000895860F971F0895FC0124813581232B19
:100CB00031F421E061157105A1F0FB0108C0FC01D0
:100CC000808191816115710531F421E0FC01808101
:100CD000882339F005C00E942A2621E0892B09F0DB
:100CE00020E0822F08950F931F93CF93DF938C0101
:100CF000EB01FC0180819181009799F04281538141
:100D00002C813D814217530750F0688179810E9400
:100D100033268C819D81F8019583848313C00E94C2
:100D2000B42488819981F801918380838A819B8191
:100D3000938382838C819D81958384831982188219
:100D40001B821A821D821C82DF91CF911F910F910D
:100D500008950F931F93CF93DF93EC0188819981BE
:100D6000009729F02A813B812617370788F48B01E9
:100D70006F5F7F4F0E944C25009761F099838883B5
:100D80001B830A832C813D81232B11F4FC011082EB
:100D900081E001C080E0DF91CF911F910F91089514
:100DA000EF92FF920F931F93CF93DF93FC01248167
:100DB00035816115710511F480E019C041155105A7
:100DC000A9F07B01EC018A01020F131FB8010E94F8
:100DD000A906882389F3288139818C819D81B701F7
:100DE000820F931F0E9433261D830C8381E0DF91C5
:100DF000CF911F910F91FF90EF900895CF93DF93C4
:100E0000EC016115710561F0FB0101900020E9F72B
:100E10003197AF01461B570B0E94D006811103C0CA
:100E2000CE010E941F06CE01DF91CF910895CF938E
:100E3000DF93EC01FB0144815581608171810E9447
:100E4000D006811103C0CE010E941F06CE01DF91A2
:100E5000CF910895EF92FF920F931F93CF93DF935B
:100E6000EC017B018A01BA010E94A906811104C02C
:100E7000CE010E941F0607C01D830C83B701888125
:100E800099810E943326CE01DF91CF911F910F915E
:100E9000FF90EF900895CF93DF93EC0161157105FA
:100EA00059F0FB0101900020E9F73197AF01461B93
:100EB000570B0E942A0702C00E941F06CE01DF9135
:100EC000CF910895FC01808191810C94B4240F93FB
:100ED0001F93CF93DF93CDB7DEB7A1970FB6F894EA
:100EE000DEBF0FBECDBF8C01CB01BA01F80111826C
:100EF00010821382128215821482168230E0AE01B3
:100F00004F5F5F4F0E94C823BE016F5F7F4FC801D4
:100F10000E944B07A1960FB6F894DEBF0FBECDBF5F
:100F2000DF91CF911F910F9108950F931F93CF934E
:100F3000DF93CDB7DEB762970FB6F894DEBF0FBE72
:100F4000CDBF8C01CB01F801118210821382128275
:100F500015821482168250E0BE016F5F7F4F0E949F
:100F60009D23BE016F5F7F4FC8010E944B076296B1
:100F70000FB6F894DEBF0FBECDBFDF91CF911F91AA
:100F80000F910895FB01DC0111961C921E9213969D
:100F90001C921E92129715961C921E9214971696EA
:100FA0001C928617970749F0608171816115710560
:100FB00021F0448155810C942A070895FC01118287
:100FC00010821382128215821482168261157105B5
:100FD00051F0FB0101900020E9F73197AF01461B6A
:100FE000570B0C942A070895BF92CF92DF92EF928D
:100FF000FF920F931F93CF93DF937C016B018A01C4
:10100000E9012417350720F4812F8901C42FD82F37
:1010100065E771E0C7010E94DE07D60114968D9145
:101020009C91159780179107D0F08C179D0708F4B5
:10103000EC01D601ED91FC911197EC0FFD1FB080F2
:1010400010824D915C91BA01600F711FC7010E941F
:101050004B07D601ED91FC91EC0FFD1FB082C7014B
:10106000DF91CF911F910F91FF90EF90DF90CF9084
:10107000BF90089590E0FC01EA5DF54F3491FC01CA
:10108000EE59F54F2491FC01E25BF54FE491EE231C
:1010900009F43BC0332339F1333091F038F4313067
:1010A000A9F0323001F584B58F7D12C0363091F051
:1010B0003730A1F03430B9F4809180008F7D03C0C7
:1010C000809180008F77809380000DC084B58F77EA
:1010D00084BD09C08091B0008F7703C08091B000BB
:1010E0008F7D8093B000F0E0EE0FFF1FE65CF54FC0
:1010F000A591B4918FB7F894EC91611103C020953C
:101100002E2301C02E2B2C938FBF08953FB7F89448
:101110008091900390919103A0919203B0919303D9
:1011200026B5A89B05C02F3F19F00196A11DB11D42
:101130003FBFBA2FA92F982F8827820F911DA11D7D
:10114000B11DBC01CD0142E0660F771F881F991FBA
:101150004A95D1F708951F920F920FB60F9211245E
:101160002F933F938F939F93AF93BF9380917E0371
:1011700090917F03A0918003B091810330918F0300
:1011800023E0230F2D3720F40196A11DB11D05C0CA
:1011900026E8230F0296A11DB11D20938F03809393
:1011A0007E0390937F03A0938003B093810380918B
:1011B000900390919103A0919203B09193030196B3
:1011C000A11DB11D8093900390939103A09392036E
:1011D000B0939303BF91AF919F918F913F912F91C6
:1011E0000F900FBE0F901F901895CF93DF93CDB740
:1011F000DEB72E970FB6F894DEBF0FBECDBF23E04B
:1012000030E041E050E062E475E0CE0101960E94DA
:10121000F40789819A81009719F00E94732303C013
:1012200060E070E0CB017093050160930401CE0192
:1012300001960E94620760910401709105014AE0E5
:10124000CE0108960E94950764E772E0CE010196F0
:101250000E94DE07BE01685F7F4FCE0101960E94AB
:1012600017070E941814CE0101960E946207CE0152
:1012700008960E9462072E960FB6F894DEBF0FBE46
:10128000CDBFDF91CF910895CF93DF93EC0165E758
:1012900071E00E94DE07809182039091830389347C
:1012A0009105C1F194F48134910529F12CF4C29790
:1012B000A1F569EA72E033C08634910529F18834DA
:1012C000910559F569EB72E02AC083359105C9F0A3
:1012D0004CF48D34910591F080359105F1F469E974
:1012E00072E01DC08635910591F088359105A9F40D
:1012F00067ED72E014C067E872E011C061E972E066
:101300000EC062EA72E00BC060EB72E008C069ECEC
:1013100072E005C06BED72E002C064EE72E0CE01D7
:101320000E944B07CE01DF91CF9108954F925F92BB
:101330006F927F928F929F92AF92BF92CF92DF92E5
:10134000EF92FF92CF93DF9380E090E00E948F05B1
:101350004B015C0180E090E00E94D4052B013C0130
:101360008CE0C82ED12CE12CF12CC501B401A701D1
:1013700096010E94972849015A01C301B201A701B1
:1013800096010E949728CA01B901A50194010E9403
:10139000A2100E941D0EC5E0D0E0CE010E948F0574
:1013A0004B015C01CE010E94D4052B013C01C5011B
:1013B000B401A70196010E94972849015A01C3016F
:1013C000B201A70196010E949728CA01B901A5019F
:1013D00094010E94A2102596CD3681E0D807E9F647
:1013E000DF91CF91FF90EF90DF90CF90BF90AF90C3
:1013F0009F908F907F906F905F904F900C94370EDE
:101400004F925F926F927F928F929F92AF92BF9214
:10141000CF92DF92EF92FF920F931F93CF93DF93C0
:10142000EC016B0149015A01270138011C141D040C
:101430001CF5FE01E590F490FE01329605911491A1
:10144000249681E0C81AD108F7FE03C00E941D0E41
:1014500002C00E94370EA3019201200F311F411DCF
:10146000511DE894F7F8C501B4016E0D7F1D811D73
:10147000911D0E94A210DACFDF91CF911F910F91A1
:10148000FF90EF90DF90CF90BF90AF909F908F90A4
:101490007F906F905F904F900C94370E8F929F9239
:1014A000AF92BF92EF92FF920F931F937801890141
:1014B000893409F446C0873509F4B1C090E0FC01D5
:1014C000B197EA33F10508F02AC1EC5CFF4F0C94A8
:1014D000B6289A01AB0166E070E08EE09AE01DC18B
:1014E0009A01AB0165E170E08AEB99E016C19A01BF
:1014F000AB0162E170E082E799E00FC19A01AB01B4
:101500006EE070E08AE399E008C19A01AB0168E0FF
:1015100070E08AE199E001C19A01AB0166E070E0F8
:1015200082E099E0FAC09A01AB0165E170E08EEAD1
:1015300098E0F3C09A01AB0166E070E086E998E0BC
:10154000ECC038EC832E912CA12CB12C06C022E5E6
:10155000822E23E0922EA12CB12C9A01AB0162E0E5
:1015600070E08EE898E067C09A01AB016AE070E035
:1015700086E698E0D2C09A01AB0166E070E08EE4A6
:1015800098E0CBC09A01AB0163E070E082E498E0A0
:10159000C4C09A01AB0168E070E082E298E0BDC08F
:1015A0009A01AB0166E070E08AE098E0B6C09A016B
:1015B000AB0165E170E086EB97E0AFC09A01AB014B
:1015C0006CE070E086E897E0A8C09A01AB0167E1A3
:1015D00070E08AE297E0A1C09A01AB016EE070E092
:1015E00082EF96E09AC09A01AB0164E170E082EA72
:1015F00096E093C09A01AB0164E070E082E996E066
:101600008CC09A01AB016AE070E08AE696E085C082
:101610009A01AB0164E070E08AE596E07EC098EE46
:10162000892E93E0992EA12CB12C9A01AB0168E090
:1016300070E08AE396E00E94000A77C09A01AB014D
:1016400064E070E08AE296E068C09A01AB0165E070
:1016500070E086E196E061C09A01AB0166E070E05F
:101660008EEF95E05AC09A01AB0161E170E08AEB20
:1016700095E053C09A01AB0164E070E08AEA95E01E
:101680004CC09A01AB016EE070E082E795E045C086
:101690009A01AB016FE070E086E395E03EC09A01ED
:1016A000AB0165E070E082E295E037C09A01AB01E2
:1016B00061E170E08EED94E030C09A01AB0167E12A
:1016C00070E082E894E029C09A01AB0164E070E028
:1016D00082E794E022C09A01AB016DE170E08EEFE9
:1016E00093E01BC09A01AB0167E170E082EA93E0EE
:1016F00014C09A01AB0167E070E086E893E00DC08A
:101700009A01AB0163E170E08AE393E006C09A01BD
:10171000AB0165E070E086E293E00E94000A82E59A
:10172000882E83E0982EA12CB12CC501B4011F9105
:101730000F91FF90EF90BF90AF909F908F90089582
:10174000CF92DF92EF92FF920F931F93CF93DF938D
:101750008C01C0E0D0E0C12CD12C7601BE01C801C3
:101760000E9431068823C1F0893439F0873551F45D
:1017700088EE93E0A0E0B0E009C088EC90E0A0E043
:10178000B0E004C082E593E0A0E0B0E0C80ED91E4E
:10179000EA1EFB1E2196E2CFC701B601DF91CF9171
:1017A0001F910F91FF90EF90DF90CF9008952F92AF
:1017B0003F924F925F926F927F928F929F92AF92E1
:1017C000BF92CF92DF92EF92FF920F931F93CF932E
:1017D000DF9300D000D0CDB7DEB79A838983362E51
:1017E000272E3C832B83C12CD12C2A01550F660850
:1017F0007708EB81FC81CE16DF0624F5832C922C32
:10180000E12CF12CB70189819A810E94310688234D
:10181000A9F0092C000CAA08BB0893018201B501AC
:10182000A4010E944E0ADC01CB01880D991DAA1D5E
:10183000BB1D4C018FEFE81AF80AE4CF9FEFC91ADD
:10184000D90AD7CF0F900F900F900F90DF91CF91C3
:101850001F910F91FF90EF90DF90CF90BF90AF90CE
:101860009F908F907F906F905F904F903F902F90C0
:1018700008950F931F93CF93DF93EC018B0184E2C4
:10188000ECE0F1E0DE0101900D928A95E1F7CB01E9
:101890000E948F05688379838A839B83C8010E9495
:1018A000D4059B01AC0188279927DC01821B930B8F
:1018B000A40BB50B88879987AA87BB87C8010E94AC
:1018C000D405688F798F8A8F9B8FC8010E948F05FE
:1018D00068A379A38AA39BA3CE01DF91CF911F9127
:1018E0000F9108950F931F93CF93DF93EC018B011A
:1018F00084E2ECE0F1E0DE0101900D928A95E1F7DF
:10190000CB010E948F05688B798B8A8B9B8BC801DA
:101910000E94D4056C8B7D8B8E8B9F8BC8010E949F
:10192000D4059B01AC0188279927DC01821B930B0E
:10193000A40BB50B8C8F9D8FAE8FBF8FC8010E94FB
:101940008F0568A379A38AA39BA3CE01DF91CF91D2
:101950001F910F9108952A989EBD0DB407FEFDCFEB
:101960009EB58EBD0DB407FEFDCF8EB52A9A0895A3
:10197000CF93DF93EB014091A2035091A30321E0A9
:1019800030E0042E02C0220F331F0A94E2F72150E8
:1019900031092817390708F4C9012CE030E0241B6D
:1019A000350B02C0880F991F2A95E2F72091990301
:1019B00030919A032227307F822B932B90939A03A6
:1019C000809399030E94AB0C4091A2035091A30312
:1019D00081E090E0042E02C0880F991F0A94E2F77C
:1019E0000197C817D90708F4CE012CE030E0241B7A
:1019F000350B02C0880F991F2A95E2F720919B03AF
:101A000030919C032227307F822B932B90939C0351
:101A100080939B030E94AB0C8091A403882349F020
:101A20008091A0039091A10397FD03C05F980000EF
:101A30005F9ADF91CF910895CF92DF92EF92FF925C
:101A4000C0900205D0900305E0900405F0900505D4
:101A50006C157D058E059F0584F0C0900A05D09019
:101A60000B05E0900C05F0900D05C616D706E806AC
:101A7000F90634F482E090E005C081E090E002C015
:101A800080E090E0C0900605D0900705E090080542
:101A9000F09009052C153D054E055F0514F4846092
:101AA0000EC0C0900E05D0900F05E0901005F0908C
:101AB0001105C216D306E406F5060CF48860FF9003
:101AC000EF90DF90CF90089508950F931F93CF93D9
:101AD000DF93FC01A685B7858D01005C1F4FE801EF
:101AE0008881998101968F739927AD014E5B5F4F75
:101AF000EA012881398182179307D1F3E80128810F
:101B00003981A20FB31F6C93A685B785A05CBF4F28
:101B100011969C938E93A689B7892C9181E090E0D1
:101B2000078C02C0880F991F0A94E2F7822B8C93CE
:101B300081E081A30488F589E02D80818064808321
:101B400081E090E0DF91CF911F910F910895FC010A
:101B500081A1882329F0A489B5898C9186FFFBCFC8
:101B600011A20895FC01A485B585FD01E05CFF4F3D
:101B7000208131813296808191812817390779F04F
:101B800080819181A80FB91F8C91208131812F5FB5
:101B90003F4F2F7333273183208390E008958FEFD9
:101BA0009FEF0895DC011C96ED91FC911D97DF01DC
:101BB000A05CBF4F2D913C91119712968D919C91F5
:101BC00011972817390739F08D919C91E80FF91F6B
:101BD000808190E008958FEF9FEF0895FC012485A8
:101BE0003585F901E05CFF4F80819181329620813B
:101BF0003181821B930B8F739927089590E0FC012C
:101C0000EE59F54F2491FC01E25BF54F8491882356
:101C100099F090E0880F991FFC01EC5BF54FA591BE
:101C2000B491FC01E65CF54F859194918FB7F894DF
:101C3000EC91E22BEC938FBF08958091DB0490919F
:101C4000DC04892B99F48091F10481110FC08AEC96
:101C500097E00197F1F781E090E09093DC048093A6
:101C6000DB0461E08091CD040C943A0808958091E2
:101C7000DB049091DC04892B69F08AEC97E00197F2
:101C8000F1F71092DC041092DB0460E08091CD0447
:101C90000C943A0808952F923F924F925F926F9260
:101CA0007F928F929F92AF92BF92CF92DF92EF92EC
:101CB000FF920F931F93CF93DF93CDB7DEB7A0971B
:101CC0000FB6F894DEBF0FBECDBF69877A878B87CA
:101CD0009C872D873E874F87588B8091D3049091A6
:101CE000D404A091D504B091D60489849A84AB849D
:101CF000BC84881A990AAA0ABB0A8091D7049091D9
:101D0000D804A091D904B091DA0429013A01481A03
:101D1000590A6A0A7B0A89829A82AB82BC82B7FE20
:101D20000BC022273327A901281939094A095B0961
:101D300029833A834B835C838091CF049091D004B4
:101D4000A091D104B091D2048D839E83AF83B887D4
:101D500029813A814B815C81BC01CD010E947328AD
:101D60006B017C01A0E2DA0EE11CF11CA7019601D7
:101D70000EE055954795379527950A95D1F7298B0C
:101D80003A8B4B8B5C8B7301620177FE07C0CC24CE
:101D9000DD247601C418D508E608F708A7019601E6
:101DA0006D817E818F8198850E947328DC01CB0133
:101DB000905EAF4FBF4F1EE0B595A795979587955D
:101DC0001A95D1F72091E9043091EA044091EB048F
:101DD0005091EC042D8B3E8B4F8B588F29813A818B
:101DE0004B815C81C20ED31EE41EF51E2D893E89F7
:101DF0004F89588DC20ED31EE41EF51EC092E90411
:101E0000D092EA04E092EB04F092EC04C988DA88FC
:101E1000EB88FC88C816D906EA06FB0614F46C01A8
:101E20007D01C501B401EEE0660F771F881F991F81
:101E3000EA95D1F7FEE0440C551C661C771CFA9518
:101E4000D1F7A70196010E949728298B3A8B4B8BDB
:101E50005C8BC301B201A70196010E949728298FCC
:101E60003A8F4B8F5C8F812CA0E29A2EA12CB12C43
:101E700020E030E240E050E029833A834B835C83EA
:101E80001D821E821F821886A701960121503109EA
:101E9000410951092D8F3E8F4F8F58A322242A9438
:101EA000BFE03B2E2D813E814F8158858D8D9E8DCB
:101EB000AF8DB8A1281739074A075B070CF0C6C0D9
:101EC0000091ED041091EE042091EF043091F004A4
:101ED0000F3F4FEF14072407340709F46CC08091BB
:101EE000F104811168C049805A806B807C805EE07B
:101EF00075946794579447945A95D1F77501640186
:101F00006EE0F594E794D794C7946A95D1F7B3013E
:101F1000A20177FE07C044275527BA014419550985
:101F2000660977098D899E89AF89B88D480F591F39
:101F30006A1F7B1FD701C601F7FE07C088279927B4
:101F4000DC018C199D09AE09BF09840F951FA61FDE
:101F5000B71F081719072A073B076CF50E94370EB1
:101F600091E09093F1048091D3049091D404A091D6
:101F7000D504B091D604480E591E6A1E7B1E4092AD
:101F8000F2045092F3046092F4047092F50480918C
:101F9000D7049091D804A091D904B091DA04C80E66
:101FA000D91EEA1EFB1EC092F604D092F704E092FE
:101FB000F804F092F904298D3A8D4B8D5C8D820ED8
:101FC000931EA41EB51E29813A814B815C818989AB
:101FD0009A89AB89BC89280F391F4A1F5B1F298347
:101FE0003A834B835C83DA01C9012EE0B595A7954E
:101FF000979587952A95D1F72091D3043091D404F1
:10200000820F931FB101681B790B950184014EE08B
:1020100035952795179507954A95D1F78091D7045F
:102020009091D804080F191FC101801B910B0E94C9
:10203000B80C2D813E814F8158852F5F3F4F4F4F08
:102040005F4F2D833E834F8358872CCF8091F104BF
:10205000811138C08091ED049091EE04A091EF04BD
:10206000B091F0048F3FEFEF9E07AE07BE0751F12E
:102070004091E9045091EA046091EB047091EC0402
:1020800084179507A607B707ECF40E94370E81E086
:102090008093F10429853A854B855C852093F20471
:1020A0003093F3044093F4045093F5048D859E859A
:1020B000AF85B8898093F6049093F704A093F80451
:1020C000B093F90429853A854B855C852093D30428
:1020D0003093D4044093D5045093D6048D859E85C7
:1020E000AF85B8898093D7049093D804A093D9047E
:1020F000B093DA048FEF9FE0BC01621B730BAD85D8
:10210000BE858A1B9B0B0E94B80C8EE090E0019765
:10211000F1F7A0960FB6F894DEBF0FBECDBFDF91EA
:10212000CF911F910F91FF90EF90DF90CF90BF90D4
:10213000AF909F908F907F906F905F904F903F9067
:102140002F9008952F923F924F925F926F927F92BD
:102150008F929F92AF92BF92CF92DF92EF92FF92B7
:102160000F931F93CF93DF93CDB7DEB7E5970FB6ED
:10217000F894DEBF0FBECDBF2B013C0149015A01CF
:1021800080911205882309F4BFC09201550C440BBD
:10219000550B29833A834B835C83092C000CAA08D6
:1021A000BB088091370590913805A0913905B09111
:1021B0003A0589879A87AB87BC8760911B05709128
:1021C0001C0580911D0590911E050E9473286B01CE
:1021D0007C016091270570912805809129059091D7
:1021E0002A05A50194010E947328C60ED71EE81E79
:1021F000F91E4EE0F594E794D794C7944A95D1F729
:102200000D2C000CEE08FF0829853A854B855C856E
:10221000C20ED31EE41EF51E6091130570911405C5
:10222000809115059091160529813A814B815C8139
:102230000E9473282B013C0160911F0570912005BD
:102240008091210590912205A50194010E94732897
:10225000460E571E681E791E5EE07594679457946B
:1022600047945A95D1F7D20129853A854B855C85EB
:102270000E94C728A70196010E94972829013A01C8
:1022800088E0580E611C711C60911705709118054B
:102290008091190590911A0529813A814B815C81C1
:1022A0000E94732869837A838B839C8360912305C2
:1022B000709124058091250590912605A501940132
:1022C0000E94732829813A814B815C81260F371F38
:1022D000481F591FDA01C9016EE0B595A79597957A
:1022E00087956A95D1F7DC0129853A854B855C8510
:1022F0000E94C728A70196010E94972849015A0108
:1023000088E0980EA11CB11CC090DD04D090DE04C2
:10231000E090DF04F090E004A3019201C701B60150
:102320000E947328DC01CB01905EAF4FBF4F2EE0BF
:10233000B595A795979587952A95D1F74090E10493
:102340005090E2046090E3047090E4049C01AD01BD
:10235000240D351D461D571D2CA33DA34EA35FA381
:10236000A5019401C701B6010E947328DC01CB01CD
:10237000905EAF4FBF4F3EE0B595A7959795879577
:102380003A95D1F7C090E504D090E604E090E704D8
:10239000F090E8049C01AD012C0D3D1D4E1D5F1D0C
:1023A00028A739A74AA75BA78091FA049091FB045C
:1023B000A091FC04B091FD048CA79DA7AEA7BFA778
:1023C0002091FE043091FF044091000550910105D9
:1023D00028AB39AB4AAB5BABBC01CD010E941C0DF5
:1023E0009F878E8728A539A54AA55BA56CA17DA1ED
:1023F0008EA19FA10E941C0D9BA38AA380910E0514
:1024000090910F05A0911005B09111058A8B9B8BBF
:10241000AC8BBD8B209106053091070540910805D6
:10242000509109052E8B3F8B488F598F80910A055B
:1024300090910B05A0910C05B0910D058A8F9B8F93
:10244000AC8FBD8F209102053091030540910405AA
:10245000509105052E8F3F8F48A359A388A899A8AE
:10246000AAA8BBA8CCA4DDA4EEA4FFA488A599A526
:10247000AAA5BBA589879A87AB87BC872CA13DA15C
:102480004EA15FA129833A834B835C838AA19BA1E0
:102490004E855F85842B952B892B09F474C18AA105
:1024A0009BA184239523892B09F08AC1452B29F40C
:1024B0008AA19BA1998B888B04C0AE85BF85B98BFF
:1024C000A88BB889B3FF4AC0C701B6010E94512743
:1024D0006D837E838F83988769817A818B819C81CC
:1024E0006C197D098E099F090E9451272B013C011F
:1024F0006A897B898C899D89681979098A099B0970
:102500000E9451279B01AC01C301B2010E94E22746
:102510002B013C0169857A858B859C856819790931
:102520008A099B090E9451279B01AC01C301B2019A
:102530000E94A7269B01AC016D817E818F819885C9
:102540000E943B260E9419278B018DAB9CABEA8928
:10255000ED83FB89FD872C883D88E6C0288922FF12
:102560004AC0C701B6010E9451276D837E838F83C5
:10257000988769817A818B819C816C197D098E098C
:102580009F090E9451272B013C016E897F89888D0C
:10259000998D681979098A099B090E9451279B0125
:1025A000AC01C301B2010E94E2272B013C01698505
:1025B0007A858B859C85681979098A099B090E940F
:1025C00051279B01AC01C301B2010E94A7269B01C8
:1025D000AC016D817E818F8198850E943B260E948F
:1025E00019278B018DAB9CAB3E893D834F894D876D
:1025F000288C398C99C0588951FF4AC0C501B40153
:102600000E9451276D837E838F83988769857A85A1
:102610008B859C85681979098A099B090E94512735
:102620002B013C016A8D7B8D8C8D9D8D6C197D09F4
:102630008E099F090E9451279B01AC01C301B20181
:102640000E94E2272B013C0169817A818B819C8168
:102650006C197D098E099F090E9451279B01AC01CD
:10266000C301B2010E94A7269B01AC016D817E814E
:102670008F8198850E943B260E9419276D837D8754
:102680001C010A8D1B8D8C8D8DAB9D8D9CAB4CC020
:10269000A889A0FF49C0C501B4010E9451276D83DC
:1026A0007E838F83988769857A858B859C85681959
:1026B00079098A099B090E9451272B013C016E8DE3
:1026C0007F8D88A199A16C197D098E099F090E94AF
:1026D00051279B01AC01C301B2010E94E2272B01EB
:1026E0003C0169817A818B819C816C197D098E09FD
:1026F0009F090E9451279B01AC01C301B2010E94B6
:10270000A7269B01AC016D817E818F8198850E94F7
:102710003B260E9419276D837D871C010E8D1F8D1E
:10272000B8A1BDABE9A1ECAB288939894E855F859D
:102730002417350789F42D813D85A101B8018DA9A4
:102740009CA90E941C0D9F878E878D809D845101BE
:102750006801EDA8FCA89ACE2D813D85A101B801A4
:102760008DA99CA90E941C0D9BA38AA35D815987FA
:102770008D858A872B863C8609831A839DA99B8336
:10278000ACA9AC8383CE8CA59DA5AEA5BFA5C8166C
:10279000D906EA06FB0609F044C028A939A94AA9C6
:1027A0005BA982169306A406B506D9F529853A8554
:1027B0004B855C8569817A818B819C810E944B0E5F
:1027C0008CA19DA1AEA1BFA18093FA049093FB04BC
:1027D000A093FC04B093FD0428A539A54AA55BA5E8
:1027E0002093FE043093FF044093000550930105AD
:1027F000E5960FB6F894DEBF0FBECDBFDF91CF9147
:102800001F910F91FF90EF90DF90CF90BF90AF900E
:102810009F908F907F906F905F904F903F902F9000
:102820000895A5019401C701B6010E944B0EBECFC9
:10283000CF92DF92EF92FF920F931F93CF93DF938C
:102840006C0100E010E0C0E0D0E0F60184819581E9
:10285000E0902D04F0902E040817190780F4B801B9
:10286000C6010E943106D701ED91FC91682F8DE2DF
:1028700094E00995C80FD91F0F5F1F4FE6CFD7010E
:10288000ED91FC916DE08DE294E009958C01E09171
:102890002D04F0912E040190F081E02D6AE08DE28C
:1028A00094E00995C00FD11F8C0F9D1FDF91CF9130
:1028B0001F910F91FF90EF90DF90CF9008951F939D
:1028C000CF93DF9300D0CDB7DEB78DE294E00E94C6
:1028D000EE0D892BE1F011E08DE294E00E94EE0D07
:1028E000892BA9F08DE294E00E94B20D8A3019F490
:1028F00010935005F1CF89831A8241E050E0BE0168
:102900006F5F7F4F82E495E00E94D006E5CF0F9085
:102910000F90DF91CF911F9108951F920F920FB6E4
:102920000F9211242F933F938F939F93EF93FF93D5
:102930002091E5033091E6038091E7039091E8034D
:102940002817390731F48091C1008F7D8093C10031
:1029500014C0E091E703F091E803EB55FC4F2081B0
:102960008091E7039091E80301968F7399279093E4
:10297000E8038093E7032093C600FF91EF919F91B6
:102980008F913F912F910F900FBE0F901F90189530
:102990001F920F920FB60F9211242F934F935F93B4
:1029A0008F939F93EF93FF938091C00082FD1CC093
:1029B0002091C6008091290490912A0401968F737A
:1029C000992740912B0450912C048417950771F09E
:1029D000E0912904F0912A04E751FC4F2083909361
:1029E0002A048093290402C08091C600FF91EF91D0
:1029F0009F918F915F914F912F910F900FBE0F90EC
:102A00001F901895CF93DF93CDB7DEB7C559D10985
:102A10000FB6F894DEBF0FBECDBF789484B5826048
:102A200084BD84B5816084BD85B5826085BD85B572
:102A3000816085BD80916E00816080936E001092F0
:102A4000810080918100826080938100809181006B
:102A500081608093810080918000816080938000FC
:102A60008091B10084608093B1008091B00081605A
:102A70008093B00080917A00846080937A00809186
:102A80007A00826080937A0080917A0081608093DE
:102A90007A0080917A00806880937A001092C10059
:102AA0008CE090E09093A3038093A20388E080934E
:102AB0009D0380E098E09093960380939503909314
:102AC0009803809397038AE090E090939F0380930C
:102AD0009E0387E090E09093A1038093A00381E0A0
:102AE0008093A40380E090E790939A0380939903E6
:102AF00080E090EF90939C0380939B038AE00E9478
:102B0000FE0D8091A0030E94FE0D61E080919E0366
:102B10000E943A0861E08091A0030E943A0861E0B7
:102B20008AE00E943A088AE00E94FE0D8CB580611E
:102B30008CBD8CB580648CBD8DE00E94FE0D8BE059
:102B40000E94FE0D8CB58F7D8CBD8CB5837F8CBDB6
:102B50008CB58C7F8CBD8DB581608DBD8091CD0491
:102B60000E94FE0DE0914104F091420481E090E06A
:102B70009C0100904D0402C0220F331F0A94E2F71B
:102B80002083E0913D04F0913E041082E0913F04E7
:102B9000F09140042FEC208310924E04E091430406
:102BA000F091440440819C010090490402C0220F2E
:102BB000331F0A94E2F7242B2083E0914304F09121
:102BC000440440819C0100904A0402C0220F331F3C
:102BD0000A94E2F7242B2083E0914304F09144040B
:102BE00040819C0100904B0402C0220F331F0A94C5
:102BF000E2F7242B2083E0914304F09144042081E8
:102C000000904C0402C0880F991F0A94E2F7809547
:102C10008223808360E071E082E495E00E94A9064F
:102C200080915005882309F426C2809186039091F3
:102C300087030196909387038093860364E671E08F
:102C4000CE0101960E94DE0762E475E0CE01019696
:102C50000E9417070E941814CE0101960E94620775
:102C600060E070E082E495E00E943106682F880FF2
:102C7000770B70938503609384034AE0CE018B59F0
:102C80009F4F0E94950766E771E0CE0101960E9472
:102C9000DE07BE016B597F4FCE0101960E941707D8
:102CA0000E941814CE0101960E946207CE018B5932
:102CB0009F4F0E94620765E771E0CE018D589F4FDC
:102CC0000E94DE07809184039091850389349105E9
:102CD00009F452C194F48134910509F44CC024F4F0
:102CE000C29709F09EC1EFC08634910509F4EBC08C
:102CF0008834910509F095C1E6C08335910509F442
:102D0000E2C04CF48D34910509F4DDC080359105A5
:102D100009F087C1D8C08635910509F4D4C088353B
:102D2000910509F07EC19093830380938203CE01C5
:102D30008B599F4F0E9444096DED71E0CE010196C1
:102D40000E94DE07BE016B597F4FCE0101960E94A3
:102D500017070E941814CE0101960E946207CE0147
:102D60008B599F4F0E94620765E771E08BE395E006
:102D70000E944B07FCC00E94F50820914605309147
:102D8000470543E050E062E475E0CE0101960E9401
:102D9000F407BE016F5F7F4FCE018D589F4F0E9499
:102DA0007306CE0101960E9462076CE871E0CE01C5
:102DB0008D589F4F0E945406882319F085E090E0BB
:102DC0002FC062E971E0CE018D589F4F0E945406DA
:102DD000882319F08BE090E023C067E971E0CE0111
:102DE0008D589F4F0E945406882319F084E090E08C
:102DF00017C061EA71E0CE018D589F4F0E945406C2
:102E0000882319F080E190E00BC06BEA71E0CE01FD
:102E10008D589F4F0E945406882331F081E190E045
:102E200090938D0380938C0380918403909185030C
:102E3000909383038093820380918C0390918D0300
:102E400027E0289FB001299F700D1124615B7B4F03
:102E5000CE0184599F4F0E94C207CE018B599F4FCC
:102E60000E9444096AEB71E0CE0101960E94DE07E0
:102E7000BE016B597F4FCE0101960E94170764E790
:102E800071E00E94FE06BE0164597F4F0E94170741
:102E900063ED71E00E94FE060E941814CE010196B7
:102EA0000E946207CE018B599F4F0E946207CE019C
:102EB00084599F4F0E94620765E771E08BE395E0BC
:102EC0000E944B07CBC00E94F5088091840390912B
:102ED00085039093830380938203CE018B599F4F88
:102EE0000E9444096AEB71E0CE0101960E94DE0760
:102EF000BE016B597F4FCE0101960E9417070E94B9
:102F00001814CE0101960E946207CE018B599F4F83
:102F10000E946207209146053091470543E050E04A
:102F200062E475E0CE0101960E94F4070D811E81D6
:102F3000CE0101960E9462070230110508F48EC08E
:102F4000209146053091470543E050E062E475E08A
:102F5000CE0101960E94F407BE016F5F7F4F8BE3A5
:102F600095E00E947306CE0101960E9462071092BE
:102F70008D0310928C0372C0209146053091470555
:102F800041E050E062E475E0CE0101960E94F40752
:102F900089819A81009729F00E947323AB01BC01BB
:102FA00003C040E050E0BA0140930001509301019A
:102FB0006093020170930301CE010196CE56DF4F5C
:102FC0004883C259D040CD56DF4F5883C359D040B3
:102FD000CC56DF4F6883C459D040CB56DF4F78833F
:102FE000C559D0400E9462072AE0CE56DF4F488183
:102FF000C259D040CD56DF4F5881C359D040CC562E
:10300000DF4F6881C459D040CB56DF4F7881C55916
:10301000D040CE018B599F4F0E9467076AEE71E046
:1030200007C0CE018B599F4F0E94440967E072E0B0
:10303000CE0101960E94DE07BE016B597F4FCE0183
:1030400001960E9417070E941814CE0101960E9453
:103050006207CE018B599F4F0E94620765E771E0BE
:1030600082E495E00E944B0710925005CE018D58E6
:103070009F4F0E9462078FB7F894C0907E03D09054
:103080007F03E0908003F09081038FBF8091000167
:1030900090910101A0910201B09103010097A10557
:1030A000B10509F40BC140918803509189036091E7
:1030B0008A0370918B0397018601041B150B260B65
:1030C000370B081719072A073B0708F4F7C081E0F8
:1030D00080938E03C0928803D0928903E0928A0382
:1030E000F0928B0380913F0590914005009709F481
:1030F0007BC0A7961FAE1EAEA797A9961FAE1EAEA9
:10310000A997AB961FAE1EAEAB97AC961FAEAC9711
:103110004AE0BE016F5F7F4F0E94F523BE016F5FE3
:103120007F4FCE018B599F4F0E944B076091040146
:10313000709105014AE0CE0101960E949507CE01EB
:1031400084599F4F0E9444092AE0B701A601CE018D
:1031500086589F4F0E946707BE0166587F4FCE0179
:103160008D589F4F0E94C20762E172E0CE018D58D8
:103170009F4F0E94FE06BE0164597F4F0E941707B1
:1031800069E172E00E94FE06BE016F5F7F4F0E9400
:10319000170760E272E00E94FE06BE016B597F4F86
:1031A0000E94170769E272E00E94FE066BE375E079
:1031B0000E9417070E941814CE018D589F4F0E943D
:1031C0006207CE0186589F4F0E946207CE01845944
:1031D0009F4F0E946207CE0101960E946207CE01B6
:1031E0008B599F4F0E94620780918C0390918D03B1
:1031F000009709F463C027E0289FB001299F700D54
:103200001124615B7B4FCE0101960E94C207609141
:103210000401709105014AE0CE018B599F4F0E9435
:103220009507CE0184599F4F0E9444092AE0B701B7
:10323000A601CE0186589F4F0E946707BE016658BF
:103240007F4FCE018D589F4F0E94C20762E172E00E
:10325000CE018D589F4F0E94FE06BE0164597F4FDC
:103260000E94170769E172E00E94FE06BE016B59D9
:103270007F4F0E9417076FE272E00E94FE06BE01B8
:103280006F5F7F4F0E9417070E941814CE018D5860
:103290009F4F0E946207CE0186589F4F0E9462078F
:1032A000CE0184599F4F0E946207CE018B599F4FD8
:1032B0000E946207CE0101960E94620780918E03F0
:1032C000882311F40C94282280913F0590914005A9
:1032D000892B09F485C6E0903B05F0903C056CE233
:1032E00070E0C7010E941F26009721F08C010E1983
:1032F0001F0902C00FEF1FEF80918203909183039B
:103300008D349105E1F06CF48634910509F406C51D
:103310008834910509F40CC2C29711F00C9426224E
:1033200022C48335910509F4BCC38635910509F49F
:10333000A2C28035910511F00C94262233C360910E
:10334000040170910501072E000C880B990B0E9457
:10335000512720E030E048EC52E40E94A7262B01E0
:103360003C016BE375E0CE0184599F4F0E94C20778
:1033700020E030E048E453E4C301B2010E94E227B8
:103380009B01AC0160E070E080E895E40E94A72614
:103390000E941927CF57DF4F79836883C158D040E7
:1033A0009E012F5F3F4F1901643671051CF14AE001
:1033B000CE018B599F4F0E9495076BE372E0C101CC
:1033C0000E94DE07BE016B597F4FC1010E941707A3
:1033D0000E941814C1010E946207CE018B599F4FB1
:1033E0000E94620783E690E0CF57DF4F998388837E
:1033F000C158D040F10120E2CF0182199309CF5783
:10340000DF4FA881B981C158D0408A179B0714F4B7
:103410002193F2CF1092E1041092E2041092E3049F
:103420001092E40480E098E0A0E0B0E08093E5042E
:103430009093E604A093E704B093E80420E030E022
:1034400040E856E4C301B2010E94E2270E94192716
:103450006093DD047093DE048093DF049093E004B6
:10346000CB57DF4F19821882C558D040E12CF12C80
:10347000CF57DF4FE881F981C158D0403197C0570D
:10348000DF4FF983E883C059D040CF57DF4F088121
:103490001981C158D0400C0F1D1FC657DF4F19832B
:1034A0000883CA58D040E2968EAD9FADE297CF57C1
:1034B000DF4F08811981C158D040800F911FCB5731
:1034C000DF4F28813981C558D0402817390708F0C7
:1034D000E4C28981893439F0873551F488EE93E06C
:1034E000A0E0B0E009C088EC90E0A0E0B0E004C04B
:1034F00082E593E0A0E0B0E0C957DF4F998388836D
:10350000C758D040C957DF4F48815981C758D0406C
:10351000E416F5060CF0C5C08FB7F89420917E0331
:1035200030917F034091800350918103C457DF4F56
:10353000288339834A835B83CC58D0408FBF0027D0
:1035400011270E191F096101C757DF4F1882C9588B
:10355000D040C60182199309CF57DF4FE881F98126
:10356000C158D0408E179F07B4F5D6018D916D01DB
:10357000803231F0B1E0C757DF4FB883C958D0402F
:103580004801110FAA08BB0800E010E09801B5013E
:10359000A4010E944E0ADC01CB01880D991DAA1DD1
:1035A000BB1D8C01BC01990F880B990B0E94512700
:1035B0004B015C01A301920160E070E080E895E4BA
:1035C0000E94A7269B01AC01C501B4010E94DD2722
:1035D00018160CF0BECFC757DF4FF881C958D0403E
:1035E000F11106C0C957DF4FE880F980C758D040B5
:1035F000B701FF0C880B990B0E9451276B017C01CE
:10360000A301920160E070E088EC92E40E94A7269A
:103610009B01AC01C701B6010E943B260E941927FD
:103620007B012FB7F89480917E0390917F03A09146
:103630008003B09181032FBFC457DF4F08811981E8
:103640002A813B81CC58D040801B910BA20BB30B3D
:1036500082339105A105B1050CF054CFF2E38F2E12
:10366000912CA12CB12C881A990AAA0ABB0A0E9493
:1036700086086B0181149104A104B10409F442CFBE
:103680000E9486086C197D09683E734098F321E01A
:10369000821A9108A108B10838E1C31A3CEFD30A95
:1036A000E9CFE41AF50ADE011296F101CF01821981
:1036B0009309C057DF4F08811981C059D040801746
:1036C00091071CF48D918193F1CFE2968EAD9FAD61
:1036D000E297CB57DF4F28813981C558D040281752
:1036E000390780F4B901CE0184599F4F0E944206E8
:1036F000DC018C91C657DF4FE881F981CA58D04070
:10370000808308C080E2C657DF4FA881B981CA58BC
:10371000D0408C93CB57DF4FE881F981C558D0401A
:103720003196CB57DF4FF983E883C558D040BBCEE5
:103730006BE375E0CE018D589F4F0E94C207BE011A
:103740006D587F4FCE0184599F4F0E94C207BE0122
:1037500064597F4FCE0101960E94C207CE010196A7
:103760000E94A00B6B017C01CE0101960E946207B2
:1037700080E090E2A0E0B0E08093DD049093DE046E
:10378000A093DF04B093E00480E094E0A0E0B0E018
:103790008093E1049093E204A093E304B093E404E3
:1037A0008093E5049093E604A093E704B093E804C3
:1037B0008601D7FE02C00F5F1F4F15950795119523
:1037C000019511095DE2E52EF12C68E6C62EDD2497
:1037D000D3946624639474E2772EE0ED8E2EE7E0B6
:1037E0009E2EA12CB12CC701B6010E948328BC01DA
:1037F000CE0101960E94390C60921205FE013196AD
:10380000A3E1B5E0872D01900D928A95E1F78092B2
:10381000370590923805A0923905B0923A05BE015D
:1038200064597F4FCE018B599F4F0E94C20721E000
:1038300030E04CE05EEFB801CE018B599F4F0E9403
:10384000D70BCE018B599F4F0E94620798E0E90E7B
:10385000F11CADEFEA16A2E0FA0629F61092120565
:10386000CE0184599F4F0E946207CE018D589F4F11
:103870000E946207EBC56BE375E0CE018D589F4F48
:103880000E94C207BE016D587F4FCE0184599F4FE1
:103890000E94C207BE0164597F4FCE0101960E946B
:1038A000C207CE0101960E94A00B6B017C01CE01E4
:1038B00001960E94620780E090E2A0E0B0E0809371
:1038C000DD049093DE04A093DF04B093E00400E0F5
:1038D00014E020E030E00093E1041093E204209330
:1038E000E3043093E4040093E5041093E60420938A
:1038F000E7043093E8048601D7FE02C00F5F1F4F34
:10390000159507951195019511098DE2E82EF12C79
:1039100098E6C92EDD24D3946624639424E2722EA3
:1039200030ED832E37E0932EA12CB12CC701B601C8
:103930000E948328BC01CE0101960E94720C609205
:103940001205FE013196A3E1B5E0872D01900D929D
:103950008A95E1F78092370590923805A092390553
:10396000B0923A05BE0164597F4FCE018B599F4FEB
:103970000E94C20721E030E04CE05EEFB801CE01CA
:103980008B599F4F0E94D70BCE018B599F4F0E949E
:10399000620728E0E20EF11C3DEFE31632E0F30689
:1039A00029F65CCF6BE375E0CE0184599F4F0E94EE
:1039B000C207BE0164597F4FCE018B599F4F0E94B1
:1039C000C207BE016B597F4FCE0101960E94C2070C
:1039D000CE0101960E94A00B6B017C01CE010196E5
:1039E0000E94620780E098E0A0E0B0E08093E104EC
:1039F0009093E204A093E304B093E4048093E5047D
:103A00009093E604A093E704B093E8048601D7FE00
:103A100002C00F5F1F4F159507951195019511096C
:103A2000A6E4EA2EF12C812C912C54012AE037EDEA
:103A300043E25CE3C501B4010E943B264B015C01FB
:103A400020E030E040E856E40E94E2270E94192777
:103A50006093DD047093DE048093DF049093E004B0
:103A6000BE016B597F4FCE0101960E94C20721E033
:103A700030E040E050E0B801CE0101960E94D70B43
:103A8000CE0101960E94620741E0E41AF10871F646
:103A9000CE018B599F4F0E946207CE0184599F4FE0
:103AA000E7CE6BE375E0CE018B599F4F0E94C207B2
:103AB000BE016B597F4FCE0101960E94C207CE0115
:103AC00001960E94A00B6B017C01CE0101960E9421
:103AD000620780E090E1A0E0B0E08093DD04909385
:103AE000DE04A093DF04B093E0048601D7FE02C099
:103AF0000F5F1F4F1595079511950195110973E6F5
:103B0000E72EF12C812CE8E09E2EA12CB12C809286
:103B1000E1049092E204A092E304B092E404809263
:103B2000E5049092E604A092E704B092E804BE0196
:103B30006B597F4FCE0101960E94C20721E030E011
:103B40004CE05EEFB801CE0101960E94D70BCE018A
:103B500001960E94620751E0E51AF108C1F6CE0114
:103B60008B599F4F85CE101611060CF06FC498012B
:103B700040E050E06BE375E0CE0186589F4F0E9415
:103B8000F40720913F0530914005A8014F5F5F4F3A
:103B90006BE375E0CE018D589F4F0E94F407BE0184
:103BA0006D587F4FCE0184599F4F0E94C207BE01BE
:103BB00066587F4FCE018B599F4F0E94C207BE01AE
:103BC0006B597F4FCE0101960E94C207CE0101962C
:103BD0000E94A00B6B017C01CE0101960E9462073E
:103BE000BE0164597F4FCE0101960E94C207CE01EB
:103BF00001960E94A00B4B015C01CE0101960E9430
:103C0000620780E098E0A0E0B0E08093DD0490934C
:103C1000DE04A093DF04B093E004C601D7FC019654
:103C200095958795EE24FF24E81AF90A840197FEFA
:103C300002C00F5F1F4F159507951195019511094A
:103C400023E6C22ED12C812C38E0932EA12CB12C4E
:103C500048E5442E4AE0542E612C712C8092E104F8
:103C60009092E204A092E304B092E4044092E5044E
:103C70005092E6046092E7047092E804BE016B592A
:103C80007F4FCE0101960E94C20721E030E04CE058
:103C90005EEFB701CE0101960E94D70BCE010196CF
:103CA0000E9462078092E1049092E204A092E304F1
:103CB000B092E4048092E5049092E604A092E704B6
:103CC000B092E804BE0164597F4FCE0101960E9474
:103CD000C20721E030E04CE05EEFB801CE01019672
:103CE0000E94D70BCE0101960E94620781E0C81A9C
:103CF000D10809F0B3CFCE018B599F4F0E946207C4
:103D0000CE0184599F4F0E946207CE018D589F4F6C
:103D10000E946207CE0186589F4FAACD6BE375E0E3
:103D2000CE018D589F4F0E94C207BE016D587F4F34
:103D3000CE0184599F4F0E94C207BE016D587F4F2C
:103D4000CE018B599F4F0E94C207E996EEACFFACA3
:103D5000E997C12CD12C01E0E01AF108F7FC15C05D
:103D6000B601CE0184599F4F0E9442068C01B701D3
:103D7000CE018B599F4F0E944206DC018C91F801C5
:103D80008083FFEFCF1ADF0AE6CFBE016B597F4F6A
:103D9000CE0101960E94C207CE0101960E94A00B9F
:103DA0006B017C01CE0101960E946207B6010D2CC9
:103DB000000C880B990B0E9451279B01AC0160E01D
:103DC00070E88EE395E40E94A72620E030E040E80A
:103DD00056E40E94E2270E9419276093DD04709345
:103DE000DE048093DF049093E00480E098E0A0E09C
:103DF000B0E08093E1049093E204A093E304B093D5
:103E0000E4048093E5049093E604A093E704B09360
:103E1000E8048601D7FE02C00F5F1F4F1595079576
:103E200011950195110983E2C82ED12CBE01645968
:103E30007F4FCE0101960E94C20724E030E040E0AF
:103E400050E0B801CE0101960E94D70BCE01019639
:103E50000E946207E12CF12CE9968EAD9FADE997A7
:103E6000E816F906E0F5B701CE018B599F4F0E9485
:103E70004206DC01BC90B701CE0184599F4F0E94DD
:103E80004206FC0180818B1554F4B701CE018459A0
:103E90009F4F0E944206FC0190819F5F9083B70173
:103EA000CE018B599F4F0E944206DC01BC90B701A6
:103EB000CE0184599F4F0E944206FC018081B816B2
:103EC00054F4B701CE0184599F4F0E944206FC0171
:103ED000908191509083FFEFEF1AFF0ABDCF21E050
:103EE000C21AD10809F0A2CFC12CD12C76014424EA
:103EF0004A94AFE05A2E612C712CC0920205D092E8
:103F00000305E0920405F092050510920605109253
:103F10000705109208051092090588248A94FFE08D
:103F20009F2EA12CB12CD301C2018C199D09AE0981
:103F3000BF0980930A0590930B05A0930C05B093DD
:103F40000D0540920E0550920F056092100570927B
:103F50001105BE016B597F4FCE0101960E94C20729
:103F600021E030E040E050E0B801CE0101960E942F
:103F7000D70BCE0101960E94620738E2C30ED11C16
:103F8000E11CF11C40E6C41649E0D406E104F1044A
:103F900009F0B3CF109202051092030510920405A8
:103FA000109205051092060510920705109208055B
:103FB0001092090580920A0590920B05A0920C05BB
:103FC000B0920D0580920E0590920F05A0921005FB
:103FD000B0921105CE018B599F4F0E94620740CCD1
:103FE00080918C0390918D038530910509F4E2C096
:103FF0001CF4049781F02AC28031910509F463C151
:10400000419709F023C204E610E0C12C88E0D82EC5
:10401000E12CF12CC3C16EE672E0CE0184599F4FB2
:104020000E94DE07BE0164597F4FCE0101960E94B7
:10403000C207CE0101960E94A00B6B017C01CE014C
:1040400001960E94620780E090E2A0E0B0E08093D9
:10405000DD049093DE04A093DF04B093E004C60176
:10406000D7FC019695958795EE24FF24E81AF90A66
:10407000C12CD12C01E078E6872E9924939414E288
:10408000E8EA4E2E55245394612C712C00931205AE
:10409000C601B4010E9483285C01BC01CE010196D7
:1040A0000E94720CFE013196A3E1B5E0812F0190D0
:1040B0000D928A95E1F780EA9FE0A0E0B0E080935E
:1040C000370590933805A0933905B0933A0520E061
:1040D00034E040E050E02093E1043093E204409368
:1040E000E3045093E40488E596E0A0E0B0E0809318
:1040F000E5049093E604A093E704B093E804BE01BE
:1041000064597F4FCE018B599F4F0E94C20721E017
:1041100030E04CE05EEFB701CE018B599F4F0E941B
:10412000D70BCE018B599F4F0E946207B501CE017C
:1041300001960E94390CFE013196A3E1B5E0812F72
:1041400001900D928A95E1F720E034E040E050E0E4
:104150002093E1043093E2044093E3045093E40499
:104160004092E5045092E6046092E7047092E804FD
:104170006CE971E0CE018B599F4F0E94DE0721E070
:1041800030E04CE05EEFB701CE018B599F4F0E94AB
:10419000D70BCE018B599F4F0E94620738E0C30EA8
:1041A000D11C40EDC41642E0D40609F06FCF109246
:1041B000120573CC412C512C40E8642E4FE3742E31
:1041C000812C50E1952EA12CB12C80E090E1A0E053
:1041D000B0E0CF57DF4F88839983AA83BB83C15850
:1041E000D04020E030E040E856E4C301B2010E9434
:1041F000E2270E9419276093DD047093DE04809308
:10420000DF049093E004CF57DF4F088119812A81A2
:104210003B81C158D0400093E1041093E204209305
:10422000E3043093E4048092E5049092E604A092C3
:10423000E704B092E804E12CF12C870120E030E0A3
:10424000A90165E670E08CED90E00E94000ACF576E
:10425000DF4F688179818A819B81C158D0400E945B
:1042600051276B017C0120E030E040EA51E4C301BA
:10427000B2010E94E2279B01AC01C701B6010E9476
:104280003A260E941927CF57DF4F688379838A83A4
:104290009B83C158D04014E1811A9108A108B1084C
:1042A0002AE037ED43E25CE3C301B2010E943B2602
:1042B0002B013C0120EF821621E09206A104B104FB
:1042C00009F08FCFC3C080E098E0A0E0B0E0809319
:1042D000E1049093E204A093E304B093E404809398
:1042E000E5049093E604A093E704B093E80439E36F
:1042F000F32E98E2C92ED12C2AE0422E27ED522E21
:1043000023E2622E2CE3722E812C912C540180E04A
:1043100090E4A0E0B0E08093DD049093DE04A093ED
:10432000DF04B093E0040E94960920E030E040E80A
:1043300056E4C501B4010E94E2270E941927609348
:10434000DD047093DE048093DF049093E0040EE2BA
:104350001EEF2FEF3FEF45EE5EEF6FEF7FEF8F2DFC
:104360000E944E0AA3019201C501B4010E943B269E
:104370004B015C012FE632E143E05BE3C301B20194
:104380000E943B262B013C0191E0C91AD10809F09B
:10439000BECFFA94A0E3FA12ACCF58C020E030E4CC
:1043A00040E050E02093DD043093DE044093DF04CE
:1043B0005093E004C092E104D092E204E092E3045E
:1043C000F092E404C092E504D092E604E092E7049F
:1043D000F092E80421E038EF4FEF5FEF61E078EF13
:1043E0008FEF9FEF0E94A2100E941D0E21E038EF78
:1043F0004FEF5FEF6FEF77E080E090E00E94A21058
:104400002FEF37E040E050E06FEF77E080E090E0A2
:104410000E94A2102FEF37E040E050E061E078EF1B
:104420008FEF9FEF0E94A21021E038EF4FEF5FEF78
:1044300061E078EF8FEF9FEF0E94A2100E94370E8D
:104440000E9496090150110909F0A8CF10928E031D
:104450000E945F140C941016CF93DF93CDECD4E040
:104460002797CE010E94620784E0CF34D807C1F7B6
:104470008BE395E00E94620782E495E00E94620768
:1044800089E495E0DF91CF910C946207CF92DF929F
:10449000EF92FF92EDE2F4E01382128288EEC82ED2
:1044A00083E0D82EE12CF12CC482D582E682F782FB
:1044B00088E591E09183808389EE93E095878487F6
:1044C00085EA93E09787868785EC90E0918B808BD7
:1044D00084EC90E0938B828B80EC90E0958B848BC6
:1044E00081EC90E0978B868B82EC90E0918F808FAF
:1044F00086EC90E0938F828F84E0848F83E0858FB9
:1045000087E0868F85E0878F81E080A36CEE72E084
:1045100089E495E00E94DE0765E771E082E495E0BA
:104520000E94DE0765E771E08BE395E00E94DE07FD
:1045300084E2E0E3F1E0A3E1B5E001900D928A9519
:10454000E1F7EDECF4E085E090E09183808380E09A
:1045500091E0A0E0B0E082839383A483B5831682C8
:10456000178210861186128613861486158615A664
:1045700016A617A610AA11AA12AA13AA14AA178679
:10458000168681E090E0A0E0B0E0808B918BA28B5A
:10459000B38B148A158A168A178A108E118E128E82
:1045A000138E148E158E168E178E8FEF9FEFDC01F3
:1045B00080A391A3A2A3B3A314A215AA16AA17AA13
:1045C00010AE11AE12AE13AE14AE8FEF9FE0A0E0AE
:1045D000B0E080930A0590930B05A0930C05B0936F
:1045E0000D0580930E0590930F05A0931005B093D1
:1045F000110510921205C0923705D0923805E0924D
:104600003905F0923A0565E073E08FE494E00E948A
:10461000DE0769E073E086E594E00E94DE0766E16C
:1046200073E08DE594E00E94DE076FE173E084E6BD
:1046300094E00E94DE0767E971E08BE694E00E9457
:10464000DE076CE871E082E794E00E94DE0767E233
:1046500073E089E794E00E94DE076CE273E080E893
:1046600094E00E94DE0763E373E087E894E00E9431
:10467000DE0763E473E08EE894E00E94DE076FE4F7
:1046800073E085E994E00E94DE0762E971E08CE95D
:1046900094E00E94DE076AE573E083EA94E00E94FA
:1046A000DE0760E673E08AEA94E00E94DE076AE6CD
:1046B00073E081EB94E00E94DE0762E773E088EB31
:1046C00094E00E94DE0761EA71E08FEB94E00E94C3
:1046D000DE076BEA71E086EC94E0FF90EF90DF90EC
:1046E000CF900C94DE071F93FC0199278827BC010B
:1046F000E89411911032E9F3193010F01E30C8F32C
:104700001B3251F01D3249F4689406C00E94B32355
:10471000610F711D811D911D119110531A30B0F35D
:104720003EF490958095709561957F4F8F4F9F4F88
:104730001F910895F8940C944B294532510520F4AB
:10474000423010F00C94A823FB011082CB01089595
:10475000BB274A3031F4992322F4BDE2909581952C
:104760009F4F0C94F623592F482F372F262F660F73
:10477000771F881F991F660F771F881F991F620F69
:10478000731F841F951F660F771F881F991F089539
:104790002532310520F4223010F00C94D323FA0195
:1047A0001082CA010895BB27FA01A62F621771056E
:1047B00081059105330B30FB66F0AA27660F771F42
:1047C000881F991FAA1FA21710F0A21B63953850CB
:1047D000A9F7A05DAA3308F0A95DA19336F7B1113E
:1047E000B1931082CA010C940F24BB27FB015527FB
:1047F000AA27880F991FAA1FA41710F0A41B83953E
:104800005051B9F7A05DAA3308F0A95DA1930097B4
:1048100079F7B111B1931192CB010C940F24DC0103
:10482000FC01672F71917723E1F7329704C07C91E7
:104830006D9370836291AE17BF07C8F30895CF934D
:10484000DF938230910510F482E090E0E09153050F
:10485000F091540520E030E0C0E0D0E0309711F155
:104860004081518148175907C0F04817590761F432
:1048700082819381209719F09B838A832BC0909328
:1048800054058093530526C02115310519F04217B0
:10489000530718F49A01BE01DF01EF010280F38192
:1048A000E02DDCCF2115310509F1281B390B24300F
:1048B000310590F412968D919C91139761157105B5
:1048C00021F0FB019383828304C09093540580936D
:1048D0005305FD01329644C0FD01E20FF31F8193A1
:1048E0009193225031092D933C933AC02091510568
:1048F00030915205232B41F4209108013091090198
:104900003093520520935105209106013091070103
:104910002115310541F42DB73EB740910A01509160
:104920000B01241B350BE0915105F0915205E21764
:10493000F307A0F42E1B3F0B2817390778F0AC01C2
:104940004E5F5F4F2417350748F04E0F5F1F50939F
:104950005205409351058193919302C0E0E0F0E04D
:10496000CF01DF91CF9108950F931F93CF93DF93E2
:10497000009709F48CC0FC013297138212820091D7
:104980005305109154050115110581F420813181E1
:10499000820F931F20915105309152052817390736
:1049A00079F5F0935205E093510571C0D80140E0CC
:1049B00050E0AE17BF0750F412962D913C9113971B
:1049C000AD012115310509F1D901F3CF9D01DA01BE
:1049D0003383228360817181860F971F821793072B
:1049E00069F4EC0128813981260F371F2E5F3F4F74
:1049F000318320838A819B8193838283452B29F491
:104A0000F0935405E093530542C01396FC93EE9344
:104A10001297ED01499159919E01240F351FE2171C
:104A2000F30771F480819181840F951F029611968E
:104A30009C938E938281938113969C938E9312976D
:104A4000E0E0F0E0D80112968D919C9113970097C9
:104A500019F0F8018C01F6CF8D919C9198012E5F91
:104A60003F4F820F931F2091510530915205281717
:104A7000390769F4309729F41092540510925305C0
:104A800002C0138212821093520500935105DF91E8
:104A9000CF911F910F910895A0E0B0E0E2E5F5E21B
:104AA0000C94D328EC01009721F4CB010E941F2421
:104AB000B8C0FC01E60FF71F9C0122503109E21734
:104AC000F30708F4ACC0D9010D911C91119706179A
:104AD0001707B0F00530110508F49FC0C80104970E
:104AE0008617970708F499C002501109061B170B87
:104AF000019311936D937C93CF010E94B4248DC0D8
:104B00005B01A01AB10A4C01800E911EA0915305C1
:104B1000B091540540E050E0E12CF12C109709F4DD
:104B20004AC0A815B905D1F56D907C901197630125
:104B300082E0C80ED11CCA14DB0480F1A3014A191B
:104B40005B096A0182E0C80ED11C1296BC901297D4
:104B50001396AC91B5E0CB16D10440F0B282A3839A
:104B600051834083D9016D937C930AC00E5F1F4F20
:104B7000C301800F911FF90191838083EB2DFA2FE0
:104B8000E114F10431F0D7011396FC93EE931297E0
:104B900044C0F0935405E09353053FC08D919C9120
:104BA00011974817590708F4AC017D0112960D9032
:104BB000BC91A02DB3CF80915105909152058815DD
:104BC0009905E1F446175707C8F4809106019091C2
:104BD0000701009741F48DB79EB740910A015091AB
:104BE0000B01841B950BE817F907C8F4F0935205E5
:104BF000E0935105F901718360830FC0CB010E94DE
:104C00001F247C01009759F0A801BE010E941626BE
:104C1000CE010E94B424C70104C0CE0102C080E0CE
:104C200090E0CDB7DEB7EEE00C94EF28FB01DC019D
:104C300002C001900D9241505040D8F70895FC01F8
:104C40008191861721F08823D9F799270895319704
:104C5000CF010895FB01DC018D91019080190110B5
:104C6000D9F3990B0895FB01DC0101900D9200200E
:104C7000E1F708955058BB27AA270E9452260C94AA
:104C8000A3270E94952738F00E949C2720F039F432
:104C90009F3F19F426F40C9492270EF4E095E7FB5D
:104CA0000C948C27E92F0E94B42758F3BA17620797
:104CB00073078407950720F079F4A6F50C94D6279E
:104CC0000EF4E0950B2EBA2FA02D0B01B901900127
:104CD0000C01CA01A0011124FF27591B99F0593F6B
:104CE00050F4503E68F11A16F040A22F232F342FB3
:104CF0004427585FF3CF469537952795A795F04001
:104D00005395C9F77EF41F16BA0B620B730B840B15
:104D1000BAF09150A1F0FF0FBB1F661F771F881FCD
:104D2000C2F70EC0BA0F621F731F841F48F4879525
:104D300077956795B795F7959E3F08F0B0CF939517
:104D4000880F08F09927EE0F9795879508950E9490
:104D5000BB260C94A3270E949C2758F00E949527FD
:104D600040F029F45F3F29F00C948C2751110C94EA
:104D7000D7270C9492270E94B42768F39923B1F3A4
:104D8000552391F3951B550BBB27AA276217730771
:104D9000840738F09F5F5F4F220F331F441FAA1F05
:104DA000A9F335D00E2E3AF0E0E832D091505040C1
:104DB000E695001CCAF72BD0FE2F29D0660F771F6F
:104DC000881FBB1F261737074807AB07B0E809F055
:104DD000BB0B802DBF01FF2793585F4F3AF09E3FDA
:104DE000510578F00C948C270C94D7275F3FE4F39F
:104DF000983ED4F3869577956795B795F7959F5F1D
:104E0000C9F7880F911D9695879597F90895E1E068
:104E1000660F771F881FBB1F621773078407BA07C7
:104E200020F0621B730B840BBA0BEE1F88F7E09522
:104E300008950E9420276894B1110C94D7270895F3
:104E40000E94BC2788F09F5798F0B92F9927B75137
:104E5000B0F0E1F0660F771F881F991F1AF0BA951E
:104E6000C9F714C0B13091F00E94D627B1E008957F
:104E70000C94D627672F782F8827B85F39F0B93F71
:104E8000CCF3869577956795B395D9F73EF49095D1
:104E90008095709561957F4F8F4F9F4F0895E8944F
:104EA00009C097FB3EF490958095709561957F4F72
:104EB0008F4F9F4F9923A9F0F92F96E9BB27939520
:104EC000F695879577956795B795F111F8CFFAF430
:104ED000BB0F11F460FF1BC06F5F7F4F8F4F9F4F61
:104EE00016C0882311F096E911C0772321F09EE8BF
:104EF000872F762F05C0662371F096E8862F70E025
:104F000060E02AF09A95660F771F881FDAF7880FFE
:104F10009695879597F9089597F99F6780E870E0CF
:104F200060E008959FEF80EC089500240A9416161F
:104F3000170618060906089500240A941216130687
:104F4000140605060895092E0394000C11F4882315
:104F500052F0BB0F40F4BF2B11F460FF04C06F5F31
:104F60007F4F8F4F9F4F089557FD9058440F551F07
:104F700059F05F3F71F04795880F97FB991F61F0DB
:104F80009F3F79F087950895121613061406551F52
:104F9000F2CF4695F1DF08C0161617061806991FBE
:104FA000F1CF86957105610508940895E894BB27B3
:104FB00066277727CB0197F908950E944F2808F4B8
:104FC0008FEF08950E94F5270C94A3270E94952740
:104FD00038F00E949C2720F0952311F00C948C2728
:104FE0000C94922711240C94D7270E94B42770F3B5
:104FF000959FC1F3950F50E0551F629FF001729F7E
:10500000BB27F00DB11D639FAA27F00DB11DAA1F8C
:10501000649F6627B00DA11D661F829F2227B00DD9
:10502000A11D621F739FB00DA11D621F839FA00D64
:10503000611D221F749F3327A00D611D231F849FB4
:10504000600D211D822F762F6A2F11249F5750400B
:105050009AF0F1F088234AF0EE0FFF1FBB1F661F86
:10506000771F881F91505040A9F79E3F510580F04F
:105070000C948C270C94D7275F3FE4F3983ED4F32D
:10508000869577956795B795F795E7959F5FC1F7F3
:10509000FE2B880F911D9695879597F90895990F86
:1050A0000008550FAA0BE0E8FEEF16161706E807F2
:1050B000F907C0F012161306E407F50798F0621B13
:1050C000730B840B950B39F40A2661F0232B242BE8
:1050D000252B21F408950A2609F4A140A6958FEF07
:1050E000811D811D0895DB018F939F930E94BC2831
:1050F000BF91AF91A29F800D911DA39F900DB29F74
:10510000900D1124089597FB072E16F4009407D0F4
:1051100077FD09D00E94062907FC05D03EF4909542
:1051200081959F4F0895709561957F4F0895052E45
:1051300097FB1EF400940E94AE2857FD07D00E94F2
:105140001A2907FC03D04EF40C94AE2850954095D4
:10515000309521953F4F4F4F5F4F08959095809523
:10516000709561957F4F8F4F9F4F0895EE0FFF1FF2
:105170000590F491E02D09940E943C29A59F900D83
:10518000B49F900DA49F800D911D11240895B7FF29
:105190000C94BC280E94BC28821B930B08952F926C
:1051A0003F924F925F926F927F928F929F92AF92B7
:1051B000BF92CF92DF92EF92FF920F931F93CF9304
:1051C000DF93CDB7DEB7CA1BDB0B0FB6F894DEBF9B
:1051D0000FBECDBF09942A88398848885F846E84C1
:1051E0007D848C849B84AA84B984C884DF80EE800B
:1051F000FD800C811B81AA81B981CE0FD11D0FB614
:10520000F894DEBF0FBECDBFED010895AA1BBB1BF6
:1052100051E107C0AA1FBB1FA617B70710F0A61BB6
:10522000B70B881F991F5A95A9F780959095BC01D7
:10523000CD010895A1E21A2EAA1BBB1BFD010DC0D2
:10524000AA1FBB1FEE1FFF1FA217B307E407F50736
:1052500020F0A21BB30BE40BF50B661F771F881F12
:10526000991F1A9469F760957095809590959B01A8
:10527000AC01BD01CF010895A29FB001B39FC00151
:10528000A39F700D811D1124911DB29F700D811D72
:105290001124911D089515E0CCE3D5E004C0FE0172
:1052A0000E94B6282196CD33D107C9F7F894FFCFD5
:1052B000B80B000019000000550520000040000058
:1052C000000000000000000000000000004000009E
:1052D000000000000000000000000000004000008E
:1052E000004000000000000000000000000000007E
:1052F000004000000000000000000000000000006E
:105300000040000000000000650D6705EE0DB20DC5
:10531000D20DA70D444542554720596F752073653E
:105320006E74203A20004445425547206C617365F5
:1053300072436F6D6D616E64203D2000504C414E94
:10534000450042494B45004C4153455253484F5745
:1053500000434F554E54444F574E00434952434C1F
:1053600045494E5351554152450044454255472009
:105370004C61736572206D6F646520736574207471
:105380006F20002073656C6563746564004445425A
:105390005547204C617365722000444542554720B3
:1053A0004C6173657220696E74657276616C2073EE
:1053B000657420746F20004445425547204C61734A
:1053C0006572204D6F646520002053697A65200066
:1053D000204C656E6774682000204D7367200020A4
:1053E000416E696D6174696F6E2000444542554796
:1053F00020696E20647261775363726F6C6C6572A2
:10540000202D206D617843686172206C696D69742C
:10541000656420746F2039392077617320004C4116
:10542000534552004445425547206C6173657253A1
:10543000697A65203D2000416E696D6174696F6E07
:10544000004D6172717565650050726573656E74AB
:1054500073005374617469630032204C696E650097
:10546000466C617368696E6700486F72697A6F6E27
:1054700074616C205370696E005665727469636163
:105480006C205370696E004F666600496E746572D9
:1054900076616C00556E6B6E6F776E004348454CBD
:1054A00054454E48414D202D20313743202D205763
:1054B000494E4459004F4646004C455454455245C8
:1054C00046464543540050524553454E54530041BF
:1054D000524455494E4F004C4F474F0057454C4F93
:1054E00056450041524455494E4F3244524F544163
:1054F0005445005748415441424F5554334400529B
:105500004F544154454355424500474C4F42450096
:1055100041524455494E4F3344004F424A4543544B
:0E55200053004A554D50494E475445585400CB
:00000001FF
