:100000000C943D050C9465050C9465050C946505F0
:100010000C9465050C9465050C9465050C946505B8
:100020000C9465050C9465050C9465050C946505A8
:100030000C9465050C9465050C9465050C94650598
:100040000C941B080C9465050C945E140C942314FA
:100050000C9465050C9465050C9465050C94650578
:100060000C9465050C9465057F0A950A950A950A16
:10007000950A950A950A950A950A950A950A950A88
:10008000950A8D0A950A390A400A470A4E0A550A06
:100090005C0A630A6A0A710A780A950A950A950A3F
:1000A000950A950A860A950A6F0976097D098409D9
:1000B0008B0992099909A009AD09BA09C109C809B2
:1000C000CF09D609DD09E409EB09F209F909000AAB
:1000D000070A0E0A950A240A2B0A320A7C02D70064
:1000E0007082C7003082CE00EB81D700EB81D80050
:1000F000EA81D800EF81DB00FC81DF007C82D70041
:10010000B303260098830E008683070007830C0044
:10011000C4811800B18111009E810C00758103001B
:1001200051810000FF800500C5801900E1801C009E
:10013000ED802700EE802B00EF802E00E68043004C
:10014000CC804F00B1804F00A18040009E803600DF
:10015000A2802D009C80330095803F00B280650016
:100160000F818E003F81BD007281CB00B181C5003F
:10017000FC81BB003882B4006382B2008382D90064
:10018000C3824B01CF824B01D8824A01DF824801F2
:10019000E8824501CF82D2007283C2006E83BD0027
:1001A0006783B9003483B900C782BD00BA828F006B
:1001B000A5827C0083825F006E82510050824100E4
:1001C000B3832600E8008500D6807E00BC807300E3
:1001D000AF806A009D805C00598083000280B3007C
:1001E0000080B5000080B6001180BD004580C200CF
:1001F000E8808500DE002B00D4802000B4801C0045
:10020000A7801F00A2802700AB803C00C580420071
:10021000D8803B00DE802B00DE802B00EA017600D8
:10022000DF81A500B681AB00C9817100EA8176004B
:10023000BB016F00AA81AB00A4816B00BB816F0082
:10024000A001AD007B81B7005B81BB005081BA008B
:100250004781B9003381AB0019818D002E818C005C
:100260004E81880072817E0098816F00A081AD0070
:100270000040FD3FF63FE93FD83FC13FA63F853FE5
:10028000603F363F073FD23E993E5C3E193ED13D2E
:10029000853D343DDE3C833C233CBF3B563BE93A45
:1002A000773A003A853906398238F9376C37DB36C8
:1002B0004636AC350E356C34C6331C336E32BC3129
:1002C00006314D308F2FCE2E092E412D752CA52BAA
:1002D000D32AFC2923294628662784269E25B5246F
:1002E000C923DB22EA21F620FF1F071F0B1E0E1D6C
:1002F0000E1C0C1B071A0119F917EF16E315D6147B
:10030000C613B612A41190107B0F650E4E0D360C5D
:100310001D0B030AE808CC07B006930576045903C1
:100320003B021D0100001D015F00EE802F001D81BA
:1003300000004D812F001D815F000000F902008048
:1003400029032F8088035F80B803BE80E8037C8187
:10035000E803DC81B8030B8288033B8229033B82DC
:10036000CA020B826B02DC813B021D81DC011D8114
:100370004D011D015F00EE802F001D8100004D81A9
:100380002F001D815F002F00E8032F804D012F00FB
:100390005F0000802F002F8000005F802F002F80E3
:1003A0005F006B029A023B820B02DC81AC014D8143
:1003B0007C011D817C018E80AC012F800B020080AE
:1003C0009A020080CA022F8059038E80B8031D81D3
:1003D000E8034D81E803DC81B8033B8259036B825B
:1003E0009A026B82AC013B82BE00DC812F004D8102
:1003F0000000EE8000005F802F002F808E00EE0056
:10040000E8035F80B8032F8059032F80F9025F80D3
:100410009A02BE806B027C813B020B820B026B82D4
:10042000AC019A824D019A82BE006B825F003B82D2
:100430002F00AC810000EE8000005F802F002F8035
:100440005F000080BE0000804D012F80AC018E80D7
:100450000B021D813B02DC816B023B829A026B82A4
:10046000F9026B8259033B82B803AC81E803EE804A
:10047000E8039A02E803BE8000000000E8039A82C5
:10048000E8033B0259030B82B8037C81E8031D811A
:10049000E8038E80B8032F80290300803B02008090
:1004A0004D012F808E008E802F001D8100004D8118
:1004B0000000DC812F003B828E006B821D016B826D
:1004C0004D013B82DC01DC813B024D816B021D81D1
:1004D0006B028E803B022F80DC0100804D013B02CD
:1004E000E8035F80E8032F803B025F806B02EE80B1
:1004F0009A027C819A020B826B026B820B029A82B7
:100500007C019A821D016B828E000B822F007C8100
:100510000000EE8000005F802F002F805F000080D1
:10052000BE00DC01E80300804D01CA824D01DC0100
:10053000E803DC8100005F00E8036B82E8034D8183
:100540006B02DC816B023B823B026B820B029A8264
:100550007C019A821D016B828E000B822F007C81B0
:100560000000EE8000005F802F002F805F00008081
:10057000BE002F00F9022F8029035F8088038E8040
:10058000B803EE80E803AC81E8030B82B8033B823A
:1005900088036B8229036B82CA023B826B02DC8177
:1005A000DC01008000009A820000000029035F80C7
:1005B0005903EE80E803EE8000001D01E8038E8001
:1005C000B8032F80290300803B020080AC012F80FC
:1005D000BE008E802F001D8100007C8100000B82F8
:1005E0002F006B82BE009A82AC019A823B026B8222
:1005F00029030B82B8037C81E8031D81E8039A027A
:10060000E803008000000000E8039A82E80300008D
:1006100000009A8200000000E8037C810B027C81CC
:100620000000F902E8037C810B020000E8039A82D3
:1006300000009A02E803008000000000E803EE805A
:100640000000DC01E803EE800000DC01E803CA8260
:100650000000B803E803CA8200000000E8037C81C0
:100660000000F902E8037C8100000000E80300803C
:100670001D012F808E008E802F001D8100007C8147
:1006800000000B822F006B828E009A821D019A82DD
:10069000E8034D01E8034D8100000000E8039A8261
:1006A000E8039A0259033B82B803AC81E803EE8069
:1006B000E8035F80B803008059030080F9022F80AF
:1006C0009A025F806B02BE803B02DC81DC013B82D0
:1006D000AC016B827C019A821D019A828E003B8262
:1006E0002F00AC810000EE8000005F802F000080B2
:1006F0008E000000E803008000000000E803AC81E9
:10070000E8033B82B8036B8288039A8229039A82AA
:10071000CA026B826B023B823B02AC810B020080FF
:100720000B024D010B029A8200001D014704BE809E
:1007300017045F80B8032F8059030080CA0200802D
:10074000DC012F804D015F80EE00BE808E001D8198
:100750005F00DC815F003B828E009A82EE00CA82DD
:100760004D01F982DC01F982CA02CA8259039A82D8
:10077000B8033B821704DC8147041D814704AC01A8
:100780001D01CA8200000000E80300800000000094
:10079000E803AC81E8033B82B8036B8288039A824A
:1007A00029039A829A026B823B023B820B02AC8144
:1007B000DC010080DC011D01E803BE80B8035F801E
:1007C00059032F80F90200806B0200807C012F808A
:1007D000EE005F808E00BE802F001D810000DC8156
:1007E00000003B822F009A828E00CA82EE00F982BE
:1007F0007C01F9826B02CA82F9029A8259033B8218
:10080000B803DC81E8031D81E8030000E8030080F1
:1008100000000000E8039A8200009A02E8039A822E
:1008200000000000E803008000000000E8037C8175
:100830000000F902E8037C810000F902E803F98274
:1008400000000000E803008000003B820000000080
:10085000E803008000009A02E80300804D01EE00EA
:100860003B029A820000DC01E803DC81EE00AC81EF
:100870005F007C812F001D810000BE8000005F8032
:100880002F002F805F000080EE0000804D010000EF
:10089000E803008000000000E803008000009A02E6
:1008A000E8039A82000000000B029A820B02CA023F
:1008B000F9029A8259033B82B803DC81E8031D8167
:1008C000E803BE80B8035F8059032F80F9020080DF
:1008D0006B0200807C012F80EE005F808E00BE8066
:1008E0002F001D810000DC8100003B822F009A82D6
:1008F0008E00CA82EE00CA827C01DC017C01CA82C1
:100900007C010000E803008000000000E8036B8227
:10091000E80300000B027C810B020000E80300806A
:1009200000000000E8036B82E80300000B027C81FA
:100930000B02000000006B8200000000E803008052
:1009400000000000E8034D81E803DC81B8033B822E
:1009500059036B82F9029A826B029A827C016B8244
:10096000EE003B828E00DC812F004D810000008074
:100970000000CA02F9029A8259033B82B803DC8163
:10098000E8031D81E803BE80B8035F8059032F8010
:10099000F90200806B0200807C012F80EE005F80F6
:1009A0008E00BE802F001D810000DC8100003B8294
:1009B0002F009A828E00CA82EE000000E8030080B9
:1009C00000000000E803AC81E8033B82B8036B82BF
:1009D00088039A8229039A82CA026B826B023B8245
:1009E0003B02AC810B0200000B02AC810B023B828C
:1009F000DC016B82AC019A824D019A82BE006B824F
:100A00005F003B822F00AC810000008000007C0171
:100A1000E803008000007C01E803F98200008E00FA
:100A20004D016B824D010000000700020100000330
:100A30000406000000000000000000000000250087
:100A400028002B0000000000240027002A000404D6
:100A50000404040404040202020202020303030366
:100A60000303010204081020408001020408102042
:100A7000010204081020CD21B32111241FBECFEFA5
:100A8000D8E0DEBFCDBF13E0A0E0B1E0E2EBF1E5DE
:100A900002C005900D92A037B107D9F725E0A0E775
:100AA000B3E001C01D92A034B207E1F715E0CCE33A
:100AB000D5E004C02197FE010E943728CB33D1072F
:100AC000C9F70E9498140C941B230C940000CF9239
:100AD000DF92EF92FF920F931F93CF93DF936C01FE
:100AE000EB017B01E40EF51E00E010E0CE15DF0502
:100AF00061F06991D601ED91FC910190F081E02DBA
:100B0000C6010995080F191FF1CFC801DF91CF91D8
:100B10001F910F91FF90EF90DF90CF900895CF93AA
:100B2000DF93EC0188819981009711F00E943524B0
:100B3000198218821D821C821B821A82DF91CF913A
:100B40000895FC01248135816217730748F4808180
:100B50009181009729F0FC01E60FF71F808108952D
:100B600080E00895FC01248135816217730720F429
:100B700080819181009729F41092860386E893E0A2
:100B80000895860F971F0895FC0124813581232B3A
:100B900031F421E061157105A1F0FB0108C0FC01F1
:100BA000808191816115710531F421E0FC01808122
:100BB000882339F005C00E94AB2521E0892B09F07C
:100BC00020E0822F08950F931F93CF93DF938C0122
:100BD000EB01FC0180819181009799F04281538162
:100BE0002C813D814217530750F0688179810E9422
:100BF000B4258C819D81F8019583848313C00E9464
:100C0000352488819981F801918380838A819B8131
:100C1000938382838C819D8195838483198218823A
:100C20001B821A821D821C82DF91CF911F910F912E
:100C300008950F931F93CF93DF93EC0188819981DF
:100C4000009729F02A813B812617370788F48B010A
:100C50006F5F7F4F0E94CD24009761F09983888356
:100C60001B830A832C813D81232B11F4FC0110820C
:100C700081E001C080E0DF91CF911F910F91089535
:100C8000EF92FF920F931F93CF93DF93FC01248188
:100C900035816115710511F480E019C041155105C8
:100CA000A9F07B01EC018A01020F131FB8010E9419
:100CB0001906882389F3288139818C819D81B701A8
:100CC000820F931F0E94B4251D830C8381E0DF9166
:100CD000CF911F910F91FF90EF900895CF93DF93E5
:100CE000EC016115710561F0FB0101900020E9F74D
:100CF0003197AF01461B570B0E944006811103C07C
:100D0000CE010E948F05CE01DF91CF910895CF9340
:100D1000DF93EC01FB0144815581608171810E9468
:100D20004006811103C0CE010E948F05CE01DF91E4
:100D3000CF910895EF92FF920F931F93CF93DF937C
:100D4000EC017B018A01BA010E941906811104C0DD
:100D5000CE010E948F0507C01D830C83B7018881D7
:100D600099810E94B425CE01DF91CF911F910F91FF
:100D7000FF90EF900895CF93DF93EC01611571051B
:100D800059F0FB0101900020E9F73197AF01461BB4
:100D9000570B0E949A0602C00E948F05CE01DF9178
:100DA000CF910895FC01808191810C9435240F939B
:100DB0001F93CF93DF93CDB7DEB7A1970FB6F8940B
:100DC000DEBF0FBECDBF8C01CB01BA01F80111828D
:100DD00010821382128215821482168230E0AE01D4
:100DE0004F5F5F4F0E944923BE016F5F7F4FC80175
:100DF0000E94BB06A1960FB6F894DEBF0FBECDBF12
:100E0000DF91CF911F910F9108950F931F93CF936F
:100E1000DF93CDB7DEB762970FB6F894DEBF0FBE93
:100E2000CDBF8C01CB01F801118210821382128296
:100E300015821482168250E0BE016F5F7F4F0E94C0
:100E40001E23BE016F5F7F4FC8010E94BB066296E2
:100E50000FB6F894DEBF0FBECDBFDF91CF911F91CB
:100E60000F910895FB01DC0111961C921E921396BE
:100E70001C921E92129715961C921E92149716960B
:100E80001C928617970749F0608171816115710581
:100E900021F0448155810C949A060895FC01118239
:100EA00010821382128215821482168261157105D6
:100EB00051F0FB0101900020E9F73197AF01461B8B
:100EC000570B0C949A060895BF92CF92DF92EF923F
:100ED000FF920F931F93CF93DF937C016B018A01E5
:100EE000E9012417350720F4812F8901C42FD82F59
:100EF00065E771E0C7010E944E07D60114968D91F7
:100F00009C91159780179107D0F08C179D0708F4D6
:100F1000EC01D601ED91FC911197EC0FFD1FB08013
:100F200010824D915C91BA01600F711FC7010E9440
:100F3000BB06D601ED91FC91EC0FFD1FB082C701FD
:100F4000DF91CF911F910F91FF90EF90DF90CF90A5
:100F5000BF90089590E0FC01EA5DF54F3491FC01EB
:100F6000EE59F54F2491FC01E25BF54FE491EE233D
:100F700009F43BC0332339F1333091F038F4313088
:100F8000A9F0323001F584B58F7D12C0363091F072
:100F90003730A1F03430B9F4809180008F7D03C0E8
:100FA000809180008F77809380000DC084B58F770B
:100FB00084BD09C08091B0008F7703C08091B000DC
:100FC0008F7D8093B000F0E0EE0FFF1FE65CF54FE1
:100FD000A591B4918FB7F894EC91611103C020955D
:100FE0002E2301C02E2B2C938FBF08953FB7F8946A
:100FF0008091820390918303A0918403B091850333
:1010000026B5A89B05C02F3F19F00196A11DB11D63
:101010003FBFBA2FA92F982F8827820F911DA11D9E
:10102000B11DBC01CD0142E0660F771F881F991FDB
:101030004A95D1F708951F920F920FB60F9211247F
:101040002F933F938F939F93AF93BF9380917003A0
:1010500090917103A0917203B09173033091810359
:1010600023E0230F2D3720F40196A11DB11D05C0EB
:1010700026E8230F0296A11DB11D209381038093C2
:10108000700390937103A0937203B09373038091E4
:10109000820390918303A0918403B091850301960C
:1010A000A11DB11D8093820390938303A0938403B9
:1010B000B0938503BF91AF919F918F913F912F91F5
:1010C0000F900FBE0F901F901895CF93DF93CDB761
:1010D000DEB72E970FB6F894DEBF0FBECDBF23E06C
:1010E00030E041E050E06AEE74E0CE0101960E94EB
:1010F000640789819A81009719F00E94F42203C045
:1011000060E070E0CB017093050160930401CE01B3
:1011100001960E94D20660910401709105014AE097
:10112000CE0108960E94050765E672E0CE010196A1
:101130000E944E07BE01685F7F4FCE0101960E945C
:1011400087060E94DC13CE0101960E94D206CE01D2
:1011500008960E94D2062E960FB6F894DEBF0FBEF8
:10116000CDBFDF91CF910895CF93DF93EC0165E779
:1011700071E00E944E078091740390917503893449
:101180009105C1F194F48134910529F12CF4C297B1
:10119000A1F56AE972E033C08634910529F18834FB
:1011A000910559F56AEA72E02AC083359105C9F0C4
:1011B0004CF48D34910591F080359105F1F46AE895
:1011C00072E01DC08635910591F088359105A9F42E
:1011D00068EC72E014C068E772E011C062E872E087
:1011E0000EC063E972E00BC061EA72E008C06AEB0E
:1011F00072E005C06CEC72E002C065ED72E0CE01F9
:101200000E94BB06CE01DF91CF9108954F925F926D
:101210006F927F928F929F92AF92BF92CF92DF9206
:10122000EF92FF920F931F93CF93DF93EC016B012B
:1012300049015A01270138011C141D041CF5FE0147
:10124000E590F490FE01329605911491249681E088
:10125000C81AD108F7FE03C00E94E10D02C00E9427
:10126000FB0DA3019201200F311F411D511DE89478
:10127000F7F8C501B4016E0D7F1D811D911D0E94FF
:101280006610DACFDF91CF911F910F91FF90EF9011
:10129000DF90CF90BF90AF909F908F907F906F9096
:1012A0005F904F900C94FB0D8F929F92AF92BF92E4
:1012B000EF92FF920F931F9378018901893409F40B
:1012C00046C0873509F4B1C090E0FC01B197EA331C
:1012D000F10508F02AC1EC5CFF4F0C9437289A0105
:1012E000AB0166E070E08EE09AE01DC19A01AB01AF
:1012F00065E170E08AEB99E016C19A01AB0162E109
:1013000070E082E799E00FC19A01AB016EE070E0F6
:101310008AE399E008C19A01AB0168E070E08AE1D4
:1013200099E001C19A01AB0166E070E082E099E0CA
:10133000FAC09A01AB0165E170E08EEA98E0F3C073
:101340009A01AB0166E070E086E998E0ECC038EC09
:10135000832E912CA12CB12C06C022E5822E23E0F5
:10136000922EA12CB12C9A01AB0162E070E08EE8C4
:1013700098E067C09A01AB016AE070E086E698E009
:10138000D2C09A01AB0166E070E08EE498E0CBC079
:101390009A01AB0163E070E082E498E0C4C09A0176
:1013A000AB0168E070E082E298E0BDC09A01AB0159
:1013B00066E070E08AE098E0B6C09A01AB0165E1B2
:1013C00070E086EB97E0AFC09A01AB016CE070E093
:1013D00086E897E0A8C09A01AB0167E170E08AE275
:1013E00097E0A1C09A01AB016EE070E082EF96E059
:1013F0009AC09A01AB0164E170E082EA96E093C082
:101400009A01AB0164E070E082E996E08CC09A0139
:10141000AB016AE070E08AE696E085C09A01AB0114
:1014200064E070E08AE596E07EC098EE892E93E055
:10143000992EA12CB12C9A01AB0168E070E08AE3EF
:1014400096E00E94060977C09A01AB0164E070E063
:101450008AE296E068C09A01AB0165E070E086E13F
:1014600096E061C09A01AB0166E070E08EEF95E016
:101470005AC09A01AB0161E170E08AEB95E053C07C
:101480009A01AB0164E070E08AEA95E04CC09A01F1
:10149000AB016EE070E082E795E045C09A01AB01D8
:1014A0006FE070E086E395E03EC09A01AB0165E035
:1014B00070E082E295E037C09A01AB0161E170E033
:1014C0008EED94E030C09A01AB0167E170E082E8F4
:1014D00094E029C09A01AB0164E070E082E794E0F7
:1014E00022C09A01AB016DE170E08EEF93E01BC06A
:1014F0009A01AB0167E170E082EA93E014C09A01BF
:10150000AB0167E070E086E893E00DC09A01AB01A3
:1015100063E170E08AE393E006C09A01AB0165E005
:1015200070E086E293E00E94060982E5882E83E05F
:10153000982EA12CB12CC501B4011F910F91FF90E1
:10154000EF90BF90AF909F908F900895CF92DF92D1
:10155000EF92FF920F931F93CF93DF938C01C0E024
:10156000D0E0C12CD12C7601BE01C8010E94A1059A
:101570008823C1F0893439F0873551F488EE93E03F
:10158000A0E0B0E009C088EC90E0A0E0B0E004C0CA
:1015900082E593E0A0E0B0E0C80ED91EEA1EFB1E73
:1015A0002196E2CFC701B601DF91CF911F910F9134
:1015B000FF90EF90DF90CF9008952F923F924F923F
:1015C0005F926F927F928F929F92AF92BF92CF92D3
:1015D000DF92EF92FF920F931F93CF93DF9300D090
:1015E00000D0CDB7DEB79A838983362E272E3C8371
:1015F0002B83C12CD12C2A01550F66087708EB816B
:10160000FC81CE16DF0624F5832C922CE12CF12CE4
:10161000B70189819A810E94A1058823A9F0092C2C
:10162000000CAA08BB0893018201B501A4010E9425
:101630005409DC01CB01880D991DAA1DBB1D4C016D
:101640008FEFE81AF80AE4CF9FEFC91AD90AD7CF6B
:101650000F900F900F900F90DF91CF911F910F91EE
:10166000FF90EF90DF90CF90BF90AF909F908F90C2
:101670007F906F905F904F903F902F9008958936A4
:1016800021E0920718F0E0E7F2E039C09C012F500A
:1016900031402A35310528F4E8E6F1E0E81BF90B82
:1016A0002AC09C01255B31092A35310530F4FC0143
:1016B000EE0FFF1FE85FFE4F0EC09C012B55310956
:1016C0002A353105B8F4E4EBF0E0E81BF90BEE0F36
:1016D000FF1FE059FD4F65917491CB01A0E0B0E090
:1016E0009C01AD0166277727CB01621B730B840B2E
:1016F000950B0895FC01EE0FFF1FE059FD4F65911A
:10170000749180E090E008959C01265A3F4F233C5D
:10171000314018F0E0E7F2E03DC09C012F5031402D
:101720002A35310530F4FC01EE0FFF1FEC5AFF4F54
:101730000EC09C01255B31092A353105B8F4EEE075
:10174000F1E0E81BF90BEE0FFF1FE059FD4F65912B
:101750007491CB01A0E0B0E09C01AD016627772732
:10176000CB01621B730B840B950B08959C012B55C9
:1017700031092A35310530F4FC01EE0FFF1FE45426
:10178000FE4F08C0EAE5F0E0E81BF90BEE0FFF1F83
:10179000E059FD4F6591749180E090E008950F93BA
:1017A0001F93CF93DF93EC018B0184E2ECE0F1E037
:1017B000DE0101900D928A95E1F7CB010E943F0B6B
:1017C000688379838A839B83C8010E94840B9B0171
:1017D000AC0188279927DC01821B930BA40BB50B66
:1017E00088879987AA87BB87C8010E94840B688F66
:1017F000798F8A8F9B8FC8010E943F0B68A379A3C2
:101800008AA39BA3CE01DF91CF911F910F910895E1
:101810000F931F93CF93DF93EC018B0184E2ECE0F5
:10182000F1E0DE0101900D928A95E1F7CB010E9473
:101830003F0B688B798B8A8B9B8BC8010E94840B32
:101840006C8B7D8B8E8B9F8BC8010E94840B9B01C0
:10185000AC0188279927DC01821B930BA40BB50BE5
:101860008C8F9D8FAE8FBF8FC8010E943F0B68A3E6
:1018700079A38AA39BA3CE01DF91CF911F910F91F2
:1018800008952A989EBD0DB407FEFDCF9EB58EBD6E
:101890000DB407FEFDCF8EB52A9A0895CF93DF933E
:1018A000EB01409195035091960321E030E0042E26
:1018B00002C0220F331F0A94E2F721503109281782
:1018C000390708F4C9012CE030E0241B350B02C0B5
:1018D000880F991F2A95E2F720918C0330918D0390
:1018E0002227307F822B932B90938D0380938C0340
:1018F0000E94410C409195035091960381E090E045
:10190000042E02C0880F991F0A94E2F70197C817A6
:10191000D90708F4CE012CE030E0241B350B02C0BF
:10192000880F991F2A95E2F720918E0330918F033B
:101930002227307F822B932B90938F0380938E03EB
:101940000E94410C80919703882349F08091930372
:101950009091940397FD03C05F9800005F9ADF9118
:10196000CF910895CF92DF92EF92FF92C090AA0498
:10197000D090AB04E090AC04F090AD046C157D0504
:101980008E059F0584F0C090B204D090B304E0901F
:10199000B404F090B504C616D706E806F90634F488
:1019A00082E090E005C081E090E002C080E090E03D
:1019B000C090AE04D090AF04E090B004F090B104B9
:1019C0002C153D054E055F0514F484600EC0C090D3
:1019D000B604D090B704E090B804F090B904C216F1
:1019E000D306E406F5060CF48860FF90EF90DF90D4
:1019F000CF90089508950F931F93CF93DF93FC0129
:101A0000A685B7858D01005C1F4FE801888199810B
:101A100001968F739927AD014E5B5F4FEA012881D4
:101A2000398182179307D1F3E80128813981A20F08
:101A3000B31F6C93A685B785A05CBF4F11969C938E
:101A40008E93A689B7892C9181E090E0078C02C023
:101A5000880F991F0A94E2F7822B8C9381E081A36F
:101A60000488F589E02D80818064808381E090E0A6
:101A7000DF91CF911F910F910895FC0181A18823DF
:101A800029F0A489B5898C9186FFFBCF11A2089516
:101A9000FC01A485B585FD01E05CFF4F208131810B
:101AA0003296808191812817390779F08081918160
:101AB000A80FB91F8C91208131812F5F3F4F2F7369
:101AC00033273183208390E008958FEF9FEF0895AF
:101AD000DC011C96ED91FC911D97DF01A05CBF4FCE
:101AE0002D913C91119712968D919C9111972817E9
:101AF000390739F08D919C91E80FF91F808190E0B2
:101B000008958FEF9FEF0895FC0124853585F90135
:101B1000E05CFF4F80819181329620813181821B70
:101B2000930B8F73992708951F93CF93DF9300D062
:101B3000CDB7DEB78CED93E00E94840D892BE1F0E8
:101B400011E08CED93E00E94840D892BA9F08CEDBF
:101B500093E00E94480D8A3019F410938703F1CF67
:101B600089831A8241E050E0BE016F5F7F4F8AEEA9
:101B700094E00E944006E5CF0F900F90DF91CF9147
:101B80001F91089590E0FC01EE59F54F2491FC015E
:101B9000E25BF54F8491882399F090E0880F991FBC
:101BA000FC01EC5BF54FA591B491FC01E65CF54FAF
:101BB000859194918FB7F894EC91E22BEC938FBFC1
:101BC00008958091830490918404892B99F48091E5
:101BD000990481110FC08AEC97E00197F1F781E039
:101BE00090E0909384048093830461E08091750475
:101BF0000C94AA0708958091830490918404892B02
:101C000069F08AEC97E00197F1F710928404109242
:101C1000830460E0809175040C94AA0708952F92C4
:101C20003F924F925F926F927F928F929F92AF926C
:101C3000BF92CF92DF92EF92FF920F931F93CF93B9
:101C4000DF93CDB7DEB7A0970FB6F894DEBF0FBE17
:101C5000CDBF69877A878B879C872D873E874F8783
:101C6000588B80917B0490917C04A0917D04B0916D
:101C70007E0489849A84AB84BC84881A990AAA0A4F
:101C8000BB0A80917F0490918004A0918104B0915F
:101C9000820429013A01481A590A6A0A7B0A898290
:101CA0009A82AB82BC82B7FE0BC022273327A901E0
:101CB000281939094A095B0929833A834B835C83D4
:101CC0008091770490917804A0917904B0917A047E
:101CD0008D839E83AF83B88729813A814B815C8154
:101CE000BC01CD010E94F4276B017C01A0E2DA0E59
:101CF000E11CF11CA70196010EE05595479537951B
:101D000027950A95D1F7298B3A8B4B8B5C8B730106
:101D1000620177FE07C0CC24DD247601C418D50803
:101D2000E608F708A70196016D817E818F8198856D
:101D30000E94F427DC01CB01905EAF4FBF4F1EE045
:101D4000B595A795979587951A95D1F72091910408
:101D50003091920440919304509194042D8B3E8BCA
:101D60004F8B588F29813A814B815C81C20ED31EE3
:101D7000E41EF51E2D893E894F89588DC20ED31E53
:101D8000E41EF51EC0929104D0929204E092930456
:101D9000F0929404C988DA88EB88FC88C816D906C2
:101DA000EA06FB0614F46C017D01C501B401EEE006
:101DB000660F771F881F991FEA95D1F7FEE0440C44
:101DC000551C661C771CFA95D1F7A70196010E9455
:101DD0001828298B3A8B4B8B5C8BC301B201A7016E
:101DE00096010E941828298F3A8F4B8F5C8F812C87
:101DF000A0E29A2EA12CB12C20E030E240E050E08D
:101E000029833A834B835C831D821E821F8218863E
:101E1000A701960121503109410951092D8F3E8FAB
:101E20004F8F58A322242A94BFE03B2E2D813E8160
:101E30004F8158858D8D9E8DAF8DB8A1281739079C
:101E40004A075B070CF0C6C00091950410919604F8
:101E500020919704309198040F3F4FEF1407240707
:101E6000340709F46CC080919904811168C04980DD
:101E70005A806B807C805EE0759467945794479499
:101E80005A95D1F7750164016EE0F594E794D79403
:101E9000C7946A95D1F7B301A20177FE07C0442722
:101EA0005527BA0144195509660977098D899E8914
:101EB000AF89B88D480F591F6A1F7B1FD701C60114
:101EC000F7FE07C088279927DC018C199D09AE0908
:101ED000BF09840F951FA61FB71F081719072A07E8
:101EE0003B076CF50E94FB0D91E090939904809163
:101EF0007B0490917C04A0917D04B0917E04480EF7
:101F0000591E6A1E7B1E40929A0450929B04609256
:101F10009C0470929D0480917F0490918004A09114
:101F20008104B0918204C80ED91EEA1EFB1EC09225
:101F30009E04D0929F04E092A004F092A104298D07
:101F40003A8D4B8D5C8D820E931EA41EB51E298189
:101F50003A814B815C8189899A89AB89BC89280F38
:101F6000391F4A1F5B1F29833A834B835C83DA0145
:101F7000C9012EE0B595A795979587952A95D1F734
:101F800020917B0430917C04820F931FB101681B68
:101F9000790B950184014EE03595279517950795A6
:101FA0004A95D1F780917F0490918004080F191F02
:101FB000C101801B910B0E944E0C2D813E814F81EF
:101FC00058852F5F3F4F4F4F5F4F2D833E834F8389
:101FD00058872CCF80919904811138C08091950445
:101FE00090919604A0919704B09198048F3FEFEFE1
:101FF0009E07AE07BE0751F14091910450919204A3
:10200000609193047091940484179507A607B7070D
:10201000ECF40E94FB0D81E08093990429853A85B8
:102020004B855C8520939A0430939B0440939C04D9
:1020300050939D048D859E85AF85B88980939E04BD
:1020400090939F04A093A004B093A10429853A859E
:102050004B855C8520937B0430937C0440937D0406
:1020600050937E048D859E85AF85B88980937F04CB
:1020700090938004A0938104B09382048FEF9FE03B
:10208000BC01621B730BAD85BE858A1B9B0B0E9436
:102090004E0C8EE090E00197F1F7A0960FB6F89401
:1020A000DEBF0FBECDBFDF91CF911F910F91FF908B
:1020B000EF90DF90CF90BF90AF909F908F907F90E8
:1020C0006F905F904F903F902F9008952F923F9286
:1020D0004F925F926F927F928F929F92AF92BF9238
:1020E000CF92DF92EF92FF920F931F93CF93DF93E4
:1020F000CDB7DEB7E5970FB6F894DEBF0FBECDBF04
:102100002B013C0149015A018091BA04882309F44A
:10211000BFC09201550C440B550B29833A834B8366
:102120005C83092C000CAA08BB088091DF04909105
:10213000E004A091E104B091E20489879A87AB871B
:10214000BC876091C3047091C4048091C5049091D0
:10215000C6040E94F4276B017C016091CF0470914A
:10216000D0048091D1049091D204A50194010E94E1
:10217000F427C60ED71EE81EF91E4EE0F594E7942C
:10218000D794C7944A95D1F70D2C000CEE08FF08A0
:1021900029853A854B855C85C20ED31EE41EF51E4B
:1021A0006091BB047091BC048091BD049091BE0409
:1021B00029813A814B815C810E94F4272B013C01EB
:1021C0006091C7047091C8048091C9049091CA04B9
:1021D000A50194010E94F427460E571E681E791E21
:1021E0005EE075946794579447945A95D1F7D2015D
:1021F00029853A854B855C850E944828A701960170
:102200000E94182829013A0188E0580E611C711CAF
:102210006091BF047091C0048091C1049091C20488
:1022200029813A814B815C810E94F42769837A83FA
:102230008B839C836091CB047091CC048091CD04FE
:102240009091CE04A50194010E94F42729813A813E
:102250004B815C81260F371F481F591FDA01C901C6
:102260006EE0B595A795979587956A95D1F7DC01AE
:1022700029853A854B855C850E944828A7019601EF
:102280000E94182849015A0188E0980EA11CB11C2F
:10229000C0908504D0908604E0908704F090880474
:1022A000A3019201C701B6010E94F427DC01CB0112
:1022B000905EAF4FBF4F2EE0B595A7959795879548
:1022C0002A95D1F74090890450908A0460908B043D
:1022D00070908C049C01AD01240D351D461D571DC9
:1022E0002CA33DA34EA35FA3A5019401C701B60192
:1022F0000E94F427DC01CB01905EAF4FBF4F3EE060
:10230000B595A795979587953A95D1F7C0908D0487
:10231000D0908E04E0908F04F09090049C01AD0169
:102320002C0D3D1D4E1D5F1D28A739A74AA75BA791
:102330008091A2049091A304A091A404B091A5045B
:102340008CA79DA7AEA7BFA72091A6043091A70494
:102350004091A8045091A90428AB39AB4AAB5BABC0
:10236000BC01CD010E94B20C9F878E8728A539A59C
:102370004AA55BA56CA17DA18EA19FA10E94B20C74
:102380009BA38AA38091B6049091B704A091B8044E
:10239000B091B9048A8B9B8BAC8BBD8B2091AE0422
:1023A0003091AF044091B0045091B1042E8B3F8B1B
:1023B000488F598F8091B2049091B304A091B404D6
:1023C000B091B5048A8F9B8FAC8FBD8F2091AA04EA
:1023D0003091AB044091AC045091AD042E8F3F8FEF
:1023E00048A359A388A899A8AAA8BBA8CCA4DDA4EF
:1023F000EEA4FFA488A599A5AAA5BBA589879A875D
:10240000AB87BC872CA13DA14EA15FA129833A8354
:102410004B835C838AA19BA14E855F85842B952B82
:10242000892B09F474C18AA19BA184239523892B4C
:1024300009F08AC1452B29F48AA19BA1998B888B2D
:1024400004C0AE85BF85B98BA88BB889B3FF4AC0DD
:10245000C701B6010E94D2266D837E838F83988741
:1024600069817A818B819C816C197D098E099F0914
:102470000E94D2262B013C016A897B898C899D8927
:10248000681979098A099B090E94D2269B01AC012F
:10249000C301B2010E9463272B013C0169857A8543
:1024A0008B859C85681979098A099B090E94D22627
:1024B0009B01AC01C301B2010E9428269B01AC0123
:1024C0006D817E818F8198850E94BC250E949A260D
:1024D0008B018DAB9CABEA89ED83FB89FD872C8852
:1024E0003D88E6C0288922FF4AC0C701B6010E9484
:1024F000D2266D837E838F83988769817A818B81D1
:102500009C816C197D098E099F090E94D2262B019E
:102510003C016E897F89888D998D681979098A09AE
:102520009B090E94D2269B01AC01C301B2010E940B
:1025300063272B013C0169857A858B859C85681909
:1025400079098A099B090E94D2269B01AC01C3012B
:10255000B2010E9428269B01AC016D817E818F8192
:1025600098850E94BC250E949A268B018DAB9CAB5E
:102570003E893D834F894D87288C398C99C0588975
:1025800051FF4AC0C501B4010E94D2266D837E83EB
:102590008F83988769857A858B859C8568197909E9
:1025A0008A099B090E94D2262B013C016A8D7B8DF2
:1025B0008C8D9D8D6C197D098E099F090E94D226F4
:1025C0009B01AC01C301B2010E9463272B013C01B6
:1025D00069817A818B819C816C197D098E099F09A3
:1025E0000E94D2269B01AC01C301B2010E942826A1
:1025F0009B01AC016D817E818F8198850E94BC25F5
:102600000E949A266D837D871C010A8D1B8D8C8DFF
:102610008DAB9D8D9CAB4CC0A889A0FF49C0C50166
:10262000B4010E94D2266D837E838F83988769854B
:102630007A858B859C85681979098A099B090E948E
:10264000D2262B013C016E8D7F8D88A199A16C193A
:102650007D098E099F090E94D2269B01AC01C3010E
:10266000B2010E9463272B013C0169817A818B8131
:102670009C816C197D098E099F090E94D2269B01BD
:10268000AC01C301B2010E9428269B01AC016D81FF
:102690007E818F8198850E94BC250E949A266D8339
:1026A0007D871C010E8D1F8DB8A1BDABE9A1ECABE0
:1026B000288939894E855F852417350789F42D814E
:1026C0003D85A101B8018DA99CA90E94B20C9F87EC
:1026D0008E878D809D8451016801EDA8FCA89ACE5B
:1026E0002D813D85A101B8018DA99CA90E94B20C44
:1026F0009BA38AA35D8159878D858A872B863C861B
:1027000009831A839DA99B83ACA9AC8383CE8CA536
:102710009DA5AEA5BFA5C816D906EA06FB0609F019
:1027200044C028A939A94AA95BA982169306A40620
:10273000B506D9F529853A854B855C8569817A810D
:102740008B819C810E940F0E8CA19DA1AEA1BFA187
:102750008093A2049093A304A093A404B093A5042F
:1027600028A539A54AA55BA52093A6043093A70404
:102770004093A8045093A904E5960FB6F894DEBFE1
:102780000FBECDBFDF91CF911F910F91FF90EF90C2
:10279000DF90CF90BF90AF909F908F907F906F9081
:1027A0005F904F903F902F900895A5019401C7012D
:1027B000B6010E940F0EBECFCF92DF92EF92FF9232
:1027C0000F931F93CF93DF936C0100E010E0C0E004
:1027D000D0E0F60184819581E090DC03F090DD0388
:1027E0000817190780F4B801C6010E94A105D70196
:1027F000ED91FC91682F8CED93E00995C80FD91FDE
:102800000F5F1F4FE6CFD701ED91FC916DE08CED8E
:1028100093E009958C01E091DC03F091DD030190D8
:10282000F081E02D6AE08CED93E00995C00FD11F97
:102830008C0F9D1FDF91CF911F910F91FF90EF9013
:10284000DF90CF9008951F920F920FB60F92112430
:102850002F933F938F939F93EF93FF93209138058E
:102860003091390580913A0590913B052817390739
:1028700031F48091C1008F7D8093C10014C0E0913C
:102880003A05F0913B05E850FB4F208180913A05D5
:1028900090913B0501968F73992790933B05809308
:1028A0003A052093C600FF91EF919F918F913F9140
:1028B0002F910F900FBE0F901F9018951F920F929F
:1028C0000FB60F9211242F934F935F938F939F9383
:1028D000EF93FF938091C00082FD1CC02091C60041
:1028E0008091D8039091D90301968F7399274091D5
:1028F000DA035091DB038417950771F0E091D80358
:10290000F091D903E856FC4F20839093D90380932C
:10291000D80302C08091C600FF91EF919F918F91E3
:102920005F914F912F910F900FBE0F901F901895B0
:10293000CF93DF93CDB7DEB7C759D1090FB6F8945F
:10294000DEBF0FBECDBF789484B5826084BD84B5F0
:10295000816084BD85B5826085BD85B5816085BD9A
:1029600080916E00816080936E0010928100809152
:1029700081008260809381008091810081608093DA
:102980008100809180008160809380008091B100FF
:1029900084608093B1008091B00081608093B0002A
:1029A00080917A00846080937A0080917A008260BE
:1029B00080937A0080917A00816080937A00809180
:1029C0007A00806880937A001092C1008CE090E0D9
:1029D000909396038093950388E08093900380E022
:1029E00098E0909389038093880390938B0380935E
:1029F0008A038AE090E0909392038093910387E0AA
:102A000090E0909394038093930381E080939703E5
:102A100080E090E790938D0380938C0380E090EFAB
:102A200090938F0380938E038AE00E94C20D809161
:102A300093030E94C20D61E0809191030E94AA0756
:102A400061E0809193030E94AA0761E08AE00E94FE
:102A5000AA078AE00E94C20D8CB580618CBD8CB53E
:102A600080648CBD8DE00E94C20D8BE00E94C20D7F
:102A70008CB58F7D8CBD8CB5837F8CBD8CB58C7FE8
:102A80008CBD8DB581608DBD809175040E94C20D95
:102A9000E091F003F091F10381E090E09C0100905F
:102AA000FC0302C0220F331F0A94E2F72083E09157
:102AB000EC03F091ED031082E091EE03F091EF034F
:102AC0002FEC20831092FD03E091F203F091F303C9
:102AD00040819C010090F80302C0220F331F0A942A
:102AE000E2F7242B2083E091F203F091F30340817D
:102AF0009C010090F90302C0220F331F0A94E2F7F1
:102B0000242B2083E091F203F091F30340819C0198
:102B10000090FA0302C0220F331F0A94E2F7242B1D
:102B20002083E091F203F091F30320810090FB03F6
:102B300002C0880F991F0A94E2F780958223808350
:102B400060E071E08AEE94E00E94190680918703AC
:102B5000882309F41AC28091780390917903019631
:102B6000909379038093780364E671E0CE01019637
:102B70000E944E076AEE74E0CE0101960E9487061D
:102B80000E94DC13CE0101960E94D20660E070E044
:102B90008AEE94E00E94A105682F880F770B70934E
:102BA0007703609376034AE0CE018B599F4F0E94D2
:102BB000050766E771E0CE0101960E944E07BE014F
:102BC0006B597F4FCE0101960E9487060E94DC134D
:102BD000CE0101960E94D206CE018B599F4F0E94D2
:102BE000D20665E771E0CE018D589F4F0E944E07D7
:102BF00080917603909177038934910509F446C159
:102C000094F48134910509F44CC024F4C29709F07E
:102C100092C1E3C08634910509F4DFC08834910580
:102C200009F089C1DAC08335910509F4D6C04CF4A6
:102C30008D34910509F4D1C08035910509F07BC12F
:102C4000CCC08635910509F4C8C08835910509F0D6
:102C500072C19093750380937403CE018B599F4F7B
:102C60000E94B4086EEC71E0CE0101960E944E07FE
:102C7000BE016B597F4FCE0101960E9487060E94CC
:102C8000DC13CE0101960E94D206CE018B599F4FD4
:102C90000E94D20665E771E083EE94E00E94BB06D5
:102CA000F0C00E9465082091EE043091EF0443E0EB
:102CB00050E06AEE74E0CE0101960E946407BE0106
:102CC0006F5F7F4FCE018D589F4F0E94E305CE016D
:102CD00001960E94D2066CE871E0CE018D589F4F9C
:102CE0000E94C405882319F085E090E023C062E9C2
:102CF00071E0CE018D589F4F0E94C405882319F0C2
:102D00008BE090E017C067E971E0CE018D589F4FCE
:102D10000E94C405882319F084E090E00BC061EAAA
:102D200071E0CE018D589F4F0E94C405882331F079
:102D300080E190E090937F0380937E0380917603FF
:102D400090917703909375038093740380917E0331
:102D500090917F0327E0289FB001299F700D1124D7
:102D600062507C4FCE0184599F4F0E943207CE01A2
:102D70008B599F4F0E94B4086BEA71E0CE01019617
:102D80000E944E07BE016B597F4FCE0101960E94F3
:102D9000870664E771E00E946E06BE0164597F4FAA
:102DA0000E94870664EC71E00E946E060E94DC13AC
:102DB000CE0101960E94D206CE018B599F4F0E94F0
:102DC000D206CE0184599F4F0E94D20665E771E07A
:102DD00083EE94E00E94BB06CBC00E946508809100
:102DE0007603909177039093750380937403CE01DB
:102DF0008B599F4F0E94B4086BEA71E0CE01019697
:102E00000E944E07BE016B597F4FCE0101960E9472
:102E100087060E94DC13CE0101960E94D206CE01E5
:102E20008B599F4F0E94D2062091EE043091EF04FF
:102E300043E050E06AEE74E0CE0101960E94640720
:102E40000D811E81CE0101960E94D206023011052D
:102E500008F48EC02091EE043091EF0443E050E07E
:102E60006AEE74E0CE0101960E946407BE016F5FB6
:102E70007F4F83EE94E00E94E305CE0101960E940D
:102E8000D20610927F0310927E0372C02091EE044E
:102E90003091EF0441E050E06AEE74E0CE0101961B
:102EA0000E94640789819A81009729F00E94F42288
:102EB000AB01BC0103C040E050E0BA014093000107
:102EC000509301016093020170930301CE010196BA
:102ED000CC56DF4F4883C459D040CB56DF4F588380
:102EE000C559D040CA56DF4F6883C659D040C9562D
:102EF000DF4F7883C759D0400E94D2062AE0CC56D3
:102F0000DF4F4881C459D040CB56DF4F5881C55957
:102F1000D040CA56DF4F6881C659D040C956DF4FEE
:102F20007881C759D040CE018B599F4F0E94D70658
:102F30006BED71E007C0CE018B599F4F0E94B40822
:102F400068EF71E0CE0101960E944E07BE016B59F9
:102F50007F4FCE0101960E9487060E94DC13CE01AE
:102F600001960E94D206CE018B599F4F0E94D20635
:102F700065E771E08AEE94E00E94BB061092870339
:102F8000CE018D589F4F0E94D2068FB7F894C09003
:102F90007003D0907103E0907203F09073038FBFC1
:102FA0008091000190910101A0910201B091030173
:102FB0000097A105B10509F40BC140917A03509126
:102FC0007B0360917C0370917D0397018601041B54
:102FD000150B260B370B081719072A073B0708F4B0
:102FE000F7C081E080938003C0927A03D0927B0384
:102FF000E0927C03F0927D038091E7049091E804D5
:10300000009709F47BC0A7961FAE1EAEA797A9969E
:103010001FAE1EAEA997AB961FAE1EAEAB97AC9679
:103020001FAEAC974AE0BE016F5F7F4F0E947623D0
:10303000BE016F5F7F4FCE018B599F4F0E94BB0631
:1030400060910401709105014AE0CE0101960E9451
:103050000507CE0184599F4F0E94B4082AE0B701AA
:10306000A601CE0186589F4F0E94D706BE01665822
:103070007F4FCE018D589F4F0E94320763E072E070
:10308000CE018D589F4F0E946E06BE0164597F4F3E
:103090000E9487066AE072E00E946E06BE016F5FC2
:1030A0007F4F0E94870661E172E00E946E06BE01BA
:1030B0006B597F4F0E9487066AE172E00E946E069C
:1030C00063EE74E00E9487060E94DC13CE018D58E7
:1030D0009F4F0E94D206CE0186589F4F0E94D20673
:1030E000CE0184599F4F0E94D206CE0101960E94C4
:1030F000D206CE018B599F4F0E94D20680917E034B
:1031000090917F03009709F463C027E0289FB001E6
:10311000299F700D112462507C4FCE0101960E94B0
:10312000320760910401709105014AE0CE018B598C
:103130009F4F0E940507CE0184599F4F0E94B408FB
:103140002AE0B701A601CE0186589F4F0E94D706FC
:10315000BE0166587F4FCE018D589F4F0E943207A7
:1031600063E072E0CE018D589F4F0E946E06BE0153
:1031700064597F4F0E9487066AE072E00E946E06E3
:10318000BE016B597F4F0E94870660E272E00E9489
:103190006E06BE016F5F7F4F0E9487060E94DC13A0
:1031A000CE018D589F4F0E94D206CE0186589F4F68
:1031B0000E94D206CE0184599F4F0E94D206CE01B2
:1031C0008B599F4F0E94D206CE0101960E94D206D3
:1031D00080918003882311F40C94AF218091E7043F
:1031E0009091E804892B09F46EC6E090E304F09016
:1031F000E4046CE270E0C7010E94A025009721F072
:103200008C010E191F0902C00FEF1FEF809174038C
:10321000909175038D349105E1F06CF4863491053D
:1032200009F4EFC48834910509F4F8C1C29711F08C
:103230000C94AD210BC48335910509F4A5C38635E3
:10324000910509F48EC28035910511F00C94AD21E1
:103250001FC36091040170910501072E000C880BBB
:10326000990B0E94D22620E030E048EC52E40E9404
:1032700028262B013C0163EE74E0CE0184599F4F58
:103280000E94320720E030E048E453E4C301B20179
:103290000E9463279B01AC0160E070E080E895E448
:1032A0000E9428260E949A261B019E012F5F3F4FF5
:1032B000690164367105F4F04AE0CE018B599F4FE5
:1032C0000E9405076CE272E0C6010E944E07BE0133
:1032D0006B597F4FC6010E9487060E94DC13C6010E
:1032E0000E94D206CE018B599F4F0E94D206F3E670
:1032F0002F2E312CF60120E2CF018C199D09821569
:10330000930514F42193F8CF1092890410928A0443
:1033100010928B0410928C0480E098E0A0E0B0E062
:1033200080938D0490938E04A0938F04B0939004A7
:1033300020E030E040E856E4C301B2010E94632778
:103340000E949A2660938504709386048093870474
:1033500090938804CF57DF4F19821882C158D0400C
:10336000E12CF12CA10141505109CE56DF4F598378
:103370004883C259D040CE01820D931DC457DF4F00
:1033800099838883CC58D040E2968EAD9FADE2976A
:10339000820D931DCF57DF4F08811981C158D0404E
:1033A0000817190708F068C68981893439F087350C
:1033B00051F488EE93E0A0E0B0E009C088EC90E022
:1033C000A0E0B0E004C082E593E0A0E0B0E0CB571D
:1033D000DF4F99838883C558D040CB57DF4F488152
:1033E0005981C558D040E416F5060CF0D0C08FB70F
:1033F000F894009170031091710320917203309141
:103400007303C257DF4F088319832A833B83CE5847
:10341000D0408FBF002711270E191F09C757DF4F54
:10342000D982C882C958D040C557DF4F1882CB58BF
:10343000D040C757DF4F88819981C958D0408C1937
:103440009D09821593050CF03EC0C757DF4FA88138
:10345000B981C958D0408D91C757DF4FB983A88330
:10346000C958D040803231F0B1E0C557DF4FB88342
:10347000CB58D0404801110FAA08BB0800E010E06B
:103480009801B501A4010E945409860E971EA81E3A
:10349000B91E8401B401990C880B990B0E94D226A5
:1034A0004B015C01A301920160E070E080E895E4CB
:1034B0000E9428269B01AC01C501B4010E945E2731
:1034C00018160CF0B6CFC557DF4FE881CB58D04067
:1034D000E11106C0CB57DF4FE880F980C558D040D6
:1034E000B701FF0C880B990B0E94D2264B015C019F
:1034F000A301920160E070E088EC92E40E9428262B
:103500009B01AC01C501B4010E94BC250E949A2612
:103510007B012FB7F8948091700390917103A09173
:103520007203B09173032FBFC257DF4F0881198117
:103530002A813B81CE58D040801B910BA20BB30B4C
:1035400082339105A105B1050CF047CFE2E38E2E41
:10355000912CA12CB12C881A990AAA0ABB0A0E94A4
:10356000F6078B0181149104A104B10409F435CF4D
:103570000E94F607601B710B683E734098F331E0C0
:10358000831A9108A108B10808511C4FEBCFE41A27
:10359000F50ADE011296F601CF018C199D09CE566F
:1035A000DF4F08811981C259D040801791071CF460
:1035B0008D918193F1CFE2968EAD9FADE297CF577B
:1035C000DF4F28813981C158D0402817390780F44E
:1035D000B901CE0184599F4F0E94B205DC018C9144
:1035E000C457DF4FE881F981CC58D040808308C0B0
:1035F00080E2C457DF4FA881B981CC58D0408C936A
:10360000CF57DF4FE881F981C158D0403196CF576D
:10361000DF4FF983E883C158D040B6CE63EE74E043
:10362000CE018D589F4F0E943207BE016D587F4FCB
:10363000CE0184599F4F0E943207BE0164597F4FCB
:10364000CE0101960E943207CE0101960E94A60A81
:103650006B017C01CE0101960E94D20680E090E2CF
:10366000A0E0B0E08093850490938604A093870443
:10367000B093880480E094E0A0E0B0E080938904F7
:1036800090938A04A0938B04B0938C0480938D0450
:1036900090938E04A0938F04B09390048601D7FE7C
:1036A00002C00F5F1F4F15950795119501951109E0
:1036B0004DE2E42EF12C58E6C52EDD24D394662489
:1036C000639464E2762E70ED872E77E0972EA12C1E
:1036D000B12CC701B6010E940428BC01CE0101969D
:1036E0000E94CF0B6092BA04FE013196ABEBB4E0BE
:1036F000872D01900D928A95E1F78092DF049092D8
:10370000E004A092E104B092E204BE0164597F4F4C
:10371000CE018B599F4F0E94320721E030E04CE0F0
:103720005EEFB801CE018B599F4F0E94DD0ACE019A
:103730008B599F4F0E94D20628E0E20EF11C3DEF0C
:10374000E31632E0F30629F61092BA04CE0184594A
:103750009F4F0E94D206CE018D589F4F0E94D206E5
:10376000FCC563EE74E0CE018D589F4F0E94320776
:10377000BE016D587F4FCE0184599F4F0E94320782
:10378000BE0164597F4FCE0101960E943207CE01DF
:1037900001960E94A60A6B017C01CE0101960E944F
:1037A000D20680E090E2A0E0B0E0809385049093A0
:1037B0008604A0938704B093880480E094E0A0E09E
:1037C000B0E08093890490938A04A0938B04B09313
:1037D0008C0480938D0490938E04A0938F04B093F7
:1037E00090048601D7FE02C00F5F1F4F1595079505
:1037F000119501951109BDE2EB2EF12C88E6C82E3A
:10380000DD24D3946624639494E2792E20ED822EF5
:1038100027E0922EA12CB12CC701B6010E940428EA
:10382000BC01CE0101960E94080C6092BA04FE0110
:103830003196ABEBB4E0872D01900D928A95E1F7BC
:103840008092DF049092E004A092E104B092E2043E
:10385000BE0164597F4FCE018B599F4F0E943207A2
:1038600021E030E04CE05EEFB801CE018B599F4F74
:103870000E94DD0ACE018B599F4F0E94D20648E07C
:10388000E40EF11C5DEFE51652E0F50629F65CCF7B
:1038900063EE74E0CE0184599F4F0E943207BE014F
:1038A00064597F4FCE018B599F4F0E943207BE0152
:1038B0006B597F4FCE0101960E943207CE010196CF
:1038C0000E94A60A6B017C01CE0101960E94D206DD
:1038D00080E098E0A0E0B0E08093890490938A04AF
:1038E000A0938B04B0938C0480938D0490938E04EA
:1038F000A0938F04B09390048601D7FE02C00F5F9F
:103900001F4F15950795119501951109F6E4EF2EB6
:10391000F12C812C912C54012AE037ED43E25CE339
:10392000C501B4010E94BC254B015C0120E030E0E0
:1039300040E856E40E9463270E949A26609385041B
:10394000709386048093870490938804BE016B591A
:103950007F4FCE0101960E94320721E030E040E027
:1039600050E0B801CE0101960E94DD0ACE01019619
:103970000E94D20681E0E81AF10871F6CE018B5957
:103980009F4F0E94D20678C363EE74E0CE018B593C
:103990009F4F0E943207BE016B597F4FCE010196A7
:1039A0000E943207CE0101960E94A60A6B017C019B
:1039B000CE0101960E94D20680E090E1A0E0B0E046
:1039C0008093850490938604A0938704B093880421
:1039D0008601D7FE02C00F5F1F4F15950795119501
:1039E0000195110963E6E62EF12C812C78E0972EE3
:1039F000A12CB12C8092890490928A04A0928B040D
:103A0000B0928C0480928D0490928E04A0928F04C8
:103A1000B0929004BE016B597F4FCE0101960E9477
:103A2000320721E030E04CE05EEFB801CE010196B4
:103A30000E94DD0ACE0101960E94D20691E0E91AA9
:103A4000F108C1F6CE018B599F4F88CE1016110692
:103A50000CF083C4980140E050E063EE74E0CE01C6
:103A600086589F4F0E9464072091E7043091E80434
:103A7000A8014F5F5F4F63EE74E0CE018D589F4FFA
:103A80000E946407BE016D587F4FCE0184599F4F3D
:103A90000E943207BE0166587F4FCE018B599F4F5F
:103AA0000E943207BE016B597F4FCE0101960E94E2
:103AB0003207CE0101960E94A60A6B017C01CE015D
:103AC00001960E94D206BE0164597F4FCE01019635
:103AD0000E943207CE0101960E94A60A4B015C01AA
:103AE000CE0101960E94D20680E098E0A0E0B0E00E
:103AF0008093850490938604A0938704B0938804F0
:103B0000C601D7FC019695958795EE24FF24E81A07
:103B1000F90A840197FE02C00F5F1F4F15950795A4
:103B200011950195110993E6C92ED12C812C28E01D
:103B3000922EA12CB12C38E5432E3AE0532E612C65
:103B4000712C8092890490928A04A0928B04B09286
:103B50008C0440928D0450928E0460928F04709277
:103B60009004BE016B597F4FCE0101960E9432072F
:103B700021E030E04CE05EEFB701CE0101960E94FB
:103B8000DD0ACE0101960E94D206809289049092AD
:103B90008A04A0928B04B0928C0480928D0490923F
:103BA0008E04A0928F04B0929004BE0164597F4F9E
:103BB000CE0101960E94320721E030E04CE05EEF3A
:103BC000B801CE0101960E94DD0ACE0101960E9445
:103BD000D206A1E0CA1AD10809F0B3CFCE018B59A1
:103BE0009F4F0E94D206CE0184599F4F0E94D20659
:103BF000CE018D589F4F0E94D206CE0186589F4F0E
:103C0000ADCD63EE74E0CE018D589F4F0E94320718
:103C1000BE016D587F4FCE0184599F4F0E943207DD
:103C2000BE016D587F4FCE018B599F4F0E943207C6
:103C3000E996EEACFFACE997C12CD12CE1E0EE1A8D
:103C4000F108F7FC15C0B601CE0184599F4F0E94C0
:103C5000B2058C01B701CE018B599F4F0E94B2056E
:103C6000FC018081D8018C93BFEFCB1ADB0AE6CF31
:103C7000BE016B597F4FCE0101960E943207CE01E3
:103C800001960E94A60A6B017C01CE0101960E945A
:103C9000D206B6010D2C000C880B990B0E94D2267F
:103CA0009B01AC0160E070E88EE395E40E94282659
:103CB00020E030E040E856E40E9463270E949A2604
:103CC000609385047093860480938704909388049E
:103CD00080E098E0A0E0B0E08093890490938A04AB
:103CE000A0938B04B0938C0480938D0490938E04E6
:103CF000A0938F04B09390048601D7FE02C00F5F9B
:103D00001F4F15950795119501951109B3E2CB2E1B
:103D1000D12CBE0164597F4FCE0101960E9432071B
:103D200024E030E040E050E0B801CE0101960E946E
:103D3000DD0ACE0101960E94D206E12CF12CE99613
:103D40008EAD9FADE997E816F906E0F5B701CE0113
:103D50008B599F4F0E94B205DC01BC90B701CE0188
:103D600084599F4F0E94B205FC0180818B1554F449
:103D7000B701CE0184599F4F0E94B205FC0190818A
:103D80009F5F9083B701CE018B599F4F0E94B20570
:103D9000DC01BC90B701CE0184599F4F0E94B2054F
:103DA000FC018081B81654F4B701CE0184599F4FAD
:103DB0000E94B205FC01908191509083FFEFEF1AB1
:103DC000FF0ABDCF21E0C21AD10809F0A2CFC12C51
:103DD000D12C760144244A94FFE05F2E612C712C93
:103DE000C092AA04D092AB04E092AC04F092AD046D
:103DF0001092AE041092AF041092B0041092B1046D
:103E000088248A94EFE09E2EA12CB12CD301C2010C
:103E10008C199D09AE09BF098093B2049093B30435
:103E2000A093B404B093B5044092B6045092B70482
:103E30006092B8047092B904BE016B597F4FCE01F5
:103E400001960E94320721E030E040E050E0B801E6
:103E5000CE0101960E94DD0ACE0101960E94D20693
:103E600038E2C30ED11CE11CF11C40E6C41649E047
:103E7000D406E104F10409F0B3CF1092AA04109221
:103E8000AB041092AC041092AD041092AE041092E8
:103E9000AF041092B0041092B1048092B2049092D8
:103EA000B304A092B404B092B5048092B604909288
:103EB000B704A092B804B092B904CE018B599F4FB9
:103EC0000E94D20643CC80917E0390917F0385307F
:103ED000910509F4D5C08031910509F45AC10497C0
:103EE00009F03BC26FE572E0CE0184599F4F0E94FA
:103EF0004E07BE0164597F4FCE0101960E943207E2
:103F0000CE0101960E94A60A6B017C01CE010196AA
:103F10000E94D20680E090E2A0E0B0E080938504A9
:103F200090938604A0938704B09388041601D7FE6B
:103F300003C05FEF251A350A3594279431942194F4
:103F4000310800E010E0AA24A39454E2B52EC12C5D
:103F500064E0D62EE12CF12C78EA472E55245394B8
:103F6000612C712CA092BA04C80168E671E00E942D
:103F700004284C01BC01CE0101960E94080CFE01F0
:103F80003196ABEBB4E08B2D01900D928A95E1F761
:103F900080EA9FE0A0E0B0E08093DF049093E0042B
:103FA000A093E104B093E204C0928904D0928A0401
:103FB000E0928B04F0928C0428E536E040E050E07B
:103FC00020938D0430938E0440938F04509390047B
:103FD000BE0164597F4FCE018B599F4F0E9432071B
:103FE00021E030E04CE05EEFB101CE018B599F4FF4
:103FF0000E94DD0ACE018B599F4F0E94D206B40168
:10400000CE0101960E94CF0BFE013196ABEBB4E0DE
:104010008B2D01900D928A95E1F7C0928904D09280
:104020008A04E0928B04F0928C0440928D045092AA
:104030008E0460928F04709290046CE971E0CE015E
:104040008B599F4F0E944E0721E030E04CE05EEF1D
:10405000B101CE018B599F4F0E94DD0ACE018B59D1
:104060009F4F0E94D206085F1F4F003D32E01307AA
:1040700009F078CF1092BA04CE0184599F4F6ECBCD
:10408000412C512C20E8622E2FE3722E812C30E13E
:10409000932EA12CB12C80E090E1A0E0B0E0CF57AE
:1040A000DF4F88839983AA83BB83C158D04020E027
:1040B00030E040E856E4C301B2010E9463270E9449
:1040C0009A26609385047093860480938704909366
:1040D0008804CF57DF4F088119812A813B81C1585D
:1040E000D0400093890410938A0420938B0430936A
:1040F0008C0480928D0490928E04A0928F04B092D2
:104100009004E12CF12C870120E030E0A90165E664
:1041100070E08CED90E00E940609CF57DF4F688178
:1041200079818A819B81C158D0400E94D2266B013F
:104130007C0120E030E040EA51E4C301B2010E947A
:1041400063279B01AC01C701B6010E94BB250E94F9
:104150009A26CF57DF4F688379838A839B83C15820
:10416000D04014E1811A9108A108B1082AE037ED86
:1041700043E25CE3C301B2010E94BC252B013C0178
:1041800020EF821621E09206A104B10409F08FCF3E
:10419000E4C080E098E0A0E0B0E0809389049093D0
:1041A0008A04A0938B04B0938C0480938D04909325
:1041B0008E04A0938F04B093900439E3CF57DF4F60
:1041C0003883C158D04088E2282E312C9AE0892EBD
:1041D00097ED992E93E2A92E9CE3B92EC12CD12CF8
:1041E000760180E090E4A0E0B0E0809385049093B5
:1041F0008604A0938704B093880480E090E00E9436
:104200003F0B2B013C0180E090E00E94840BCB57D8
:10421000DF4F688379838A839B83C558D040C3016D
:10422000B2012CE030E040E050E00E941828290163
:104230003A01CB57DF4F688179818A819B81C558CC
:10424000D0402CE030E040E050E00E941828CA0145
:10425000B901A30192010E9466100E94E10D05E0E0
:1042600010E0C8010E943F0B2B013C01C8010E94D5
:10427000840BCB57DF4F688379838A839B83C55830
:10428000D040C301B2012CE030E040E050E00E9499
:10429000182829013A01CB57DF4F688179818A813B
:1042A0009B81C558D0402CE030E040E050E00E94B7
:1042B0001828CA01B901A30192010E9466100B5F80
:1042C0001F4F0D3691E0190761F60E94FB0D20E0AB
:1042D00030E040E856E4C701B6010E9463270E941F
:1042E0009A26609385047093860480938704909344
:1042F00088040EE21EEF2FEF3FEF45EE5EEF6FEF0B
:104300007FEFCF57DF4F8881C158D0400E945409BA
:10431000A5019401C701B6010E94BC256B017C0177
:104320002FE632E143E05BE3C501B4010E94BC2506
:104330004B015C01A1E02A1A310809F052CFCF5796
:10434000DF4FB881C158D040B150CF57DF4FB8834D
:10435000C158D040B03309F036CF109280030E948C
:10436000940D0C94A615CF93DF93C5E7D4E027975F
:10437000CE010E94D20683E0CE3FD807C1F783EE7C
:1043800094E00E94D2068AEE94E00E94D20681EF69
:1043900094E0DF91CF910C94D206CF92DF92EF920E
:1043A000FF92ECEDF3E01382128288EEC82E83E0D8
:1043B000D82EE12CF12CC482D582E682F78288E5E2
:1043C00091E09183808388E993E09587848788EFE3
:1043D00094E09787868785EC90E0918B808B84ECC6
:1043E00090E0938B828B80EC90E0958B848B81ECBA
:1043F00090E0978B868B82EC90E0918F808F86EC9B
:1044000090E0938F828F84E0848F83E0858F87E0B4
:10441000868F85E0878F81E080A36DED72E081EF6C
:1044200094E00E944E0765E771E08AEE94E00E94F6
:104430004E0765E771E083EE94E00E944E0784E248
:10444000E0E3F1E0ABEBB4E001900D928A95E1F787
:10445000E5E7F4E085E090E09183808380E091E0FF
:10446000A0E0B0E082839383A483B5831682178291
:1044700010861186128613861486158615A616A632
:1044800017A610AA11AA12AA13AA14AA178616868A
:1044900081E090E0A0E0B0E0808B918BA28BB38BA9
:1044A000148A158A168A178A108E118E128E138E10
:1044B000148E158E168E178E8FEF9FEFDC0180A362
:1044C00091A3A2A3B3A314A215AA16AA17AA10AE69
:1044D00011AE12AE13AE14AE8FEF9FE0A0E0B0E0CD
:1044E0008093B2049093B304A093B404B093B50442
:1044F0008093B6049093B704A093B804B093B90422
:104500001092BA04C092DF04D092E004E092E10479
:10451000F092E20466EF72E08EEF93E00E944E07A5
:104520006AEF72E085E094E00E944E0767E073E076
:104530008CE094E00E944E0760E173E083E194E038
:104540000E944E0767E971E08AE194E00E944E07FD
:104550006CE871E081E294E00E944E0768E173E04C
:1045600088E294E00E944E076DE173E08FE294E0F0
:104570000E944E0764E273E086E394E00E944E07D7
:1045800064E373E08DE394E00E944E0760E473E01F
:1045900084E494E00E944E0762E971E08BE494E0C9
:1045A0000E944E076BE473E082E594E00E944E07A0
:1045B00061E573E089E594E00E944E076BE573E0E6
:1045C00080E694E00E944E0763E673E087E694E09D
:1045D0000E944E0761EA71E08EE694E0FF90EF9052
:1045E000DF90CF900C944E071F93FC0199278827EA
:1045F000BC01E89411911032E9F3193010F01E302B
:10460000C8F31B3251F01D3249F4689406C00E9471
:104610003423610F711D811D911D119110531A30AA
:10462000B0F33EF490958095709561957F4F8F4FD4
:104630009F4F1F910895F8940C94CC284532510552
:1046400020F4423010F00C942923FB011082CB019E
:104650000895BB274A3031F4992322F4BDE29095A6
:1046600081959F4F0C947723592F482F372F262F52
:10467000660F771F881F991F660F771F881F991F66
:10468000620F731F841F951F660F771F881F991F66
:1046900008952532310520F4223010F00C94542373
:1046A000FA011082CA010895BB27FA01A62F6217EA
:1046B000710581059105330B30FB66F0AA27660F63
:1046C000771F881F991FAA1FA21710F0A21B6395BE
:1046D0003850A9F7A05DAA3308F0A95DA19336F779
:1046E000B111B1931082CA010C949023BB27FB0136
:1046F0005527AA27880F991FAA1FA41710F0A41BDB
:1047000083955051B9F7A05DAA3308F0A95DA19334
:10471000009779F7B111B1931192CB010C949023CA
:10472000DC01FC01672F71917723E1F7329704C018
:104730007C916D9370836291AE17BF07C8F30895A3
:10474000CF93DF938230910510F482E090E0E09106
:104750003E05F0913F0520E030E0C0E0D0E030972A
:1047600011F14081518148175907C0F04817590786
:1047700061F482819381209719F09B838A832BC0F7
:1047800090933F0580933E0526C02115310519F011
:104790004217530718F49A01BE01DF01EF010280AE
:1047A000F381E02DDCCF2115310509F1281B390BF0
:1047B0002430310590F412968D919C9113976115D8
:1047C000710521F0FB019383828304C090933F0520
:1047D00080933E05FD01329644C0FD01E20FF31FB8
:1047E00081939193225031092D933C933AC02091AB
:1047F0003C0530913D05232B41F420910801309177
:10480000090130933D0520933C052091060130912C
:1048100007012115310541F42DB73EB740910A013A
:1048200050910B01241B350BE0913C05F0913D05A7
:10483000E217F307A0F42E1B3F0B2817390778F077
:10484000AC014E5F5F4F2417350748F04E0F5F1FD6
:1048500050933D0540933C058193919302C0E0E065
:10486000F0E0CF01DF91CF9108950F931F93CF9385
:10487000DF93009709F48CC0FC01329713821282F7
:1048800000913E0510913F050115110581F420812D
:104890003181820F931F20913C0530913D052817EF
:1048A000390779F5F0933D05E0933C0571C0D801D7
:1048B00040E050E0AE17BF0750F412962D913C91A6
:1048C0001397AD012115310509F1D901F3CF9D01F0
:1048D000DA013383228360817181860F971F8217EB
:1048E000930769F4EC0128813981260F371F2E5F69
:1048F0003F4F318320838A819B8193838283452B21
:1049000029F4F0933F05E0933E0542C01396FC93D3
:10491000EE931297ED01499159919E01240F351F95
:10492000E217F30771F480819181840F951F02963D
:1049300011969C938E938281938113969C938E9370
:104940001297E0E0F0E0D80112968D919C911397B8
:10495000009719F0F8018C01F6CF8D919C91980188
:104960002E5F3F4F820F931F20913C0530913D05F4
:104970002817390769F4309729F410923F051092EF
:104980003E0502C01382128210933D0500933C0540
:10499000DF91CF911F910F910895A0E0B0E0E3ED7A
:1049A000F4E20C945428EC01009721F4CB010E940E
:1049B000A023B8C0FC01E60FF71F9C01225031096B
:1049C000E217F30708F4ACC0D9010D911C911197BF
:1049D00006171707B0F00530110508F49FC0C8018D
:1049E00004978617970708F499C002501109061B0F
:1049F000170B019311936D937C93CF010E94352483
:104A00008DC05B01A01AB10A4C01800E911EA091CD
:104A10003E05B0913F0540E050E0E12CF12C1097AD
:104A200009F44AC0A815B905D1F56D907C9011978D
:104A3000630182E0C80ED11CCA14DB0480F1A3011B
:104A40004A195B096A0182E0C80ED11C1296BC901B
:104A500012971396AC91B5E0CB16D10440F0B28218
:104A6000A38351834083D9016D937C930AC00E5F69
:104A70001F4FC301800F911FF90191838083EB2D9C
:104A8000FA2FE114F10431F0D7011396FC93EE9361
:104A9000129744C0F0933F05E0933E053FC08D91CF
:104AA0009C9111974817590708F4AC017D011296A3
:104AB0000D90BC91A02DB3CF80913C0590913D0508
:104AC00088159905E1F446175707C8F48091060147
:104AD00090910701009741F48DB79EB740910A016C
:104AE00050910B01841B950BE817F907C8F4F0935C
:104AF0003D05E0933C05F901718360830FC0CB0154
:104B00000E94A0237C01009759F0A801BE010E94D9
:104B10009725CE010E943524C70104C0CE0102C0F2
:104B200080E090E0CDB7DEB7EEE00C947028FB019A
:104B3000DC0102C001900D9241505040D8F7089519
:104B4000FC018191861721F08823D9F799270895D0
:104B50003197CF010895FB01DC018D9101908019FF
:104B60000110D9F3990B0895FB01DC0101900D921E
:104B70000020E1F708955058BB27AA270E94D325AB
:104B80000C9424270E94162738F00E941D2720F03D
:104B900039F49F3F19F426F40C9413270EF4E09592
:104BA000E7FB0C940D27E92F0E94352758F3BA171D
:104BB000620773078407950720F079F4A6F50C9433
:104BC00057270EF4E0950B2EBA2FA02D0B01B9013B
:104BD00090010C01CA01A0011124FF27591B99F073
:104BE000593F50F4503E68F11A16F040A22F232F7F
:104BF000342F4427585FF3CF469537952795A795CF
:104C0000F0405395C9F77EF41F16BA0B620B730B75
:104C1000840BBAF09150A1F0FF0FBB1F661F771FE6
:104C2000881FC2F70EC0BA0F621F731F841F48F49B
:104C3000879577956795B795F7959E3F08F0B0CF24
:104C40009395880F08F09927EE0F9795879508950B
:104C50000E943C260C9424270E941D2758F00E9495
:104C6000162740F029F45F3F29F00C940D275111CD
:104C70000C9458270C9413270E94352768F3992326
:104C8000B1F3552391F3951B550BBB27AA27621748
:104C90007307840738F09F5F5F4F220F331F441F55
:104CA000AA1FA9F335D00E2E3AF0E0E832D0915089
:104CB0005040E695001CCAF72BD0FE2F29D0660F76
:104CC000771F881FBB1F261737074807AB07B0E8B9
:104CD00009F0BB0B802DBF01FF2793585F4F3AF0BF
:104CE0009E3F510578F00C940D270C9458275F3F98
:104CF000E4F3983ED4F3869577956795B795F79545
:104D00009F5FC9F7880F911D9695879597F908952C
:104D1000E1E0660F771F881FBB1F621773078407C8
:104D2000BA0720F0621B730B840BBA0BEE1F88F7D7
:104D3000E09508950E94A1266894B1110C9458271B
:104D400008950E943D2788F09F5798F0B92F992722
:104D5000B751B0F0E1F0660F771F881F991F1AF066
:104D6000BA95C9F714C0B13091F00E945727B1E04D
:104D700008950C945727672F782F8827B85F39F04C
:104D8000B93FCCF3869577956795B395D9F73EF4FF
:104D900090958095709561957F4F8F4F9F4F0895A7
:104DA000E89409C097FB3EF49095809570956195C5
:104DB0007F4F8F4F9F4F9923A9F0F92F96E9BB277B
:104DC0009395F695879577956795B795F111F8CFF7
:104DD000FAF4BB0F11F460FF1BC06F5F7F4F8F4F62
:104DE0009F4F16C0882311F096E911C0772321F058
:104DF0009EE8872F762F05C0662371F096E8862FF0
:104E000070E060E02AF09A95660F771F881FDAF746
:104E1000880F9695879597F9089597F99F6780E889
:104E200070E060E008959FEF80EC089500240A94FC
:104E30001616170618060906089500240A94121675
:104E40001306140605060895092E0394000C11F4A8
:104E5000882352F0BB0F40F4BF2B11F460FF04C055
:104E60006F5F7F4F8F4F9F4F089557FD9058440FAE
:104E7000551F59F05F3F71F04795880F97FB991FB9
:104E800061F09F3F79F08795089512161306140676
:104E9000551FF2CF4695F1DF08C016161706180603
:104EA000991FF1CF86957105610508940895E894DE
:104EB000BB2766277727CB0197F908950E94D02753
:104EC00008F48FEF08950E9476270C9424270E94FF
:104ED000162738F00E941D2720F0952311F00C941E
:104EE0000D270C94132711240C9458270E94352762
:104EF00070F3959FC1F3950F50E0551F629FF0012D
:104F0000729FBB27F00DB11D639FAA27F00DB11D45
:104F1000AA1F649F6627B00DA11D661F829F2227CE
:104F2000B00DA11D621F739FB00DA11D621F839F55
:104F3000A00D611D221F749F3327A00D611D231F2B
:104F4000849F600D211D822F762F6A2F11249F5779
:104F500050409AF0F1F088234AF0EE0FFF1FBB1F7C
:104F6000661F771F881F91505040A9F79E3F51053B
:104F700080F00C940D270C9458275F3FE4F3983E83
:104F8000D4F3869577956795B795F795E7959F5FE5
:104F9000C1F7FE2B880F911D9695879597F9089577
:104FA000990F0008550FAA0BE0E8FEEF161617063A
:104FB000E807F907C0F012161306E407F50798F0A2
:104FC000621B730B840B950B39F40A2661F0232BBB
:104FD000242B252B21F408950A2609F4A140A69537
:104FE0008FEF811D811D0895DB018F939F930E9498
:104FF0003D28BF91AF91A29F800D911DA39F900D61
:10500000B29F900D1124089597FB072E16F400947B
:1050100007D077FD09D00E94872807FC05D03EF411
:10502000909581959F4F0895709561957F4F089554
:10503000052E97FB1EF400940E942F2857FD07D0E1
:105040000E949B2807FC03D04EF40C942F28509507
:105050004095309521953F4F4F4F5F4F0895909564
:105060008095709561957F4F8F4F9F4F0895EE0FFC
:10507000FF1F0590F491E02D09940E94BD28A59F83
:10508000900DB49F900DA49F800D911D1124089543
:10509000B7FF0C943D280E943D28821B930B089576
:1050A0002F923F924F925F926F927F928F929F9238
:1050B000AF92BF92CF92DF92EF92FF920F931F9326
:1050C000CF93DF93CDB7DEB7CA1BDB0B0FB6F894D7
:1050D000DEBF0FBECDBF09942A88398848885F8417
:1050E0006E847D848C849B84AA84B984C884DF8088
:1050F000EE80FD800C811B81AA81B981CE0FD11D6C
:105100000FB6F894DEBF0FBECDBFED010895AA1B08
:10511000BB1B51E107C0AA1FBB1FA617B70710F0A2
:10512000A61BB70B881F991F5A95A9F780959095D4
:10513000BC01CD010895A1E21A2EAA1BBB1BFD01E3
:105140000DC0AA1FBB1FEE1FFF1FA217B307E40766
:10515000F50720F0A21BB30BE40BF50B661F771FBE
:10516000881F991F1A9469F760957095809590959E
:105170009B01AC01BD01CF010895A29FB001B39F77
:10518000C001A39F700D811D1124911DB29F700D50
:10519000811D1124911D089515E0CCE3D5E004C0D4
:1051A000FE010E9437282196CD33D107C9F7F89424
:0251B000FFCF2F
:1051B200B80B00001900000040052000004000006C
:1051C200000000000000000000000000004000009D
:1051D200000000000000000000000000004000008D
:1051E200004000000000000000000000000000007D
:1051F200004000000000000000000000000000006D
:105202000040000000000000FB0C6705840D480D03
:10521200680D3D0D444542554720596F7520736511
:105222006E74203A20004445425547206C617365F4
:1052320072436F6D6D616E64203D2000504C414E93
:10524200450042494B45004C4153455253484F5744
:1052520000434F554E54444F574E00444542554724
:10526200204C61736572206D6F64652073657420D4
:10527200746F20002073656C656374656400444537
:10528200425547204C6173657220004445425547A0
:10529200204C6173657220696E74657276616C2050
:1052A20073657420746F20004445425547204C6159
:1052B200736572204D6F646520002053697A652002
:1052C20000204C656E6774682000204D73672000D3
:1052D20020416E696D6174696F6E200044454255CC
:1052E2004720696E20647261775363726F6C6C65DC
:1052F20072202D206D617843686172206C696D693E
:1053020074656420746F2039392077617320004CF2
:1053120041534552004445425547206C61736572C2
:1053220053697A65203D2000416E696D6174696F31
:105332006E004D6172717565650050726573656EC0
:105342007473005374617469630032204C696E6532
:1053520000466C617368696E6700486F72697A6FA4
:105362006E74616C205370696E0056657274696365
:10537200616C205370696E004F666600496E7465F9
:105382007276616C00556E6B6E6F776E00434845A6
:105392004C54454E48414D202D20313743202D207D
:1053A20057494E4459004F4646004C4554544552C5
:1053B2004546464543540050524553454E545300CA
:1053C20041524455494E4F004C4F474F0057454CB0
:1053D2004F56450041524455494E4F3244524F5464
:1053E200415445005748415441424F5554334400BB
:1053F200524F544154454355424500474C4F424554
:105402000041524455494E4F3344004F424A4543AE
:105412005453004A554D50494E4754455854000084
:00000001FF
