:100000000C946D050C9495050C9495050C94950530
:100010000C9495050C9495050C9495050C949505F8
:100020000C9495050C9495050C9495050C949505E8
:100030000C9495050C9495050C9495050C949505D8
:100040000C9405080C9495050C946E140C943314C0
:100050000C9495050C9495050C9495050C949505B8
:100060000C9495050C949505161682178217821725
:100070008217B0168217B0162F17821782178217B1
:10008000B01682178217B01682178217B016821721
:100090008217B01682170117B008CB08CB08CB081F
:1000A000CB08BC08CB08BF08C808CB08CB08CB08D6
:1000B000B308CB08CB08B608CB08CB08B908CB08E7
:1000C000CB08C208CB08C5084D0A630A630A630A55
:1000D000630A630A630A630A630A630A630A630AB8
:1000E000630A5B0A630A070A0E0A150A1C0A230A36
:1000F0002A0A310A380A3F0A460A630A630A630A6F
:10010000630A630A540A630A3D0944094B09520908
:100110005909600967096E097B0988098F099609E1
:100120009D09A409AB09B209B909C009C709CE09DB
:10013000D509DC09630AF209F909000A7C02D70033
:100140007082C7003082CE00EB81D700EB81D800EF
:10015000EA81D800EF81DB00FC81DF007C82D700E0
:10016000B303260098830E008683070007830C00E4
:10017000C4811800B18111009E810C0075810300BB
:1001800051810000FF800500C5801900E1801C003E
:10019000ED802700EE802B00EF802E00E6804300EC
:1001A000CC804F00B1804F00A18040009E8036007F
:1001B000A2802D009C80330095803F00B2806500B6
:1001C0000F818E003F81BD007281CB00B181C500DF
:1001D000FC81BB003882B4006382B2008382D90004
:1001E000C3824B01CF824B01D8824A01DF82480192
:1001F000E8824501CF82D2007283C2006E83BD00C7
:100200006783B9003483B900C782BD00BA828F000A
:10021000A5827C0083825F006E8251005082410083
:10022000B3832600E8008500D6807E00BC80730082
:10023000AF806A009D805C00598083000280B3001B
:100240000080B5000080B6001180BD004580C2006E
:10025000E8808500DE002B00D4802000B4801C00E4
:10026000A7801F00A2802700AB803C00C580420011
:10027000D8803B00DE802B00DE802B00EA01760078
:10028000DF81A500B681AB00C9817100EA817600EB
:10029000BB016F00AA81AB00A4816B00BB816F0022
:1002A000A001AD007B81B7005B81BB005081BA002B
:1002B0004781B9003381AB0019818D002E818C00FC
:1002C0004E81880072817E0098816F00A081AD0010
:1002D0000040FD3FF63FE93FD83FC13FA63F853F85
:1002E000603F363F073FD23E993E5C3E193ED13DCE
:1002F000853D343DDE3C833C233CBF3B563BE93AE5
:10030000773A003A853906398238F9376C37DB3667
:100310004636AC350E356C34C6331C336E32BC31C8
:1003200006314D308F2FCE2E092E412D752CA52B49
:10033000D32AFC2923294628662784269E25B5240E
:10034000C923DB22EA21F620FF1F071F0B1E0E1D0B
:100350000E1C0C1B071A0119F917EF16E315D6141A
:10036000C613B612A41190107B0F650E4E0D360CFD
:100370001D0B030AE808CC07B00693057604590361
:100380003B021D0100001D015F00EE802F001D815A
:1003900000004D812F001D815F000000F9020080E8
:1003A00029032F8088035F80B803BE80E8037C8127
:1003B000E803DC81B8030B8288033B8229033B827C
:1003C000CA020B826B02DC813B021D81DC011D81B4
:1003D0004D011D015F00EE802F001D8100004D8149
:1003E0002F001D815F002F00E8032F804D012F009B
:1003F0005F0000802F002F8000005F802F002F8083
:100400005F006B029A023B820B02DC81AC014D81E2
:100410007C011D817C018E80AC012F800B0200804D
:100420009A020080CA022F8059038E80B8031D8172
:10043000E8034D81E803DC81B8033B8259036B82FA
:100440009A026B82AC013B82BE00DC812F004D81A1
:100450000000EE8000005F802F002F808E00EE00F5
:10046000E8035F80B8032F8059032F80F9025F8073
:100470009A02BE806B027C813B020B820B026B8274
:10048000AC019A824D019A82BE006B825F003B8272
:100490002F00AC810000EE8000005F802F002F80D5
:1004A0005F000080BE0000804D012F80AC018E8077
:1004B0000B021D813B02DC816B023B829A026B8244
:1004C000F9026B8259033B82B803AC81E803EE80EA
:1004D000E8039A02E803BE8000000000E8039A8265
:1004E000E8033B0259030B82B8037C81E8031D81BA
:1004F000E8038E80B8032F80290300803B02008030
:100500004D012F808E008E802F001D8100004D81B7
:100510000000DC812F003B828E006B821D016B820C
:100520004D013B82DC01DC813B024D816B021D8170
:100530006B028E803B022F80DC0100804D013B026C
:10054000E8035F80E8032F803B025F806B02EE8050
:100550009A027C819A020B826B026B820B029A8256
:100560007C019A821D016B828E000B822F007C81A0
:100570000000EE8000005F802F002F805F00008071
:10058000BE00DC01E80300804D01CA824D01DC01A0
:10059000E803DC8100005F00E8036B82E8034D8123
:1005A0006B02DC816B023B823B026B820B029A8204
:1005B0007C019A821D016B828E000B822F007C8150
:1005C0000000EE8000005F802F002F805F00008021
:1005D000BE002F00F9022F8029035F8088038E80E0
:1005E000B803EE80E803AC81E8030B82B8033B82DA
:1005F00088036B8229036B82CA023B826B02DC8117
:10060000DC01008000009A820000000029035F8066
:100610005903EE80E803EE8000001D01E8038E80A0
:10062000B8032F80290300803B020080AC012F809B
:10063000BE008E802F001D8100007C8100000B8297
:100640002F006B82BE009A82AC019A823B026B82C1
:1006500029030B82B8037C81E8031D81E8039A0219
:10066000E803008000000000E8039A82E80300002D
:1006700000009A8200000000E8037C810B027C816C
:100680000000F902E8037C810B020000E8039A8273
:1006900000009A02E803008000000000E803EE80FA
:1006A0000000DC01E803EE800000DC01E803CA8200
:1006B0000000B803E803CA8200000000E8037C8160
:1006C0000000F902E8037C8100000000E8030080DC
:1006D0001D012F808E008E802F001D8100007C81E7
:1006E00000000B822F006B828E009A821D019A827D
:1006F000E8034D01E8034D8100000000E8039A8201
:10070000E8039A0259033B82B803AC81E803EE8008
:10071000E8035F80B803008059030080F9022F804E
:100720009A025F806B02BE803B02DC81DC013B826F
:10073000AC016B827C019A821D019A828E003B8201
:100740002F00AC810000EE8000005F802F00008051
:100750008E000000E803008000000000E803AC8188
:10076000E8033B82B8036B8288039A8229039A824A
:10077000CA026B826B023B823B02AC810B0200809F
:100780000B024D010B029A8200001D014704BE803E
:1007900017045F80B8032F8059030080CA020080CD
:1007A000DC012F804D015F80EE00BE808E001D8138
:1007B0005F00DC815F003B828E009A82EE00CA827D
:1007C0004D01F982DC01F982CA02CA8259039A8278
:1007D000B8033B821704DC8147041D814704AC0148
:1007E0001D01CA8200000000E80300800000000034
:1007F000E803AC81E8033B82B8036B8288039A82EA
:1008000029039A829A026B823B023B820B02AC81E3
:10081000DC010080DC011D01E803BE80B8035F80BD
:1008200059032F80F90200806B0200807C012F8029
:10083000EE005F808E00BE802F001D810000DC81F5
:1008400000003B822F009A828E00CA82EE00F9825D
:100850007C01F9826B02CA82F9029A8259033B82B7
:10086000B803DC81E8031D81E8030000E803008091
:1008700000000000E8039A8200009A02E8039A82CE
:1008800000000000E803008000000000E8037C8115
:100890000000F902E8037C810000F902E803F98214
:1008A00000000000E803008000003B820000000020
:1008B000E803008000009A02E80300804D01EE008A
:1008C0003B029A820000DC01E803DC81EE00AC818F
:1008D0005F007C812F001D810000BE8000005F80D2
:1008E0002F002F805F000080EE0000804D0100008F
:1008F000E803008000000000E803008000009A0286
:10090000E8039A82000000000B029A820B02CA02DE
:10091000F9029A8259033B82B803DC81E8031D8106
:10092000E803BE80B8035F8059032F80F90200807E
:100930006B0200807C012F80EE005F808E00BE8005
:100940002F001D810000DC8100003B822F009A8275
:100950008E00CA82EE00CA827C01DC017C01CA8260
:100960007C010000E803008000000000E8036B82C7
:10097000E80300000B027C810B020000E80300800A
:1009800000000000E8036B82E80300000B027C819A
:100990000B02000000006B8200000000E8030080F2
:1009A00000000000E8034D81E803DC81B8033B82CE
:1009B00059036B82F9029A826B029A827C016B82E4
:1009C000EE003B828E00DC812F004D810000008014
:1009D0000000CA02F9029A8259033B82B803DC8103
:1009E000E8031D81E803BE80B8035F8059032F80B0
:1009F000F90200806B0200807C012F80EE005F8096
:100A00008E00BE802F001D810000DC8100003B8233
:100A10002F009A828E00CA82EE000000E803008058
:100A200000000000E803AC81E8033B82B8036B825E
:100A300088039A8229039A82CA026B826B023B82E4
:100A40003B02AC810B0200000B02AC810B023B822B
:100A5000DC016B82AC019A824D019A82BE006B82EE
:100A60005F003B822F00AC810000008000007C0111
:100A7000E803008000007C01E803F98200008E009A
:100A80004D016B824D0100000007000201000003D0
:100A90000406000000000000000000000000250027
:100AA00028002B0000000000240027002A00040476
:100AB0000404040404040202020202020303030306
:100AC00003030102040810204080010204081020E2
:100AD0000102040810202021062111241FBECFEF9F
:100AE000D8E0DEBFCDBF13E0A0E0B1E0E2E4F0E586
:100AF00002C005900D92A836B107D9F725E0A8E607
:100B0000B3E001C01D92A833B207E1F715E0CCE6CF
:100B1000D5E004C02197FE010E947F27CB36D10784
:100B2000C9F70E94A8140C946E220C940000CF9276
:100B3000DF92EF92FF920F931F93CF93DF936C019D
:100B4000EB017B01E40EF51E00E010E0CE15DF05A1
:100B500061F06991D601ED91FC910190F081E02D59
:100B6000C6010995080F191FF1CFC801DF91CF9178
:100B70001F910F91FF90EF90DF90CF900895CF934A
:100B8000DF93EC0188819981009711F00E948823FE
:100B9000198218821D821C821B821A82DF91CF91DA
:100BA0000895FC01248135816217730748F4808120
:100BB0009181009729F0FC01E60FF71F80810895CD
:100BC00080E00895FC01248135816217730720F4C9
:100BD00080819181009729F410927E038EE793E043
:100BE0000895860F971F0895FC0124813581232BDA
:100BF00031F421E061157105A1F0FB0108C0FC0191
:100C0000808191816115710531F421E0FC018081C1
:100C1000882339F005C00E94F32421E0892B09F0D4
:100C200020E0822F08950F931F93CF93DF938C01C1
:100C3000EB01FC0180819181009799F04281538101
:100C40002C813D814217530750F0688179810E94C1
:100C5000FC248C819D81F8019583848313C00E94BC
:100C6000882388819981F801918380838A819B817F
:100C7000938382838C819D819583848319821882DA
:100C80001B821A821D821C82DF91CF911F910F91CE
:100C900008950F931F93CF93DF93EC01888199817F
:100CA000009729F02A813B812617370788F48B01AA
:100CB0006F5F7F4F0E942024009761F099838883A3
:100CC0001B830A832C813D81232B11F4FC011082AC
:100CD00081E001C080E0DF91CF911F910F910895D5
:100CE000EF92FF920F931F93CF93DF93FC01248128
:100CF00035816115710511F480E019C04115510568
:100D0000A9F07B01EC018A01020F131FB8010E94B8
:100D10004906882389F3288139818C819D81B70117
:100D2000820F931F0E94FC241D830C8381E0DF91BE
:100D3000CF911F910F91FF90EF900895CF93DF9384
:100D4000EC016115710561F0FB0101900020E9F7EC
:100D50003197AF01461B570B0E947006811103C0EB
:100D6000CE010E94BF05CE01DF91CF910895CF93B0
:100D7000DF93EC01FB0144815581608171810E9408
:100D80007006811103C0CE010E94BF05CE01DF9124
:100D9000CF910895EF92FF920F931F93CF93DF931C
:100DA000EC017B018A01BA010E944906811104C04D
:100DB000CE010E94BF0507C01D830C83B701888147
:100DC00099810E94FC24CE01DF91CF911F910F9158
:100DD000FF90EF900895CF93DF93EC0161157105BB
:100DE00059F0FB0101900020E9F73197AF01461B54
:100DF000570B0E94CA0602C00E94BF05CE01DF91B8
:100E0000CF910895FC01808191810C9488230F93E8
:100E10001F93CF93DF93CDB7DEB7A1970FB6F894AA
:100E2000DEBF0FBECDBF8C01CB01BA01F80111822C
:100E300010821382128215821482168230E0AE0173
:100E40004F5F5F4F0E949C22BE016F5F7F4FC801C2
:100E50000E94EB06A1960FB6F894DEBF0FBECDBF81
:100E6000DF91CF911F910F9108950F931F93CF930F
:100E7000DF93CDB7DEB762970FB6F894DEBF0FBE33
:100E8000CDBF8C01CB01F801118210821382128236
:100E900015821482168250E0BE016F5F7F4F0E9460
:100EA0007122BE016F5F7F4FC8010E94EB06629600
:100EB0000FB6F894DEBF0FBECDBFDF91CF911F916B
:100EC0000F910895FB01DC0111961C921E9213965E
:100ED0001C921E92129715961C921E9214971696AB
:100EE0001C928617970749F0608171816115710521
:100EF00021F0448155810C94CA060895FC011182A9
:100F00001082138212821582148216826115710575
:100F100051F0FB0101900020E9F73197AF01461B2A
:100F2000570B0C94CA06089590E0FC01EA57F54F60
:100F30003491FC01EE53F54F2491FC01E255F54F3D
:100F4000E491EE2309F43BC0332339F1333091F0BF
:100F500038F43130A9F0323001F584B58F7D12C0FC
:100F6000363091F03730A1F03430B9F48091800000
:100F70008F7D03C0809180008F77809380000DC0AB
:100F800084B58F7784BD09C08091B0008F7703C08E
:100F90008091B0008F7D8093B000F0E0EE0FFF1FD6
:100FA000E656F54FA591B4918FB7F894EC91611185
:100FB00003C020952E2301C02E2B2C938FBF0895A4
:100FC0003FB7F89480917A0390917B03A0917C03C2
:100FD000B0917D0326B5A89B05C02F3F19F001965F
:100FE000A11DB11D3FBFBA2FA92F982F8827820FAF
:100FF000911DA11DB11DBC01CD0142E0660F771FFF
:10100000881F991F4A95D1F708951F920F920FB626
:101010000F9211242F933F938F939F93AF93BF937E
:101020008091680390916903A0916A03B0916B036A
:101030003091790323E0230F2D3720F40196A11D71
:10104000B11D05C026E8230F0296A11DB11D2093F6
:1010500079038093680390936903A0936A03B09324
:101060006B0380917A0390917B03A0917C03B091F4
:101070007D030196A11DB11D80937A0390937B039C
:10108000A0937C03B0937D03BF91AF919F918F910B
:101090003F912F910F900FBE0F901F901895CF93F7
:1010A000DF93CDB7DEB72E970FB6F894DEBF0FBE35
:1010B000CDBF43E050E061E070E0CE0101960E94B8
:1010C000C31389819A81009719F00E94472203C0B7
:1010D00060E070E0CB017093050160930401CE01E4
:1010E00001960E94020760910401709105014AE097
:1010F000CE0108960E94350765E672E0CE010196A2
:101100000E947E07BE01685F7F4FCE0101960E945C
:10111000B7060E947C13CE0101960E940207CE0101
:1011200008960E9402072E960FB6F894DEBF0FBEF7
:10113000CDBFDF91CF910895CF93DF93EC0165E7A9
:1011400071E00E947E07E0916C03F0916D03E15421
:10115000F109E831F105F8F4E45BFF4F0C947F27C7
:1011600068E772E01AC062E872E017C06AE872E0ED
:1011700014C063E972E011C06AE972E00EC063EA6C
:1011800072E00BC063EB72E008C061EC72E005C076
:1011900065EC72E002C06EEC72E0CE010E94EB06DC
:1011A000CE01DF91CF9108954F925F926F927F921F
:1011B0008F929F92AF92BF92CF92DF92EF92FF9267
:1011C0000F931F93CF93DF93EC016B0149015A01F9
:1011D000270138011C141D041CF5FE01E590F49054
:1011E000FE01329605911491249681E0C81AD10827
:1011F000F7FE03C00E94810D02C00E949B0DA30157
:101200009201200F311F411D511DE894F7F8C501CF
:10121000B4016E0D7F1D811D911D0E940610DACF55
:10122000DF91CF911F910F91FF90EF90DF90CF90C2
:10123000BF90AF909F908F907F906F905F904F90F6
:101240000C949B0D8F929F92AF92BF92EF92FF9260
:101250000F931F9378018901893409F446C08735BB
:1012600009F4B1C090E0FC01B197EA33F10508F050
:101270002AC1EC59FF4F0C947F279A01AB0166E01D
:1012800070E08EE69AE01DC19A01AB0165E170E065
:101290008AE19AE016C19A01AB0162E170E082ED49
:1012A00099E00FC19A01AB016EE070E08AE999E024
:1012B00008C19A01AB0168E070E08AE799E001C1DA
:1012C0009A01AB0166E070E082E699E0FAC09A010B
:1012D000AB0165E170E08EE099E0F3C09A01AB01EB
:1012E00066E070E086EF98E0ECC038EC832E912C3D
:1012F000A12CB12C06C022E5822E23E0922EA12C37
:10130000B12C9A01AB0162E070E08EEE98E067C00C
:101310009A01AB016AE070E086EC98E0D2C09A01D5
:10132000AB0166E070E08EEA98E0CBC09A01AB01B9
:1013300063E070E082EA98E0C4C09A01AB0168E023
:1013400070E082E898E0BDC09A01AB0166E070E011
:101350008AE698E0B6C09A01AB0165E170E086E1EB
:1013600098E0AFC09A01AB016CE070E086EE97E0C8
:10137000A8C09A01AB0167E170E08AE897E0A1C0DC
:101380009A01AB016EE070E082E597E09AC09A01A5
:10139000AB0164E170E082E097E093C09A01AB0199
:1013A00064E070E082EF96E08CC09A01AB016AE0E5
:1013B00070E08AEC96E085C09A01AB0164E070E0D1
:1013C0008AEB96E07EC098EE892E93E0992EA12CB0
:1013D000B12C9A01AB0168E070E08AE996E00E94C6
:1013E000D40877C09A01AB0164E070E08AE896E027
:1013F00068C09A01AB0165E070E086E796E061C0E5
:101400009A01AB0166E070E08EE596E05AC09A0161
:10141000AB0161E170E08AE196E053C09A01AB0153
:1014200064E070E08AE096E04CC09A01AB016EE0A7
:1014300070E082ED95E045C09A01AB016FE070E08D
:1014400086E995E03EC09A01AB0165E070E082E874
:1014500095E037C09A01AB0161E170E08EE395E061
:1014600030C09A01AB0167E170E082EE94E029C0E0
:101470009A01AB0164E070E082ED94E022C09A0131
:10148000AB016DE170E08EE594E01BC09A01AB0109
:1014900067E170E082E094E014C09A01AB0167E07C
:1014A00070E086EE93E00DC09A01AB0163E170E05D
:1014B0008AE993E006C09A01AB0165E070E086E836
:1014C00093E00E94D40882E5882E83E0982EA12C18
:1014D000B12CC501B4011F910F91FF90EF90BF9007
:1014E000AF909F908F900895CF92DF92EF92FF92EE
:1014F0000F931F93CF93DF938C01C0E0D0E0C12CFA
:10150000D12C7601BE01C8010E94D1058823C1F00B
:10151000893439F0873551F488EE93E0A0E0B0E0EB
:1015200009C088EC90E0A0E0B0E004C082E593E060
:10153000A0E0B0E0C80ED91EEA1EFB1E2196E2CF45
:10154000C701B601DF91CF911F910F91FF90EF90EE
:10155000DF90CF9008952F923F924F925F926F92BB
:101560007F928F929F92AF92BF92CF92DF92EF9233
:10157000FF920F931F93CF93DF9300D000D0CDB78E
:10158000DEB79A838983362E272E3C832B83C12C8A
:10159000D12C2A01550F66087708EB81FC81CE1605
:1015A000DF0624F5832C922CE12CF12CB7018981E4
:1015B0009A810E94D1058823A9F0092C000CAA0861
:1015C000BB0893018201B501A4010E942209DC013C
:1015D000CB01880D991DAA1DBB1D4C018FEFE81A88
:1015E000F80AE4CF9FEFC91AD90AD7CF0F900F900E
:1015F0000F900F90DF91CF911F910F91FF90EF907F
:10160000DF90CF90BF90AF909F908F907F906F9022
:101610005F904F903F902F900895893621E0920778
:1016200018F0E0EDF2E039C09C012F5031402A352E
:10163000310528F4E8E6F1E0E81BF90B2AC09C012B
:10164000255B31092A35310530F4FC01EE0FFF1F0F
:10165000E859FE4F0EC09C012B5531092A35310542
:10166000B8F4E4EBF0E0E81BF90BEE0FFF1FE053DA
:10167000FD4F65917491CB01A0E0B0E09C01AD01FC
:1016800066277727CB01621B730B840B950B08959C
:10169000FC01EE0FFF1FE053FD4F6591749180E058
:1016A00090E008959C01265A3F4F233C314018F0AA
:1016B000E0EDF2E03DC09C012F5031402A3531056C
:1016C00030F4FC01EE0FFF1FEC54FF4F0EC09C01E5
:1016D000255B31092A353105B8F4EEE0F1E0E81B6D
:1016E000F90BEE0FFF1FE053FD4F65917491CB0195
:1016F000A0E0B0E09C01AD0166277727CB01621B1B
:10170000730B840B950B08959C012B5531092A35D9
:10171000310530F4FC01EE0FFF1FE45EFD4F08C001
:10172000EAE5F0E0E81BF90BEE0FFF1FE053FD4F79
:101730006591749180E090E008950F931F93CF938B
:10174000DF93EC018B0184E2ECE0F1E0DE0101903B
:101750000D928A95E1F7CB010E940D0B6883798386
:101760008A839B83C8010E94520B9B01AC0188278E
:101770009927DC01821B930BA40BB50B88879987F3
:10178000AA87BB87C8010E94520B688F798F8A8F06
:101790009B8FC8010E940D0B68A379A38AA39BA30A
:1017A000CE01DF91CF911F910F9108950F931F9359
:1017B000CF93DF93EC018B0184E2ECE0F1E0DE01FA
:1017C00001900D928A95E1F7CB010E940D0B688B79
:1017D000798B8A8B9B8BC8010E94520B6C8B7D8B03
:1017E0008E8B9F8BC8010E94520B9B01AC018827F6
:1017F0009927DC01821B930BA40BB50B8C8F9D8F5B
:10180000AE8FBF8FC8010E940D0B68A379A38AA376
:101810009BA3CE01DF91CF911F910F9108952A983C
:101820009EBD0DB407FEFDCF9EB58EBD0DB407FE67
:10183000FDCF8EB52A9A0895CF93DF93EB014091A7
:101840008C0350918D0321E030E0042E02C0220F62
:10185000331F0A94E2F7215031092817390708F499
:10186000C9012CE030E0241B350B02C0880F991F02
:101870002A95E2F720918303309184032227307F59
:10188000822B932B90938403809383030E940F0CED
:1018900040918C0350918D0381E090E0042E02C0B2
:1018A000880F991F0A94E2F70197C817D90708F41F
:1018B000CE012CE030E0241B350B02C0880F991FAD
:1018C0002A95E2F720918503309186032227307F05
:1018D000822B932B90938603809385030E940F0C99
:1018E00080918E03882349F080918A0390918B0325
:1018F00097FD03C05F9800005F9ADF91CF91089534
:10190000CF92DF92EF92FF92C090E504D090E60470
:10191000E090E704F090E8046C157D058E059F05C6
:1019200084F0C090ED04D090EE04E090EF04F090CD
:10193000F004C616D706E806F90634F482E090E013
:1019400005C081E090E002C080E090E0C090E90432
:10195000D090EA04E090EB04F090EC042C153D05E7
:101960004E055F0514F484600EC0C090F104D09061
:10197000F204E090F304F090F404C216D306E406F7
:10198000F5060CF48860FF90EF90DF90CF900895FB
:1019900008950F931F93CF93DF93FC01A685B7851E
:1019A0008D01005C1F4FE8018881998101968F733A
:1019B0009927AD014E5B5F4FEA012881398182177B
:1019C0009307D1F3E80128813981A20FB31F6C93EB
:1019D000A685B785A05CBF4F11969C938E93A68970
:1019E000B7892C9181E090E0078C02C0880F991F85
:1019F0000A94E2F7822B8C9381E081A30488F58915
:101A0000E02D80818064808381E090E0DF91CF9140
:101A10001F910F910895FC0181A1882329F0A489C9
:101A2000B5898C9186FFFBCF11A20895FC01A48596
:101A3000B585FD01E05CFF4F2081318132968081C8
:101A400091812817390779F080819181A80FB91FFA
:101A50008C91208131812F5F3F4F2F73332731834A
:101A6000208390E008958FEF9FEF0895DC011C968E
:101A7000ED91FC911D97DF01A05CBF4F2D913C9132
:101A8000119712968D919C9111972817390739F06B
:101A90008D919C91E80FF91F808190E008958FEF60
:101AA0009FEF0895FC0124853585F901E05CFF4F27
:101AB00080819181329620813181821B930B8F73BB
:101AC0009927089590E0FC01EE53F54F2491FC0115
:101AD000E255F54F8491882399F090E0880F991F83
:101AE000FC01EC55F54FA591B491FC01E656F54F7C
:101AF000859194918FB7F894EC91E22BEC938FBF82
:101B000008958091BE049091BF04892B99F480912F
:101B1000D40481110FC08AEC97E00197F1F781E0BE
:101B200090E09093BF048093BE0461E08091B00484
:101B30000C94940708958091BE049091BF04892B62
:101B400069F08AEC97E00197F1F71092BF041092C8
:101B5000BE0460E08091B0040C94940708952F9225
:101B60003F924F925F926F927F928F929F92AF922D
:101B7000BF92CF92DF92EF92FF920F931F93CF937A
:101B8000DF93CDB7DEB7A0970FB6F894DEBF0FBED8
:101B9000CDBF69877A878B879C872D873E874F8744
:101BA000588B8091B6049091B704A091B804B0917D
:101BB000B90489849A84AB84BC84881A990AAA0AD5
:101BC000BB0A8091BA049091BB04A091BC04B0916F
:101BD000BD0429013A01481A590A6A0A7B0A898216
:101BE0009A82AB82BC82B7FE0BC022273327A901A1
:101BF000281939094A095B0929833A834B835C8395
:101C00008091B2049091B304A091B404B091B50452
:101C10008D839E83AF83B88729813A814B815C8114
:101C2000BC01CD010E943C276B017C01A0E2DA0ED1
:101C3000E11CF11CA70196010EE0559547953795DB
:101C400027950A95D1F7298B3A8B4B8B5C8B7301C7
:101C5000620177FE07C0CC24DD247601C418D508C4
:101C6000E608F708A70196016D817E818F8198852E
:101C70000E943C27DC01CB01905EAF4FBF4F1EE0BE
:101C8000B595A795979587951A95D1F72091CC048E
:101C90003091CD044091CE045091CF042D8B3E8BDA
:101CA0004F8B588F29813A814B815C81C20ED31EA4
:101CB000E41EF51E2D893E894F89588DC20ED31E14
:101CC000E41EF51EC092CC04D092CD04E092CE0466
:101CD000F092CF04C988DA88EB88FC88C816D90648
:101CE000EA06FB0614F46C017D01C501B401EEE0C7
:101CF000660F771F881F991FEA95D1F7FEE0440C05
:101D0000551C661C771CFA95D1F7A70196010E9415
:101D10006027298B3A8B4B8B5C8BC301B201A701E7
:101D200096010E946027298F3A8F4B8F5C8F812C00
:101D3000A0E29A2EA12CB12C20E030E240E050E04D
:101D400029833A834B835C831D821E821F821886FF
:101D5000A701960121503109410951092D8F3E8F6C
:101D60004F8F58A322242A94BFE03B2E2D813E8121
:101D70004F8158858D8D9E8DAF8DB8A1281739075D
:101D80004A075B070CF0C6C00091D0041091D10443
:101D90002091D2043091D3040F3F4FEF1407240752
:101DA000340709F46CC08091D404811168C0498063
:101DB0005A806B807C805EE075946794579447945A
:101DC0005A95D1F7750164016EE0F594E794D794C4
:101DD000C7946A95D1F7B301A20177FE07C04427E3
:101DE0005527BA0144195509660977098D899E89D5
:101DF000AF89B88D480F591F6A1F7B1FD701C601D5
:101E0000F7FE07C088279927DC018C199D09AE09C8
:101E1000BF09840F951FA61FB71F081719072A07A8
:101E20003B076CF50E949B0D91E09093D404809148
:101E3000B6049091B704A091B804B091B904480ECB
:101E4000591E6A1E7B1E4092D5045092D6046092A1
:101E5000D7047092D8048091BA049091BB04A091E9
:101E6000BC04B091BD04C80ED91EEA1EFB1EC09270
:101E7000D904D092DA04E092DB04F092DC04298DDC
:101E80003A8D4B8D5C8D820E931EA41EB51E29814A
:101E90003A814B815C8189899A89AB89BC89280FF9
:101EA000391F4A1F5B1F29833A834B835C83DA0106
:101EB000C9012EE0B595A795979587952A95D1F7F5
:101EC0002091B6043091B704820F931FB101681BB3
:101ED000790B950184014EE0359527951795079567
:101EE0004A95D1F78091BA049091BB04080F191F4D
:101EF000C101801B910B0E941C0C2D813E814F81E2
:101F000058852F5F3F4F4F4F5F4F2D833E834F8349
:101F100058872CCF8091D404811138C08091D0048F
:101F20009091D104A091D204B091D3048F3FEFEFF0
:101F30009E07AE07BE0751F14091CC045091CD04ED
:101F40006091CE047091CF0484179507A607B70758
:101F5000ECF40E949B0D81E08093D40429853A859E
:101F60004B855C852093D5043093D6044093D704E9
:101F70005093D8048D859E85AF85B8898093D90408
:101F80009093DA04A093DB04B093DC0429853A85AE
:101F90004B855C852093B6043093B7044093B80416
:101FA0005093B9048D859E85AF85B8898093BA0416
:101FB0009093BB04A093BC04B093BD048FEF9FE04B
:101FC000BC01621B730BAD85BE858A1B9B0B0E94F7
:101FD0001C0C8EE090E00197F1F7A0960FB6F894F4
:101FE000DEBF0FBECDBFDF91CF911F910F91FF904C
:101FF000EF90DF90CF90BF90AF909F908F907F90A9
:102000006F905F904F903F902F9008952F923F9246
:102010004F925F926F927F928F929F92AF92BF92F8
:10202000CF92DF92EF92FF920F931F93CF93DF93A4
:10203000CDB7DEB7E5970FB6F894DEBF0FBECDBFC4
:102040002B013C0149015A018091F504882309F4D0
:10205000BFC09201550C440B550B29833A834B8327
:102060005C83092C000CAA08BB0880911A0590918A
:102070001B05A0911C05B0911D0589879A87AB8728
:10208000BC876091FE047091FF04809100059091DF
:1020900001050E943C276B017C0160910A0570914B
:1020A0000B0580910C0590910D05A50194010E94EE
:1020B0003C27C60ED71EE81EF91E4EE0F594E794A5
:1020C000D794C7944A95D1F70D2C000CEE08FF0861
:1020D00029853A854B855C85C20ED31EE41EF51E0C
:1020E0006091F6047091F7048091F8049091F904DE
:1020F00029813A814B815C810E943C272B013C0164
:102100006091020570910305809104059091050589
:10211000A50194010E943C27460E571E681E791E99
:102120005EE075946794579447945A95D1F7D2011D
:1021300029853A854B855C850E949027A7019601E9
:102140000E94602729013A0188E0580E611C711C29
:102150006091FA047091FB048091FC049091FD045D
:1021600029813A814B815C810E943C2769837A8373
:102170008B839C836091060570910705809108050B
:1021800090910905A50194010E943C2729813A817B
:102190004B815C81260F371F481F591FDA01C90187
:1021A0006EE0B595A795979587956A95D1F7DC016F
:1021B00029853A854B855C850E949027A701960169
:1021C0000E94602749015A0188E0980EA11CB11CA9
:1021D000C090C004D090C104E090C204F090C30449
:1021E000A3019201C701B6010E943C27DC01CB018B
:1021F000905EAF4FBF4F2EE0B595A7959795879509
:102200002A95D1F74090C4045090C5046090C6044C
:102210007090C7049C01AD01240D351D461D571D4E
:102220002CA33DA34EA35FA3A5019401C701B60152
:102230000E943C27DC01CB01905EAF4FBF4F3EE0D8
:10224000B595A795979587953A95D1F7C090C8040D
:10225000D090C904E090CA04F090CB049C01AD0179
:102260002C0D3D1D4E1D5F1D28A739A74AA75BA752
:102270008091DD049091DE04A091DF04B091E00430
:102280008CA79DA7AEA7BFA72091E1043091E204DF
:102290004091E3045091E40428AB39AB4AAB5BAB0B
:1022A000BC01CD010E94800C9F878E8728A539A58F
:1022B0004AA55BA56CA17DA18EA19FA10E94800C67
:1022C0009BA38AA38091F1049091F204A091F3045E
:1022D000B091F4048A8B9B8BAC8BBD8B2091E9046D
:1022E0003091EA044091EB045091EC042E8B3F8B2B
:1022F000488F598F8091ED049091EE04A091EF04E6
:10230000B091F0048A8F9B8FAC8FBD8F2091E50434
:102310003091E6044091E7045091E8042E8F3F8FFE
:1023200048A359A388A899A8AAA8BBA8CCA4DDA4AF
:10233000EEA4FFA488A599A5AAA5BBA589879A871D
:10234000AB87BC872CA13DA14EA15FA129833A8315
:102350004B835C838AA19BA14E855F85842B952B43
:10236000892B09F474C18AA19BA184239523892B0D
:1023700009F08AC1452B29F48AA19BA1998B888BEE
:1023800004C0AE85BF85B98BA88BB889B3FF4AC09E
:10239000C701B6010E941A266D837E838F839887BA
:1023A00069817A818B819C816C197D098E099F09D5
:1023B0000E941A262B013C016A897B898C899D89A0
:1023C000681979098A099B090E941A269B01AC01A8
:1023D000C301B2010E94AB262B013C0169857A85BD
:1023E0008B859C85681979098A099B090E941A26A0
:1023F0009B01AC01C301B2010E9470259B01AC019D
:102400006D817E818F8198850E9404250E94E2253E
:102410008B018DAB9CABEA89ED83FB89FD872C8812
:102420003D88E6C0288922FF4AC0C701B6010E9444
:102430001A266D837E838F83988769817A818B8149
:102440009C816C197D098E099F090E941A262B0117
:102450003C016E897F89888D998D681979098A096F
:102460009B090E941A269B01AC01C301B2010E9484
:10247000AB262B013C0169857A858B859C85681983
:1024800079098A099B090E941A269B01AC01C301A4
:10249000B2010E9470259B01AC016D817E818F810C
:1024A00098850E9404250E94E2258B018DAB9CAB90
:1024B0003E893D834F894D87288C398C99C0588936
:1024C00051FF4AC0C501B4010E941A266D837E8364
:1024D0008F83988769857A858B859C8568197909AA
:1024E0008A099B090E941A262B013C016A8D7B8D6B
:1024F0008C8D9D8D6C197D098E099F090E941A266D
:102500009B01AC01C301B2010E94AB262B013C012F
:1025100069817A818B819C816C197D098E099F0963
:102520000E941A269B01AC01C301B2010E947025D2
:102530009B01AC016D817E818F8198850E9404256D
:102540000E94E2256D837D871C010A8D1B8D8C8D79
:102550008DAB9D8D9CAB4CC0A889A0FF49C0C50127
:10256000B4010E941A266D837E838F8398876985C4
:102570007A858B859C85681979098A099B090E944F
:102580001A262B013C016E8D7F8D88A199A16C19B3
:102590007D098E099F090E941A269B01AC01C30187
:1025A000B2010E94AB262B013C0169817A818B81AB
:1025B0009C816C197D098E099F090E941A269B0136
:1025C000AC01C301B2010E9470259B01AC016D8179
:1025D0007E818F8198850E9404250E94E2256D836B
:1025E0007D871C010E8D1F8DB8A1BDABE9A1ECABA1
:1025F000288939894E855F852417350789F42D810F
:102600003D85A101B8018DA99CA90E94800C9F87DE
:102610008E878D809D8451016801EDA8FCA89ACE1B
:102620002D813D85A101B8018DA99CA90E94800C36
:102630009BA38AA35D8159878D858A872B863C86DB
:1026400009831A839DA99B83ACA9AC8383CE8CA5F7
:102650009DA5AEA5BFA5C816D906EA06FB0609F0DA
:1026600044C028A939A94AA95BA982169306A406E1
:10267000B506D9F529853A854B855C8569817A81CE
:102680008B819C810E94AF0D8CA19DA1AEA1BFA1A9
:102690008093DD049093DE04A093DF04B093E00404
:1026A00028A539A54AA55BA52093E1043093E2044F
:1026B0004093E3045093E404E5960FB6F894DEBF2C
:1026C0000FBECDBFDF91CF911F910F91FF90EF9083
:1026D000DF90CF90BF90AF909F908F907F906F9042
:1026E0005F904F903F902F900895A5019401C701EE
:1026F000B6010E94AF0DBECFCF92DF92EF92FF9254
:102700000F931F93CF93DF936C0100E010E0C0E0C4
:10271000D0E0F60184819581E0901704F0901804D0
:102720000817190780F4B801C6010E94D105D70126
:10273000ED91FC91682F87E194E00995C80FD91FAE
:102740000F5F1F4FE6CFD701ED91FC916DE087E160
:1027500094E009958C01E0911704F0911804019020
:10276000F081E02D6AE087E194E00995C00FD11F68
:102770008C0F9D1FDF91CF911F910F91FF90EF90D4
:10278000DF90CF900895DF92EF92FF920F931F9307
:10279000CF93DF937C018B01EA014617570720F4A2
:1027A000812F8A01C62FD82F65E771E0C7010E94EB
:1027B0007E078091290590912A0580179107E0F006
:1027C0008C179D0708F4EC01E0912505F091260592
:1027D000EC0FFD1FD08010826091250570912605B9
:1027E000600F711FC7010E94EB06E0912505F09173
:1027F0002605EC0FFD1FD082C701DF91CF911F91FD
:102800000F91FF90EF90DF9008951F93CF93DF9388
:1028100000D0CDB7DEB787E194E00E94520D892B3E
:10282000E1F011E087E194E00E94520D892BA9F0BC
:1028300087E194E00E94160D8A3019F41093330555
:10284000F1CF89831A8241E050E0BE016F5F7F4F74
:1028500085E295E00E947006E5CF0F900F90DF9122
:10286000CF911F9108951F920F920FB60F921124CE
:102870002F933F938F939F93EF93FF932091CF03D9
:102880003091D0038091D1039091D203281739075A
:1028900031F48091C1008F7D8093C10014C0E0911C
:1028A000D103F091D203E157FC4F20818091D103F5
:1028B0009091D20301968F7399279093D2038093BE
:1028C000D1032093C600FF91EF919F918F913F918B
:1028D0002F910F900FBE0F901F9018951F920F927F
:1028E0000FB60F9211242F934F935F938F939F9363
:1028F000EF93FF938091C00082FD1CC02091C60021
:10290000809113049091140401968F73992740913C
:102910001504509116048417950771F0E091130483
:10292000F0911404ED52FC4F208390931404809393
:10293000130402C08091C600FF91EF919F918F9187
:102940005F914F912F910F900FBE0F901F90189590
:10295000CF93DF93CDB7DEB7C759D1090FB6F8943F
:10296000DEBF0FBECDBF789484B5826084BD84B5D0
:10297000816084BD85B5826085BD85B5816085BD7A
:1029800080916E00816080936E0010928100809132
:1029900081008260809381008091810081608093BA
:1029A0008100809180008160809380008091B100DF
:1029B00084608093B1008091B00081608093B0000A
:1029C00080917A00846080937A0080917A0082609E
:1029D00080937A0080917A00816080937A00809160
:1029E0007A00806880937A001092C1008CE090E0B9
:1029F00090938D0380938C0388E08093870380E01D
:102A000098E09093800380937F0390938203809358
:102A100081038AE090E0909389038093880387E0A4
:102A200090E090938B0380938A0381E080938E03E0
:102A300080E090E7909384038093830380E090EF9D
:102A400090938603809385038AE00E94620D8091B3
:102A50008A030E94620D61E0809188030E949407BE
:102A600061E080918A030E94940761E08AE00E94FD
:102A700094078AE00E94620D8CB580618CBD8CB594
:102A800080648CBD8DE00E94620D8BE00E94620D1F
:102A90008CB58F7D8CBD8CB5837F8CBD8CB58C7FC8
:102AA0008CBD8DB581608DBD8091B0040E94620D9A
:102AB000E0912B04F0912C0481E090E09C010090C7
:102AC000370402C0220F331F0A94E2F72083E091FB
:102AD0002704F09128041082E0912904F0912A043F
:102AE0002FEC208310923804E0912D04F0912E04F5
:102AF00040819C010090330402C0220F331F0A94CE
:102B0000E2F7242B2083E0912D04F0912E044081E4
:102B10009C010090340402C0220F331F0A94E2F794
:102B2000242B2083E0912D04F0912E0440819C0100
:102B30000090350402C0220F331F0A94E2F7242BC1
:102B40002083E0912D04F0912E0420810090360422
:102B500002C0880F991F0A94E2F780958223808330
:102B600060E071E085E295E00E94490680913305BE
:102B7000882309F4F1C1809170039091710301964B
:102B8000909371038093700364E671E0CE01019627
:102B90000E947E0765E275E0CE0101960E94B706AD
:102BA0000E947C13CE0101960E94020760E070E053
:102BB00085E295E00E94D105682F880F770B70930E
:102BC0006F0360936E034AE0CE018B599F4F0E94C2
:102BD000350766E771E0CE0101960E947E07BE01CF
:102BE0006B597F4FCE0101960E94B7060E947C135D
:102BF000CE0101960E940207CE018B599F4F0E9481
:102C0000020765E771E0CE018D589F4F0E947E0755
:102C1000E0916E03F0916F03E154F109E831F105A1
:102C200008F070C1EC5CFF4F0C947F270E944F08A6
:102C30004091290550912A0563E070E0CE0101968C
:102C40000E94C313BE016F5F7F4FCE018D589F4F0F
:102C50000E941306CE0101960E9402076CE871E003
:102C6000CE018D589F4F0E94F405882319F085E00E
:102C700090E023C062E971E0CE018D589F4F0E9421
:102C8000F405882319F08BE090E017C067E971E044
:102C9000CE018D589F4F0E94F405882319F084E0DF
:102CA00090E00BC061EA71E0CE018D589F4F0E9409
:102CB000F405882331F080E190E0909377038093CE
:102CC000760380916E0390916F0390936D038093D0
:102CD0006C03809176039091770327E0289FB001E1
:102CE000299F700D1124675C7B4FCE0184599F4F43
:102CF0000E946207CE018B599F4F0E949C086BEA8D
:102D000071E0CE0101960E947E07BE016B597F4F94
:102D1000CE0101960E94B70664E771E00E949E060C
:102D2000BE0164597F4F0E94B70664EC71E00E94B7
:102D30009E060E947C13CE0101960E940207CE01DE
:102D40008B599F4F0E940207CE0184599F4F0E94CA
:102D5000020765E771E08EE195E00E94EB06EFC0A7
:102D60000E944F0880916E0390916F0390936D03C2
:102D700080936C03CE018B599F4F0E949C086BEA95
:102D800071E0CE0101960E947E07BE016B597F4F14
:102D9000CE0101960E94B7060E947C13CE010196D7
:102DA0000E940207CE018B599F4F0E94020740915B
:102DB000290550912A0563E070E0CE0101960E943A
:102DC000C3130D811E81CE0101960E9402070230BD
:102DD000110508F4B4C04091290550912A0563E01B
:102DE00070E0CE0101960E94C313BE016F5F7F4F5A
:102DF0008EE195E00E941306CE0101960E94020723
:102E000029C088E590E090936D0380936C03CE0118
:102E10008B599F4F0E949C086EEC71E0CE01019689
:102E20000E947E07BE016B597F4FCE0101960E9422
:102E3000B7060E947C13CE0101960E940207CE01C4
:102E40008B599F4F0E94020765E771E08EE195E084
:102E50000E94EB06109277031092760370C04091A7
:102E6000290550912A0561E070E0CE0101960E948B
:102E7000C31389819A81009729F00E944722AB01F0
:102E8000BC0103C040E050E0BA0140930001509300
:102E900001016093020170930301CE010196CC56AB
:102EA000DF4F4883C459D040CB56DF4F5883C559B4
:102EB000D040CA56DF4F6883C659D040C956DF4F4D
:102EC0007883C759D0400E9402072AE0CC56DF4FD2
:102ED0004881C459D040CB56DF4F5881C559D040A6
:102EE000CA56DF4F6881C659D040C956DF4F788136
:102EF000C759D040CE018B599F4F0E9407076BEDF9
:102F000071E007C0CE018B599F4F0E949C0868EF6B
:102F100071E0CE0101960E947E07BE016B597F4F82
:102F2000CE0101960E94B7060E947C13CE01019645
:102F30000E940207CE018B599F4F0E94020765E74E
:102F400071E085E295E00E94EB0610923305CE0118
:102F50008D589F4F0E9402078FB7F894C090680366
:102F6000D0906903E0906A03F0906B038FBF80916B
:102F7000000190910101A0910201B091030100971D
:102F8000A105B10509F40BC140917203509173037F
:102F9000609174037091750397018601041B150BF2
:102FA000260B370B081719072A073B0708F4F7C049
:102FB00081E080937803C0927203D0927303E09211
:102FC0007403F09275038091220590912305009778
:102FD00009F47BC0A7961FAE1EAEA797A9961FAE99
:102FE0001EAEA997AB961FAE1EAEAB97AC961FAEAA
:102FF000AC974AE0BE016F5F7F4F0E94C922BE01BD
:103000006F5F7F4FCE018B599F4F0E94EB066091FF
:103010000401709105014AE0CE0101960E94350736
:10302000CE0184599F4F0E949C082AE0B701A60157
:10303000CE0186589F4F0E940707BE0166587F4FFA
:10304000CE018D589F4F0E94620763E072E0CE016F
:103050008D589F4F0E949E06BE0164597F4F0E946B
:10306000B7066AE072E00E949E06BE016F5F7F4F66
:103070000E94B70661E172E00E949E06BE016B5994
:103080007F4F0E94B7066AE172E00E949E066EE1E1
:1030900075E00E94B7060E947C13CE018D589F4FA9
:1030A0000E940207CE0186589F4F0E940207CE0160
:1030B00084599F4F0E940207CE0101960E94020789
:1030C000CE018B599F4F0E94020780917603909109
:1030D0007703009709F463C027E0289FB001299F78
:1030E000700D1124675C7B4FCE0101960E94620730
:1030F00060910401709105014AE0CE018B599F4F08
:103100000E943507CE0184599F4F0E949C082AE0F7
:10311000B701A601CE0186589F4F0E940707BE0146
:1031200066587F4FCE018D589F4F0E94620763E023
:1031300072E0CE018D589F4F0E949E06BE016459D9
:103140007F4F0E94B7066AE072E00E949E06BE01B1
:103150006B597F4F0E94B70660E272E00E949E06A4
:10316000BE016F5F7F4F0E94B7060E947C13CE01A5
:103170008D589F4F0E940207CE0186589F4F0E9494
:103180000207CE0184599F4F0E940207CE018B593E
:103190009F4F0E940207CE0101960E940207809174
:1031A0007803882311F40C940221809122059091D8
:1031B0002305892B09F4DDC580916C0390916D0383
:1031C0008D349105C9F054F48634910509F46FC427
:1031D0008834910509F4F5C10C94002183359105DB
:1031E00009F4A8C38635910509F48EC2803591058E
:1031F00011F00C9400211FC360910401709105012E
:10320000072E000C880B990B0E941A2620E030E054
:1032100048EC52E40E9470252B013C016EE175E000
:10322000CE0184599F4F0E94620720E030E048E4BD
:1032300053E4C301B2010E94AB269B01AC0160E0E4
:1032400070E080E895E40E9470250E94E2251B0151
:103250009E012F5F3F4F690164367105F4F04AE02B
:10326000CE018B599F4F0E9435076CE272E0C60178
:103270000E947E07BE016B597F4FC6010E94B706B0
:103280000E947C13C6010E940207CE018B599F4FFA
:103290000E94020763E6262E312CF60120E2CF01C0
:1032A0008C199D098215930514F42193F8CF10927F
:1032B000C4041092C5041092C6041092C70480E0A2
:1032C00098E0A0E0B0E08093C8049093C904A09374
:1032D000CA04B093CB0420E030E040E856E4C301D8
:1032E000B2010E94AB260E94E2256093C004709355
:1032F000C1048093C2049093C304CF57DF4F198257
:103300001882C158D040E12CF12CA1014150510943
:10331000CE56DF4F59834883C259D040CE01820D2B
:10332000931DC457DF4F99838883CC58D040E296D1
:103330008EAD9FADE297820D931DCF57DF4F088171
:103340001981C158D0400817190708F0EFC28981C8
:10335000893439F0873551F488EE93E0A0E0B0E08D
:1033600009C088EC90E0A0E0B0E004C082E593E002
:10337000A0E0B0E0CB57DF4F99838883C558D04099
:10338000CB57DF4F48815981C558D040E416F50628
:103390000CF0D0C08FB7F8940091680310916903C6
:1033A00020916A0330916B03C257DF4F0883198362
:1033B0002A833B83CE58D0408FBF002711270E1998
:1033C0001F09C757DF4FD982C882C958D040C55797
:1033D000DF4F1882CB58D040C757DF4F8881998183
:1033E000C958D0408C199D09821593050CF03EC038
:1033F000C757DF4FA881B981C958D0408D91C757B1
:10340000DF4FB983A883C958D040803231F0B1E092
:10341000C557DF4FB883CB58D0404801110FAA08D9
:10342000BB0800E010E09801B501A4010E94220948
:10343000860E971EA81EB91E8401B401990C880B34
:10344000990B0E941A264B015C01A301920160E0D6
:1034500070E080E895E40E9470259B01AC01C501F5
:10346000B4010E94A62618160CF0B6CFC557DF4F40
:10347000E881CB58D040E11106C0CB57DF4FE88040
:10348000F980C558D040B701FF0C880B990B0E94FA
:103490001A264B015C01A301920160E070E088EC08
:1034A00092E40E9470259B01AC01C501B4010E9409
:1034B00004250E94E2257B012FB7F89480916803D0
:1034C00090916903A0916A03B0916B032FBFC2571B
:1034D000DF4F088119812A813B81CE58D040801B63
:1034E000910BA20BB30B82339105A105B1050CF032
:1034F00047CF52E3852E912CA12CB12C881A990A22
:10350000AA0ABB0A0E94E0078B0181149104A1045E
:10351000B10409F435CF0E94E007601B710B683ECF
:10352000734098F331E0831A9108A108B10808515B
:103530001C4FEBCFE41AF50ADE011296F601CF011B
:103540008C199D09CE56DF4F08811981C259D04090
:10355000801791071CF48D918193F1CFE2968EAD87
:103560009FADE297CF57DF4F28813981C158D040B6
:103570002817390780F4B901CE0184599F4F0E9462
:10358000E205DC018C91C457DF4FE881F981CC580A
:10359000D040808308C080E2C457DF4FA881B98142
:1035A000CC58D0408C93CF57DF4FE881F981C15878
:1035B000D0403196CF57DF4FF983E883C158D040D0
:1035C000B6CE6EE175E0CE018D589F4F0E94620726
:1035D000BE016D587F4FCE0184599F4F0E946207F4
:1035E000BE0164597F4FCE0101960E946207CE0151
:1035F00001960E94740A6B017C01CE0101960E9423
:10360000020780E090E2A0E0B0E08093C0049093D5
:10361000C104A093C204B093C30480E094E0A0E08E
:10362000B0E08093C4049093C504A093C604B09303
:10363000C7048093C8049093C904A093CA04B093AC
:10364000CB048601D7FE02C00F5F1F4F159507956B
:103650001195019511099DE2E92EF12C28E6C22E63
:10366000DD24D3946624639434E2732E40ED842EDB
:1036700047E0942EA12CB12CC701B6010E944C2723
:10368000BC01CE0101960E94D60B6092F504FE01AA
:103690003196A6EFB4E0872D01900D928A95E1F75F
:1036A00080921A0590921B05A0921C05B0921D05F0
:1036B000BE0164597F4FCE018B599F4F0E94620714
:1036C00021E030E04CE05EEFB801CE018B599F4F16
:1036D0000E94AB0ACE018B599F4F0E94020728E03F
:1036E000E20EF11C3DEFE31632E0F30629F61092EC
:1036F000F504CE0184599F4F0E940207CE018D58D8
:103700009F4F0E9402077CC56EE175E0CE018D5887
:103710009F4F0E946207BE016D587F4FCE018459B2
:103720009F4F0E946207BE0164597F4FCE010196F0
:103730000E946207CE0101960E94740A6B017C010F
:10374000CE0101960E94020780E090E2A0E0B0E086
:103750008093C0049093C104A093C204B093C304A7
:1037600080E094E0A0E0B0E08093C4049093C504AE
:10377000A093C604B093C7048093C8049093C9046F
:10378000A093CA04B093CB048601D7FE02C00F5F9A
:103790001F4F15950795119501951109EDE2EE2E34
:1037A000F12CF8E6CF2EDD24D39466246394A4E2B2
:1037B0007A2EB0ED8B2EB7E09B2EA12CB12CC70139
:1037C000B6010E944C27BC01CE0101960E949D0BC0
:1037D0006092F504FE013196A6EFB4E0872D0190CA
:1037E0000D928A95E1F780921A0590921B05A0929E
:1037F0001C05B0921D05BE0164597F4FCE018B5947
:103800009F4F0E94620721E030E04CE05EEFB8017C
:10381000CE018B599F4F0E94AB0ACE018B599F4F0F
:103820000E94020748E0E40EF11C5DEFE51652E04D
:10383000F50629F65CCF6EE175E0CE0184599F4F05
:103840000E946207BE0164597F4FCE018B599F4F82
:103850000E946207BE016B597F4FCE0101960E9404
:103860006207CE0101960E94740A6B017C01CE01B1
:1038700001960E94020780E098E0A0E0B0E080930B
:10388000C4049093C504A093C604B093C704809366
:10389000C8049093C904A093CA04B093CB048601D2
:1038A000D7FE02C00F5F1F4F159507951195019523
:1038B000110966E4E62EF12C812C912C54012AE0AA
:1038C00037ED43E25CE3C501B4010E9404254B01DE
:1038D0005C0120E030E040E856E40E94AB260E9404
:1038E000E2256093C0047093C1048093C204909356
:1038F000C304BE016B597F4FCE0101960E9462073F
:1039000021E030E040E050E0B801CE0101960E9495
:10391000AB0ACE0101960E94020781E0E81AF10885
:1039200071F6CE018B599F4F0E940207CE01845938
:103930009F4FE7CE6EE175E0CE018D589F4F0E94FC
:1039400062076EE175E0CE0184599F4F0E946207C5
:103950006EE175E0CE018B599F4F0E946207BE0158
:103960006B597F4FCE0101960E946207CE010196EE
:103970000E94740A6B017C01CE0101960E9402072D
:10398000BE0164597F4FCE0101960E946207CE01AD
:1039900001960E94740A4B015C01CE0101960E94BF
:1039A0000207BE016D587F4FCE0101960E9462074B
:1039B000CE0101960E94020780E090E1A0E0B0E015
:1039C0008093C0049093C104A093C204B093C30435
:1039D000C601D7FC019695958795EE24FF24E81A39
:1039E000F90A840197FE02C00F5F1F4F15950795D6
:1039F00011950195110993E6C92ED12C812C28E04F
:103A0000922EA12CB12C38E5432E3AE0532E612C96
:103A1000712C8092C4049092C504A092C604B09206
:103A2000C7044092C8045092C9046092CA047092BC
:103A3000CB04BE016B597F4FCE0101960E946207F5
:103A400021E030E04CE05EEFB701CE0101960E942C
:103A5000AB0ACE0101960E9402078092C4049092A4
:103A6000C504A092C604B092C7048092C804909284
:103A7000C904A092CA04B092CB04BE0164597F4F1E
:103A8000CE0101960E94620721E030E04CE05EEF3B
:103A9000B801CE0101960E94AB0ACE0101960E94A8
:103AA000020791E0C91AD10809F0B3CF5CC16EE1F9
:103AB00075E0CE018D589F4F0E946207BE016D5880
:103AC0007F4FCE0184599F4F0E946207BE016D58FF
:103AD0007F4FCE018B599F4F0E946207E996EEAC53
:103AE000FFACE997C12CD12C01E0E01AF108F7FCFA
:103AF00015C0B601CE0184599F4F0E94E2058C018A
:103B0000B701CE018B599F4F0E94E205DC018C91D9
:103B1000F8018083FFEFCF1ADF0AE6CFBE016B59B1
:103B20007F4FCE0101960E946207CE0101960E944E
:103B3000740A6B017C01CE0101960E940207B60156
:103B40000D2C000C880B990B0E941A269B01AC01CE
:103B500060E070E88EE395E40E94702520E030E09C
:103B600040E856E40E94AB260E94E2256093C00420
:103B70007093C1048093C2049093C30480E098E0E2
:103B8000A0E0B0E08093C4049093C504A093C60461
:103B9000B093C7048093C8049093C904A093CA0447
:103BA000B093CB048601D7FE02C00F5F1F4F15955F
:103BB0000795119501951109B3E2CB2ED12CBE01C9
:103BC00064597F4FCE0101960E94620724E030E0E5
:103BD00040E050E0B801CE0101960E94AB0ACE0150
:103BE00001960E940207E12CF12CE9968EAD9FAD63
:103BF000E997E816F906E0F5B701CE018B599F4F1A
:103C00000E94E205DC01BC90B701CE0184599F4FB0
:103C10000E94E205FC0180818B1554F4B701CE01AE
:103C200084599F4F0E94E205FC0190819F5F908321
:103C3000B701CE018B599F4F0E94E205DC01BC9079
:103C4000B701CE0184599F4F0E94E205FC0180819B
:103C5000B81654F4B701CE0184599F4F0E94E20573
:103C6000FC01908191509083FFEFEF1AFF0ABDCFC6
:103C700021E0C21AD10809F0A2CFC12CD12C7601C3
:103C800044244A94FFE05F2E612C712CC092E5041D
:103C9000D092E604E092E704F092E8041092E9047E
:103CA0001092EA041092EB041092EC0488248A9497
:103CB000EFE09E2EA12CB12CD301C2018C199D09DD
:103CC000AE09BF098093ED049093EE04A093EF0436
:103CD000B093F0044092F1045092F2046092F30425
:103CE0007092F404BE016B597F4FCE0101960E9481
:103CF000620721E030E040E050E0B801CE010196DB
:103D00000E94AB0ACE0101960E94020738E2C30E60
:103D1000D11CE11CF11C40E6C41649E0D406E104C4
:103D2000F10409F0B3CF1092E5041092E60410926A
:103D3000E7041092E8041092E9041092EA04109249
:103D4000EB041092EC048092ED049092EE04A092A9
:103D5000EF04B092F0048092F1049092F204A092E9
:103D6000F304B092F404CE018B599F4F0E940207D6
:103D7000C0CC80917603909177038530910509F44A
:103D8000D2C08031910509F457C1049709F038C2B7
:103D90006FE572E0CE0184599F4F0E947E07BE01FD
:103DA00064597F4FCE0101960E946207CE010196B1
:103DB0000E94740A6B017C01CE0101960E940207E9
:103DC00080E090E2A0E0B0E08093C0049093C10452
:103DD000A093C204B093C3041601D7FE03C05FEFE3
:103DE000251A350A3594279431942194310800E03E
:103DF00010E0AA24A39454E2B52EC12C64E0D62E80
:103E0000E12CF12C78EA472E55245394612C712C27
:103E1000A092F504C80168E671E00E944C274C01AD
:103E2000BC01CE0101960E94D60BFE013196A6EF91
:103E3000B4E08B2D01900D928A95E1F780EA9FE026
:103E4000A0E0B0E080931A0590931B05A0931C0599
:103E5000B0931D05C092C404D092C504E092C6047C
:103E6000F092C70428E536E040E050E02093C80413
:103E70003093C9044093CA045093CB04BE016459E3
:103E80007F4FCE018B599F4F0E94620721E030E0A7
:103E90004CE05EEFB101CE018B599F4F0E94AB0AFF
:103EA000CE018B599F4F0E940207B401CE010196AB
:103EB0000E949D0BFE013196A6EFB4E08B2D019080
:103EC0000D928A95E1F7C092C404D092C504E092A5
:103ED000C604F092C7044092C8045092C90460928C
:103EE000CA047092CB046CE971E0CE018B599F4FEC
:103EF0000E947E0721E030E04CE05EEFB101CE0190
:103F00008B599F4F0E94AB0ACE018B599F4F0E9445
:103F10000207085F1F4F003D32E0130709F078CF1A
:103F20001092F50403CD412C512C20E8622E2FE392
:103F3000722E812C30E1932EA12CB12C80E090E1E7
:103F4000A0E0B0E0CF57DF4F88839983AA83BB837B
:103F5000C158D04020E030E040E856E4C301B2014F
:103F60000E94AB260E94E2256093C0047093C104B6
:103F70008093C2049093C304CF57DF4F0881198107
:103F80002A813B81C158D0400093C4041093C504DA
:103F90002093C6043093C7048092C8049092C90449
:103FA000A092CA04B092CB04E12CF12C870120E04E
:103FB00030E0A90165E670E08CE391E00E94D4084E
:103FC000CF57DF4F688179818A819B81C158D0406A
:103FD0000E941A266B017C0120E030E040EA51E4A7
:103FE000C301B2010E94AB269B01AC01C701B6011F
:103FF0000E9403250E94E225CF57DF4F6883798313
:104000008A839B83C158D04014E1811A9108A1088A
:10401000B1082AE037ED43E25CE3C301B2010E943C
:1040200004252B013C0120EF821621E09206A10419
:10403000B10409F08FCFE4C080E098E0A0E0B0E0E8
:104040008093C4049093C504A093C604B093C7049E
:104050008093C8049093C904A093CA04B093CB047E
:1040600039E3CF57DF4F3883C158D04088E2282E3C
:10407000312C9AE0892E97ED992E93E2A92E9CE39C
:10408000B92EC12CD12C760180E090E4A0E0B0E004
:104090008093C0049093C104A093C204B093C3045E
:1040A00080E090E00E940D0B2B013C0180E090E04D
:1040B0000E94520BCB57DF4F688379838A839B839F
:1040C000C558D040C301B2012CE030E040E050E0E0
:1040D0000E94602729013A01CB57DF4F688179811F
:1040E0008A819B81C558D0402CE030E040E050E010
:1040F0000E946027CA01B901A30192010E94061023
:104100000E94810D05E010E0C8010E940D0B2B01FB
:104110003C01C8010E94520BCB57DF4F6883798363
:104120008A839B83C558D040C301B2012CE030E0A4
:1041300040E050E00E94602729013A01CB57DF4F51
:10414000688179818A819B81C558D0402CE030E01C
:1041500040E050E00E946027CA01B901A30192012A
:104160000E9406100B5F1F4F0D3691E0190761F694
:104170000E949B0D20E030E040E856E4C701B60104
:104180000E94AB260E94E2256093C0047093C10494
:104190008093C2049093C3040EE21EEF2FEF3FEF13
:1041A00045EE5EEF6FEF7FEFCF57DF4F8881C1584D
:1041B000D0400E942209A5019401C701B6010E94C6
:1041C00004256B017C012FE632E143E05BE3C5018E
:1041D000B4010E9404254B015C01A1E02A1A3108B8
:1041E00009F052CFCF57DF4FB881C158D040B150FE
:1041F000CF57DF4FB883C158D040B03309F036CF26
:10420000109278030E9405140C94B615CF93DF9397
:10421000C0EBD4E02797CE010E94020784E0C933A7
:10422000D807C1F78EE195E00E94020785E295E08C
:104230000E9402078CE295E0DF91CF910C94020777
:10424000CF92DF92EF92FF92E7E1F4E013821282C5
:1042500088EEC82E83E0D82EE12CF12CC482D582C2
:10426000E682F78288E591E09183808383ED93E095
:10427000958784878FE893E09787868785EC90E021
:10428000918B808B84EC90E0938B828B80EC90E020
:10429000958B848B81EC90E0978B868B82EC90E001
:1042A000918F808F86EC90E0938F828F84E0848F53
:1042B00083E0858F87E0868F85E0878F81E080A30C
:1042C00066ED72E08CE295E00E947E0765E771E0A2
:1042D00085E295E00E947E0765E771E08EE195E05A
:1042E0000E947E0784E2E0E3F1E0A6EFB4E00190F3
:1042F0000D928A95E1F7E0EBF4E085E090E09183A0
:10430000808380E091E0A0E0B0E082839383A48387
:10431000B58316821782108611861286138614863C
:10432000158615A616A617A610AA11AA12AA13AAD0
:1043300014AA1786168681E090E0A0E0B0E0808B9A
:10434000918BA28BB38B148A158A168A178A108ECA
:10435000118E128E138E148E158E168E178E8FEF71
:104360009FEFDC0180A391A3A2A3B3A314A215AA7B
:1043700016AA17AA10AE11AE12AE13AE14AE8FEF7E
:104380009FE0A0E0B0E08093ED049093EE04A09352
:10439000EF04B093F0048093F1049093F204A0939F
:1043A000F304B093F4041092F504C0921A05D0926D
:1043B0001B05E0921C05F0921D056FEE72E089E38B
:1043C00094E00E947E0763EF72E080E494E00E9434
:1043D0007E0760E073E087E494E00E947E0769E076
:1043E00073E08EE494E00E947E0767E971E085E562
:1043F00094E00E947E076CE871E08CE594E00E94F6
:104400007E0761E173E083E694E00E947E0766E147
:1044100073E08AE694E00E947E076DE173E081E735
:1044200094E00E947E076DE273E088E794E00E94CA
:104430007E0769E373E08FE794E00E947E0762E9FC
:1044400071E086E894E00E947E0764E473E08DE802
:1044500094E00E947E076AE473E084E994E00E949D
:104460007E0764E573E08BE994E00E947E076CE5CB
:1044700073E082EA94E00E947E0761EA71E089EAD3
:1044800094E0FF90EF90DF90CF900C947E071F9305
:10449000FC0199278827BC01E89411911032E9F3B7
:1044A000193010F01E30C8F31B3251F01D3249F4A0
:1044B000689406C00E948722610F711D811D911DA5
:1044C000119110531A30B0F33EF490958095709589
:1044D00061957F4F8F4F9F4F1F910895F8940C94D3
:1044E00014284532510520F4423010F00C947C22FF
:1044F000FB011082CB010895BB274A3031F4992388
:1045000022F4BDE2909581959F4F0C94CA22592FB9
:10451000482F372F262F660F771F881F991F660F8A
:10452000771F881F991F620F731F841F951F660FC7
:10453000771F881F991F08952532310520F42230F6
:1045400010F00C94A722FA011082CA010895BB272B
:10455000FA01A62F6217710581059105330B30FB17
:1045600066F0AA27660F771F881F991FAA1FA21738
:1045700010F0A21B63953850A9F7A05DAA3308F08C
:10458000A95DA19336F7B111B1931082CA010C94C1
:10459000E322BB27FB015527AA27880F991FAA1FD3
:1045A000A41710F0A41B83955051B9F7A05DAA334E
:1045B00008F0A95DA193009779F7B111B193119219
:1045C000CB010C94E322DC01FC01672F719177236E
:1045D000E1F7329704C07C916D9370836291AE17BE
:1045E000BF07C8F30895CF93DF938230910510F48D
:1045F00082E090E0E0913605F091370520E030E070
:10460000C0E0D0E0309711F140815181481759073F
:10461000C0F04817590761F482819381209719F0FF
:104620009B838A832BC0909337058093360526C0E1
:104630002115310519F04217530718F49A01BE01EC
:10464000DF01EF010280F381E02DDCCF2115310580
:1046500009F1281B390B2430310590F412968D9105
:104660009C9113976115710521F0FB01938382835F
:1046700004C09093370580933605FD01329644C0FF
:10468000FD01E20FF31F81939193225031092D9385
:104690003C933AC02091340530913505232B41F4E9
:1046A000209108013091090130933505209334059C
:1046B00020910601309107012115310541F42DB7F4
:1046C0003EB740910A0150910B01241B350BE0913C
:1046D0003405F0913505E217F307A0F42E1B3F0BCC
:1046E0002817390778F0AC014E5F5F4F2417350764
:1046F00048F04E0F5F1F509335054093340581936A
:10470000919302C0E0E0F0E0CF01DF91CF910895F6
:104710000F931F93CF93DF93009709F48CC0FC0194
:1047200032971382128200913605109137050115D8
:10473000110581F420813181820F931F209134056E
:10474000309135052817390779F5F0933505E09351
:10475000340571C0D80140E050E0AE17BF0750F4F7
:1047600012962D913C911397AD012115310509F158
:10477000D901F3CF9D01DA013383228360817181F6
:10478000860F971F8217930769F4EC0128813981FE
:10479000260F371F2E5F3F4F318320838A819B81F5
:1047A00093838283452B29F4F0933705E0933605F4
:1047B00042C01396FC93EE931297ED0149915991E3
:1047C0009E01240F351FE217F30771F48081918158
:1047D000840F951F029611969C938E9382819381EC
:1047E00013969C938E931297E0E0F0E0D801129616
:1047F0008D919C911397009719F0F8018C01F6CFD9
:104800008D919C9198012E5F3F4F820F931F2091B5
:104810003405309135052817390769F4309729F4A4
:10482000109237051092360502C01382128210933F
:10483000350500933405DF91CF911F910F910895B5
:10484000A0E0B0E0E6E2F4E20C949C27EC010097D3
:1048500021F4CB010E94F322B8C0FC01E60FF71F40
:104860009C0122503109E217F30708F4ACC0D901CA
:104870000D911C91119706171707B0F0053011051F
:1048800008F49FC0C80104978617970708F499C0D9
:1048900002501109061B170B019311936D937C9322
:1048A000CF010E9488238DC05B01A01AB10A4C0180
:1048B000800E911EA0913605B091370540E050E082
:1048C000E12CF12C109709F44AC0A815B905D1F5CF
:1048D0006D907C901197630182E0C80ED11CCA14C0
:1048E000DB0480F1A3014A195B096A0182E0C80E6A
:1048F000D11C1296BC9012971396AC91B5E0CB16D2
:10490000D10440F0B282A38351834083D9016D93D7
:104910007C930AC00E5F1F4FC301800F911FF901E6
:1049200091838083EB2DFA2FE114F10431F0D7014C
:104930001396FC93EE93129744C0F0933705E093DF
:1049400036053FC08D919C9111974817590708F47F
:10495000AC017D0112960D90BC91A02DB3CF80913A
:1049600034059091350588159905E1F446175707E8
:10497000C8F48091060190910701009741F48DB72A
:104980009EB740910A0150910B01841B950BE817CB
:10499000F907C8F4F0933505E0933405F901718304
:1049A00060830FC0CB010E94F3227C01009759F075
:1049B000A801BE010E94EA24CE010E948823C701FB
:1049C00004C0CE0102C080E090E0CDB7DEB7EEE0DB
:1049D0000C94B827FB01DC0102C001900D924150FC
:1049E0005040D8F70895FB01DC018D9101908019AA
:1049F0000110D9F3990B0895FB01DC0101900D9290
:104A00000020E1F708955058BB27AA270E941B25D4
:104A10000C946C260E945E2638F00E94652620F0D9
:104A200039F49F3F19F426F40C945B260EF4E095BC
:104A3000E7FB0C945526E92F0E947D2658F3BA1700
:104A4000620773078407950720F079F4A6F50C94A4
:104A50009F260EF4E0950B2EBA2FA02D0B01B90165
:104A600090010C01CA01A0011124FF27591B99F0E4
:104A7000593F50F4503E68F11A16F040A22F232FF0
:104A8000342F4427585FF3CF469537952795A79540
:104A9000F0405395C9F77EF41F16BA0B620B730BE7
:104AA000840BBAF09150A1F0FF0FBB1F661F771F58
:104AB000881FC2F70EC0BA0F621F731F841F48F40D
:104AC000879577956795B795F7959E3F08F0B0CF96
:104AD0009395880F08F09927EE0F9795879508957D
:104AE0000E9484250C946C260E94652658F00E9432
:104AF0005E2640F029F45F3F29F00C9455265111B1
:104B00000C94A0260C945B260E947D2668F39923C2
:104B1000B1F3552391F3951B550BBB27AA276217B9
:104B20007307840738F09F5F5F4F220F331F441FC6
:104B3000AA1FA9F335D00E2E3AF0E0E832D09150FA
:104B40005040E695001CCAF72BD0FE2F29D0660FE7
:104B5000771F881FBB1F261737074807AB07B0E82A
:104B600009F0BB0B802DBF01FF2793585F4F3AF030
:104B70009E3F510578F00C9455260C94A0265F3F7B
:104B8000E4F3983ED4F3869577956795B795F795B6
:104B90009F5FC9F7880F911D9695879597F908959E
:104BA000E1E0660F771F881FBB1F6217730784073A
:104BB000BA0720F0621B730B840BBA0BEE1F88F749
:104BC000E09508950E94E9256894B1110C94A026FF
:104BD00008950E94852688F09F5798F0B92F99274D
:104BE000B751B0F0E1F0660F771F881F991F1AF0D8
:104BF000BA95C9F714C0B13091F00E949F26B1E078
:104C000008950C949F26672F782F8827B85F39F076
:104C1000B93FCCF3869577956795B395D9F73EF470
:104C200090958095709561957F4F8F4F9F4F089518
:104C3000E89409C097FB3EF4909580957095619536
:104C40007F4F8F4F9F4F9923A9F0F92F96E9BB27EC
:104C50009395F695879577956795B795F111F8CF68
:104C6000FAF4BB0F11F460FF1BC06F5F7F4F8F4FD3
:104C70009F4F16C0882311F096E911C0772321F0C9
:104C80009EE8872F762F05C0662371F096E8862F61
:104C900070E060E02AF09A95660F771F881FDAF7B8
:104CA000880F9695879597F9089597F99F6780E8FB
:104CB00070E060E008959FEF80EC089500240A946E
:104CC0001616170618060906089500240A941216E7
:104CD0001306140605060895092E0394000C11F41A
:104CE000882352F0BB0F40F4BF2B11F460FF04C0C7
:104CF0006F5F7F4F8F4F9F4F089557FD9058440F20
:104D0000551F59F05F3F71F04795880F97FB991F2A
:104D100061F09F3F79F087950895121613061406E7
:104D2000551FF2CF4695F1DF08C016161706180674
:104D3000991FF1CF86957105610508940895E8944F
:104D4000BB2766277727CB0197F908950E9418277C
:104D500008F48FEF08950E94BE260C946C260E94E2
:104D60005E2638F00E94652620F0952311F00C9401
:104D700055260C945B2611240C94A0260E947D26B7
:104D800070F3959FC1F3950F50E0551F629FF0019E
:104D9000729FBB27F00DB11D639FAA27F00DB11DB7
:104DA000AA1F649F6627B00DA11D661F829F222740
:104DB000B00DA11D621F739FB00DA11D621F839FC7
:104DC000A00D611D221F749F3327A00D611D231F9D
:104DD000849F600D211D822F762F6A2F11249F57EB
:104DE00050409AF0F1F088234AF0EE0FFF1FBB1FEE
:104DF000661F771F881F91505040A9F79E3F5105AD
:104E000080F00C9455260C94A0265F3FE4F3983E66
:104E1000D4F3869577956795B795F795E7959F5F56
:104E2000C1F7FE2B880F911D9695879597F90895E8
:104E3000990F0008550FAA0BE0E8FEEF16161706AB
:104E4000E807F907C0F012161306E407F50798F013
:104E5000621B730B840B950B39F40A2661F0232B2C
:104E6000242B252B21F408950A2609F4A140A695A8
:104E70008FEF811D811D0895DB018F939F930E9409
:104E80008527BF91AF91A29F800D911DA39F900D8B
:104E9000B29F900D1124089597FB072E16F40094ED
:104EA00007D077FD09D00E94CF2707FC05D03EF43C
:104EB000909581959F4F0895709561957F4F0895C6
:104EC000052E97FB1EF400940E94772757FD07D00C
:104ED0000E94E32707FC03D04EF40C9477275095EB
:104EE0004095309521953F4F4F4F5F4F08959095D6
:104EF0008095709561957F4F8F4F9F4F0895EE0F6E
:104F0000FF1F0590F491E02D09940E940528A59FAC
:104F1000900DB49F900DA49F800D911D11240895B4
:104F2000B7FF0C9485270E948527821B930B089559
:104F30002F923F924F925F926F927F928F929F92A9
:104F4000AF92BF92CF92DF92EF92FF920F931F9397
:104F5000CF93DF93CDB7DEB7CA1BDB0B0FB6F89448
:104F6000DEBF0FBECDBF09942A88398848885F8488
:104F70006E847D848C849B84AA84B984C884DF80F9
:104F8000EE80FD800C811B81AA81B981CE0FD11DDD
:104F90000FB6F894DEBF0FBECDBFED010895AA1B7A
:104FA000BB1B51E107C0AA1FBB1FA617B70710F014
:104FB000A61BB70B881F991F5A95A9F78095909546
:104FC000BC01CD010895A1E21A2EAA1BBB1BFD0155
:104FD0000DC0AA1FBB1FEE1FFF1FA217B307E407D8
:104FE000F50720F0A21BB30BE40BF50B661F771F30
:104FF000881F991F1A9469F7609570958095909510
:105000009B01AC01BD01CF010895A29FB001B39FE8
:10501000C001A39F700D811D1124911DB29F700DC1
:10502000811D1124911D089515E0CCE6D5E004C042
:10503000FE010E947F272196CD36D107C9F7F8944B
:02504000FFCFA0
:10504200B80B0000190000003805200000400000E5
:10505200000000000000000000000000004000000E
:1050620000000000000000000000000000400000FE
:1050720000400000000000000000000000000000EE
:1050820000400000000000000000000000000000DE
:105092000040000000000000C90C9705520D160DDB
:1050A200360D0B0D444542554720596F75207365E7
:1050B2006E74203A20004445425547206C61736566
:1050C20072436F6D6D616E64203D2000504C414E05
:1050D200450042494B45004C4153455253484F57B6
:1050E20000434F554E54444F574E00444542554796
:1050F200204C61736572206D6F6465207365742046
:10510200746F20002073656C6563746564004445A8
:10511200425547204C617365722000444542554711
:10512200204C6173657220696E74657276616C20C1
:1051320073657420746F20004445425547204C61CA
:10514200736572204D6F646520002053697A652073
:1051520000204C656E6774682000204D7367200044
:1051620020416E696D6174696F6E2000444542553D
:105172004720696E20647261775363726F6C6C654D
:1051820072202D206D617843686172206C696D69AF
:1051920074656420746F2039392077617320004C64
:1051A20041534552004445425547206C6173657234
:1051B20053697A65203D2000416E696D6174696FA3
:1051C2006E004D6172717565650050726573656E32
:1051D20074730053746174696300466C6173686927
:1051E2006E6700486F72697A6F6E74616C205370DB
:1051F200696E00566572746963616C205370696EE2
:10520200004F666600496E74657276616C00556E79
:105212006B6E6F776E004348454C54454E48414D86
:10522200202D20313743202D2057494E4459004F1D
:105232004646004C45545445524546464543540063
:1052420050524553454E54530041524455494E4FD6
:10525200004C4F474F0057454C4F56450041524472
:1052620055494E4F3244524F5441544500574841DC
:105272005441424F5554334400524F5441544543D4
:1052820055424500474C4F42450041524455494E14
:105292004F3344004F424A45435453004A554D5000
:0852A200494E475445585400E1
:00000001FF
