:100000000C943D050C9465050C9465050C946505F0
:100010000C9465050C9465050C9465050C946505B8
:100020000C9465050C9465050C9465050C946505A8
:100030000C9465050C9465050C9465050C94650598
:100040000C94AB080C9465050C94C8140C948D1496
:100050000C9465050C9465050C9465050C94650578
:100060000C9465050C946505790B8F0B8F0B8F0B2A
:100070008F0B8F0B8F0B8F0B8F0B8F0B8F0B8F0BB0
:100080008F0B870B8F0B330B3A0B410B480B4F0B2E
:10009000560B5D0B640B6B0B720B8F0B8F0B8F0B67
:1000A0008F0B8F0B800B8F0B690A700A770A7E0A01
:1000B000850A8C0A930A9A0AA70AB40ABB0AC20ADA
:1000C000C90AD00AD70ADE0AE50AEC0AF30AFA0AD4
:1000D000010B080B8F0B1E0B250B2C0B7C02D70082
:1000E0007082C7003082CE00EB81D700EB81D80050
:1000F000EA81D800EF81DB00FC81DF007C82D70041
:10010000B303260098830E008683070007830C0044
:10011000C4811800B18111009E810C00758103001B
:1001200051810000FF800500C5801900E1801C009E
:10013000ED802700EE802B00EF802E00E68043004C
:10014000CC804F00B1804F00A18040009E803600DF
:10015000A2802D009C80330095803F00B280650016
:100160000F818E003F81BD007281CB00B181C5003F
:10017000FC81BB003882B4006382B2008382D90064
:10018000C3824B01CF824B01D8824A01DF824801F2
:10019000E8824501CF82D2007283C2006E83BD0027
:1001A0006783B9003483B900C782BD00BA828F006B
:1001B000A5827C0083825F006E82510050824100E4
:1001C000B3832600E8008500D6807E00BC807300E3
:1001D000AF806A009D805C00598083000280B3007C
:1001E0000080B5000080B6001180BD004580C200CF
:1001F000E8808500DE002B00D4802000B4801C0045
:10020000A7801F00A2802700AB803C00C580420071
:10021000D8803B00DE802B00DE802B00EA017600D8
:10022000DF81A500B681AB00C9817100EA8176004B
:10023000BB016F00AA81AB00A4816B00BB816F0082
:10024000A001AD007B81B7005B81BB005081BA008B
:100250004781B9003381AB0019818D002E818C005C
:100260004E81880072817E0098816F00A081AD0070
:100270000040FD3FF63FE93FD83FC13FA63F853FE5
:10028000603F363F073FD23E993E5C3E193ED13D2E
:10029000853D343DDE3C833C233CBF3B563BE93A45
:1002A000773A003A853906398238F9376C37DB36C8
:1002B0004636AC350E356C34C6331C336E32BC3129
:1002C00006314D308F2FCE2E092E412D752CA52BAA
:1002D000D32AFC2923294628662784269E25B5246F
:1002E000C923DB22EA21F620FF1F071F0B1E0E1D6C
:1002F0000E1C0C1B071A0119F917EF16E315D6147B
:10030000C613B612A41190107B0F650E4E0D360C5D
:100310001D0B030AE808CC07B006930576045903C1
:100320003B021D0100001D015F00EE802F001D81BA
:1003300000004D812F001D815F000000F902008048
:1003400029032F8088035F80B803BE80E8037C8187
:10035000E803DC81B8030B8288033B8229033B82DC
:10036000CA020B826B02DC813B021D81DC011D8114
:100370004D011D015F00EE802F001D8100004D81A9
:100380002F001D815F002F00E8032F804D012F00FB
:100390005F0000802F002F8000005F802F002F80E3
:1003A0005F006B029A023B820B02DC81AC014D8143
:1003B0007C011D817C018E80AC012F800B020080AE
:1003C0009A020080CA022F8059038E80B8031D81D3
:1003D000E8034D81E803DC81B8033B8259036B825B
:1003E0009A026B82AC013B82BE00DC812F004D8102
:1003F0000000EE8000005F802F002F808E00EE0056
:10040000E8035F80B8032F8059032F80F9025F80D3
:100410009A02BE806B027C813B020B820B026B82D4
:10042000AC019A824D019A82BE006B825F003B82D2
:100430002F00AC810000EE8000005F802F002F8035
:100440005F000080BE0000804D012F80AC018E80D7
:100450000B021D813B02DC816B023B829A026B82A4
:10046000F9026B8259033B82B803AC81E803EE804A
:10047000E8039A02E803BE8000000000E8039A82C5
:10048000E8033B0259030B82B8037C81E8031D811A
:10049000E8038E80B8032F80290300803B02008090
:1004A0004D012F808E008E802F001D8100004D8118
:1004B0000000DC812F003B828E006B821D016B826D
:1004C0004D013B82DC01DC813B024D816B021D81D1
:1004D0006B028E803B022F80DC0100804D013B02CD
:1004E000E8035F80E8032F803B025F806B02EE80B1
:1004F0009A027C819A020B826B026B820B029A82B7
:100500007C019A821D016B828E000B822F007C8100
:100510000000EE8000005F802F002F805F000080D1
:10052000BE00DC01E80300804D01CA824D01DC0100
:10053000E803DC8100005F00E8036B82E8034D8183
:100540006B02DC816B023B823B026B820B029A8264
:100550007C019A821D016B828E000B822F007C81B0
:100560000000EE8000005F802F002F805F00008081
:10057000BE002F00F9022F8029035F8088038E8040
:10058000B803EE80E803AC81E8030B82B8033B823A
:1005900088036B8229036B82CA023B826B02DC8177
:1005A000DC01008000009A820000000029035F80C7
:1005B0005903EE80E803EE8000001D01E8038E8001
:1005C000B8032F80290300803B020080AC012F80FC
:1005D000BE008E802F001D8100007C8100000B82F8
:1005E0002F006B82BE009A82AC019A823B026B8222
:1005F00029030B82B8037C81E8031D81E8039A027A
:10060000E803008000000000E8039A82E80300008D
:1006100000009A8200000000E8037C810B027C81CC
:100620000000F902E8037C810B020000E8039A82D3
:1006300000009A02E803008000000000E803EE805A
:100640000000DC01E803EE800000DC01E803CA8260
:100650000000B803E803CA8200000000E8037C81C0
:100660000000F902E8037C8100000000E80300803C
:100670001D012F808E008E802F001D8100007C8147
:1006800000000B822F006B828E009A821D019A82DD
:10069000E8034D01E8034D8100000000E8039A8261
:1006A000E8039A0259033B82B803AC81E803EE8069
:1006B000E8035F80B803008059030080F9022F80AF
:1006C0009A025F806B02BE803B02DC81DC013B82D0
:1006D000AC016B827C019A821D019A828E003B8262
:1006E0002F00AC810000EE8000005F802F000080B2
:1006F0008E000000E803008000000000E803AC81E9
:10070000E8033B82B8036B8288039A8229039A82AA
:10071000CA026B826B023B823B02AC810B020080FF
:100720000B024D010B029A8200001D014704BE809E
:1007300017045F80B8032F8059030080CA0200802D
:10074000DC012F804D015F80EE00BE808E001D8198
:100750005F00DC815F003B828E009A82EE00CA82DD
:100760004D01F982DC01F982CA02CA8259039A82D8
:10077000B8033B821704DC8147041D814704AC01A8
:100780001D01CA8200000000E80300800000000094
:10079000E803AC81E8033B82B8036B8288039A824A
:1007A00029039A829A026B823B023B820B02AC8144
:1007B000DC010080DC011D01E803BE80B8035F801E
:1007C00059032F80F90200806B0200807C012F808A
:1007D000EE005F808E00BE802F001D810000DC8156
:1007E00000003B822F009A828E00CA82EE00F982BE
:1007F0007C01F9826B02CA82F9029A8259033B8218
:10080000B803DC81E8031D81E8030000E8030080F1
:1008100000000000E8039A8200009A02E8039A822E
:1008200000000000E803008000000000E8037C8175
:100830000000F902E8037C810000F902E803F98274
:1008400000000000E803008000003B820000000080
:10085000E803008000009A02E80300804D01EE00EA
:100860003B029A820000DC01E803DC81EE00AC81EF
:100870005F007C812F001D810000BE8000005F8032
:100880002F002F805F000080EE0000804D010000EF
:10089000E803008000000000E803008000009A02E6
:1008A000E8039A82000000000B029A820B02CA023F
:1008B000F9029A8259033B82B803DC81E8031D8167
:1008C000E803BE80B8035F8059032F80F9020080DF
:1008D0006B0200807C012F80EE005F808E00BE8066
:1008E0002F001D810000DC8100003B822F009A82D6
:1008F0008E00CA82EE00CA827C01DC017C01CA82C1
:100900007C010000E803008000000000E8036B8227
:10091000E80300000B027C810B020000E80300806A
:1009200000000000E8036B82E80300000B027C81FA
:100930000B02000000006B8200000000E803008052
:1009400000000000E8034D81E803DC81B8033B822E
:1009500059036B82F9029A826B029A827C016B8244
:10096000EE003B828E00DC812F004D810000008074
:100970000000CA02F9029A8259033B82B803DC8163
:10098000E8031D81E803BE80B8035F8059032F8010
:10099000F90200806B0200807C012F80EE005F80F6
:1009A0008E00BE802F001D810000DC8100003B8294
:1009B0002F009A828E00CA82EE000000E8030080B9
:1009C00000000000E803AC81E8033B82B8036B82BF
:1009D00088039A8229039A82CA026B826B023B8245
:1009E0003B02AC810B0200000B02AC810B023B828C
:1009F000DC016B82AC019A824D019A82BE006B824F
:100A00005F003B822F00AC810000008000007C0171
:100A1000E803008000007C01E803F98200008E00FA
:100A20004D016B824D010000000700020100000330
:100A30000406000000000000000000000000250087
:100A400028002B0000000000240027002A000404D6
:100A50000404040404040202020202020303030366
:100A60000303010204081020408001020408102042
:100A7000010204081020A7228D2211241FBECFEFEF
:100A8000D8E0DEBFCDBF13E0A0E0B1E0E2E7F3E5E0
:100A900002C005900D92AC37B107D9F725E0ACE75D
:100AA000B3E001C01D92A335B207E1F715E0CCE336
:100AB000D5E004C02197FE010E941729CB33D1074E
:100AC000C9F70E9402150C94FB230C940000CF92EE
:100AD000DF92EF92FF920F931F93CF93DF936C01FE
:100AE000EB017B01E40EF51E00E010E0CE15DF0502
:100AF00061F06991D601ED91FC910190F081E02DBA
:100B0000C6010995080F191FF1CFC801DF91CF91D8
:100B10001F910F91FF90EF90DF90CF90089589364D
:100B200021E0920718F0E0E7F2E039C09C012F5075
:100B300031402A35310528F4E8E6F1E0E81BF90BED
:100B40002AC09C01255B31092A35310530F4FC01AE
:100B5000EE0FFF1FE85FFE4F0EC09C012B553109C1
:100B60002A353105B8F4E4EBF0E0E81BF90BEE0FA1
:100B7000FF1FE059FD4F65917491CB01A0E0B0E0FB
:100B80009C01AD0166277727CB01621B730B840B99
:100B9000950B0895FC01EE0FFF1FE059FD4F659185
:100BA000749180E090E008959C01265A3F4F233CC9
:100BB000314018F0E0E7F2E03DC09C012F50314099
:100BC0002A35310530F4FC01EE0FFF1FEC5AFF4FC0
:100BD0000EC09C01255B31092A353105B8F4EEE0E1
:100BE000F1E0E81BF90BEE0FFF1FE059FD4F659197
:100BF0007491CB01A0E0B0E09C01AD01662777279E
:100C0000CB01621B730B840B950B08959C012B5534
:100C100031092A35310530F4FC01EE0FFF1FE45491
:100C2000FE4F08C0EAE5F0E0E81BF90BEE0FFF1FEE
:100C3000E059FD4F6591749180E090E00895CF9365
:100C4000DF93EC0188819981009711F00E941525AE
:100C5000198218821D821C821B821A82DF91CF9119
:100C60000895FC01248135816217730748F480815F
:100C70009181009729F0FC01E60FF71F808108950C
:100C800080E00895FC01248135816217730720F408
:100C900080819181009729F41092920382E993E078
:100CA0000895860F971F0895FC0124813581232B19
:100CB00031F421E061157105A1F0FB0108C0FC01D0
:100CC000808191816115710531F421E0FC01808101
:100CD000882339F005C00E948B2621E0892B09F07A
:100CE00020E0822F08950F931F93CF93DF938C0101
:100CF000EB01FC0180819181009799F04281538141
:100D00002C813D814217530750F0688179810E9400
:100D100094268C819D81F8019583848313C00E9461
:100D2000152588819981F801918380838A819B812F
:100D3000938382838C819D81958384831982188219
:100D40001B821A821D821C82DF91CF911F910F910D
:100D500008950F931F93CF93DF93EC0188819981BE
:100D6000009729F02A813B812617370788F48B01E9
:100D70006F5F7F4F0E94AD25009761F09983888354
:100D80001B830A832C813D81232B11F4FC011082EB
:100D900081E001C080E0DF91CF911F910F91089514
:100DA000EF92FF920F931F93CF93DF93FC01248167
:100DB00035816115710511F480E019C041155105A7
:100DC000A9F07B01EC018A01020F131FB8010E94F8
:100DD000A906882389F3288139818C819D81B701F7
:100DE000820F931F0E9494261D830C8381E0DF9164
:100DF000CF911F910F91FF90EF900895CF93DF93C4
:100E0000EC016115710561F0FB0101900020E9F72B
:100E10003197AF01461B570B0E94D006811103C0CA
:100E2000CE010E941F06CE01DF91CF910895CF938E
:100E3000DF93EC01FB0144815581608171810E9447
:100E4000D006811103C0CE010E941F06CE01DF91A2
:100E5000CF910895EF92FF920F931F93CF93DF935B
:100E6000EC017B018A01BA010E94A906811104C02C
:100E7000CE010E941F0607C01D830C83B701888125
:100E800099810E949426CE01DF91CF911F910F91FD
:100E9000FF90EF900895CF93DF93EC0161157105FA
:100EA00059F0FB0101900020E9F73197AF01461B93
:100EB000570B0E942A0702C00E941F06CE01DF9135
:100EC000CF910895FC01808191810C9415250F9399
:100ED0001F93CF93DF93CDB7DEB7A1970FB6F894EA
:100EE000DEBF0FBECDBF8C01CB01BA01F80111826C
:100EF00010821382128215821482168230E0AE01B3
:100F00004F5F5F4F0E942924BE016F5F7F4FC80172
:100F10000E944B07A1960FB6F894DEBF0FBECDBF5F
:100F2000DF91CF911F910F9108950F931F93CF934E
:100F3000DF93CDB7DEB762970FB6F894DEBF0FBE72
:100F4000CDBF8C01CB01F801118210821382128275
:100F500015821482168250E0BE016F5F7F4F0E949F
:100F6000FE23BE016F5F7F4FC8010E944B07629650
:100F70000FB6F894DEBF0FBECDBFDF91CF911F91AA
:100F80000F910895FB01DC0111961C921E9213969D
:100F90001C921E92129715961C921E9214971696EA
:100FA0001C928617970749F0608171816115710560
:100FB00021F0448155810C942A070895FC01118287
:100FC00010821382128215821482168261157105B5
:100FD00051F0FB0101900020E9F73197AF01461B6A
:100FE000570B0C942A070895BF92CF92DF92EF928D
:100FF000FF920F931F93CF93DF937C016B018A01C4
:10100000E9012417350720F4812F8901C42FD82F37
:1010100065E771E0C7010E94DE07D60114968D9145
:101020009C91159780179107D0F08C179D0708F4B5
:10103000EC01D601ED91FC911197EC0FFD1FB080F2
:1010400010824D915C91BA01600F711FC7010E941F
:101050004B07D601ED91FC91EC0FFD1FB082C7014B
:10106000DF91CF911F910F91FF90EF90DF90CF9084
:10107000BF90089590E0FC01EA5DF54F3491FC01CA
:10108000EE59F54F2491FC01E25BF54FE491EE231C
:1010900009F43BC0332339F1333091F038F4313067
:1010A000A9F0323001F584B58F7D12C0363091F051
:1010B0003730A1F03430B9F4809180008F7D03C0C7
:1010C000809180008F77809380000DC084B58F77EA
:1010D00084BD09C08091B0008F7703C08091B000BB
:1010E0008F7D8093B000F0E0EE0FFF1FE65CF54FC0
:1010F000A591B4918FB7F894EC91611103C020953C
:101100002E2301C02E2B2C938FBF08953FB7F89448
:1011100080918E0390918F03A0919003B0919103E1
:1011200026B5A89B05C02F3F19F00196A11DB11D42
:101130003FBFBA2FA92F982F8827820F911DA11D7D
:10114000B11DBC01CD0142E0660F771F881F991FBA
:101150004A95D1F708951F920F920FB60F9211245E
:101160002F933F938F939F93AF93BF9380917C0373
:1011700090917D03A0917E03B0917F0330918D0308
:1011800023E0230F2D3720F40196A11DB11D05C0CA
:1011900026E8230F0296A11DB11D20938D03809395
:1011A0007C0390937D03A0937E03B0937F03809193
:1011B0008E0390918F03A0919003B09191030196BB
:1011C000A11DB11D80938E0390938F03A093900374
:1011D000B0939103BF91AF919F918F913F912F91C8
:1011E0000F900FBE0F901F901895CF93DF93CDB740
:1011F000DEB72E970FB6F894DEBF0FBECDBF23E04B
:1012000030E041E050E060E475E0CE0101960E94DC
:10121000F40789819A81009719F00E94D42303C0B2
:1012200060E070E0CB017093050160930401CE0192
:1012300001960E94620760910401709105014AE0E5
:10124000CE0108960E94950764E772E0CE010196F0
:101250000E94DE07BE01685F7F4FCE0101960E94AB
:1012600017070E941814CE0101960E946207CE0152
:1012700008960E9462072E960FB6F894DEBF0FBE46
:10128000CDBFDF91CF910895CF93DF93EC0165E758
:1012900071E00E94DE078091800390918103893480
:1012A0009105C1F194F48134910529F12CF4C29790
:1012B000A1F569EA72E033C08634910529F18834DA
:1012C000910559F566EB72E02AC083359105C9F0A6
:1012D0004CF48D34910591F080359105F1F469E974
:1012E00072E01DC08635910591F088359105A9F40D
:1012F00064ED72E014C067E872E011C061E972E069
:101300000EC062EA72E00BC060EB72E008C066ECEF
:1013100072E005C068ED72E002C061EE72E0CE01DD
:101320000E944B07CE01DF91CF9108954F925F92BB
:101330006F927F928F929F92AF92BF92CF92DF92E5
:10134000EF92FF92CF93DF9380E090E00E948F05B1
:101350004B015C0180E090E00E94D4052B013C0130
:101360008CE0C82ED12CE12CF12CC501B401A701D1
:1013700096010E94F82849015A01C301B201A70150
:1013800096010E94F828CA01B901A50194010E94A2
:10139000A2100E941D0EC5E0D0E0CE010E948F0574
:1013A0004B015C01CE010E94D4052B013C01C5011B
:1013B000B401A70196010E94F82849015A01C3010E
:1013C000B201A70196010E94F828CA01B901A5013E
:1013D00094010E94A2102596CD3681E0D807E9F647
:1013E000DF91CF91FF90EF90DF90CF90BF90AF90C3
:1013F0009F908F907F906F905F904F900C94370EDE
:101400004F925F926F927F928F929F92AF92BF9214
:10141000CF92DF92EF92FF920F931F93CF93DF93C0
:10142000EC016B0149015A01270138011C141D040C
:101430001CF5FE01E590F490FE01329605911491A1
:10144000249681E0C81AD108F7FE03C00E941D0E41
:1014500002C00E94370EA3019201200F311F411DCF
:10146000511DE894F7F8C501B4016E0D7F1D811D73
:10147000911D0E94A210DACFDF91CF911F910F91A1
:10148000FF90EF90DF90CF90BF90AF909F908F90A4
:101490007F906F905F904F900C94370E8F929F9239
:1014A000AF92BF92EF92FF920F931F937801890141
:1014B000893409F446C0873509F4B1C090E0FC01D5
:1014C000B197EA33F10508F02AC1EC5CFF4F0C94A8
:1014D00017299A01AB0166E070E08EE09AE01DC129
:1014E0009A01AB0165E170E08AEB99E016C19A01BF
:1014F000AB0162E170E082E799E00FC19A01AB01B4
:101500006EE070E08AE399E008C19A01AB0168E0FF
:1015100070E08AE199E001C19A01AB0166E070E0F8
:1015200082E099E0FAC09A01AB0165E170E08EEAD1
:1015300098E0F3C09A01AB0166E070E086E998E0BC
:10154000ECC038EC832E912CA12CB12C06C022E5E6
:10155000822E23E0922EA12CB12C9A01AB0162E0E5
:1015600070E08EE898E067C09A01AB016AE070E035
:1015700086E698E0D2C09A01AB0166E070E08EE4A6
:1015800098E0CBC09A01AB0163E070E082E498E0A0
:10159000C4C09A01AB0168E070E082E298E0BDC08F
:1015A0009A01AB0166E070E08AE098E0B6C09A016B
:1015B000AB0165E170E086EB97E0AFC09A01AB014B
:1015C0006CE070E086E897E0A8C09A01AB0167E1A3
:1015D00070E08AE297E0A1C09A01AB016EE070E092
:1015E00082EF96E09AC09A01AB0164E170E082EA72
:1015F00096E093C09A01AB0164E070E082E996E066
:101600008CC09A01AB016AE070E08AE696E085C082
:101610009A01AB0164E070E08AE596E07EC098EE46
:10162000892E93E0992EA12CB12C9A01AB0168E090
:1016300070E08AE396E00E94000A77C09A01AB014D
:1016400064E070E08AE296E068C09A01AB0165E070
:1016500070E086E196E061C09A01AB0166E070E05F
:101660008EEF95E05AC09A01AB0161E170E08AEB20
:1016700095E053C09A01AB0164E070E08AEA95E01E
:101680004CC09A01AB016EE070E082E795E045C086
:101690009A01AB016FE070E086E395E03EC09A01ED
:1016A000AB0165E070E082E295E037C09A01AB01E2
:1016B00061E170E08EED94E030C09A01AB0167E12A
:1016C00070E082E894E029C09A01AB0164E070E028
:1016D00082E794E022C09A01AB016DE170E08EEFE9
:1016E00093E01BC09A01AB0167E170E082EA93E0EE
:1016F00014C09A01AB0167E070E086E893E00DC08A
:101700009A01AB0163E170E08AE393E006C09A01BD
:10171000AB0165E070E086E293E00E94000A82E59A
:10172000882E83E0982EA12CB12CC501B4011F9105
:101730000F91FF90EF90BF90AF909F908F90089582
:10174000CF92DF92EF92FF920F931F93CF93DF938D
:101750008C01C0E0D0E0C12CD12C7601BE01C801C3
:101760000E9431068823C1F0893439F0873551F45D
:1017700088EE93E0A0E0B0E009C088EC90E0A0E043
:10178000B0E004C082E593E0A0E0B0E0C80ED91E4E
:10179000EA1EFB1E2196E2CFC701B601DF91CF9171
:1017A0001F910F91FF90EF90DF90CF9008952F92AF
:1017B0003F924F925F926F927F928F929F92AF92E1
:1017C000BF92CF92DF92EF92FF920F931F93CF932E
:1017D000DF9300D000D0CDB7DEB79A838983362E51
:1017E000272E3C832B83C12CD12C2A01550F660850
:1017F0007708EB81FC81CE16DF0624F5832C922C32
:10180000E12CF12CB70189819A810E94310688234D
:10181000A9F0092C000CAA08BB0893018201B501AC
:10182000A4010E944E0ADC01CB01880D991DAA1D5E
:10183000BB1D4C018FEFE81AF80AE4CF9FEFC91ADD
:10184000D90AD7CF0F900F900F900F90DF91CF91C3
:101850001F910F91FF90EF90DF90CF90BF90AF90CE
:101860009F908F907F906F905F904F903F902F90C0
:1018700008950F931F93CF93DF93EC018B0184E2C4
:10188000ECE0F1E0DE0101900D928A95E1F7CB01E9
:101890000E948F05688379838A839B83C8010E9495
:1018A000D4059B01AC0188279927DC01821B930B8F
:1018B000A40BB50B88879987AA87BB87C8010E94AC
:1018C000D405688F798F8A8F9B8FC8010E948F05FE
:1018D00068A379A38AA39BA3CE01DF91CF911F9127
:1018E0000F9108950F931F93CF93DF93EC018B011A
:1018F00084E2ECE0F1E0DE0101900D928A95E1F7DF
:10190000CB010E948F05688B798B8A8B9B8BC801DA
:101910000E94D4056C8B7D8B8E8B9F8BC8010E949F
:10192000D4059B01AC0188279927DC01821B930B0E
:10193000A40BB50B8C8F9D8FAE8FBF8FC8010E94FB
:101940008F0568A379A38AA39BA3CE01DF91CF91D2
:101950001F910F9108952A989EBD0DB407FEFDCFEB
:101960009EB58EBD0DB407FEFDCF8EB52A9A0895A3
:10197000CF93DF93EB014091A0035091A10321E0AD
:1019800030E0042E02C0220F331F0A94E2F72150E8
:1019900031092817390708F4C9012CE030E0241B6D
:1019A000350B02C0880F991F2A95E2F72091970303
:1019B000309198032227307F822B932B90939803AA
:1019C000809397030E94AB0C4091A0035091A10318
:1019D00081E090E0042E02C0880F991F0A94E2F77C
:1019E0000197C817D90708F4CE012CE030E0241B7A
:1019F000350B02C0880F991F2A95E2F720919903B1
:101A000030919A032227307F822B932B90939A0355
:101A1000809399030E94AB0C8091A203882349F024
:101A200080919E0390919F0397FD03C05F980000F3
:101A30005F9ADF91CF910895CF92DF92EF92FF925C
:101A4000C0900005D0900105E0900205F0900305DC
:101A50006C157D058E059F0584F0C0900805D0901B
:101A60000905E0900A05F0900B05C616D706E806B2
:101A7000F90634F482E090E005C081E090E002C015
:101A800080E090E0C0900405D0900505E090060548
:101A9000F09007052C153D054E055F0514F4846094
:101AA0000EC0C0900C05D0900D05E0900E05F09092
:101AB0000F05C216D306E406F5060CF48860FF9005
:101AC000EF90DF90CF90089508950F931F93CF93D9
:101AD000DF93FC01A685B7858D01005C1F4FE801EF
:101AE0008881998101968F739927AD014E5B5F4F75
:101AF000EA012881398182179307D1F3E80128810F
:101B00003981A20FB31F6C93A685B785A05CBF4F28
:101B100011969C938E93A689B7892C9181E090E0D1
:101B2000078C02C0880F991F0A94E2F7822B8C93CE
:101B300081E081A30488F589E02D80818064808321
:101B400081E090E0DF91CF911F910F910895FC010A
:101B500081A1882329F0A489B5898C9186FFFBCFC8
:101B600011A20895FC01A485B585FD01E05CFF4F3D
:101B7000208131813296808191812817390779F04F
:101B800080819181A80FB91F8C91208131812F5FB5
:101B90003F4F2F7333273183208390E008958FEFD9
:101BA0009FEF0895DC011C96ED91FC911D97DF01DC
:101BB000A05CBF4F2D913C91119712968D919C91F5
:101BC00011972817390739F08D919C91E80FF91F6B
:101BD000808190E008958FEF9FEF0895FC012485A8
:101BE0003585F901E05CFF4F80819181329620813B
:101BF0003181821B930B8F739927089590E0FC012C
:101C0000EE59F54F2491FC01E25BF54F8491882356
:101C100099F090E0880F991FFC01EC5BF54FA591BE
:101C2000B491FC01E65CF54F859194918FB7F894DF
:101C3000EC91E22BEC938FBF08958091D9049091A1
:101C4000DA04892B99F48091EF0481110FC08AEC9A
:101C500097E00197F1F781E090E09093DA048093A8
:101C6000D90461E08091CB040C943A0808958091E6
:101C7000D9049091DA04892B69F08AEC97E00197F6
:101C8000F1F71092DA041092D90460E08091CB044D
:101C90000C943A0808952F923F924F925F926F9260
:101CA0007F928F929F92AF92BF92CF92DF92EF92EC
:101CB000FF920F931F93CF93DF93CDB7DEB7A0971B
:101CC0000FB6F894DEBF0FBECDBF69877A878B87CA
:101CD0009C872D873E874F87588B8091D1049091A8
:101CE000D204A091D304B091D40489849A84AB84A3
:101CF000BC84881A990AAA0ABB0A8091D5049091DB
:101D0000D604A091D704B091D80429013A01481A09
:101D1000590A6A0A7B0A89829A82AB82BC82B7FE20
:101D20000BC022273327A901281939094A095B0961
:101D300029833A834B835C838091CD049091CE04B8
:101D4000A091CF04B091D0048D839E83AF83B887D8
:101D500029813A814B815C81BC01CD010E94D4284C
:101D60006B017C01A0E2DA0EE11CF11CA7019601D7
:101D70000EE055954795379527950A95D1F7298B0C
:101D80003A8B4B8B5C8B7301620177FE07C0CC24CE
:101D9000DD247601C418D508E608F708A7019601E6
:101DA0006D817E818F8198850E94D428DC01CB01D2
:101DB000905EAF4FBF4F1EE0B595A795979587955D
:101DC0001A95D1F72091E7043091E8044091E90495
:101DD0005091EA042D8B3E8B4F8B588F29813A818D
:101DE0004B815C81C20ED31EE41EF51E2D893E89F7
:101DF0004F89588DC20ED31EE41EF51EC092E70413
:101E0000D092E804E092E904F092EA04C988DA8802
:101E1000EB88FC88C816D906EA06FB0614F46C01A8
:101E20007D01C501B401EEE0660F771F881F991F81
:101E3000EA95D1F7FEE0440C551C661C771CFA9518
:101E4000D1F7A70196010E94F828298B3A8B4B8B7A
:101E50005C8BC301B201A70196010E94F828298F6B
:101E60003A8F4B8F5C8F812CA0E29A2EA12CB12C43
:101E700020E030E240E050E029833A834B835C83EA
:101E80001D821E821F821886A701960121503109EA
:101E9000410951092D8F3E8F4F8F58A322242A9438
:101EA000BFE03B2E2D813E814F8158858D8D9E8DCB
:101EB000AF8DB8A1281739074A075B070CF0C6C0D9
:101EC0000091EB041091EC042091ED043091EE04AC
:101ED0000F3F4FEF14072407340709F46CC08091BB
:101EE000EF04811168C049805A806B807C805EE07D
:101EF00075946794579447945A95D1F77501640186
:101F00006EE0F594E794D794C7946A95D1F7B3013E
:101F1000A20177FE07C044275527BA014419550985
:101F2000660977098D899E89AF89B88D480F591F39
:101F30006A1F7B1FD701C601F7FE07C088279927B4
:101F4000DC018C199D09AE09BF09840F951FA61FDE
:101F5000B71F081719072A073B076CF50E94370EB1
:101F600091E09093EF048091D1049091D204A091DC
:101F7000D304B091D404480E591E6A1E7B1E4092B1
:101F8000F0045092F1046092F2047092F304809194
:101F9000D5049091D604A091D704B091D804C80E6E
:101FA000D91EEA1EFB1EC092F404D092F504E09202
:101FB000F604F092F704298D3A8D4B8D5C8D820EDC
:101FC000931EA41EB51E29813A814B815C818989AB
:101FD0009A89AB89BC89280F391F4A1F5B1F298347
:101FE0003A834B835C83DA01C9012EE0B595A7954E
:101FF000979587952A95D1F72091D1043091D204F5
:10200000820F931FB101681B790B950184014EE08B
:1020100035952795179507954A95D1F78091D50461
:102020009091D604080F191FC101801B910B0E94CB
:10203000B80C2D813E814F8158852F5F3F4F4F4F08
:102040005F4F2D833E834F8358872CCF8091EF04C1
:10205000811138C08091EB049091EC04A091ED04C3
:10206000B091EE048F3FEFEF9E07AE07BE0751F130
:102070004091E7045091E8046091E9047091EA040A
:1020800084179507A607B707ECF40E94370E81E086
:102090008093EF0429853A854B855C852093F00475
:1020A0003093F1044093F2045093F3048D859E85A0
:1020B000AF85B8898093F4049093F504A093F60457
:1020C000B093F70429853A854B855C852093D1042C
:1020D0003093D2044093D3045093D4048D859E85CD
:1020E000AF85B8898093D5049093D604A093D70484
:1020F000B093D8048FEF9FE0BC01621B730BAD85DA
:10210000BE858A1B9B0B0E94B80C8EE090E0019765
:10211000F1F7A0960FB6F894DEBF0FBECDBFDF91EA
:10212000CF911F910F91FF90EF90DF90CF90BF90D4
:10213000AF909F908F907F906F905F904F903F9067
:102140002F9008952F923F924F925F926F927F92BD
:102150008F929F92AF92BF92CF92DF92EF92FF92B7
:102160000F931F93CF93DF93CDB7DEB7E5970FB6ED
:10217000F894DEBF0FBECDBF2B013C0149015A01CF
:1021800080911005882309F4BFC09201550C440BBF
:10219000550B29833A834B835C83092C000CAA08D6
:1021A000BB088091350590913605A0913705B09117
:1021B000380589879A87AB87BC876091190570912C
:1021C0001A0580911B0590911C050E94D4286B0173
:1021D0007C016091250570912605809127059091DD
:1021E0002805A50194010E94D428C60ED71EE81E1A
:1021F000F91E4EE0F594E794D794C7944A95D1F729
:102200000D2C000CEE08FF0829853A854B855C856E
:10221000C20ED31EE41EF51E6091110570911205C9
:10222000809113059091140529813A814B815C813D
:102230000E94D4282B013C0160911D0570911E0560
:1022400080911F0590912005A50194010E94D4283A
:10225000460E571E681E791E5EE07594679457946B
:1022600047945A95D1F7D20129853A854B855C85EB
:102270000E942829A70196010E94F82829013A0105
:1022800088E0580E611C711C60911505709116054F
:10229000809117059091180529813A814B815C81C5
:1022A0000E94D42869837A838B839C836091210563
:1022B000709122058091230590912405A501940138
:1022C0000E94D42829813A814B815C81260F371FD7
:1022D000481F591FDA01C9016EE0B595A79597957A
:1022E00087956A95D1F7DC0129853A854B855C8510
:1022F0000E942829A70196010E94F82849015A0145
:1023000088E0980EA11CB11CC090DB04D090DC04C6
:10231000E090DD04F090DE04A3019201C701B60154
:102320000E94D428DC01CB01905EAF4FBF4F2EE05E
:10233000B595A795979587952A95D1F74090DF0495
:102340005090E0046090E1047090E2049C01AD01C3
:10235000240D351D461D571D2CA33DA34EA35FA381
:10236000A5019401C701B6010E94D428DC01CB016C
:10237000905EAF4FBF4F3EE0B595A7959795879577
:102380003A95D1F7C090E304D090E404E090E504DE
:10239000F090E6049C01AD012C0D3D1D4E1D5F1D0E
:1023A00028A739A74AA75BA78091F8049091F90460
:1023B000A091FA04B091FB048CA79DA7AEA7BFA77C
:1023C0002091FC043091FD044091FE045091FF04E3
:1023D00028AB39AB4AAB5BABBC01CD010E941C0DF5
:1023E0009F878E8728A539A54AA55BA56CA17DA1ED
:1023F0008EA19FA10E941C0D9BA38AA380910C0516
:1024000090910D05A0910E05B0910F058A8B9B8BC5
:10241000AC8BBD8B209104053091050540910605DC
:10242000509107052E8B3F8B488F598F809108055F
:1024300090910905A0910A05B0910B058A8F9B8F99
:10244000AC8FBD8F209100053091010540910205B0
:10245000509103052E8F3F8F48A359A388A899A8B0
:10246000AAA8BBA8CCA4DDA4EEA4FFA488A599A526
:10247000AAA5BBA589879A87AB87BC872CA13DA15C
:102480004EA15FA129833A834B835C838AA19BA1E0
:102490004E855F85842B952B892B09F474C18AA105
:1024A0009BA184239523892B09F08AC1452B29F40C
:1024B0008AA19BA1998B888B04C0AE85BF85B98BFF
:1024C000A88BB889B3FF4AC0C701B6010E94B227E2
:1024D0006D837E838F83988769817A818B819C81CC
:1024E0006C197D098E099F090E94B2272B013C01BE
:1024F0006A897B898C899D89681979098A099B0970
:102500000E94B2279B01AC01C301B2010E94432883
:102510002B013C0169857A858B859C856819790931
:102520008A099B090E94B2279B01AC01C301B20139
:102530000E9408279B01AC016D817E818F81988567
:102540000E949C260E947A278B018DAB9CABEA8966
:10255000ED83FB89FD872C883D88E6C0288922FF12
:102560004AC0C701B6010E94B2276D837E838F8364
:10257000988769817A818B819C816C197D098E098C
:102580009F090E94B2272B013C016E897F89888DAB
:10259000998D681979098A099B090E94B2279B01C4
:1025A000AC01C301B2010E9443282B013C016985A3
:1025B0007A858B859C85681979098A099B090E940F
:1025C000B2279B01AC01C301B2010E9408279B0105
:1025D000AC016D817E818F8198850E949C260E942E
:1025E0007A278B018DAB9CAB3E893D834F894D870C
:1025F000288C398C99C0588951FF4AC0C501B40153
:102600000E94B2276D837E838F83988769857A8540
:102610008B859C85681979098A099B090E94B227D4
:102620002B013C016A8D7B8D8C8D9D8D6C197D09F4
:102630008E099F090E94B2279B01AC01C301B20120
:102640000E9443282B013C0169817A818B819C8106
:102650006C197D098E099F090E94B2279B01AC016C
:10266000C301B2010E9408279B01AC016D817E81EC
:102670008F8198850E949C260E947A276D837D8792
:102680001C010A8D1B8D8C8D8DAB9D8D9CAB4CC020
:10269000A889A0FF49C0C501B4010E94B2276D837B
:1026A0007E838F83988769857A858B859C85681959
:1026B00079098A099B090E94B2272B013C016E8D82
:1026C0007F8D88A199A16C197D098E099F090E94AF
:1026D000B2279B01AC01C301B2010E9443282B0128
:1026E0003C0169817A818B819C816C197D098E09FD
:1026F0009F090E94B2279B01AC01C301B2010E9455
:1027000008279B01AC016D817E818F8198850E9495
:102710009C260E947A276D837D871C010E8D1F8D5C
:10272000B8A1BDABE9A1ECAB288939894E855F859D
:102730002417350789F42D813D85A101B8018DA9A4
:102740009CA90E941C0D9F878E878D809D845101BE
:102750006801EDA8FCA89ACE2D813D85A101B801A4
:102760008DA99CA90E941C0D9BA38AA35D815987FA
:102770008D858A872B863C8609831A839DA99B8336
:10278000ACA9AC8383CE8CA59DA5AEA5BFA5C8166C
:10279000D906EA06FB0609F044C028A939A94AA9C6
:1027A0005BA982169306A406B506D9F529853A8554
:1027B0004B855C8569817A818B819C810E944B0E5F
:1027C0008CA19DA1AEA1BFA18093F8049093F904C0
:1027D000A093FA04B093FB0428A539A54AA55BA5EC
:1027E0002093FC043093FD044093FE045093FF04B7
:1027F000E5960FB6F894DEBF0FBECDBFDF91CF9147
:102800001F910F91FF90EF90DF90CF90BF90AF900E
:102810009F908F907F906F905F904F903F902F9000
:102820000895A5019401C701B6010E944B0EBECFC9
:10283000CF92DF92EF92FF920F931F93CF93DF938C
:102840006C0100E010E0C0E0D0E0F60184819581E9
:10285000E0902B04F0902C040817190780F4B801BD
:10286000C6010E943106D701ED91FC91682F8BE2E1
:1028700094E00995C80FD91F0F5F1F4FE6CFD7010E
:10288000ED91FC916DE08BE294E009958C01E09173
:102890002B04F0912C040190F081E02D6AE08BE292
:1028A00094E00995C00FD11F8C0F9D1FDF91CF9130
:1028B0001F910F91FF90EF90DF90CF9008951F939D
:1028C000CF93DF9300D0CDB7DEB78BE294E00E94C8
:1028D000EE0D892BE1F011E08BE294E00E94EE0D09
:1028E000892BA9F08BE294E00E94B20D8A3019F492
:1028F00010934E05F1CF89831A8241E050E0BE016A
:102900006F5F7F4F80E495E00E94D006E5CF0F9087
:102910000F90DF91CF911F9108951F920F920FB6E4
:102920000F9211242F933F938F939F93EF93FF93D5
:102930002091E3033091E4038091E5039091E60355
:102940002817390731F48091C1008F7D8093C10031
:1029500014C0E091E503F091E603ED55FC4F2081B2
:102960008091E5039091E60301968F7399279093E8
:10297000E6038093E5032093C600FF91EF919F91BA
:102980008F913F912F910F900FBE0F901F90189530
:102990001F920F920FB60F9211242F934F935F93B4
:1029A0008F939F93EF93FF938091C00082FD1CC093
:1029B0002091C600809127049091280401968F737E
:1029C00099274091290450912A048417950771F0A2
:1029D000E0912704F0912804E951FC4F2083909363
:1029E00028048093270402C08091C600FF91EF91D4
:1029F0009F918F915F914F912F910F900FBE0F90EC
:102A00001F901895CF93DF93CDB7DEB7C959D10981
:102A10000FB6F894DEBF0FBECDBF789484B5826048
:102A200084BD84B5816084BD85B5826085BD85B572
:102A3000816085BD80916E00816080936E001092F0
:102A4000810080918100826080938100809181006B
:102A500081608093810080918000816080938000FC
:102A60008091B10084608093B1008091B00081605A
:102A70008093B00080917A00846080937A00809186
:102A80007A00826080937A0080917A0081608093DE
:102A90007A0080917A00806880937A001092C10059
:102AA0008CE090E09093A1038093A00388E0809352
:102AB0009B0380E098E0909394038093930390931A
:102AC0009603809395038AE090E090939D03809312
:102AD0009C0387E090E090939F0380939E0381E0A6
:102AE0008093A20380E090E79093980380939703EC
:102AF00080E090EF90939A03809399038AE00E947C
:102B0000FE0D80919E030E94FE0D61E080919C036A
:102B10000E943A0861E080919E030E943A0861E0B9
:102B20008AE00E943A088AE00E94FE0D8CB580611E
:102B30008CBD8CB580648CBD8DE00E94FE0D8BE059
:102B40000E94FE0D8CB58F7D8CBD8CB5837F8CBDB6
:102B50008CB58C7F8CBD8DB581608DBD8091CB0493
:102B60000E94FE0DE0913F04F091400481E090E06E
:102B70009C0100904B0402C0220F331F0A94E2F71D
:102B80002083E0913B04F0913C041082E0913D04ED
:102B9000F0913E042FEC208310924C04E09141040C
:102BA000F091420440819C010090470402C0220F32
:102BB000331F0A94E2F7242B2083E0914104F09123
:102BC000420440819C010090480402C0220F331F40
:102BD0000A94E2F7242B2083E0914104F09142040F
:102BE00040819C010090490402C0220F331F0A94C7
:102BF000E2F7242B2083E0914104F09142042081EC
:102C000000904A0402C0880F991F0A94E2F7809549
:102C10008223808360E071E080E495E00E94A90651
:102C200080914E05882309F426C2809184039091F7
:102C300085030196909385038093840364E671E095
:102C4000CE0101960E94DE0760E475E0CE01019698
:102C50000E9417070E941814CE0101960E94620775
:102C600060E070E080E495E00E943106682F880FF4
:102C7000770B70938303609382034AE0CE018B59F4
:102C80009F4F0E94950766E771E0CE0101960E9472
:102C9000DE07BE016B597F4FCE0101960E941707D8
:102CA0000E941814CE0101960E946207CE018B5932
:102CB0009F4F0E94620765E771E0CE018D589F4FDC
:102CC0000E94DE07809182039091830389349105ED
:102CD00009F452C194F48134910509F44CC024F4F0
:102CE000C29709F09EC1EFC08634910509F4EBC08C
:102CF0008834910509F095C1E6C08335910509F442
:102D0000E2C04CF48D34910509F4DDC080359105A5
:102D100009F087C1D8C08635910509F4D4C088353B
:102D2000910509F07EC19093810380938003CE01C9
:102D30008B599F4F0E9444096DED71E0CE010196C1
:102D40000E94DE07BE016B597F4FCE0101960E94A3
:102D500017070E941814CE0101960E946207CE0147
:102D60008B599F4F0E94620765E771E089E395E008
:102D70000E944B07FCC00E94F50820914405309149
:102D8000450543E050E060E475E0CE0101960E9405
:102D9000F407BE016F5F7F4FCE018D589F4F0E9499
:102DA0007306CE0101960E9462076CE871E0CE01C5
:102DB0008D589F4F0E945406882319F085E090E0BB
:102DC0002FC062E971E0CE018D589F4F0E945406DA
:102DD000882319F08BE090E023C067E971E0CE0111
:102DE0008D589F4F0E945406882319F084E090E08C
:102DF00017C061EA71E0CE018D589F4F0E945406C2
:102E0000882319F080E190E00BC06BEA71E0CE01FD
:102E10008D589F4F0E945406882331F081E190E045
:102E200090938B0380938A03809182039091830314
:102E3000909381038093800380918A0390918B0308
:102E400027E0289FB001299F700D1124635B7B4F01
:102E5000CE0184599F4F0E94C207CE018B599F4FCC
:102E60000E9444096AEB71E0CE0101960E94DE07E0
:102E7000BE016B597F4FCE0101960E94170764E790
:102E800071E00E94FE06BE0164597F4F0E94170741
:102E900063ED71E00E94FE060E941814CE010196B7
:102EA0000E946207CE018B599F4F0E946207CE019C
:102EB00084599F4F0E94620765E771E089E395E0BE
:102EC0000E944B07CBC00E94F5088091820390912D
:102ED00083039093810380938003CE018B599F4F8E
:102EE0000E9444096AEB71E0CE0101960E94DE0760
:102EF000BE016B597F4FCE0101960E9417070E94B9
:102F00001814CE0101960E946207CE018B599F4F83
:102F10000E946207209144053091450543E050E04E
:102F200060E475E0CE0101960E94F4070D811E81D8
:102F3000CE0101960E9462070230110508F48EC08E
:102F4000209144053091450543E050E060E475E090
:102F5000CE0101960E94F407BE016F5F7F4F89E3A7
:102F600095E00E947306CE0101960E9462071092BE
:102F70008B0310928A0372C020914405309145055D
:102F800041E050E060E475E0CE0101960E94F40754
:102F900089819A81009729F00E94D423AB01BC015A
:102FA00003C040E050E0BA0140930001509301019A
:102FB0006093020170930301CE010196CA56DF4F60
:102FC0004883C659D040C956DF4F5883C759D040AF
:102FD000C856DF4F6883C859D040C756DF4F788343
:102FE000C959D0400E9462072AE0CA56DF4F488183
:102FF000C659D040C956DF4F5881C759D040C8562E
:10300000DF4F6881C859D040C756DF4F7881C95912
:10301000D040CE018B599F4F0E9467076AEE71E046
:1030200007C0CE018B599F4F0E94440967E072E0B0
:10303000CE0101960E94DE07BE016B597F4FCE0183
:1030400001960E9417070E941814CE0101960E9453
:103050006207CE018B599F4F0E94620765E771E0BE
:1030600080E495E00E944B0710924E05CE018D58EA
:103070009F4F0E9462078FB7F894C0907C03D09056
:103080007D03E0907E03F0907F038FBF809100016D
:1030900090910101A0910201B09103010097A10557
:1030A000B10509F40BC140918603509187036091EB
:1030B00088037091890397018601041B150B260B69
:1030C000370B081719072A073B0708F4F7C081E0F8
:1030D00080938C03C0928603D0928703E09288038A
:1030E000F092890380913D0590913E05009709F487
:1030F0007BC0A7961FAE1EAEA797A9961FAE1EAEA9
:10310000A997AB961FAE1EAEAB97AC961FAEAC9711
:103110004AE0BE016F5F7F4F0E945624BE016F5F81
:103120007F4FCE018B599F4F0E944B076091040146
:10313000709105014AE0CE0101960E949507CE01EB
:1031400084599F4F0E9444092AE0B701A601CE018D
:1031500086589F4F0E946707BE0166587F4FCE0179
:103160008D589F4F0E94C20762E172E0CE018D58D8
:103170009F4F0E94FE06BE0164597F4F0E941707B1
:1031800069E172E00E94FE06BE016F5F7F4F0E9400
:10319000170760E272E00E94FE06BE016B597F4F86
:1031A0000E94170769E272E00E94FE0669E375E07B
:1031B0000E9417070E941814CE018D589F4F0E943D
:1031C0006207CE0186589F4F0E946207CE01845944
:1031D0009F4F0E946207CE0101960E946207CE01B6
:1031E0008B599F4F0E94620780918A0390918B03B5
:1031F000009709F463C027E0289FB001299F700D54
:103200001124635B7B4FCE0101960E94C20760913F
:103210000401709105014AE0CE018B599F4F0E9435
:103220009507CE0184599F4F0E9444092AE0B701B7
:10323000A601CE0186589F4F0E946707BE016658BF
:103240007F4FCE018D589F4F0E94C20762E172E00E
:10325000CE018D589F4F0E94FE06BE0164597F4FDC
:103260000E94170769E172E00E94FE06BE016B59D9
:103270007F4F0E9417076FE272E00E94FE06BE01B8
:103280006F5F7F4F0E9417070E941814CE018D5860
:103290009F4F0E946207CE0186589F4F0E9462078F
:1032A000CE0184599F4F0E946207CE018B599F4FD8
:1032B0000E946207CE0101960E94620780918C03F2
:1032C000882311F40C94892280913D0590913E054C
:1032D000892B09F4E3C6E0903905F0903A056CE2D9
:1032E00070E0C7010E948026009721F08C010E1922
:1032F0001F0902C00FEF1FEF80918003909181039F
:103300008D349105E1F06CF48634910509F466C5BD
:103310008834910509F41FC2C29711F00C948722DA
:103320006EC48335910509F4F4C38635910509F41B
:10333000C9C28035910511F00C9487226EC360914B
:10334000040170910501072E000C880B990B0E9457
:10335000B22720E030E048EC52E40E9408272B011D
:103360003C0169E375E0CE0184599F4F0E94C2077A
:1033700020E030E048E453E4C301B2010E94432856
:103380009B01AC0160E070E080E895E40E940827B2
:103390000E947A27CF57DF4F79836883C158D04086
:1033A0009E012F5F3F4F1901643671051CF14AE001
:1033B000CE018B599F4F0E9495076BE372E0C101CC
:1033C0000E94DE07BE016B597F4FC1010E941707A3
:1033D0000E941814C1010E946207CE018B599F4FB1
:1033E0000E94620783E690E0CF57DF4F998388837E
:1033F000C158D040F10120E2CF0182199309CF5783
:10340000DF4FA881B981C158D0408A179B0714F4B7
:103410002193F2CF1092DF041092E0041092E104A5
:103420001092E20480E098E0A0E0B0E08093E30432
:103430009093E404A093E504B093E60420E030E028
:1034400040E856E4C301B2010E9443280E947A2753
:103450006093DB047093DC048093DD049093DE04BE
:10346000E296EEADFFADE297C757DF4FF983E883F1
:10347000C958D040CB57DF4F19821882C558D04069
:10348000E12CF12CCF57DF4F08811981C158D04072
:10349000E00FF11FCE56DF4FF983E883C259D040C9
:1034A00001501109CC56DF4F19830883C459D0400D
:1034B000CF57DF4F28813981C158D0402C0F3D1F95
:1034C000C457DF4F39832883CC58D040CB57DF4FC8
:1034D00008811981C558D040CE56DF4F28813981E7
:1034E000C259D040021713070CF031C189818934C9
:1034F00039F0873551F488EE93E0A0E0B0E009C0E0
:1035000088EC90E0A0E0B0E004C082E593E0A0E0A9
:10351000B0E0C957DF4F99838883C758D040C95757
:10352000DF4F48815981C758D040E416F5060CF0AA
:10353000C5C08FB7F89400917C0310917D03209152
:103540007E0330917F03C257DF4F088319832A839C
:103550003B83CE58D0408FBF002711270E191F097B
:103560006101C557DF4F1882CB58D040C601821980
:103570009309CF57DF4FE881F981C158D0408E17AA
:103580009F07B4F5D6018D916D01803231F0B1E025
:10359000C557DF4FB883CB58D0404801110FAA0858
:1035A000BB0800E010E09801B501A4010E944E0A9A
:1035B000DC01CB01880D991DAA1DBB1D8C01BC012E
:1035C000990F880B990B0E94B2274B015C01A30154
:1035D000920160E070E080E895E40E9408279B017A
:1035E000AC01C501B4010E943E2818160CF0BECFF4
:1035F000C557DF4FF881CB58D040F11106C0C957ED
:10360000DF4FE880F980C758D040B701FF0C880B26
:10361000990B0E94B2276B017C01A301920160E02B
:1036200070E088EC92E40E9408279B01AC01C7017E
:10363000B6010E949C260E947A277B012FB7F8943E
:1036400080917C0390917D03A0917E03B0917F03D4
:103650002FBFC257DF4F088119812A813B81CE5885
:10366000D040801B910BA20BB30B82339105A105B7
:10367000B1050CF054CFE2E38E2E912CA12CB12C8D
:10368000881A990AAA0ABB0A0E9486086B0181144B
:103690009104A104B10409F442CF0E9486086C1978
:1036A0007D09683E734098F321E0821A9108A108D1
:1036B000B10838E1C31A3CEFD30AE9CFE41AF50A9E
:1036C000DE011296F101CF0182199309CC56DF4F2A
:1036D00008811981C459D040801791071CF48D913D
:1036E0008193F1CFCB57DF4F28813981C558D04026
:1036F000C757DF4F48815981C958D0402417350733
:1037000084F4B901CE0184599F4F0E944206DC0126
:103710008C91C457DF4FE881F981CC58D040808329
:1037200008C080E2C457DF4FA881B981CC58D0408F
:103730008C93CB57DF4FE881F981C558D040319643
:10374000CB57DF4FF983E883C558D040BFCECE01B9
:1037500084599F4FB4C069E375E0CE018D589F4FE7
:103760000E94C207BE016D587F4FCE0184599F4F02
:103770000E94C207BE0164597F4FCE0101960E948C
:10378000C207CE0101960E94A00B6B017C01CE0105
:1037900001960E9462076091040170910501072E55
:1037A000000C880B990B0E94B22720E030E048EC17
:1037B00052E40E94082720E030E040E856E40E94EE
:1037C00043280E947A276093DB047093DC04809383
:1037D000DD049093DE0480E094E0A0E0B0E080930C
:1037E000DF049093E004A093E104B093E20480939B
:1037F000E3049093E404A093E504B093E604860107
:10380000D7FE02C00F5F1F4F1595079511950195C3
:1038100011094DE2E42EF12C58E6C52EDD24D39497
:103820006624639464E2762E70ED872E77E0972EFF
:10383000A12CB12CC701B6010E94E428BC01CE0125
:1038400001960E94390C60921005FE013196A1E1AB
:10385000B5E0872D01900D928A95E1F780923505AC
:1038600090923605A0923705B0923805BE01645992
:103870007F4FCE018B599F4F0E94C20721E030E05D
:103880004CE05EEFB801CE018B599F4F0E94D70BE1
:10389000CE018B599F4F0E94620798E0E90EF11C00
:1038A000ADEFEA16A2E0FA0629F610921005CE0155
:1038B00084599F4F0E946207CE018D589F4F0E94EE
:1038C000620725C669E375E0CE018D589F4F0E94BF
:1038D000C207BE016D587F4FCE0184599F4F0E9491
:1038E000C207BE0164597F4FCE0101960E94C207F4
:1038F000CE0101960E94A00B6B017C01CE010196C6
:103900000E9462076091040170910501072E000C6E
:10391000880B990B0E94B22720E030E048EC52E47B
:103920000E94082720E030E040E856E40E94432847
:103930000E947A276093DB047093DC048093DD049B
:103940009093DE0400E014E020E030E00093DF0418
:103950001093E0042093E1043093E2040093E30425
:103960001093E4042093E5043093E6048601D7FE27
:1039700002C00F5F1F4F159507951195019511090D
:10398000BDE2EB2EF12C88E6C82EDD24D39466240C
:10399000639494E2792E20ED822E27E0922EA12CC2
:1039A000B12CC701B6010E94E428BC01CE010196EA
:1039B0000E94720C60921005FE013196A1E1B5E003
:1039C000872D01900D928A95E1F7809235059092AE
:1039D0003605A0923705B0923805BE0164597F4F75
:1039E000CE018B599F4F0E94C20721E030E04CE08E
:1039F0005EEFB801CE018B599F4F0E94D70BCE01CD
:103A00008B599F4F0E94620728E0E20EF11C3DEFA8
:103A1000E31632E0F30629F648CF69E375E0CE01FC
:103A200084599F4F0E94C207BE0164597F4FCE0147
:103A30008B599F4F0E94C207BE016B597F4FCE0129
:103A400001960E94C207CE0101960E94A00B6B0155
:103A50007C01CE0101960E94620780E098E0A0E020
:103A6000B0E08093DF049093E004A093E104B0936E
:103A7000E2048093E3049093E404A093E504B093FC
:103A8000E6048601D7FE02C00F5F1F4F159507950C
:103A9000119501951109F6E4EF2EF12C812C912C52
:103AA00054012AE037ED43E25CE3C501B4010E9412
:103AB0009C264B015C0120E030E040E856E40E9487
:103AC00043280E947A276093DB047093DC04809380
:103AD000DD049093DE04BE016B597F4FCE01019649
:103AE0000E94C20721E030E040E050E0B801CE0182
:103AF00001960E94D70BCE0101960E94620741E019
:103B0000E41AF10871F6CE018B599F4F0E946207AB
:103B1000AEC369E375E0CE018B599F4F0E94C20787
:103B2000BE016B597F4FCE0101960E94C207CE01A4
:103B300001960E94A00B6B017C01CE0101960E94B0
:103B400062076091040170910501072E000C880B3B
:103B5000990B0E94B22720E030E048EC52E40E942A
:103B6000082720E030E040E856E40E9443280E9405
:103B70007A276093DB047093DC048093DD049093D8
:103B8000DE048601D7FE02C00F5F1F4F1595079513
:103B900011950195110963E6E62EF12C812C78E050
:103BA000972EA12CB12C8092DF049092E004A09279
:103BB000E104B092E2048092E3049092E404A092C3
:103BC000E504B092E604BE016B597F4FCE01019629
:103BD0000E94C20721E030E04CE05EEFB801CE0168
:103BE00001960E94D70BCE0101960E94620751E018
:103BF000E51AF108C1F6CE018B599F4F60CE101621
:103C000011060CF084C4980140E050E069E375E0CF
:103C1000CE0186589F4F0E94F40720913D053091B8
:103C20003E05A8014F5F5F4F69E375E0CE018D58F7
:103C30009F4F0E94F407BE016D587F4FCE018459FB
:103C40009F4F0E94C207BE0166587F4FCE018B591D
:103C50009F4F0E94C207BE016B597F4FCE01019654
:103C60000E94C207CE0101960E94A00B6B017C014D
:103C7000CE0101960E946207BE0164597F4FCE01BA
:103C800001960E94C207CE0101960E94A00B4B0133
:103C90005C01CE0101960E9462076091040170915F
:103CA0000501072E000C880B990B0E94B22720E01B
:103CB00030E048EC52E40E94082720E030E040E881
:103CC00056E40E9443280E947A276093DB04709395
:103CD000DC048093DD049093DE04C601D7FC0196DA
:103CE00095958795EE24FF24E81AF90A840197FE3A
:103CF00002C00F5F1F4F159507951195019511098A
:103D000093E6C92ED12C812C28E0922EA12CB12C27
:103D100038E5432E3AE0532E612C712C8092DF045B
:103D20009092E004A092E104B092E2044092E30495
:103D30005092E4046092E5047092E604BE016B596F
:103D40007F4FCE0101960E94C20721E030E04CE097
:103D50005EEFB701CE0101960E94D70BCE0101960E
:103D60000E9462078092DF049092E004A092E10436
:103D7000B092E2048092E3049092E404A092E504FD
:103D8000B092E604BE0164597F4FCE0101960E94B5
:103D9000C20721E030E04CE05EEFB801CE010196B1
:103DA0000E94D70BCE0101960E94620781E0C81ADB
:103DB000D10809F0B3CFCE018B599F4F0E94620703
:103DC000CE0184599F4F0E946207CE018D589F4FAC
:103DD0000E946207CE0186589F4F71CD69E375E05E
:103DE000CE018D589F4F0E94C207BE016D587F4F74
:103DF000CE0184599F4F0E94C207BE016D587F4F6C
:103E0000CE018B599F4F0E94C207E996EEACFFACE2
:103E1000E997C12CD12C01E0E01AF108F7FC15C09C
:103E2000B601CE0184599F4F0E9442068C01B70112
:103E3000CE018B599F4F0E944206DC018C91F80104
:103E40008083FFEFCF1ADF0AE6CFBE016B597F4FA9
:103E5000CE0101960E94C207CE0101960E94A00BDE
:103E60006B017C01CE0101960E946207B6010D2C08
:103E7000000C880B990B0E94B2279B01AC0160E0FB
:103E800070E88EE395E40E94082720E030E040E8E7
:103E900056E40E9443280E947A276093DB047093C3
:103EA000DC048093DD049093DE0480E098E0A0E0E1
:103EB000B0E08093DF049093E004A093E104B0931A
:103EC000E2048093E3049093E404A093E504B093A8
:103ED000E604C601D7FC01969595879522243324E4
:103EE000281A390A13E2C12ED12CBE0164597F4F22
:103EF000CE0101960E94C20724E030E040E050E08D
:103F0000B101CE0101960E94D70BCE0101960E940D
:103F10006207E996AEACBFACE99700E010E00A1585
:103F20001B05DCF5B801CE018B599F4F0E9442065C
:103F3000DC019C90B801CE0184599F4F0E9442063B
:103F4000FC018081891554F4B801CE0184599F4F3A
:103F50000E944206FC0190819F5F9083B801CE01D0
:103F60008B599F4F0E944206DC019C90B801CE0104
:103F700084599F4F0E944206FC018081981654F498
:103F8000B801CE0184599F4F0E944206FC019081E6
:103F9000915090830F5F1F4FC2CFF1E0CF1AD1082D
:103FA00009F0A3CF812C912C5401CC24CA94AFE00A
:103FB000DA2EE12CF12C8092000590920105A0925E
:103FC0000205B092030510920405109205051092A7
:103FD00006051092070544244A94FFE05F2E612CE9
:103FE000712CD701C60188199909AA09BB098093C8
:103FF000080590930905A0930A05B0930B05C0929C
:104000000C05D0920D05E0920E05F0920F05BE0151
:104010006B597F4FCE0101960E94C20721E030E02C
:1040200040E050E0B101CE0101960E94D70BCE01D5
:1040300001960E94620708E2800E911CA11CB11C2F
:1040400010E6811619E09106A104B10409F0B3CF7E
:1040500010920005109201051092020510920305BE
:10406000109204051092050510920605109207059E
:10407000409208055092090560920A0570920B055E
:1040800040920C0550920D0560920E0570920F053E
:10409000CE018B599F4F0E94620709CC80918A0301
:1040A00090918B038530910509F4E5C01CF40497C9
:1040B00081F02DC28031910509F466C1419709F064
:1040C00026C204E610E0C12C88E0D82EE12CF12CA9
:1040D000C6C16EE672E0CE0184599F4F0E94DE0792
:1040E000BE0164597F4FCE0101960E94C207CE01E6
:1040F00001960E94A00B6B017C01CE0101960E94EB
:10410000620780E090E2A0E0B0E08093DB0490934F
:10411000DC04A093DD04B093DE04C601D7FC019655
:1041200095958795EE24FF24E81AF90AC12CD12C25
:1041300001E078E6872E9924939414E2E8EA4E2E63
:1041400055245394612C712C00931005C601B401C1
:104150000E94E4285C01BC01CE0101960E94720C11
:10416000FE013196A1E1B5E0812F01900D928A9573
:10417000E1F720EA3FE040E050E02093350530933E
:104180003605409337055093380580E094E0A0E071
:10419000B0E08093DF049093E004A093E104B09337
:1041A000E20428E536E040E050E02093E304309359
:1041B000E4044093E5045093E604BE0164597F4F44
:1041C000CE018B599F4F0E94C20721E030E04CE0A6
:1041D0005EEFB701CE018B599F4F0E94D70BCE01E6
:1041E0008B599F4F0E946207B501CE0101960E9434
:1041F000390CFE013196A1E1B5E0812F01900D92BD
:104200008A95E1F780E094E0A0E0B0E08093DF04DD
:104210009093E004A093E104B093E2044092E3049D
:104220005092E4046092E5047092E6046CE971E057
:10423000CE018B599F4F0E94DE0721E030E04CE019
:104240005EEFB701CE018B599F4F0E94D70BCE0175
:104250008B599F4F0E94620798E0C90ED11CA0EDB8
:10426000CA16A2E0DA0609F06FCF10921005CE014F
:1042700084599F4F24CB412C512C40E8642E4FE3AE
:10428000742E812C50E1952EA12CB12C00E010E170
:1042900020E030E0CF57DF4F088319832A833B8328
:1042A000C158D04020E030E040E856E4C301B201FC
:1042B0000E9443280E947A276093DB047093DC04F9
:1042C0008093DD049093DE04CF57DF4F288139813E
:1042D0004A815B81C158D0402093DF043093E004D1
:1042E0004093E1045093E2048092E3049092E4044A
:1042F000A092E504B092E604E12CF12C870120E0C5
:1043000030E0A90165E670E08CED90E00E94000AC3
:10431000CF57DF4F688179818A819B81C158D04016
:104320000E94B2276B017C0120E030E040EA51E4BA
:10433000C301B2010E9443289B01AC01C701B60131
:104340000E949B260E947A27CF57DF4F688379838C
:104350008A839B83C158D04034E1831A9108A10815
:10436000B1082AE037ED43E25CE3C301B2010E94E9
:104370009C262B013C0140EF841641E09406A104E9
:10438000B10409F08FCFC3C080E098E0A0E0B0E0B6
:104390008093DF049093E004A093E104B093E204DF
:1043A0008093E3049093E404A093E504B093E604BF
:1043B00039E3F32E98E2C92ED12C2AE0422E27EDC4
:1043C000522E23E2622E2CE3722E812C912C54016A
:1043D00080E090E4A0E0B0E08093DB049093DC0404
:1043E000A093DD04B093DE040E94960920E030E043
:1043F00040E856E4C501B4010E9443280E947A2790
:104400006093DB047093DC048093DD049093DE04FE
:104410000EE21EEF2FEF3FEF45EE5EEF6FEF7FEF07
:104420008F2D0E944E0AA3019201C501B4010E9482
:104430009C264B015C012FE632E143E05BE3C301C4
:10444000B2010E949C262B013C0191E0C91AD108BF
:1044500009F0BECFFA94A0E3FA12ACCF58C020E026
:1044600030E440E050E02093DB043093DC044093E0
:10447000DD045093DE04C092DF04D092E004E092A9
:10448000E104F092E204C092E304D092E404E092EA
:10449000E504F092E60421E038EF4FEF5FEF61E0D2
:1044A00078EF8FEF9FEF0E94A2100E941D0E21E077
:1044B00038EF4FEF5FEF6FEF77E080E090E00E9422
:1044C000A2102FEF37E040E050E06FEF77E080E0A0
:1044D00090E00E94A2102FEF37E040E050E061E052
:1044E00078EF8FEF9FEF0E94A21021E038EF4FEF9F
:1044F0005FEF61E078EF8FEF9FEF0E94A2100E94C4
:10450000370E0E9496090150110909F0A8CF1092A8
:104510008C030E945F140C941016CF93DF93CBECA6
:10452000D4E02797CE010E94620784E0CD34D807FB
:10453000C1F789E395E00E94620780E495E00E945C
:10454000620787E495E0DF91CF910C946207CF92E8
:10455000DF92EF92FF92EBE2F4E01382128288EE98
:10456000C82E83E0D82EE12CF12CC482D582E682BD
:10457000F78288E591E09183808387EE93E09587C9
:10458000848783EA93E09787868785EC90E0918B18
:10459000808B84EC90E0938B828B80EC90E0958B09
:1045A000848B81EC90E0978B868B82EC90E0918FEE
:1045B000808F86EC90E0938F828F84E0848F83E0FD
:1045C000858F87E0868F85E0878F81E080A369EE05
:1045D00072E087E495E00E94DE0765E771E080E421
:1045E00095E00E94DE0765E771E089E395E00E94AF
:1045F000DE0784E2E0E3F1E0A1E1B5E001900D9295
:104600008A95E1F7EBECF4E085E090E0918380831C
:1046100080E091E0A0E0B0E082839383A483B5833F
:1046200016821782108611861286138614861586C6
:1046300015A616A617A610AA11AA12AA13AA14AA9A
:104640001786168681E090E0A0E0B0E0808B918B29
:10465000A28BB38B148A158A168A178A108E118E34
:10466000128E138E148E158E168E178E8FEF9FEF6F
:10467000DC0180A391A3A2A3B3A314A215AA16AA36
:1046800017AA10AE11AE12AE13AE14AE8FEF9FE0AC
:10469000A0E0B0E08093080590930905A0930A0577
:1046A000B0930B0580930C0590930D05A0930E0518
:1046B000B0930F0510921005C0923505D0923605C3
:1046C000E0923705F092380562E073E08DE494E003
:1046D0000E94DE0766E073E084E594E00E94DE0756
:1046E00063E173E08BE594E00E94DE076CE173E028
:1046F00082E694E00E94DE0767E971E089E694E0D3
:104700000E94DE076CE871E080E794E00E94DE071B
:1047100064E273E087E794E00E94DE0769E273E0F9
:104720008EE794E00E94DE0760E373E085E894E0A2
:104730000E94DE0760E473E08CE894E00E94DE07EC
:104740006CE473E083E994E00E94DE0762E971E0C3
:104750008AE994E00E94DE0767E573E081EA94E06D
:104760000E94DE076DE573E088EA94E00E94DE07B0
:1047700067E673E08FEA94E00E94DE076FE673E07D
:1047800086EB94E00E94DE0761EA71E08DEB94E035
:104790000E94DE076BEA71E084EC94E0FF90EF90FA
:1047A000DF90CF900C94DE071F93FC019927882798
:1047B000BC01E89411911032E9F3193010F01E3069
:1047C000C8F31B3251F01D3249F4689406C00E94B0
:1047D0001424610F711D811D911D119110531A3008
:1047E000B0F33EF490958095709561957F4F8F4F13
:1047F0009F4F1F910895F8940C94AC2945325105B0
:1048000020F4423010F00C940924FB011082CB01FB
:104810000895BB274A3031F4992322F4BDE29095E4
:1048200081959F4F0C945724592F482F372F262FAF
:10483000660F771F881F991F660F771F881F991FA4
:10484000620F731F841F951F660F771F881F991FA4
:1048500008952532310520F4223010F00C943424D0
:10486000FA011082CA010895BB27FA01A62F621728
:10487000710581059105330B30FB66F0AA27660FA1
:10488000771F881F991FAA1FA21710F0A21B6395FC
:104890003850A9F7A05DAA3308F0A95DA19336F7B7
:1048A000B111B1931082CA010C947024BB27FB0193
:1048B0005527AA27880F991FAA1FA41710F0A41B19
:1048C00083955051B9F7A05DAA3308F0A95DA19373
:1048D000009779F7B111B1931192CB010C94702428
:1048E000DC01FC01672F71917723E1F7329704C057
:1048F0007C916D9370836291AE17BF07C8F30895E2
:10490000CF93DF938230910510F482E090E0E09144
:104910005105F091520520E030E0C0E0D0E0309742
:1049200011F14081518148175907C0F048175907C4
:1049300061F482819381209719F09B838A832BC035
:10494000909352058093510526C02115310519F029
:104950004217530718F49A01BE01DF01EF010280EC
:10496000F381E02DDCCF2115310509F1281B390B2E
:104970002430310590F412968D919C911397611516
:10498000710521F0FB019383828304C0909352054B
:1049900080935105FD01329644C0FD01E20FF31FE3
:1049A00081939193225031092D933C933AC02091E9
:1049B0004F0530915005232B41F42091080130918F
:1049C00009013093500520934F0520910601309145
:1049D00007012115310541F42DB73EB740910A0179
:1049E00050910B01241B350BE0914F05F0915005C0
:1049F000E217F307A0F42E1B3F0B2817390778F0B6
:104A0000AC014E5F5F4F2417350748F04E0F5F1F14
:104A10005093500540934F058193919302C0E0E07D
:104A2000F0E0CF01DF91CF9108950F931F93CF93C3
:104A3000DF93009709F48CC0FC0132971382128235
:104A400000915105109152050115110581F4208145
:104A50003181820F931F20914F0530915005281707
:104A6000390779F5F0935005E0934F0571C0D801EF
:104A700040E050E0AE17BF0750F412962D913C91E4
:104A80001397AD012115310509F1D901F3CF9D012E
:104A9000DA013383228360817181860F971F821729
:104AA000930769F4EC0128813981260F371F2E5FA7
:104AB0003F4F318320838A819B8193838283452B5F
:104AC00029F4F0935205E093510542C01396FC93EC
:104AD000EE931297ED01499159919E01240F351FD4
:104AE000E217F30771F480819181840F951F02967C
:104AF00011969C938E938281938113969C938E93AF
:104B00001297E0E0F0E0D80112968D919C911397F6
:104B1000009719F0F8018C01F6CF8D919C919801C6
:104B20002E5F3F4F820F931F20914F05309150050C
:104B30002817390769F4309729F41092520510921A
:104B4000510502C0138212821093500500934F0545
:104B5000DF91CF911F910F910895A0E0B0E0E3EBBA
:104B6000F5E20C943429EC01009721F4CB010E946A
:104B70008024B8C0FC01E60FF71F9C0122503109C8
:104B8000E217F30708F4ACC0D9010D911C911197FD
:104B900006171707B0F00530110508F49FC0C801CB
:104BA00004978617970708F499C002501109061B4D
:104BB000170B019311936D937C93CF010E941525E0
:104BC0008DC05B01A01AB10A4C01800E911EA0910C
:104BD0005105B091520540E050E0E12CF12C1097C6
:104BE00009F44AC0A815B905D1F56D907C901197CC
:104BF000630182E0C80ED11CCA14DB0480F1A3015A
:104C00004A195B096A0182E0C80ED11C1296BC9059
:104C100012971396AC91B5E0CB16D10440F0B28256
:104C2000A38351834083D9016D937C930AC00E5FA7
:104C30001F4FC301800F911FF90191838083EB2DDA
:104C4000FA2FE114F10431F0D7011396FC93EE939F
:104C5000129744C0F0935205E09351053FC08D91E7
:104C60009C9111974817590708F4AC017D011296E1
:104C70000D90BC91A02DB3CF80914F059091500520
:104C800088159905E1F446175707C8F48091060185
:104C900090910701009741F48DB79EB740910A01AA
:104CA00050910B01841B950BE817F907C8F4F0939A
:104CB0005005E0934F05F901718360830FC0CB016C
:104CC0000E9480247C01009759F0A801BE010E9437
:104CD0007726CE010E941525C70104C0CE0102C06F
:104CE00080E090E0CDB7DEB7EEE00C945029FB01F8
:104CF000DC0102C001900D9241505040D8F7089558
:104D0000FC018191861721F08823D9F7992708950E
:104D10003197CF010895FB01DC018D91019080193D
:104D20000110D9F3990B0895FB01DC0101900D925C
:104D30000020E1F708955058BB27AA270E94B32608
:104D40000C9404280E94F62738F00E94FD2720F0DA
:104D500039F49F3F19F426F40C94F3270EF4E095F0
:104D6000E7FB0C94ED27E92F0E94152858F3BA179A
:104D7000620773078407950720F079F4A6F50C9471
:104D800037280EF4E0950B2EBA2FA02D0B01B90198
:104D900090010C01CA01A0011124FF27591B99F0B1
:104DA000593F50F4503E68F11A16F040A22F232FBD
:104DB000342F4427585FF3CF469537952795A7950D
:104DC000F0405395C9F77EF41F16BA0B620B730BB4
:104DD000840BBAF09150A1F0FF0FBB1F661F771F25
:104DE000881FC2F70EC0BA0F621F731F841F48F4DA
:104DF000879577956795B795F7959E3F08F0B0CF63
:104E00009395880F08F09927EE0F97958795089549
:104E10000E941C270C9404280E94FD2758F00E9431
:104E2000F62740F029F45F3F29F00C94ED2751114B
:104E30000C9438280C94F3270E94152868F39923C2
:104E4000B1F3552391F3951B550BBB27AA27621786
:104E50007307840738F09F5F5F4F220F331F441F93
:104E6000AA1FA9F335D00E2E3AF0E0E832D09150C7
:104E70005040E695001CCAF72BD0FE2F29D0660FB4
:104E8000771F881FBB1F261737074807AB07B0E8F7
:104E900009F0BB0B802DBF01FF2793585F4F3AF0FD
:104EA0009E3F510578F00C94ED270C9438285F3F15
:104EB000E4F3983ED4F3869577956795B795F79583
:104EC0009F5FC9F7880F911D9695879597F908956B
:104ED000E1E0660F771F881FBB1F62177307840707
:104EE000BA0720F0621B730B840BBA0BEE1F88F716
:104EF000E09508950E9481276894B1110C94382898
:104F000008950E941D2888F09F5798F0B92F99277F
:104F1000B751B0F0E1F0660F771F881F991F1AF0A4
:104F2000BA95C9F714C0B13091F00E943728B1E0AA
:104F300008950C943728672F782F8827B85F39F0A9
:104F4000B93FCCF3869577956795B395D9F73EF43D
:104F500090958095709561957F4F8F4F9F4F0895E5
:104F6000E89409C097FB3EF4909580957095619503
:104F70007F4F8F4F9F4F9923A9F0F92F96E9BB27B9
:104F80009395F695879577956795B795F111F8CF35
:104F9000FAF4BB0F11F460FF1BC06F5F7F4F8F4FA0
:104FA0009F4F16C0882311F096E911C0772321F096
:104FB0009EE8872F762F05C0662371F096E8862F2E
:104FC00070E060E02AF09A95660F771F881FDAF785
:104FD000880F9695879597F9089597F99F6780E8C8
:104FE00070E060E008959FEF80EC089500240A943B
:104FF0001616170618060906089500240A941216B4
:105000001306140605060895092E0394000C11F4E6
:10501000882352F0BB0F40F4BF2B11F460FF04C093
:105020006F5F7F4F8F4F9F4F089557FD9058440FEC
:10503000551F59F05F3F71F04795880F97FB991FF7
:1050400061F09F3F79F087950895121613061406B4
:10505000551FF2CF4695F1DF08C016161706180641
:10506000991FF1CF86957105610508940895E8941C
:10507000BB2766277727CB0197F908950E94B028B0
:1050800008F48FEF08950E9456280C9404280E947B
:10509000F62738F00E94FD2720F0952311F00C949C
:1050A000ED270C94F32711240C9438280E9415281E
:1050B00070F3959FC1F3950F50E0551F629FF0016B
:1050C000729FBB27F00DB11D639FAA27F00DB11D84
:1050D000AA1F649F6627B00DA11D661F829F22270D
:1050E000B00DA11D621F739FB00DA11D621F839F94
:1050F000A00D611D221F749F3327A00D611D231F6A
:10510000849F600D211D822F762F6A2F11249F57B7
:1051100050409AF0F1F088234AF0EE0FFF1FBB1FBA
:10512000661F771F881F91505040A9F79E3F510579
:1051300080F00C94ED270C9438285F3FE4F3983E00
:10514000D4F3869577956795B795F795E7959F5F23
:10515000C1F7FE2B880F911D9695879597F90895B5
:10516000990F0008550FAA0BE0E8FEEF1616170678
:10517000E807F907C0F012161306E407F50798F0E0
:10518000621B730B840B950B39F40A2661F0232BF9
:10519000242B252B21F408950A2609F4A140A69575
:1051A0008FEF811D811D0895DB018F939F930E94D6
:1051B0001D29BF91AF91A29F800D911DA39F900DBE
:1051C000B29F900D1124089597FB072E16F40094BA
:1051D00007D077FD09D00E94672907FC05D03EF46F
:1051E000909581959F4F0895709561957F4F089593
:1051F000052E97FB1EF400940E940F2957FD07D03F
:105200000E947B2907FC03D04EF40C940F29509583
:105210004095309521953F4F4F4F5F4F08959095A2
:105220008095709561957F4F8F4F9F4F0895EE0F3A
:10523000FF1F0590F491E02D09940E949D29A59FE0
:10524000900DB49F900DA49F800D911D1124089581
:10525000B7FF0C941D290E941D29821B930B0895F2
:105260002F923F924F925F926F927F928F929F9276
:10527000AF92BF92CF92DF92EF92FF920F931F9364
:10528000CF93DF93CDB7DEB7CA1BDB0B0FB6F89415
:10529000DEBF0FBECDBF09942A88398848885F8455
:1052A0006E847D848C849B84AA84B984C884DF80C6
:1052B000EE80FD800C811B81AA81B981CE0FD11DAA
:1052C0000FB6F894DEBF0FBECDBFED010895AA1B47
:1052D000BB1B51E107C0AA1FBB1FA617B70710F0E1
:1052E000A61BB70B881F991F5A95A9F78095909513
:1052F000BC01CD010895A1E21A2EAA1BBB1BFD0122
:105300000DC0AA1FBB1FEE1FFF1FA217B307E407A4
:10531000F50720F0A21BB30BE40BF50B661F771FFC
:10532000881F991F1A9469F76095709580959095DC
:105330009B01AC01BD01CF010895A29FB001B39FB5
:10534000C001A39F700D811D1124911DB29F700D8E
:10535000811D1124911D089515E0CCE3D5E004C012
:10536000FE010E9417292196CD33D107C9F7F89481
:02537000FFCF6D
:10537200B80B000019000000530520000040000097
:1053820000000000000000000000000000400000DB
:1053920000000000000000000000000000400000CB
:1053A20000400000000000000000000000000000BB
:1053B20000400000000000000000000000000000AB
:1053C2000040000000000000650D6705EE0DB20D03
:1053D200D20DA70D444542554720596F752073657C
:1053E2006E74203A20004445425547206C61736533
:1053F20072436F6D6D616E64203D2000504C414ED2
:10540200450042494B45004C4153455253484F5782
:1054120000434F554E54444F574E00434952434C5C
:1054220045494E5351554152450044454255472046
:105432004C61736572206D6F6465207365742074AE
:105442006F20002073656C65637465640044454297
:105452005547204C617365722000444542554720F0
:105462004C6173657220696E74657276616C20732B
:10547200657420746F20004445425547204C617387
:105482006572204D6F646520002053697A652000A3
:10549200204C656E6774682000204D7367200020E1
:1054A200416E696D6174696F6E20004445425547D3
:1054B20020696E20647261775363726F6C6C6572DF
:1054C200202D206D617843686172206C696D69746A
:1054D200656420746F2039392077617320004C4154
:1054E200534552004445425547206C6173657253DF
:1054F200697A65203D2000416E696D6174696F6E45
:10550200004D6172717565650050726573656E74E8
:1055120073005374617469630032204C696E6500D4
:105522004D6572676500486F72697A6F6E74616C5F
:10553200205370696E00566572746963616C205302
:1055420070696E004F666600496E74657276616CB2
:1055520000556E6B6E6F776E004348454C54454E56
:1055620048414D202D20313743202D2057494E44AC
:1055720059004F4646004C4554544552454646450F
:1055820043540050524553454E54530041524455E2
:10559200494E4F004C4F474F0057454C4F56450020
:1055A20041524455494E4F3244524F5441544500A2
:1055B2005748415441424F5554334400524F54418D
:1055C20054454355424500474C4F424500415244E1
:1055D20055494E4F3344004F424A45435453004AC3
:0C55E200554D50494E47544558540000A8
:00000001FF
