:100000000C9420060C9448060C9448060C94480660
:100010000C9448060C9448060C9448060C94480628
:100020000C9448060C9448060C9448060C94480618
:100030000C9448060C9448060C9448060C94480608
:100040000C945D090C9448060C9496150C945B1561
:100050000C9448060C9448060C9448060C944806E8
:100060000C9448060C9448062B0C5D0C5D0C5D0C42
:100070005D0C5D0C5D0C5D0C5D0C5D0C5D0C5D0C38
:100080005D0C390C470CE50BEC0BF30BFA0B010C78
:10009000080C0F0C160C1D0C240C400C5D0C5D0C98
:1000A0005D0C5D0C320C5D0C1B0B220B290B300B15
:1000B000370B3E0B450B4C0B590B660B6D0B740B42
:1000C0007B0B820B890B900B970B9E0BA50BAC0B3C
:1000D000B30BBA0B5D0CD00BD70BDE0B4E0C5D0CCB
:1000E000550CF501CE02F581D3022A81D3022A8173
:1000F000CE025781D001C881D001F581CE02E70040
:100100005301E7806B01EA808201F0809901FA8057
:10011000AE010781C2011681D4012781E4013B8130
:10012000F1012781A102FB808F02D2807702AD808E
:100130005A028C803802708012025A80E8014A808C
:10014000BC0140808E013D805F0140803001E7802E
:100150005301DF023001E2825F01DF828E01D5822E
:10016000BC01C582E801AF8212029382380272821A
:100170005A024D82770224828F02F881A102E48123
:10018000F101F881E4010982D4011882C2012582BB
:10019000AE012F8299013582820138826B0138824B
:1001A0005301DF82300185004F004A81F500128142
:1001B00057011F80FF001A80FC0080804C00858062
:1001C0004F000503FC000083FF000D825701D5811D
:1001D000F5009A824F009F824C000583FC00B3011A
:1001E0000E00E18116000E822500398239006082FE
:1001F0005400EE81D200DA81C700C481BE00AD8117
:10020000B8009581B5007E81B6006781BA00508143
:10021000C2003B81CC00AD806300D2804600FB80F1
:100220002E0027811D005581110084810C00B381AF
:100230000E007C02D7007082C7003082CE00EB81B6
:10024000D700EB81D800EA81D800EF81DB00FC8188
:10025000DF007C82D700B303260098830E008683DC
:10026000070007830C00C4811800B18111009E8132
:100270000C007581030051810000FF800500C580DE
:100280001900E1801C00ED802700EE802B00EF803C
:100290002E00E6804300CC804F00B1804F00A1804B
:1002A00040009E803600A2802D009C803300958007
:1002B0003F00B28065000F818E003F81BD007281DA
:1002C000CB00B181C500FC81BB003882B4006382E1
:1002D000B2008382D900C3824B01CF824B01D88206
:1002E0004A01DF824801E8824501CF82D200728351
:1002F000C2006E83BD006783B9003483B900C78232
:10030000BD00BA828F00A5827C0083825F006E826E
:10031000510050824100B3832600E8008500D6805A
:100320007E00BC807300AF806A009D805C005980B5
:1003300083000280B3000080B5000080B600118009
:10034000BD004580C200E8808500DE002B00D4801F
:100350002000B4801C00A7801F00A2802700AB8073
:100360003C00C5804200D8803B00DE802B00DE8050
:100370002B00EA017600DF81A500B681AB00C981C0
:100380007100EA817600BB016F00AA81AB00A481F5
:100390006B00BB816F00A001AD007B81B7005B816A
:1003A000BB005081BA004781B9003381AB0019818D
:1003B0008D002E818C004E81880072817E00988194
:1003C0006F00A081AD000040FD3FF63FE93FD83F00
:1003D000C13FA63F853F603F363F073FD23E993E33
:1003E0005C3E193ED13D853D343DDE3C833C233CA3
:1003F000BF3B563BE93A773A003A853906398238AD
:10040000F9376C37DB364636AC350E356C34C633CF
:100410001C336E32BC3106314D308F2FCE2E092E5B
:10042000412D752CA52BD32AFC2923294628662784
:1004300084269E25B524C923DB22EA21F620FF1F4E
:10044000071F0B1E0E1D0E1C0C1B071A0119F91796
:10045000EF16E315D614C613B612A41190107B0F35
:10046000650E4E0D360C1D0B030AE808CC07B006CE
:100470009305760459033B021D0100001D01F3059D
:100480001D8100004D01F3054D8100000000F305C2
:100490004D81F305000000004D8100000000F305D0
:1004A000008000002F00F3052F8000000000F305FE
:1004B0004D81F305000000004D8100005903F30554
:1004C000008000001E012003E580E7021E81AE02CD
:1004D0005781E7021E8120031E017100E58038006C
:1004E0001E810000578138001E8171001D015F00D0
:1004F000EE802F001D8100004D812F001D815F00C7
:100500000000F902008029032F8088035F80B80370
:10051000BE80E8037C81E803DC81B8030B8288039A
:100520003B8229033B82CA020B826B02DC813B02C5
:100530001D81DC011D814D011D015F00EE802F003A
:100540001D8100004D812F001D815F002F00E803F9
:100550002F804D012F005F0000802F002F800000B2
:100560005F802F002F805F006B029A023B820B029C
:10057000DC81AC014D817C011D817C018E80AC0150
:100580002F800B0200809A020080CA022F8059033C
:100590008E80B8031D81E8034D81E803DC81B80338
:1005A0003B8259036B829A026B82AC013B82BE0094
:1005B000DC812F004D810000EE8000005F802F0065
:1005C0002F808E00EE00E8035F80B8032F80590370
:1005D0002F80F9025F809A02BE806B027C813B0211
:1005E0000B820B026B82AC019A824D019A82BE0093
:1005F0006B825F003B822F00AC810000EE80000028
:100600005F802F002F805F000080BE0000804D01C2
:100610002F80AC018E800B021D813B02DC816B02BE
:100620003B829A026B82F9026B8259033B82B803C8
:10063000AC81E803EE80E8039A02E803BE80000084
:100640000000E8039A82E8033B0259030B82B803D7
:100650007C81E8031D81E8038E80B8032F80290385
:1006600000803B0200804D012F808E008E802F0085
:100670001D8100004D810000DC812F003B828E0037
:100680006B821D016B824D013B82DC01DC813B02F0
:100690004D816B021D816B028E803B022F80DC013D
:1006A00000804D013B02E8035F80E8032F803B029E
:1006B0005F806B02EE809A027C819A020B826B0251
:1006C0006B820B029A827C019A821D016B828E00E2
:1006D0000B822F007C810000EE8000005F802F00E5
:1006E0002F805F000080BE00DC01E80300804D0128
:1006F000CA824D01DC01E803DC8100005F00E803F1
:100700006B82E8034D816B02DC816B023B823B0212
:100710006B820B029A827C019A821D016B828E0091
:100720000B822F007C810000EE8000005F802F0094
:100730002F805F000080BE002F00F9022F80290368
:100740005F8088038E80B803EE80E803AC81E80305
:100750000B82B8033B8288036B8229036B82CA0237
:100760003B826B02DC81DC01008000009A82000089
:10077000000029035F805903EE80E803EE8000004B
:100780001D01E8038E80B8032F80290300803B02FF
:100790000080AC012F80BE008E802F001D810000E4
:1007A0007C8100000B822F006B82BE009A82AC011C
:1007B0009A823B026B8229030B82B8037C81E80397
:1007C0001D81E8039A02E803008000000000E803AE
:1007D0009A82E803000000009A8200000000E8030B
:1007E0007C810B027C810000F902E8037C810B0212
:1007F0000000E8039A8200009A02E80300800000EB
:100800000000E803EE800000DC01E803EE80000059
:10081000DC01E803CA820000B803E803CA820000D2
:100820000000E8037C810000F902E8037C810000FD
:100830000000E80300801D012F808E008E802F00B5
:100840001D8100007C8100000B822F006B828E00D6
:100850009A821D019A82E8034D01E8034D81000050
:100860000000E8039A82E8039A0259033B82B80326
:10087000AC81E803EE80E8035F80B8030080590391
:100880000080F9022F809A025F806B02BE803B02DB
:10089000DC81DC013B82AC016B827C019A821D0110
:1008A0009A828E003B822F00AC810000EE80000017
:1008B0005F802F0000808E000000E80300800000B1
:1008C0000000E803AC81E8033B82B8036B82880335
:1008D0009A8229039A82CA026B826B023B823B0294
:1008E000AC810B0200800B024D010B029A820000CA
:1008F0001D014704BE8017045F80B8032F80590391
:100900000080CA020080DC012F804D015F80EE0074
:10091000BE808E001D815F00DC815F003B828E0007
:100920009A82EE00CA824D01F982DC01F982CA0284
:10093000CA8259039A82B8033B821704DC814704B8
:100940001D814704AC011D01CA8200000000E803BC
:10095000008000000000E803AC81E8033B82B8039C
:100960006B8288039A8229039A829A026B823B02E5
:100970003B820B02AC81DC010080DC011D01E8033D
:10098000BE80B8035F8059032F80F90200806B029C
:1009900000807C012F80EE005F808E00BE802F00E3
:1009A0001D810000DC8100003B822F009A828E00B6
:1009B000CA82EE00F9827C01F9826B02CA82F902D6
:1009C0009A8259033B82B803DC81E8031D81E80366
:1009D0000000E803008000000000E8039A820000A5
:1009E0009A02E8039A8200000000E80300800000F9
:1009F0000000E8037C810000F902E8037C8100002C
:100A0000F902E803F98200000000E803008000001A
:100A10003B8200000000E803008000009A02E80327
:100A200000804D01EE003B029A820000DC01E803E9
:100A3000DC81EE00AC815F007C812F001D81000015
:100A4000BE8000005F802F002F805F000080EE00DE
:100A500000804D010000E803008000000000E80372
:100A6000008000009A02E8039A82000000000B0256
:100A70009A820B02CA02F9029A8259033B82B80396
:100A8000DC81E8031D81E803BE80B8035F80590361
:100A90002F80F90200806B0200807C012F80EE0025
:100AA0005F808E00BE802F001D810000DC81000071
:100AB0003B822F009A828E00CA82EE00CA827C019D
:100AC000DC017C01CA827C010000E8030080000098
:100AD0000000E8036B82E80300000B027C810B023C
:100AE0000000E803008000000000E8036B82E803D8
:100AF00000000B027C810B02000000006B820000F2
:100B00000000E803008000000000E8034D81E803D6
:100B1000DC81B8033B8259036B82F9029A826B0233
:100B20009A827C016B82EE003B828E00DC812F007A
:100B30004D81000000800000CA02F9029A82590328
:100B40003B82B803DC81E8031D81E803BE80B80363
:100B50005F8059032F80F90200806B0200807C01C6
:100B60002F80EE005F808E00BE802F001D81000070
:100B7000DC8100003B822F009A828E00CA82EE0048
:100B80000000E803008000000000E803AC81E803F7
:100B90003B82B8036B8288039A8229039A82CA0235
:100BA0006B826B023B823B02AC810B0200000B02AA
:100BB000AC810B023B82DC016B82AC019A824D015D
:100BC0009A82BE006B825F003B822F00AC810000E6
:100BD000008000007C01E803008000007C01E80345
:100BE000F98200008E004D016B824D01000000076C
:100BF00000020100000304060000000000000000E5
:100C000000000000250028002B0000000000240048
:100C100027002A000404040404040404020202025B
:100C200002020303030303030102040810204080AF
:100C30000102040810200102040810205E2444244C
:100C400011241FBECFEFD8E0DEBFCDBF13E0A0E080
:100C5000B1E0E0EEF6E502C005900D92A038B107D4
:100C6000D9F725E0A0E8B3E001C01D92A735B2078F
:100C7000E1F716E0CFE1D6E004C02197FE010E9423
:100C8000CE2ACE31D107C9F70E94D0150C94B225D7
:100C90000C940000CF92DF92EF92FF920F931F937C
:100CA000CF93DF936C01EB017B01E40EF51E00E0B6
:100CB00010E0CE15DF0561F06991D601ED91FC9150
:100CC0000190F081E02DC6010995080F191FF1CFA1
:100CD000C801DF91CF911F910F91FF90EF90DF90AE
:100CE000CF900895893621E0920718F0E6ECF3E002
:100CF00039C09C012F5031402A35310528F4E8E6EF
:100D0000F1E0E81BF90B2AC09C01255B31092A356B
:100D1000310530F4FC01EE0FFF1FE25AFD4F0EC00B
:100D20009C012B5531092A353105B8F4E4EBF0E08C
:100D3000E81BF90BEE0FFF1FEA53FC4F659174910E
:100D4000CB01A0E0B0E09C01AD0166277727CB0185
:100D5000621B730B840B950B0895FC01EE0FFF1FB4
:100D6000EA53FC4F6591749180E090E008959C01F6
:100D7000265A3F4F233C314018F0E6ECF3E03DC0EB
:100D80009C012F5031402A35310530F4FC01EE0F23
:100D9000FF1FE655FE4F0EC09C01255B31092A3529
:100DA0003105B8F4EEE0F1E0E81BF90BEE0FFF1FA0
:100DB000EA53FC4F65917491CB01A0E0B0E09C0137
:100DC000AD0166277727CB01621B730B840B950B54
:100DD00008959C012B5531092A35310530F4FC0169
:100DE000EE0FFF1FEE5EFC4F08C0EAE5F0E0E81BE7
:100DF000F90BEE0FFF1FEA53FC4F6591749180E0F1
:100E000090E00895FC01248135816217730748F44E
:100E100080819181009729F0FC01E60FF71F808106
:100E2000089580E00895FC012481358162177307DD
:100E300020F480819181009729F41092960386E92D
:100E400093E00895860F971F0895FC012481358152
:100E5000232B31F421E061157105A1F0FB0108C0DD
:100E6000FC01808191816115710531F421E0FC0163
:100E70008081882339F005C00E94422821E0892B17
:100E800009F020E0822F08950F931F93CF93DF93F3
:100E9000EC0188819981009729F02A813B812617EE
:100EA000370788F48B016F5F7F4F0E94642700979C
:100EB00061F0998388831B830A832C813D81232BD6
:100EC00011F4FC01108281E001C080E0DF91CF913C
:100ED0001F910F910895EF92FF920F931F93CF935D
:100EE000DF93FC01248135816115710511F480E0E7
:100EF00019C041155105A9F07B01EC018A01020FCF
:100F0000131FB8010E944407882389F3288139817F
:100F10008C819D81B701820F931F0E944B281D83F6
:100F20000C8381E0DF91CF911F910F91FF90EF90A3
:100F30000895CF93DF93EC0188819981009711F098
:100F40000E94CC26198218821D821C821B821A8262
:100F5000DF91CF910895CF93DF93EC016115710577
:100F600061F0FB0101900020E9F73197AF01461BCA
:100F7000570B0E946B07811103C0CE010E94990795
:100F8000CE01DF91CF910895CF93DF93EC01FB0168
:100F900044815581608171810E946B07811103C07A
:100FA000CE010E949907CE01DF91CF910895EF9273
:100FB000FF920F931F93CF93DF93EC017B018A0184
:100FC000BA010E944407811104C0CE010E94990712
:100FD00007C01D830C83B701888199810E944B282B
:100FE000CE01DF91CF911F910F91FF90EF90089567
:100FF000CF93DF93EC016115710559F0FB0101906E
:101000000020E9F73197AF01461B570B0E94D70725
:1010100002C00E949907CE01DF91CF910895CF932E
:10102000DF93EC01FB018617970761F06081718106
:101030006115710529F0448155810E94D70702C0CE
:101040000E949907CE01DF91CF910895FC01808124
:1010500091810C94CC260F931F93CF93DF93CDB740
:10106000DEB7A1970FB6F894DEBF0FBECDBF8C01DF
:10107000CB01BA01F801118210821382128215820B
:101080001482168230E0AE014F5F5F4F0E94E02570
:10109000BE016F5F7F4FC8010E94F807A1960FB68F
:1010A000F894DEBF0FBECDBFDF91CF911F910F919E
:1010B00008950F931F93CF93DF93CDB7DEB7629759
:1010C0000FB6F894DEBF0FBECDBF8C01CB01F80187
:1010D000118210821382128215821482168250E0CD
:1010E000BE016F5F7F4F0E94B525BE016F5F7F4FCE
:1010F000C8010E94F80762960FB6F894DEBF0FBED3
:10110000CDBFDF91CF911F910F910895FC01118206
:101110001082138212821582148216820C940F0898
:10112000FC011182108213821282158214821682AF
:101130006115710551F0FB0101900020E9F731972D
:10114000AF01461B570B0C94D7070895BF92CF925F
:10115000DF92EF92FF920F931F93CF93DF937C0167
:101160006B018A01E9012417350720F4812F8901D9
:10117000C42FD82F65E771E0C7010E949008D601FF
:1011800014968D919C91159780179107D0F08C172C
:101190009D0708F4EC01D601ED91FC911197EC0F3D
:1011A000FD1FB08010824D915C91BA01600F711FDC
:1011B000C7010E94F807D601ED91FC91EC0FFD1FCD
:1011C000B082C701DF91CF911F910F91FF90EF90F7
:1011D000DF90CF90BF90089590E0FC01E451F44F70
:1011E0003491FC01E85DF34F2491FC01EC5EF34F78
:1011F000E491EE2309F43BC0332339F1333091F00D
:1012000038F43130A9F0323001F584B58F7D12C049
:10121000363091F03730A1F03430B9F4809180004D
:101220008F7D03C0809180008F77809380000DC0F8
:1012300084B58F7784BD09C08091B0008F7703C0DB
:101240008091B0008F7D8093B000F0E0EE0FFF1F23
:10125000E050F44FA591B4918FB7F894EC916111DF
:1012600003C020952E2301C02E2B2C938FBF0895F1
:101270003FB7F8948091920390919303A0919403C7
:10128000B091950326B5A89B05C02F3F19F0019694
:10129000A11DB11D3FBFBA2FA92F982F8827820FFC
:1012A000911DA11DB11DBC01CD0142E0660F771F4C
:1012B000881F991F4A95D1F708951F920F920FB674
:1012C0000F9211242F933F938F939F93AF93BF93CC
:1012D0008091800390918103A0918203B091830358
:1012E0003091910323E0230F2D3720F40196A11DA7
:1012F000B11D05C026E8230F0296A11DB11D209344
:1013000091038093800390938103A0938203B09311
:1013100083038091920390919303A0919403B091E1
:1013200095030196A11DB11D8093920390939303A1
:10133000A0939403B0939503BF91AF919F918F9128
:101340003F912F910F900FBE0F901F901895CF9344
:10135000DF93CDB7DEB72E970FB6F894DEBF0FBE82
:10136000CDBF23E030E041E050E064E475E0CE0121
:1013700001960E94A60889819A81009719F00E941F
:101380008B2503C060E070E0CB0170930501609392
:101390000401CE0101960E9426086091040170911B
:1013A00005014AE0CE0108960E9459086DE772E0F7
:1013B000CE0101960E949008BE01685F7F4FCE016A
:1013C00001960E94C4070E94E614CE0101960E9475
:1013D0002608CE0108960E9426082E960FB6F8948D
:1013E000DEBF0FBECDBFDF91CF910895CF93DF93C6
:1013F000EC0165E771E00E94900880918403909170
:10140000850389349105C1F194F48134910529F162
:101410002CF4C297A1F562EB72E033C086349105DB
:1014200029F18834910559F56FEB72E02AC08335B4
:101430009105C9F04CF48D34910591F080359105FA
:10144000F1F462EA72E01DC08635910591F08835AD
:101450009105A9F46DED72E014C060E972E011C06D
:101460006AE972E00EC06BEA72E00BC069EB72E0F1
:1014700008C06FEC72E005C061EE72E002C06AEE77
:1014800072E0CE010E94F807CE01DF91CF9108955E
:101490004F925F926F927F928F929F92AF92BF9284
:1014A000CF92DF92EF92FF92CF93DF9380E090E0B4
:1014B0000E9472064B015C0180E090E00E94B7063A
:1014C0002B013C018CE0C82ED12CE12CF12CC50164
:1014D000B401A70196010E94AF2A49015A01C30134
:1014E000B201A70196010E94AF2ACA01B901A50164
:1014F00094010E9470110E94EB0EC5E0D0E0CE0175
:101500000E9472064B015C01CE010E94B7062B01BE
:101510003C01C501B401A70196010E94AF2A49010F
:101520005A01C301B201A70196010E94AF2ACA0164
:10153000B901A50194010E9470112596CD3681E074
:10154000D807E9F6DF91CF91FF90EF90DF90CF9031
:10155000BF90AF909F908F907F906F905F904F90D3
:101560000C94050F4F925F926F927F928F929F9291
:10157000AF92BF92CF92DF92EF92FF920F931F93A1
:10158000CF93DF93EC016B0149015A012701380128
:101590001C141D041CF5FE01E590F490FE0132962A
:1015A00005911491249681E0C81AD108F7FE03C072
:1015B0000E94EB0E02C00E94050FA3019201200FB2
:1015C000311F411D511DE894F7F8C501B4016E0D9E
:1015D0007F1D811D911D0E947011DACFDF91CF9187
:1015E0001F910F91FF90EF90DF90CF90BF90AF9041
:1015F0009F908F907F906F905F904F900C94050F0D
:101600008F929F92AF92BF92EF92FF920F931F9390
:1016100078018901893409F446C0873509F4B1C0DD
:1016200090E0FC01B197ED33F10508F046C1EC5CA8
:10163000FF4F0C94CE2A9A01AB0166E070E084ED76
:101640009BE039C19A01AB0165E170E080E89BE065
:1016500032C19A01AB0162E170E088E39BE02BC1EB
:101660009A01AB016EE070E080E09BE024C19A013A
:10167000AB0168E070E080EE9AE01DC19A01AB0119
:1016800066E070E088EC9AE016C19A01AB0165E172
:1016900070E084E79AE00FC19A01AB0166E070E068
:1016A0008CE59AE008C138EC832E912CA12CB12C4A
:1016B00006C022E5822E23E0922EA12CB12C9A01A5
:1016C000AB0162E070E084E59AE067C09A01AB018B
:1016D0006AE070E08CE29AE0EEC09A01AB0166E04D
:1016E00070E084E19AE0E7C09A01AB0163E070E04A
:1016F00088E09AE0E0C09A01AB0168E070E088EE13
:1017000099E0D9C09A01AB0166E070E080ED99E004
:10171000D2C09A01AB0165E170E08CE799E0CBC0E3
:101720009A01AB016CE070E08CE499E0C4C09A01CE
:10173000AB0167E170E080EF98E0BDC09A01AB01BA
:101740006EE070E088EB98E0B6C09A01AB0164E10E
:1017500070E088E698E0AFC09A01AB0164E070E009
:1017600088E598E0A8C09A01AB016AE070E080E3E8
:1017700098E0A1C09A01AB0164E070E080E298E0DB
:101780009AC098EE892E93E0992EA12CB12C9A0143
:10179000AB0168E070E080E098E00E94B20A93C07C
:1017A0009A01AB0164E070E080EF97E084C09A0199
:1017B000AB0165E070E08CED97E07DC09A01AB0174
:1017C00066E070E084EC97E076C09A01AB0161E1DD
:1017D00070E080E897E06FC09A01AB0164E070E0D0
:1017E00080E797E068C09A01AB016EE070E088E3A3
:1017F00097E061C09A01AB016FE070E08CEF96E07A
:101800005AC09A01AB0165E070E088EE96E053C0E3
:101810009A01AB0161E170E084EA96E04CC09A0164
:10182000AB0167E170E088E496E045C09A01AB0146
:1018300064E070E088E396E03EC09A01AB016DE1A0
:1018400070E084EC95E037C09A01AB0167E170E08D
:1018500088E695E030C09A01AB0167E070E08CE467
:1018600095E029C09A01AB0163E170E080E095E06A
:1018700022C09A01AB0165E070E08CEE94E01BC0E1
:101880009A01AB016AE070E084EC94E014C09A0124
:10189000AB0162E070E08CEB94E00DC09A01AB010B
:1018A00068E070E08CE994E006C09A01AB0168E062
:1018B00070E08CE794E00E94B20A82E5882E83E013
:1018C000982EA12CB12CC501B4011F910F91FF904E
:1018D000EF90BF90AF909F908F900895CF92DF923E
:1018E000EF92FF920F931F93CF93DF938C01C0E091
:1018F000D0E0C12CD12C7601BE01C8010E940207A4
:101900008823C1F0893439F0873551F488EE93E0AB
:10191000A0E0B0E009C088EC90E0A0E0B0E004C036
:1019200082E593E0A0E0B0E0C80ED91EEA1EFB1EDF
:101930002196E2CFC701B601DF91CF911F910F91A0
:10194000FF90EF90DF90CF9008952F923F924F92AB
:101950005F926F927F928F929F92AF92BF92CF923F
:10196000DF92EF92FF920F931F93CF93DF9300D0FC
:1019700000D0CDB7DEB79A838983362E272E3C83DD
:101980002B83C12CD12C2A01550F66087708EB81D7
:10199000FC81CE16DF0624F5832C922CE12CF12C51
:1019A000B70189819A810E9402078823A9F0092C36
:1019B000000CAA08BB0893018201B501A4010E9492
:1019C000000BDC01CB01880D991DAA1DBB1D4C012C
:1019D0008FEFE81AF80AE4CF9FEFC91AD90AD7CFD8
:1019E0000F900F900F900F90DF91CF911F910F915B
:1019F000FF90EF90DF90CF90BF90AF909F908F902F
:101A00007F906F905F904F903F902F9008950F932D
:101A10001F93CF93DF93EC018B0184E2ECE0F1E0C4
:101A2000DE0101900D928A95E1F7CB010E947206CA
:101A3000688379838A839B83C8010E94B7069B01D0
:101A4000AC0188279927DC01821B930BA40BB50BF3
:101A500088879987AA87BB87C8010E94B706688FC5
:101A6000798F8A8F9B8FC8010E94720668A379A321
:101A70008AA39BA3CE01DF91CF911F910F9108956F
:101A80000F931F93CF93DF93EC018B0184E2ECE083
:101A9000F1E0DE0101900D928A95E1F7CB010E9401
:101AA0007206688B798B8A8B9B8BC8010E94B70664
:101AB0006C8B7D8B8E8B9F8BC8010E94B7069B0120
:101AC000AC0188279927DC01821B930BA40BB50B73
:101AD0008C8F9D8FAE8FBF8FC8010E94720668A346
:101AE00079A38AA39BA3CE01DF91CF911F910F9180
:101AF00008952A989EBD0DB407FEFDCF9EB58EBDFC
:101B00000DB407FEFDCF8EB52A9A0895CF93DF93CB
:101B1000EB014091A4035091A50321E030E0042E95
:101B200002C0220F331F0A94E2F72150310928170F
:101B3000390708F4C9012CE030E0241B350B02C042
:101B4000880F991F2A95E2F720919B0330919C03FF
:101B50002227307F822B932B90939C0380939B03AF
:101B60000E94790D4091A4035091A50381E090E07B
:101B7000042E02C0880F991F0A94E2F70197C81734
:101B8000D90708F4CE012CE030E0241B350B02C04D
:101B9000880F991F2A95E2F720919D0330919E03AB
:101BA0002227307F822B932B90939E0380939D035B
:101BB0000E94790D8091A603882349F08091A203A9
:101BC0009091A30397FD03C05F9800005F9ADF9197
:101BD000CF910895CF92DF92EF92FF92C0900405CB
:101BE000D0900505E0900605F09007056C157D0581
:101BF0008E059F0584F0C0900C05D0900D05E090F7
:101C00000E05F0900F05C616D706E806F90634F45F
:101C100082E090E005C081E090E002C080E090E0CA
:101C2000C0900805D0900905E0900A05F0900B05DA
:101C30002C153D054E055F0514F484600EC0C09060
:101C40001005D0901105E0901205F0901305C21612
:101C5000D306E406F5060CF48860FF90EF90DF9061
:101C6000CF90089508950F931F93CF93DF93FC01B6
:101C7000A685B7858D01005C1F4FE8018881998199
:101C800001968F739927AD014E5B5F4FEA01288162
:101C9000398182179307D1F3E80128813981A20F96
:101CA000B31F6C93A685B785A05CBF4F11969C931C
:101CB0008E93A689B7892C9181E090E0078C02C0B1
:101CC000880F991F0A94E2F7822B8C9381E081A3FD
:101CD0000488F589E02D80818064808381E090E034
:101CE000DF91CF911F910F910895FC0181A188236D
:101CF00029F0A489B5898C9186FFFBCF11A20895A4
:101D0000FC01A485B585FD01E05CFF4F2081318198
:101D10003296808191812817390779F080819181ED
:101D2000A80FB91F8C91208131812F5F3F4F2F73F6
:101D300033273183208390E008958FEF9FEF08953C
:101D4000DC011C96ED91FC911D97DF01A05CBF4F5B
:101D50002D913C91119712968D919C911197281776
:101D6000390739F08D919C91E80FF91F808190E03F
:101D700008958FEF9FEF0895FC0124853585F901C3
:101D8000E05CFF4F80819181329620813181821BFE
:101D9000930B8F739927089590E0FC01E85DF34F52
:101DA0002491FC01EC5EF34F8491882399F090E03C
:101DB000880F991FFC01E65FF34FA591B491FC01D8
:101DC000E050F44F859194918FB7F894EC91E22B09
:101DD000EC938FBF08958091DD049091DE04892BF0
:101DE00099F48091F30481110FC08AEC97E0019778
:101DF000F1F781E090E09093DE048093DD0461E0F0
:101E00008091CF040C94EC0808958091DD049091AA
:101E1000DE04892B69F08AEC97E00197F1F71092C4
:101E2000DE041092DD0460E08091CF040C94EC0895
:101E300008952F923F924F925F926F927F928F926E
:101E40009F92AF92BF92CF92DF92EF92FF920F9349
:101E50001F93CF93DF93CDB7DEB7A0970FB6F8945B
:101E6000DEBF0FBECDBF69877A878B879C872D87A2
:101E70003E874F87588B8091D5049091D604A091CE
:101E8000D704B091D80489849A84AB84BC84881A1E
:101E9000990AAA0ABB0A8091D9049091DA04A09108
:101EA000DB04B091DC0429013A01481A590A6A0A94
:101EB0007B0A89829A82AB82BC82B7FE0BC0222742
:101EC0003327A901281939094A095B0929833A836B
:101ED0004B835C838091D1049091D204A091D30470
:101EE000B091D4048D839E83AF83B88729813A81D2
:101EF0004B815C81BC01CD010E948B2A6B017C016E
:101F0000A0E2DA0EE11CF11CA70196010EE0559546
:101F10004795379527950A95D1F7298B3A8B4B8BA7
:101F20005C8B7301620177FE07C0CC24DD2476014F
:101F3000C418D508E608F708A70196016D817E81CF
:101F40008F8198850E948B2ADC01CB01905EAF4F78
:101F5000BF4F1EE0B595A795979587951A95D1F730
:101F60002091EB043091EC044091ED045091EE048B
:101F70002D8B3E8B4F8B588F29813A814B815C8111
:101F8000C20ED31EE41EF51E2D893E894F89588D41
:101F9000C20ED31EE41EF51EC092EB04D092EC04D8
:101FA000E092ED04F092EE04C988DA88EB88FC88B0
:101FB000C816D906EA06FB0614F46C017D01C501BA
:101FC000B401EEE0660F771F881F991FEA95D1F7DD
:101FD000FEE0440C551C661C771CFA95D1F7A7014E
:101FE00096010E94AF2A298B3A8B4B8B5C8BC301E5
:101FF000B201A70196010E94AF2A298F3A8F4B8F19
:102000005C8F812CA0E29A2EA12CB12C20E030E232
:1020100040E050E029833A834B835C831D821E821B
:102020001F821886A70196012150310941095109E3
:102030002D8F3E8F4F8F58A322242A94BFE03B2E32
:102040002D813E814F8158858D8D9E8DAF8DB8A19C
:10205000281739074A075B070CF0C6C00091EF0448
:102060001091F0042091F1043091F2040F3F4FEFF2
:1020700014072407340709F46CC08091F30481111C
:1020800068C049805A806B807C805EE0759467945C
:10209000579447945A95D1F7750164016EE0F59411
:1020A000E794D794C7946A95D1F7B301A20177FE5C
:1020B00007C044275527BA0144195509660977090D
:1020C0008D899E89AF89B88D480F591F6A1F7B1F64
:1020D000D701C601F7FE07C088279927DC018C19B4
:1020E0009D09AE09BF09840F951FA61FB71F0817CA
:1020F00019072A073B076CF50E94050F91E09093A2
:10210000F3048091D5049091D604A091D704B091A6
:10211000D804480E591E6A1E7B1E4092F404509249
:10212000F5046092F6047092F7048091D9049091BE
:10213000DA04A091DB04B091DC04C80ED91EEA1EBB
:10214000FB1EC092F804D092F904E092FA04F092D7
:10215000FB04298D3A8D4B8D5C8D820E931EA41E3F
:10216000B51E29813A814B815C8189899A89AB8925
:10217000BC89280F391F4A1F5B1F29833A834B8371
:102180005C83DA01C9012EE0B595A79597958795EF
:102190002A95D1F72091D5043091D604820F931F50
:1021A000B101681B790B950184014EE035952795A7
:1021B000179507954A95D1F78091D9049091DA0443
:1021C000080F191FC101801B910B0E94860D2D81E4
:1021D0003E814F8158852F5F3F4F4F4F5F4F2D837B
:1021E0003E834F8358872CCF8091F304811138C0F0
:1021F0008091EF049091F004A091F104B091F20469
:102200008F3FEFEF9E07AE07BE0751F14091EB0401
:102210005091EC046091ED047091EE0484179507E1
:10222000A607B707ECF40E94050F81E08093F30442
:1022300029853A854B855C852093F4043093F50419
:102240004093F6045093F7048D859E85AF85B88939
:102250008093F8049093F904A093FA04B093FB04DC
:1022600029853A854B855C852093D5043093D60427
:102270004093D7045093D8048D859E85AF85B88947
:102280008093D9049093DA04A093DB04B093DC0428
:102290008FEF9FE0BC01621B730BAD85BE858A1B6F
:1022A0009B0B0E94860D8EE090E00197F1F7A096BF
:1022B0000FB6F894DEBF0FBECDBFDF91CF911F9157
:1022C0000F91FF90EF90DF90CF90BF90AF909F90D5
:1022D0008F907F906F905F904F903F902F900895D8
:1022E0002F923F924F925F926F927F928F929F9226
:1022F000AF92BF92CF92DF92EF92FF920F931F9314
:10230000CF93DF93CDB7DEB7E5970FB6F894DEBF76
:102310000FBECDBF2B013C0149015A01809114052C
:10232000882309F4BFC09201550C440B550B298337
:102330003A834B835C83092C000CAA08BB0880916C
:10234000390590913A05A0913B05B0913C058987EC
:102350009A87AB87BC8760911D0570911E0580919F
:102360001F05909120050E948B2A6B017C016091D2
:10237000290570912A0580912B0590912C05A501C6
:1023800094010E948B2AC60ED71EE81EF91E4EE04D
:10239000F594E794D794C7944A95D1F70D2C000C87
:1023A000EE08FF0829853A854B855C85C20ED31E51
:1023B000E41EF51E609115057091160580911705B4
:1023C0009091180529813A814B815C810E948B2A6A
:1023D0002B013C016091210570912205809123051C
:1023E00090912405A50194010E948B2A460E571E48
:1023F000681E791E5EE075946794579447945A95C9
:10240000D1F7D20129853A854B855C850E94DF2A68
:10241000A70196010E94AF2A29013A0188E0580ECF
:10242000611C711C6091190570911A0580911B0542
:1024300090911C0529813A814B815C810E948B2AF5
:1024400069837A838B839C8360912505709126052F
:102450008091270590912805A50194010E948B2A5F
:1024600029813A814B815C81260F371F481F591FF4
:10247000DA01C9016EE0B595A795979587956A959C
:10248000D1F7DC0129853A854B855C850E94DF2ADE
:10249000A70196010E94AF2A49015A0188E0980ECF
:1024A000A11CB11CC090DF04D090E004E090E104D6
:1024B000F090E204A3019201C701B6010E948B2AA9
:1024C000DC01CB01905EAF4FBF4F2EE0B595A795D5
:1024D000979587952A95D1F74090E3045090E404AE
:1024E0006090E5047090E6049C01AD01240D351D5B
:1024F000461D571D2CA33DA34EA35FA3A501940128
:10250000C701B6010E948B2ADC01CB01905EAF4F60
:10251000BF4F3EE0B595A795979587953A95D1F72A
:10252000C090E704D090E804E090E904F090EA0459
:102530009C01AD012C0D3D1D4E1D5F1D28A739A727
:102540004AA75BA78091FC049091FD04A091FE0432
:10255000B091FF048CA79DA7AEA7BFA7209100054F
:1025600030910105409102055091030528AB39AB2C
:102570004AAB5BABBC01CD010E94EA0D9F878E8701
:1025800028A539A54AA55BA56CA17DA18EA19FA117
:102590000E94EA0D9BA38AA38091100590911105DA
:1025A000A0911205B09113058A8B9B8BAC8BBD8BD0
:1025B000209108053091090540910A0550910B05BD
:1025C0002E8B3F8B488F598F80910C0590910D0574
:1025D000A0910E05B0910F058A8F9B8FAC8FBD8F98
:1025E000209104053091050540910605509107059D
:1025F0002E8F3F8F48A359A388A899A8AAA8BBA843
:10260000CCA4DDA4EEA4FFA488A599A5AAA5BBA58A
:1026100089879A87AB87BC872CA13DA14EA15FA17A
:1026200029833A834B835C838AA19BA14E855F8576
:10263000842B952B892B09F474C18AA19BA1842337
:102640009523892B09F08AC1452B29F48AA19BA1E6
:10265000998B888B04C0AE85BF85B98BA88BB88950
:10266000B3FF4AC0C701B6010E9469296D837E830A
:102670008F83988769817A818B819C816C197D0910
:102680008E099F090E9469292B013C016A897B8977
:102690008C899D89681979098A099B090E94692991
:1026A0009B01AC01C301B2010E94FA292B013C013C
:1026B00069857A858B859C85681979098A099B09C2
:1026C0000E9469299B01AC01C301B2010E94BF288D
:1026D0009B01AC016D817E818F8198850E9453287A
:1026E0000E9431298B018DAB9CABEA89ED83FB897C
:1026F000FD872C883D88E6C0288922FF4AC0C70193
:10270000B6010E9469296D837E838F8398876981D2
:102710007A818B819C816C197D098E099F090E94A9
:1027200069292B013C016E897F89888D998D6819F3
:1027300079098A099B090E9469299B01AC01C3019F
:10274000B2010E94FA292B013C0169857A858B85AB
:102750009C85681979098A099B090E9469299B014E
:10276000AC01C301B2010E94BF289B01AC016D8185
:102770007E818F8198850E9453280E9431298B0188
:102780008DAB9CAB3E893D834F894D87288C398C1E
:1027900099C0588951FF4AC0C501B4010E946929F6
:1027A0006D837E838F83988769857A858B859C85E9
:1027B000681979098A099B090E9469292B013C0142
:1027C0006A8D7B8D8C8D9D8D6C197D098E099F097D
:1027D0000E9469299B01AC01C301B2010E94FA2940
:1027E0002B013C0169817A818B819C816C197D0967
:1027F0008E099F090E9469299B01AC01C301B201A6
:102800000E94BF289B01AC016D817E818F819885DC
:102810000E9453280E9431296D837D871C010A8DF7
:102820001B8D8C8D8DAB9D8D9CAB4CC0A889A0FF62
:1028300049C0C501B4010E9469296D837E838F83DD
:10284000988769857A858B859C85681979098A09B5
:102850009B090E9469292B013C016E8D7F8D88A107
:1028600099A16C197D098E099F090E9469299B0114
:10287000AC01C301B2010E94FA292B013C0169811C
:102880007A818B819C816C197D098E099F090E9438
:1028900069299B01AC01C301B2010E94BF289B01C1
:1028A000AC016D817E818F8198850E9453280E94A2
:1028B00031296D837D871C010E8D1F8DB8A1BDABA5
:1028C000E9A1ECAB288939894E855F852417350746
:1028D00089F42D813D85A101B8018DA99CA90E9493
:1028E000EA0D9F878E878D809D8451016801EDA838
:1028F000FCA89ACE2D813D85A101B8018DA99CA986
:102900000E94EA0D9BA38AA35D8159878D858A87E2
:102910002B863C8609831A839DA99B83ACA9AC8333
:1029200083CE8CA59DA5AEA5BFA5C816D906EA067F
:10293000FB0609F044C028A939A94AA95BA9821657
:102940009306A406B506D9F529853A854B855C859D
:1029500069817A818B819C810E94190F8CA19DA134
:10296000AEA1BFA18093FC049093FD04A093FE044C
:10297000B093FF0428A539A54AA55BA520930005BF
:10298000309301054093020550930305E5960FB679
:10299000F894DEBF0FBECDBFDF91CF911F910F9195
:1029A000FF90EF90DF90CF90BF90AF909F908F906F
:1029B0007F906F905F904F903F902F900895A5016A
:1029C0009401C701B6010E94190FBECFCF92DF92CA
:1029D000EF92FF920F931F93CF93DF936C0100E070
:1029E00010E0C0E0D0E0F60184819581E0902F04F2
:1029F000F09030040817190780F4B801C6010E944E
:102A00000207D701ED91FC91682F8FE294E00995C0
:102A1000C80FD91F0F5F1F4FE6CFD701ED91FC9173
:102A20006DE08FE294E009958C01E0912F04F09124
:102A300030040190F081E02D6AE08FE294E0099586
:102A4000C00FD11F8C0F9D1FDF91CF911F910F9150
:102A5000FF90EF90DF90CF9008951F93CF93DF9377
:102A600000D0CDB7DEB78FE294E00E94BC0E892B78
:102A7000E1F011E08FE294E00E94BC0E892BA9F0F6
:102A80008FE294E00E94800E8A3019F41093520570
:102A9000F1CF89831A8241E050E0BE016F5F7F4F22
:102AA00084E495E00E946B07E5CF0F900F90DF91D3
:102AB000CF911F9108951F920F920FB60F9211247C
:102AC0002F933F938F939F93EF93FF932091E7036F
:102AD0003091E8038091E9039091EA0328173907C0
:102AE00031F48091C1008F7D8093C10014C0E091CA
:102AF000E903F091EA03E955FC4F20818091E90355
:102B00009091EA0301968F7399279093EA0380933B
:102B1000E9032093C600FF91EF919F918F913F9120
:102B20002F910F900FBE0F901F9018951F920F922C
:102B30000FB60F9211242F934F935F938F939F9310
:102B4000EF93FF938091C00082FD1CC02091C600CE
:102B500080912B0490912C0401968F7399274091BA
:102B60002D0450912E048417950771F0E0912B04E9
:102B7000F0912C04E551FC4F208390932C0480931A
:102B80002B0402C08091C600FF91EF919F918F911D
:102B90005F914F912F910F900FBE0F901F9018953E
:102BA000CF93DF93CDB7DEB7C959D1090FB6F894EB
:102BB000DEBF0FBECDBF789484B5826084BD84B57E
:102BC000816084BD85B5826085BD85B5816085BD28
:102BD00080916E00816080936E00109281008091E0
:102BE0008100826080938100809181008160809368
:102BF0008100809180008160809380008091B1008D
:102C000084608093B1008091B00081608093B000B7
:102C100080917A00846080937A0080917A0082604B
:102C200080937A0080917A00816080937A0080910D
:102C30007A00806880937A001092C1008CE090E066
:102C40009093A5038093A40388E080939F0380E082
:102C500098E0909398038093970390939A038093BE
:102C600099038AE090E09093A1038093A00387E00A
:102C700090E09093A3038093A20381E08093A60346
:102C800080E090E790939C0380939B0380E090EF1B
:102C900090939E0380939D038AE00E94CC0E8091C6
:102CA000A2030E94CC0E61E08091A0030E94EC0878
:102CB00061E08091A2030E94EC0861E08AE00E943A
:102CC000EC088AE00E94CC0E8CB580618CBD8CB57E
:102CD00080648CBD8DE00E94CC0E8BE00E94CC0EF7
:102CE0008CB58F7D8CBD8CB5837F8CBD8CB58C7F76
:102CF0008CBD8DB581608DBD8091CF040E94CC0EBE
:102D0000E0914304F091440481E090E09C01009044
:102D10004F0402C0220F331F0A94E2F72083E09190
:102D20003F04F09140041082E0914104F09142048C
:102D30002FEC208310925004E0914504F09146045A
:102D400040819C0100904B0402C0220F331F0A9463
:102D5000E2F7242B2083E0914504F0914604408162
:102D60009C0100904C0402C0220F331F0A94E2F72A
:102D7000242B2083E0914504F091460440819C017E
:102D800000904D0402C0220F331F0A94E2F7242B57
:102D90002083E0914504F0914604208100904E0488
:102DA00002C0880F991F0A94E2F7809582238083DE
:102DB00060E071E084E495E00E9444078091520550
:102DC000882309F482C28091880390918903019637
:102DD000909389038093880364E671E0CE010196A5
:102DE0000E94900864E475E0CE0101960E94C40739
:102DF0000E94E614CE0101960E94260860E070E071
:102E000084E495E00E940207682F880F770B709387
:102E10008703609386034AE0CE018B599F4F0E943F
:102E2000590866E771E0CE0101960E949008BE0144
:102E30006B597F4FCE0101960E94C4070E94E61491
:102E4000CE0101960E942608CE018B599F4F0E9409
:102E5000260865E771E0CE018D589F4F0E949008CB
:102E600080918603909187038934910509F4AEC15E
:102E700094F48134910509F44CC024F4C29709F00C
:102E8000FAC127C18634910509F423C1883491051C
:102E900009F0F1C11EC18335910509F41AC14CF442
:102EA0008D34910509F415C18035910509F0E3C110
:102EB00010C18635910509F40CC18835910509F0DA
:102EC000DAC19093850380938403CE018B599F4F81
:102ED0000E94F60966EE71E0CE0101960E9490080C
:102EE000BE016B597F4FCE0101960E94C4070E941C
:102EF000E614CE0101960E942608CE018B599F4F01
:102F00000E94260865E771E08DE395E00E94F807CE
:102F100058C10E94A709209148053091490543E016
:102F200050E064E475E0CE0101960E94A608E596A3
:102F30008EAD9FADE5970097B1F0E7964EAD5FADD2
:102F4000E7972D813E814217530758F069817A81B6
:102F50000E944B288D819E81E9969FAF8EAFE997A5
:102F600018C00E94CC2689819A81E5969FAF8EAFCA
:102F7000E5978B819C81E7969FAF8EAFE7978D8118
:102F80009E81E9969FAF8EAFE9971A8219821C82C3
:102F90001B821E821D82CE0101960E9426086CE8CB
:102FA00071E0CE018D589F4F0E942507882319F0AC
:102FB00085E090E03BC062E971E0CE018D589F4F03
:102FC0000E942507882319F086E090E02FC06BE966
:102FD00071E0CE018D589F4F0E942507882319F07C
:102FE0008BE090E023C060EA71E0CE018D589F4FE6
:102FF0000E942507882319F084E090E017C06AEA50
:1030000071E0CE018D589F4F0E942507882319F04B
:1030100080E190E00BC064EB71E0CE018D589F4FD2
:103020000E942507882331F081E190E090938F037F
:1030300080938E03809186039091870390938503FC
:103040008093840380918E0390918F0327E0289FC3
:10305000B001299F700D11246F5A7B4FCE01845906
:103060009F4F0E948608CE018B599F4F0E94F60900
:1030700063EC71E0CE0101960E949008BE016B598D
:103080007F4FCE0101960E94C40764E771E00E9461
:10309000AB07BE0164597F4F0E94C4076CED71E01D
:1030A0000E94AB070E94E614CE0101960E942608FA
:1030B000CE018B599F4F0E942608CE0184599F4F05
:1030C0000E94260865E771E08DE395E00E94F8070D
:1030D000EFC00E94A7098091860390918703909387
:1030E000850380938403CE018B599F4F0E94F6097C
:1030F00063EC71E0CE0101960E949008BE016B590D
:103100007F4FCE0101960E94C4070E94E614CE01B3
:1031100001960E942608CE018B599F4F0E942608D7
:10312000209148053091490543E050E064E475E0A2
:10313000CE0101960E94A6080D811E81CE01019646
:103140000E9426080230110508F4B2C020914805FB
:103150003091490543E050E064E475E0CE0101960A
:103160000E94A608BE016F5F7F4FCE018B599F4F13
:103170000E948608AD961FAEAD97AE961FAEAE9775
:1031800041E050E0BE0164597F4FCE018B599F4F03
:103190000E946B07811105C0CE018B599F4F0E9481
:1031A0009907BE016B597F4F8DE395E00E940F0890
:1031B000CE018B599F4F0E942608CE0101960E9496
:1031C000260810928F0310928E0372C0209148053A
:1031D0003091490541E050E064E475E0CE0101968C
:1031E0000E94A60889819A81009729F00E948B2568
:1031F000AB01BC0103C040E050E0BA0140930001C4
:10320000509301016093020170930301CE01019676
:10321000CA56DF4F4883C659D040C956DF4F58833E
:10322000C759D040C856DF4F6883C859D040C756E9
:10323000DF4F7883C959D0400E9426082AE0CA5639
:10324000DF4F4881C659D040C956DF4F5881C75912
:10325000D040C856DF4F6881C859D040C756DF4FAD
:103260007881C959D040CE018B599F4F0E942B08BD
:1032700063EF71E007C0CE018B599F4F0E94F609A2
:1032800060E172E0CE0101960E949008BE016B5988
:103290007F4FCE0101960E94C4070E94E614CE0122
:1032A00001960E942608CE018B599F4F0E94260846
:1032B00065E771E084E495E00E94F80710925205FA
:1032C000CE018D589F4F0E9426088FB7F894C0906A
:1032D0008003D0908103E0908203F09083038FBF3E
:1032E0008091000190910101A0910201B091030130
:1032F0000097A105B10509F40BC140918A035091D3
:103300008B0360918C0370918D0397018601041BE0
:10331000150B260B370B081719072A073B0708F46C
:10332000F7C081E080939003C0928A03D0928B0310
:10333000E0928C03F0928D038091410590914205BB
:10334000009709F47BC0A7961FAE1EAEA797A9965B
:103350001FAE1EAEA997AB961FAE1EAEAB97AC9636
:103360001FAEAC974AE0BE016F5F7F4F0E940D26F3
:10337000BE016F5F7F4FCE018B599F4F0E94F807B0
:1033800060910401709105014AE0CE0101960E940E
:103390005908CE0184599F4F0E94F6092AE0B701CF
:1033A000A601CE0186589F4F0E942B08BE01665889
:1033B0007F4FCE018D589F4F0E9486086BE172E0CF
:1033C000CE018D589F4F0E94AB07BE0164597F4FBD
:1033D0000E94C40762E272E00E94AB07BE016F5F09
:1033E0007F4F0E94C40769E272E00E94AB07BE01F2
:1033F0006B597F4F0E94C40762E372E00E94AB07E3
:103400006DE375E00E94C4070E94E614CE018D585A
:103410009F4F0E942608CE0186589F4F0E94260883
:10342000CE0184599F4F0E942608CE0101960E942A
:103430002608CE018B599F4F0E94260880918E034B
:1034400090918F03009709F463C027E0289FB00193
:10345000299F700D11246F5A7B4FCE0101960E9457
:10346000860860910401709105014AE0CE018B59F4
:103470009F4F0E945908CE0184599F4F0E94F60920
:103480002AE0B701A601CE0186589F4F0E942B0863
:10349000BE0166587F4FCE018D589F4F0E9486080F
:1034A0006BE172E0CE018D589F4F0E94AB07BE01C9
:1034B00064597F4F0E94C40762E272E00E94AB072A
:1034C000BE016B597F4F0E94C40768E372E00E94FF
:1034D000AB07BE016F5F7F4F0E94C4070E94E614D6
:1034E000CE018D589F4F0E942608CE0186589F4FCF
:1034F0000E942608CE0184599F4F0E942608CE01C3
:103500008B599F4F0E942608CE0101960E942608E3
:1035100080919003882311F40C94402480914105FC
:1035200090914205892B09F4E3C6E0903D05F090A7
:103530003E056CE270E0C7010E943728009721F039
:103540008C010E191F0902C00FEF1FEF8091840339
:10355000909185038D349105E1F06CF486349105EA
:1035600009F466C58834910509F41FC2C29711F0A9
:103570000C943E246EC48335910509F4F4C386355A
:10358000910509F4C9C28035910511F00C943E24CF
:103590006EC36091040170910501072E000C880B29
:1035A000990B0E94692920E030E048EC52E40E9427
:1035B000BF282B013C016DE375E0CE0184599F4F7C
:1035C0000E94860820E030E048E453E4C301B201E1
:1035D0000E94FA299B01AC0160E070E080E895E46C
:1035E0000E94BF280E943129CF57DF4F798368831B
:1035F000C158D0409E012F5F3F4F190164367105BD
:103600001CF14AE0CE018B599F4F0E94590864E497
:1036100072E0C1010E949008BE016B597F4FC10149
:103620000E94C4070E94E614C1010E942608CE0130
:103630008B599F4F0E94260883E690E0CF57DF4FBB
:1036400099838883C158D040F10120E2CF018219CB
:103650009309CF57DF4FA881B981C158D0408A174D
:103660009B0714F42193F2CF1092E3041092E40428
:103670001092E5041092E60480E098E0A0E0B0E04B
:103680008093E7049093E804A093E904B093EA04DC
:1036900020E030E040E856E4C301B2010E94FA297C
:1036A0000E9431296093DF047093E0048093E10469
:1036B0009093E204E296EEADFFADE297C757DF4F7D
:1036C000F983E883C958D040CB57DF4F198218825D
:1036D000C558D040E12CF12CCF57DF4F088119811C
:1036E000C158D040E00FF11FCE56DF4FF983E88379
:1036F000C259D04001501109CC56DF4F19830883BD
:10370000C459D040CF57DF4F28813981C158D040AC
:103710002C0F3D1FC457DF4F39832883CC58D0402E
:10372000CB57DF4F08811981C558D040CE56DF4FA7
:1037300028813981C259D040021713070CF031C1DA
:103740008981893439F0873551F488EE93E0A0E01F
:10375000B0E009C088EC90E0A0E0B0E004C082E5F1
:1037600093E0A0E0B0E0C957DF4F99838883C75842
:10377000D040C957DF4F48815981C758D040E4161F
:10378000F5060CF0C5C08FB7F89400918003109136
:1037900081032091820330918303C257DF4F088356
:1037A00019832A833B83CE58D0408FBF002711272F
:1037B0000E191F096101C557DF4F1882CB58D04041
:1037C000C60182199309CF57DF4FE881F981C158AB
:1037D000D0408E179F07B4F5D6018D916D018032D0
:1037E00031F0B1E0C557DF4FB883CB58D040480126
:1037F000110FAA08BB0800E010E09801B501A40170
:103800000E94000BDC01CB01880D991DAA1DBB1D78
:103810008C01BC01990F880B990B0E9469294B01FF
:103820005C01A301920160E070E080E895E40E94F1
:10383000BF289B01AC01C501B4010E94F5291816EF
:103840000CF0BECFC557DF4FF881CB58D040F111F7
:1038500006C0C957DF4FE880F980C758D040B7018C
:10386000FF0C880B990B0E9469296B017C01A30155
:10387000920160E070E088EC92E40E94BF289B0116
:10388000AC01C701B6010E9453280E9431297B0177
:103890002FB7F8948091800390918103A0918203C7
:1038A000B09183032FBFC257DF4F088119812A814E
:1038B0003B81CE58D040801B910BA20BB30B8233BF
:1038C0009105A105B1050CF054CFF2E38F2E912C98
:1038D000A12CB12C881A990AAA0ABB0A0E9438099D
:1038E0006B0181149104A104B10409F442CF0E9438
:1038F00038096C197D09683E734098F321E0821AFB
:103900009108A108B10838E1C31A3CEFD30AE9CF06
:10391000E41AF50ADE011296F101CF01821993092A
:10392000CC56DF4F08811981C459D04080179107C8
:103930001CF48D918193F1CFCB57DF4F28813981D2
:10394000C558D040C757DF4F48815981C958D0402A
:103950002417350784F4B901CE0184599F4F0E9482
:103960001307DC018C91C457DF4FE881F981CC58F3
:10397000D040808308C080E2C457DF4FA881B9815E
:10398000CC58D0408C93CB57DF4FE881F981C55894
:10399000D0403196CB57DF4FF983E883C558D040EC
:1039A000BFCECE0184599F4FB4C06DE375E0CE0108
:1039B0008D589F4F0E948608BE016D587F4FCE01E3
:1039C00084599F4F0E948608BE0164597F4FCE01E3
:1039D00001960E948608CE0101960E946E0C6B0132
:1039E0007C01CE0101960E9426086091040170912D
:1039F0000501072E000C880B990B0E94692920E015
:103A000030E048EC52E40E94BF2820E030E040E87B
:103A100056E40E94FA290E9431296093DF047093D2
:103A2000E0048093E1049093E20480E094E0A0E05D
:103A3000B0E08093E3049093E404A093E504B09392
:103A4000E6048093E7049093E804A093E904B0931C
:103A5000EA048601D7FE02C00F5F1F4F1595079538
:103A60001195019511095DE2E52EF12C68E6C62E4F
:103A7000DD24D3946624639474E2772EE0ED8E2ED9
:103A8000E7E09E2EA12CB12CC701B6010E949B2A13
:103A9000BC01CE0101960E94070D60921405FE0143
:103AA0003196A5E1B5E0872D01900D928A95E1F759
:103AB0008092390590923A05A0923B05B0923C0560
:103AC000BE0164597F4FCE018B599F4F0E948608DB
:103AD00021E030E04CE05EEFB801CE018B599F4F02
:103AE0000E94A50CCE018B599F4F0E94260898E09A
:103AF000E90EF11CADEFEA16A2E0FA0629F61092E3
:103B00001405CE0184599F4F0E942608CE018D587E
:103B10009F4F0E942608B2C66DE375E0CE018D5816
:103B20009F4F0E948608BE016D587F4FCE01845979
:103B30009F4F0E948608BE0164597F4FCE010196B7
:103B40000E948608CE0101960E946E0C6B017C01DA
:103B5000CE0101960E942608609104017091050132
:103B6000072E000C880B990B0E94692920E030E099
:103B700048EC52E40E94BF2820E030E040E856E4E0
:103B80000E94FA290E9431296093DF047093E004B7
:103B90008093E1049093E20400E014E020E030E040
:103BA0000093E3041093E4042093E5043093E604C7
:103BB0000093E7041093E8042093E9043093EA04A7
:103BC0008601D7FE02C00F5F1F4F1595079511950F
:103BD000019511098DE2E82EF12C98E6C92EDD241D
:103BE000D3946624639424E2722E30ED832E37E062
:103BF000932EA12CB12CC701B6010E949B2ABC01B7
:103C0000CE0101960E94400D60921405FE0131968E
:103C1000A5E1B5E0872D01900D928A95E1F780929C
:103C2000390590923A05A0923B05B0923C05BE0141
:103C300064597F4FCE018B599F4F0E94860821E027
:103C400030E04CE05EEFB801CE018B599F4F0E94EF
:103C5000A50CCE018B599F4F0E94260828E0E20E4A
:103C6000F11C3DEFE31632E0F30629F648CF6DE391
:103C700075E0CE0184599F4F0E948608BE016459A9
:103C80007F4FCE018B599F4F0E948608BE016B5912
:103C90007F4FCE0101960E948608CE0101960E94B8
:103CA0006E0C6B017C01CE0101960E94260880E01B
:103CB00098E0A0E0B0E08093E3049093E404A09344
:103CC000E504B093E6048093E7049093E804A0939E
:103CD000E904B093EA048601D7FE02C00F5F1F4FCC
:103CE00015950795119501951109A6E4EA2EF12C79
:103CF000812C912C54012AE037ED43E25CE3C501AD
:103D0000B4010E9453284B015C0120E030E040E800
:103D100056E40E94FA290E9431296093DF047093CF
:103D2000E0048093E1049093E204BE016B597F4F5D
:103D3000CE0101960E94860821E030E040E050E08C
:103D4000B801CE0101960E94A50CCE0101960E94F9
:103D5000260841E0E41AF10871F6CE018B599F4F15
:103D60000E942608C9C36DE375E0CE018B599F4FB1
:103D70000E948608BE016B597F4FCE0101960E94BA
:103D80008608CE0101960E946E0C6B017C01CE016B
:103D900001960E9426086091040170910501072E8A
:103DA000000C880B990B0E94692920E030E048EC58
:103DB00052E40E94BF2820E030E040E856E40E9430
:103DC000FA290E9431296093DF047093E004809304
:103DD000E1049093E2048601D7FE02C00F5F1F4FFB
:103DE0001595079511950195110973E6E72EF12CAC
:103DF000812CE8E09E2EA12CB12C8092E3049092BD
:103E0000E404A092E504B092E6048092E704909264
:103E1000E804A092E904B092EA04BE016B597F4F16
:103E2000CE0101960E94860821E030E04CE05EEF72
:103E3000B801CE0101960E94A50CCE0101960E9408
:103E4000260851E0E51AF108C1F6CE018B599F4FC3
:103E500060CE101611060CF011C5980140E050E03C
:103E60006DE375E0CE0186589F4F0E94A608209111
:103E7000410530914205A8014F5F5F4F6DE375E04A
:103E8000CE018D589F4F0E94A608BE016D587F4FEE
:103E9000CE0184599F4F0E948608BE0166587F4F0D
:103EA000CE018B599F4F0E948608BE016B597F4FF0
:103EB000CE0101960E948608CE0101960E946E0CEA
:103EC0006B017C01CE0101960E942608BE01645957
:103ED0007F4FCE0101960E948608CE0101960E9476
:103EE0006E0C4B015C01CE0101960E942608609188
:103EF000040170910501072E000C880B990B0E949C
:103F0000692920E030E048EC52E40E94BF2820E01C
:103F100030E040E856E40E94FA290E94312960937B
:103F2000DF047093E0048093E1049093E204C601FF
:103F3000D7FC019695958795EE24FF24E81AF90A97
:103F4000840197FE02C00F5F1F4F159507951195CD
:103F50000195110923E6C22ED12C812C38E0932E35
:103F6000A12CB12C48E5442E4AE0542E612C712C32
:103F70008092E3049092E404A092E504B092E604F7
:103F80004092E7045092E8046092E9047092EA04D7
:103F9000BE016B597F4FCE0101960E94860821E039
:103FA00030E04CE05EEFB701CE0101960E94A50C17
:103FB000CE0101960E9426088092E3049092E404C8
:103FC000A092E504B092E6048092E7049092E8049F
:103FD000A092E904B092EA04BE0164597F4FCE0179
:103FE00001960E94860821E030E04CE05EEFB801C7
:103FF000CE0101960E94A50CCE0101960E942608D2
:1040000081E0C81AD10809F0B3CFCE018B599F4F78
:104010000E942608CE0184599F4F0E942608CE0197
:104020008D589F4F0E942608CE0186589F4F71CD14
:104030006DE375E0CE018D589F4F0E948608BE014A
:104040006D587F4FCE0184599F4F0E948608BE0154
:104050006D587F4FCE018B599F4F0E948608E9967D
:10406000EEACFFACE997C12CD12C01E0E01AF108CD
:10407000F7FC15C0B601CE0184599F4F0E9413076B
:104080008C01B701CE018B599F4F0E941307DC01B1
:104090008C91F8018083FFEFCF1ADF0AE6CFBE01D3
:1040A0006B597F4FCE0101960E948608CE01019682
:1040B0000E946E0C6B017C01CE0101960E942608C5
:1040C000B6010D2C000C880B990B0E9469299B01ED
:1040D000AC0160E070E88EE395E40E94BF2820E028
:1040E00030E040E856E40E94FA290E9431296093AA
:1040F000DF047093E0048093E1049093E20480E095
:1041000098E0A0E0B0E08093E3049093E404A093EF
:10411000E504B093E6048093E7049093E804A09349
:10412000E904B093EA04C601D7FC019695958795FA
:1041300022243324281A390A83E2C82ED12CBE0146
:1041400064597F4FCE0101960E94860824E030E03A
:1041500040E050E0B101CE0101960E94A50CCE01D5
:1041600001960E942608E996AEACBFACE99700E044
:1041700010E00A151B05DCF5B801CE018B599F4FE5
:104180000E941307DC019C90B801CE0184599F4F17
:104190000E941307FC018081891554F4B801CE01F7
:1041A00084599F4F0E941307FC0190819F5F908369
:1041B000B801CE018B599F4F0E941307DC019C90E0
:1041C000B801CE0184599F4F0E941307FC018081E2
:1041D000981654F4B801CE0184599F4F0E941307DA
:1041E000FC019081915090830F5F1F4FC2CFF1E08F
:1041F000CF1AD10809F0A3CF812C912C5401CC24E3
:10420000CA941FE0D12EE12CF12C809204059092EB
:104210000505A0920605B0920705109208051092B8
:10422000090510920A0510920B0544244A94BFE038
:104230005B2E612C712CD701C60188199909AA0936
:10424000BB0980930C0590930D05A0930E05B093C8
:104250000F05C0921005D0921105E0921205F09260
:104260001305BE016B597F4FCE0101960E9486084F
:1042700021E030E040E050E0B101CE0101960E9423
:10428000A50CCE0101960E94260808E2800E911C22
:10429000A11CB11C10E6811619E09106A104B1041D
:1042A00009F0B3CF1092040510920505109206058F
:1042B00010920705109208051092090510920A0540
:1042C00010920B0540920C0550920D0560920E0560
:1042D00070920F05409210055092110560921205E0
:1042E00070921305CE018B599F4F0E94260809CC6E
:1042F00080918E0390918F038630910509F472C1ED
:10430000F4F48430910551F1059709F0B7C2412CBE
:10431000512C60E8662E6FE3762E812C70E1972E8B
:10432000A12CB12C00E010E120E030E0CF57DF4FAE
:10433000088319832A833B83C158D040E1C0803170
:10434000910509F4D8C1419709F098C204E610E03C
:10435000C12C88E0D82EE12CF12C38C267E772E03E
:10436000CE0184599F4F0E949008BE0164597F4F2F
:10437000CE0101960E948608CE0101960E946E0C25
:104380006B017C01CE0101960E94260880E090E23C
:10439000A0E0B0E08093DF049093E004A093E104F8
:1043A000B093E204C601D7FC019695958795EE245B
:1043B000FF24E81AF90AC12CD12C01E0F8E68F2E6F
:1043C0009924939414E2A8EA4A2E55245394612C1C
:1043D000712C00931405C601B4010E949B2A5C0154
:1043E000BC01CE0101960E94400DFE013196A5E16F
:1043F000B5E0812F01900D928A95E1F720EA3FE028
:1044000040E050E02093390530933A0540933B0556
:1044100050933C0580E094E0A0E0B0E08093E3049A
:104420009093E404A093E504B093E60428E536E015
:1044300040E050E02093E7043093E8044093E9041F
:104440005093EA04BE0164597F4FCE018B599F4FB0
:104450000E94860821E030E04CE05EEFB701CE011B
:104460008B599F4F0E94A50CCE018B599F4F0E94E4
:104470002608B501CE0101960E94070DFE01319676
:10448000A5E1B5E0812F01900D928A95E1F780E0DA
:1044900094E0A0E0B0E08093E3049093E404A09360
:1044A000E504B093E6044092E7045092E804609279
:1044B000E9047092EA0465EA71E0CE018B599F4FDE
:1044C0000E94900821E030E04CE05EEFB701CE01A1
:1044D0008B599F4F0E94A50CCE018B599F4F0E9474
:1044E000260898E0C90ED11CA0EDCA16A2E0DA0693
:1044F00009F06FCF10921405CE0184599F4F09CB5C
:1045000020E030E040E856E4C301B2010E94FA29FD
:104510000E9431296093DF047093E0048093E104EA
:104520009093E204CF57DF4F288139814A815B8124
:10453000C158D0402093E3043093E4044093E50451
:104540005093E6048092E7049092E804A092E90474
:10455000B092EA04E12CF12C870120E030E0A901BF
:1045600065E670E082E392E00E94B20ACF57DF4F27
:10457000688179818A819B81C158D0400E946929D4
:104580006B017C0120E030E040EA51E4C301B2015C
:104590000E94FA299B01AC01C701B6010E94522872
:1045A0000E943129CF57DF4F688379838A839B83A9
:1045B000C158D04034E1831A9108A108B1082AE01B
:1045C00037ED43E25CE3C301B2010E9453282B01A3
:1045D0003C0140EF841641E09406A104B10409F0C7
:1045E0008FCF4CC1412C512C40E8642E4FE3742EE8
:1045F000812C50E1952EA12CB12C80E090E1A0E01F
:10460000B0E0CF57DF4F88839983AA83BB83C1581B
:10461000D04020E030E040E856E4C301B2010E94FF
:10462000FA290E9431296093DF047093E00480939B
:10463000E1049093E204CF57DF4F088119812A816A
:104640003B81C158D0400093E3041093E4042093CD
:10465000E5043093E6048092E7049092E804A09287
:10466000E904B092EA04E12CF12C870120E030E06B
:10467000A90164E570E082EE90E00E94B20ACF5793
:10468000DF4F688179818A819B81C158D0400E9427
:1046900069296B017C0120E030E040EA51E4C3016C
:1046A000B2010E94FA299B01AC01C701B6010E9428
:1046B00052280E943129CF57DF4F688379838A833C
:1046C0009B83C158D04014E1811A9108A108B10818
:1046D0002AE037ED43E25CE3C301B2010E945328B4
:1046E0002B013C0120EF821621E09206A104B104C7
:1046F00009F08FCFC3C080E098E0A0E0B0E08093E5
:10470000E3049093E404A093E504B093E60480935B
:10471000E7049093E804A093E904B093EA0439E332
:10472000F32E98E2C92ED12C2AE0422E27ED522EEC
:1047300023E2622E2CE3722E812C912C540180E016
:1047400090E4A0E0B0E08093DF049093E004A093B5
:10475000E104B093E2040E94480A20E030E040E81F
:1047600056E4C501B4010E94FA290E9431296093E0
:10477000DF047093E0048093E1049093E2040EE27E
:104780001EEF2FEF3FEF45EE5EEF6FEF7FEF8F2DC8
:104790000E94000BA3019201C501B4010E9453289D
:1047A0004B015C012FE632E143E05BE3C301B20160
:1047B0000E9453282B013C0191E0C91AD10809F04D
:1047C000BECFFA94A0E3FA12ACCF58C020E030E498
:1047D00040E050E02093DF043093E0044093E10494
:1047E0005093E204C092E304D092E404E092E50422
:1047F000F092E604C092E704D092E804E092E90463
:10480000F092EA0421E038EF4FEF5FEF61E078EFDC
:104810008FEF9FEF0E9470110E94EB0E21E038EFA6
:104820004FEF5FEF6FEF77E080E090E00E94701154
:104830002FEF37E040E050E06FEF77E080E090E06E
:104840000E9470112FEF37E040E050E061E078EF18
:104850008FEF9FEF0E94701121E038EF4FEF5FEF75
:1048600061E078EF8FEF9FEF0E9470110E94050FBB
:104870000E94480A0150110909F0A8CF1092900334
:104880000E942D150C94DE16CF93DF93CFECD4E06D
:104890002797CE010E94260884E0C135D807C1F7CA
:1048A0008DE395E00E94260884E495E00E942608A6
:1048B0008BE495E0DF91CF910C942608CF92DF92A4
:1048C000EF92FF92EFE2F4E01382128288EEC82E9C
:1048D00083E0D82EE12CF12CC482D582E682F782C7
:1048E00088E591E0918380838BEE93E095878487C0
:1048F00087EA93E09787868785EC90E0918B808BA1
:1049000084EC90E0938B828B80EC90E0958B848B91
:1049100081EC90E0978B868B82EC90E0918F808F7A
:1049200086EC90E0938F828F84E0848F83E0858F84
:1049300087E0868F85E0878F81E080A362EF72E059
:104940008BE495E00E94900865E771E084E495E0CF
:104950000E94900865E771E08DE395E00E94900861
:1049600084E2E0E3F1E0A5E1B5E001900D928A95E3
:10497000E1F7EFECF4E085E090E09183808380E064
:1049800091E0A0E0B0E082839383A483B583168294
:10499000178210861186128613861486158615A630
:1049A00016A617A610AA11AA12AA13AA14AA178645
:1049B000168681E090E0A0E0B0E0808B918BA28B26
:1049C000B38B148A158A168A178A108E118E128E4E
:1049D000138E148E158E168E178E8FEF9FEFDC01BF
:1049E00080A391A3A2A3B3A314A215AA16AA17AADF
:1049F00010AE11AE12AE13AE14AE8FEF9FE0A0E07A
:104A0000B0E080930C0590930D05A0930E05B09334
:104A10000F058093100590931105A0931205B09394
:104A2000130510921405C0923905D0923A05E09210
:104A30003B05F0923C056BE073E081E594E00E9459
:104A400090086FE073E088E594E00E9490086CE1C4
:104A500073E08FE594E00E94900865E273E086E6DB
:104A600094E00E94900860EA71E08DE694E00E9474
:104A700090086CE871E084E794E00E94900862E995
:104A800071E08BE794E00E9490086DE273E082E8A9
:104A900094E00E94900864E373E089E894E00E9447
:104AA000900864E473E080E994E00E94900860E577
:104AB00073E087E994E00E9490086BE971E08EE969
:104AC00094E00E9490086BE573E085EA94E00E9410
:104AD000900861E673E08CEA94E00E9490086BE62F
:104AE00073E083EB94E00E94900863E773E08AEB45
:104AF00094E00E9490086AEA71E081EC94E00E94E0
:104B0000900864EB71E088EC94E0FF90EF90DF9008
:104B1000CF900C9490081F93FC0199278827BC0123
:104B2000E89411911032E9F3193010F01E30C8F3F7
:104B30001B3251F01D3249F4689406C00E94CB2507
:104B4000610F711D811D911D119110531A30B0F329
:104B50003EF490958095709561957F4F8F4F9F4F54
:104B60001F910895F8940C94632B4532510520F45D
:104B7000423010F00C94C025FB011082CB01089547
:104B8000BB274A3031F4992322F4BDE290958195F8
:104B90009F4F0C940E26592F482F372F262F660F24
:104BA000771F881F991F660F771F881F991F620F35
:104BB000731F841F951F660F771F881F991F089505
:104BC0002532310520F4223010F00C94EB25FA0147
:104BD0001082CA010895BB27FA01A62F621771053A
:104BE00081059105330B30FB66F0AA27660F771F0E
:104BF000881F991FAA1FA21710F0A21B6395385097
:104C0000A9F7A05DAA3308F0A95DA19336F7B11109
:104C1000B1931082CA010C942726BB27FB015527AC
:104C2000AA27880F991FAA1FA41710F0A41B839509
:104C30005051B9F7A05DAA3308F0A95DA193009780
:104C400079F7B111B1931192CB010C942726DC01B5
:104C5000FC01672F71917723E1F7329704C07C91B3
:104C60006D9370836291AE17BF07C8F30895CF9319
:104C7000DF938230910510F482E090E0E0915505D9
:104C8000F091560520E030E0C0E0D0E0309711F11F
:104C90004081518148175907C0F04817590761F4FE
:104CA00082819381209719F09B838A832BC09093F4
:104CB00056058093550526C02115310519F0421778
:104CC000530718F49A01BE01DF01EF010280F3815E
:104CD000E02DDCCF2115310509F1281B390B2430DB
:104CE000310590F412968D919C9113976115710581
:104CF00021F0FB019383828304C090935605809337
:104D00005505FD01329644C0FD01E20FF31F81936A
:104D10009193225031092D933C933AC02091530531
:104D200030915405232B41F4209108013091090161
:104D300030935405209353052091060130910701CB
:104D40002115310541F42DB73EB740910A0150912C
:104D50000B01241B350BE0915305F0915405E2172C
:104D6000F307A0F42E1B3F0B2817390778F0AC018E
:104D70004E5F5F4F2417350748F04E0F5F1F50936B
:104D80005405409353058193919302C0E0E0F0E015
:104D9000CF01DF91CF9108950F931F93CF93DF93AE
:104DA000009709F48CC0FC013297138212820091A3
:104DB0005505109156050115110581F420813181A9
:104DC000820F931F209153053091540528173907FE
:104DD00079F5F0935405E093530571C0D80140E094
:104DE00050E0AE17BF0750F412962D913C911397E7
:104DF000AD012115310509F1D901F3CF9D01DA018A
:104E00003383228360817181860F971F82179307F6
:104E100069F4EC0128813981260F371F2E5F3F4F3F
:104E2000318320838A819B8193838283452B29F45C
:104E3000F0935605E093550542C01396FC93EE930C
:104E40001297ED01499159919E01240F351FE217E8
:104E5000F30771F480819181840F951F029611965A
:104E60009C938E938281938113969C938E93129739
:104E7000E0E0F0E0D80112968D919C911397009795
:104E800019F0F8018C01F6CF8D919C9198012E5F5D
:104E90003F4F820F931F20915305309154052817DF
:104EA000390769F4309729F4109256051092550588
:104EB00002C0138212821093540500935305DF91B0
:104EC000CF911F910F910895A0E0B0E0EAE6F7E2DC
:104ED0000C94EB2AEC01009721F4CB010E943726B9
:104EE000B8C0FC01E60FF71F9C0122503109E21700
:104EF000F30708F4ACC0D9010D911C911197061766
:104F00001707B0F00530110508F49FC0C8010497D9
:104F10008617970708F499C002501109061B170B52
:104F2000019311936D937C93CF010E94CC268DC089
:104F30005B01A01AB10A4C01800E911EA09155058B
:104F4000B091560540E050E0E12CF12C109709F4A7
:104F50004AC0A815B905D1F56D907C9011976301F1
:104F600082E0C80ED11CCA14DB0480F1A3014A19E7
:104F70005B096A0182E0C80ED11C1296BC901297A0
:104F80001396AC91B5E0CB16D10440F0B282A38366
:104F900051834083D9016D937C930AC00E5F1F4FEC
:104FA000C301800F911FF90191838083EB2DFA2FAC
:104FB000E114F10431F0D7011396FC93EE931297AC
:104FC00044C0F0935605E09355053FC08D919C91E8
:104FD00011974817590708F4AC017D0112960D90FE
:104FE000BC91A02DB3CF80915305909154058815A5
:104FF0009905E1F446175707C8F48091060190918E
:105000000701009741F48DB79EB740910A01509176
:105010000B01841B950BE817F907C8F4F0935405AE
:10502000E0935305F901718360830FC0CB010E94A7
:1050300037267C01009759F0A801BE010E942E2856
:10504000CE010E94CC26C70104C0CE0102C080E080
:1050500090E0CDB7DEB7EEE00C94072BFB01DC014E
:1050600002C001900D9241505040D8F70895FC01C4
:105070008191861721F08823D9F7992708953197D0
:10508000CF010895FB01DC018D9101908019011081
:10509000D9F3990B0895FB01DC0101900D920020DA
:1050A000E1F708955058BB27AA270E946A280C945C
:1050B000BB290E94AD2938F00E94B42920F039F4B0
:1050C0009F3F19F426F40C94AA290EF4E095E7FB0F
:1050D0000C94A429E92F0E94CC2958F3BA1762072F
:1050E00073078407950720F079F4A6F50C94EE2950
:1050F0000EF4E0950B2EBA2FA02D0B01B9019001F3
:105100000C01CA01A0011124FF27591B99F0593F36
:1051100050F4503E68F11A16F040A22F232F342F7E
:105120004427585FF3CF469537952795A795F040CC
:105130005395C9F77EF41F16BA0B620B730B840BE1
:10514000BAF09150A1F0FF0FBB1F661F771F881F99
:10515000C2F70EC0BA0F621F731F841F48F48795F1
:1051600077956795B795F7959E3F08F0B0CF9395E3
:10517000880F08F09927EE0F9795879508950E945C
:10518000D3280C94BB290E94B42958F00E94AD2961
:1051900040F029F45F3F29F00C94A42951110C949C
:1051A000EF290C94AA290E94CC2968F39923B1F322
:1051B000552391F3951B550BBB27AA27621773073D
:1051C000840738F09F5F5F4F220F331F441FAA1FD1
:1051D000A9F335D00E2E3AF0E0E832D0915050408D
:1051E000E695001CCAF72BD0FE2F29D0660F771F3B
:1051F000881FBB1F261737074807AB07B0E809F021
:10520000BB0B802DBF01FF2793585F4F3AF09E3FA5
:10521000510578F00C94A4290C94EF295F3FE4F336
:10522000983ED4F3869577956795B795F7959F5FE8
:10523000C9F7880F911D9695879597F90895E1E034
:10524000660F771F881FBB1F621773078407BA0793
:1052500020F0621B730B840BBA0BEE1F88F7E095EE
:1052600008950E9438296894B1110C94EF2908958B
:105270000E94D42988F09F5798F0B92F9927B751E9
:10528000B0F0E1F0660F771F881F991F1AF0BA95EA
:10529000C9F714C0B13091F00E94EE29B1E0089531
:1052A0000C94EE29672F782F8827B85F39F0B93F23
:1052B000CCF3869577956795B395D9F73EF490959D
:1052C0008095709561957F4F8F4F9F4F0895E8941B
:1052D00009C097FB3EF490958095709561957F4F3E
:1052E0008F4F9F4F9923A9F0F92F96E9BB279395EC
:1052F000F695879577956795B795F111F8CFFAF4FC
:10530000BB0F11F460FF1BC06F5F7F4F8F4F9F4F2C
:1053100016C0882311F096E911C0772321F09EE88A
:10532000872F762F05C0662371F096E8862F70E0F0
:1053300060E02AF09A95660F771F881FDAF7880FCA
:105340009695879597F9089597F99F6780E870E09B
:1053500060E008959FEF80EC089500240A941616EB
:10536000170618060906089500240A941216130653
:10537000140605060895092E0394000C11F48823E1
:1053800052F0BB0F40F4BF2B11F460FF04C06F5FFD
:105390007F4F8F4F9F4F089557FD9058440F551FD3
:1053A00059F05F3F71F04795880F97FB991F61F0A7
:1053B0009F3F79F087950895121613061406551F1E
:1053C000F2CF4695F1DF08C0161617061806991F8A
:1053D000F1CF86957105610508940895E894BB277F
:1053E00066277727CB0197F908950E94672A08F46A
:1053F0008FEF08950E940D2A0C94BB290E94AD29BD
:1054000038F00E94B42920F0952311F00C94A429BF
:105410000C94AA2911240C94EF290E94CC2970F332
:10542000959FC1F3950F50E0551F629FF001729F49
:10543000BB27F00DB11D639FAA27F00DB11DAA1F58
:10544000649F6627B00DA11D661F829F2227B00DA5
:10545000A11D621F739FB00DA11D621F839FA00D30
:10546000611D221F749F3327A00D611D231F849F80
:10547000600D211D822F762F6A2F11249F575040D7
:105480009AF0F1F088234AF0EE0FFF1FBB1F661F52
:10549000771F881F91505040A9F79E3F510580F01B
:1054A0000C94A4290C94EF295F3FE4F3983ED4F3C5
:1054B000869577956795B795F795E7959F5FC1F7BF
:1054C000FE2B880F911D9695879597F90895990F52
:1054D0000008550FAA0BE0E8FEEF16161706E807BE
:1054E000F907C0F012161306E407F50798F0621BDF
:1054F000730B840B950B39F40A2661F0232B242BB4
:10550000252B21F408950A2609F4A140A6958FEFD2
:10551000811D811D0895DB018F939F930E94D42AE2
:10552000BF91AF91A29F800D911DA39F900DB29F3F
:10553000900D1124089597FB072E16F4009407D0C0
:1055400077FD09D00E941E2B07FC05D03EF49095F4
:1055500081959F4F0895709561957F4F0895052E11
:1055600097FB1EF400940E94C62A57FD07D00E94A4
:10557000322B07FC03D04EF40C94C62A509540956C
:10558000309521953F4F4F4F5F4F089590958095EF
:10559000709561957F4F8F4F9F4F0895EE0FFF1FBE
:1055A0000590F491E02D09940E94542BA59F900D35
:1055B000B49F900DA49F800D911D11240895B7FFF5
:1055C0000C94D42A0E94D42A821B930B08952F9204
:1055D0003F924F925F926F927F928F929F92AF9283
:1055E000BF92CF92DF92EF92FF920F931F93CF93D0
:1055F000DF93CDB7DEB7CA1BDB0B0FB6F894DEBF67
:105600000FBECDBF09942A88398848885F846E848C
:105610007D848C849B84AA84B984C884DF80EE80D6
:10562000FD800C811B81AA81B981CE0FD11D0FB6DF
:10563000F894DEBF0FBECDBFED010895AA1BBB1BC2
:1056400051E107C0AA1FBB1FA617B70710F0A61B82
:10565000B70B881F991F5A95A9F780959095BC01A3
:10566000CD010895A1E21A2EAA1BBB1BFD010DC09E
:10567000AA1FBB1FEE1FFF1FA217B307E407F50702
:1056800020F0A21BB30BE40BF50B661F771F881FDE
:10569000991F1A9469F760957095809590959B0174
:1056A000AC01BD01CF010895A29FB001B39FC0011D
:1056B000A39F700D811D1124911DB29F700D811D3E
:1056C0001124911D089516E0CFE1D6E004C0FE013B
:1056D0000E94CE2A2196C032D107C9F7F894FFCF95
:1056E000E8030000190000005705200000400000FA
:1056F000000000000000000000000000004000006A
:105700000000000000000000000000000040000059
:105710000040000000000000000000000000000049
:105720000040000000000000000000000000000039
:105730000040000000000000330E4A06BC0E800E40
:10574000A00E750E444542554720596F752073656C
:105750006E74203A20004445425547206C617365C1
:1057600072436F6D6D616E64203D2000504C414E60
:1057700045004255494C44494E470042494B45007B
:105780004C4153455253484F5700434F554E544494
:105790004F574E00434952434C45494E5351554192
:1057A0005245004445425547204C61736572206D57
:1057B0006F64652073657420746F20002073656CBE
:1057C0006563746564004445425547204C617365C8
:1057D0007220004445425547204C61736572206930
:1057E0006E74657276616C2073657420746F20002E
:1057F0004445425547204C61736572204D6F646586
:1058000020002053697A652000204C656E6774681B
:105810002000204D7367200020416E696D6174691E
:105820006F6E2000444542554720696E20647261C6
:10583000775363726F6C6C6572202D206D617843B5
:10584000686172206C696D6974656420746F2039B9
:10585000392077617320004C415345520044454242
:105860005547206C6173657253697A65203D20004D
:10587000416E696D6174696F6E004D61727175651D
:10588000650050726573656E74730053746174695A
:10589000630032204C696E65004D65726765004893
:1058A0006F72697A6F6E74616C205370696E005606
:1058B0006572746963616C205370696E004F66662F
:1058C00000496E74657276616C00556E6B6E6F7711
:1058D0006E004348454C54454E48414D202D2031E3
:1058E0003743202D2057494E4459004F4646004C1F
:1058F000455454455245464645435400505245533D
:10590000454E54530041524455494E4F0057454C63
:105910004F56450041524455494E4F3244524F5420
:10592000415445005748415441424F555433440077
:10593000524F544154454355424500474C4F424510
:105940000041524455494E4F3344004F424A45436B
:105950005453004A554D50494E4754455854000041
:00000001FF
