:100000000C94E2040C940A050C940A050C940A055D
:100010000C940A050C940A050C940A050C940A0524
:100020000C940A050C940A050C940A050C940A0514
:100030000C940A050C940A050C940A050C940A0504
:100040000C94D20F0C940A050C94A2100C94700D11
:100050000C940A050C940A050C940A050C940A05E4
:100060000C940A050C940A05F317091809180918C5
:100070000918091809180918091809180918091878
:10008000091801180918AD17B417BB17C217C917FB
:10009000D017D717DE17E517EC1709180918091834
:1000A00009180918FA170918E316EA16F116F816CE
:1000B000FF1606170D17141721172E1735173C17A3
:1000C00043174A17511758175F1766176D1774179C
:1000D0007B178217091898179F17A6177C02D7005D
:1000E0007082C7003082CE00EB81D700EB81D80050
:1000F000EA81D800EF81DB00FC81DF007C82D70041
:10010000B303260098830E008683070007830C0044
:10011000C4811800B18111009E810C00758103001B
:1001200051810000FF800500C5801900E1801C009E
:10013000ED802700EE802B00EF802E00E68043004C
:10014000CC804F00B1804F00A18040009E803600DF
:10015000A2802D009C80330095803F00B280650016
:100160000F818E003F81BD007281CB00B181C5003F
:10017000FC81BB003882B4006382B2008382D90064
:10018000C3824B01CF824B01D8824A01DF824801F2
:10019000E8824501CF82D2007283C2006E83BD0027
:1001A0006783B9003483B900C782BD00BA828F006B
:1001B000A5827C0083825F006E82510050824100E4
:1001C000B3832600E8008500D6807E00BC807300E3
:1001D000AF806A009D805C00598083000280B3007C
:1001E0000080B5000080B6001180BD004580C200CF
:1001F000E8808500DE002B00D4802000B4801C0045
:10020000A7801F00A2802700AB803C00C580420071
:10021000D8803B00DE802B00DE802B00EA017600D8
:10022000DF81A500B681AB00C9817100EA8176004B
:10023000BB016F00AA81AB00A4816B00BB816F0082
:10024000A001AD007B81B7005B81BB005081BA008B
:100250004781B9003381AB0019818D002E818C005C
:100260004E81880072817E0098816F00A081AD0070
:100270001D015F00EE802F001D8100004D812F00C9
:100280001D815F000000F902008029032F80880390
:100290005F80B803BE80E8037C81E803DC81B8039B
:1002A0000B8288033B8229033B82CA020B826B02CA
:1002B000DC813B021D81DC011D814D011D015F00C0
:1002C000EE802F001D8100004D812F001D815F00F9
:1002D0002F00E8032F804D012F005F0000802F00CA
:1002E0002F8000005F802F002F805F006B029A023A
:1002F0003B820B02DC81AC014D817C011D817C01C4
:100300008E80AC012F800B0200809A020080CA020E
:100310002F8059038E80B8031D81E8034D81E803C7
:10032000DC81B8033B8259036B829A026B82AC0179
:100330003B82BE00DC812F004D810000EE8000007A
:100340005F802F002F808E00EE00E8035F80B803EF
:100350002F8059032F80F9025F809A02BE806B02C2
:100360007C813B020B820B026B82AC019A824D01B5
:100370009A82BE006B825F003B822F00AC8100003E
:10038000EE8000005F802F002F805F000080BE00A5
:1003900000804D012F80AC018E800B021D813B023D
:1003A000DC816B023B829A026B82F9026B825903F9
:1003B0003B82B803AC81E803EE80E8039A02E803CD
:1003C000BE8000000000E8039A82E8033B02590364
:1003D0000B82B8037C81E8031D81E8038E80B8039B
:1003E0002F80290300803B0200804D012F808E006A
:1003F0008E802F001D8100004D810000DC812F00C8
:100400003B828E006B821D016B824D013B82DC01C1
:10041000DC813B024D816B021D816B028E803B02B1
:100420002F80DC0100804D013B02E8035F80E80380
:100430002F803B025F806B02EE809A027C819A02E1
:100440000B826B026B820B029A827C019A821D01E5
:100450006B828E000B822F007C810000EE800000FA
:100460005F802F002F805F000080BE00DC01E8036A
:1004700000804D01CA824D01DC01E803DC810000EF
:100480005F00E8036B82E8034D816B02DC816B0245
:100490003B823B026B820B029A827C019A821D0195
:1004A0006B828E000B822F007C810000EE800000AA
:1004B0005F802F002F805F000080BE002F00F902B8
:1004C0002F8029035F8088038E80B803EE80E803C5
:1004D000AC81E8030B82B8033B8288036B8229035B
:1004E0006B82CA023B826B02DC81DC01008000006F
:1004F0009A820000000029035F805903EE80E80320
:10050000EE8000001D01E8038E80B8032F802903D0
:1005100000803B020080AC012F80BE008E802F0047
:100520001D8100007C8100000B822F006B82BE00C9
:100530009A82AC019A823B026B8229030B82B80338
:100540007C81E8031D81E8039A02E8030080000033
:100550000000E8039A82E803000000009A8200008D
:100560000000E8037C810B027C810000F902E803B3
:100570007C810B020000E8039A8200009A02E803E3
:10058000008000000000E803EE800000DC01E803CA
:10059000EE800000DC01E803CA820000B803E80333
:1005A000CA8200000000E8037C810000F902E80331
:1005B0007C8100000000E80300801D012F808E0078
:1005C0008E802F001D8100007C8100000B822F0097
:1005D0006B828E009A821D019A82E8034D01E80326
:1005E0004D8100000000E8039A82E8039A02590353
:1005F0003B82B803AC81E803EE80E8035F80B80378
:10060000008059030080F9022F809A025F806B02FC
:10061000BE803B02DC81DC013B82AC016B827C0151
:100620009A821D019A828E003B822F00AC810000CD
:10063000EE8000005F802F0000808E000000E80345
:10064000008000000000E803AC81E8033B82B803AF
:100650006B8288039A8229039A82CA026B826B0298
:100660003B823B02AC810B0200800B024D010B026E
:100670009A8200001D014704BE8017045F80B80302
:100680002F8059030080CA020080DC012F804D01B9
:100690005F80EE00BE808E001D815F00DC815F0008
:1006A0003B828E009A82EE00CA824D01F982DC0103
:1006B000F982CA02CA8259039A82B8033B8217049C
:1006C000DC8147041D814704AC011D01CA82000082
:1006D0000000E803008000000000E803AC81E803AC
:1006E0003B82B8036B8288039A8229039A829A021A
:1006F0006B823B023B820B02AC81DC010080DC019F
:100700001D01E803BE80B8035F8059032F80F90202
:1007100000806B0200807C012F80EE005F808E00E5
:10072000BE802F001D810000DC8100003B822F0075
:100730009A828E00CA82EE00F9827C01F9826B02F5
:10074000CA82F9029A8259033B82B803DC81E8032A
:100750001D81E8030000E803008000000000E803BA
:100760009A8200009A02E8039A8200000000E803DF
:10077000008000000000E8037C810000F902E8032B
:100780007C810000F902E803F98200000000E80320
:10079000008000003B8200000000E80300800000B1
:1007A0009A02E80300804D01EE003B029A820000AD
:1007B000DC01E803DC81EE00AC815F007C812F006E
:1007C0001D810000BE8000005F802F002F805F0031
:1007D0000080EE0000804D010000E8030080000072
:1007E0000000E803008000009A02E8039A820000FB
:1007F00000000B029A820B02CA02F9029A82590384
:100800003B82B803DC81E8031D81E803BE80B803A6
:100810005F8059032F80F90200806B0200807C0109
:100820002F80EE005F808E00BE802F001D810000B3
:10083000DC8100003B822F009A828E00CA82EE008B
:10084000CA827C01DC017C01CA827C010000E803D1
:10085000008000000000E8036B82E80300000B0248
:100860007C810B020000E803008000000000E80328
:100870006B82E80300000B027C810B020000000089
:100880006B8200000000E803008000000000E80325
:100890004D81E803DC81B8033B8259036B82F90286
:1008A0009A826B029A827C016B82EE003B828E0000
:1008B000DC812F004D81000000800000CA02F90297
:1008C0009A8259033B82B803DC81E8031D81E80367
:1008D000BE80B8035F8059032F80F90200806B024D
:1008E00000807C012F80EE005F808E00BE802F0094
:1008F0001D810000DC8100003B822F009A828E0067
:10090000CA82EE000000E803008000000000E80357
:10091000AC81E8033B82B8036B8288039A82290387
:100920009A82CA026B826B023B823B02AC810B0251
:1009300000000B02AC810B023B82DC016B82AC013C
:100940009A824D019A82BE006B825F003B822F002B
:10095000AC810000008000007C01E8030080000002
:100960007C01E803F98200008E004D016B824D018D
:1009700000000000250028002B00000000002400DB
:1009800027002A00040404040404040402020202EE
:100990000202030303030303010204081020408042
:1009A00001020408102001020408102000000007C2
:1009B0000002010000030406000000000000000027
:1009C00063198A1A11241FBECFEFD8E0DEBFCDBF56
:1009D00013E0A0E0B1E0ECEAF0E402C005900D9273
:1009E000A831B107D9F724E0A8E1B3E001C01D9216
:1009F000A83EB207E1F714E0C1EED4E004C02197AD
:100A0000FE010E94C81FC03ED107C9F70E94DC103A
:100A10000C94CB1A0C9400002A989EBD0DB407FECE
:100A2000FDCF9EB58EBD0DB407FEFDCF8EB52A9AC3
:100A30000895CF93DF93EB01409138035091390330
:100A400021E030E0042E02C0220F331F0A94E2F7A7
:100A5000215031092817390708F4C9012CE030E08A
:100A6000241B350B02C0880F991F2A95E2F72091AD
:100A70002F03309130032227307F822B932B9093CA
:100A8000300380932F030E940C054091380350914E
:100A9000390381E090E0042E02C0880F991F0A9468
:100AA000E2F70197C817D90708F4CE012CE030E02F
:100AB000241B350B02C0880F991F2A95E2F720915D
:100AC0003103309132032227307F822B932B909376
:100AD0003203809331030E940C0580913A038823EE
:100AE00049F0809136039091370397FD03C05F98DA
:100AF00000005F9ADF91CF910895CF92DF92EF923D
:100B0000FF92C0904D04D0904E04E0904F04F090BE
:100B100050046C157D058E059F0584F0C09055042A
:100B2000D0905604E0905704F0905804C616D706AB
:100B3000E806F90634F482E090E005C081E090E038
:100B400002C080E090E0C0905104D0905204E09048
:100B50005304F09054042C153D054E055F0514F424
:100B600084600EC0C0905904D0905A04E0905B0499
:100B7000F0905C04C216D306E406F5060CF4886017
:100B8000FF90EF90DF90CF90089508950F931F93FB
:100B9000CF93DF93FC01A685B7858D01005C1F4FC5
:100BA000E8018881998101968F739927AD014E5B89
:100BB0005F4FEA012881398182179307D1F3E80159
:100BC00028813981A20FB31F6C93A685B785A05CDD
:100BD000BF4F11969C938E93A689B7892C9181E083
:100BE00090E0078C02C0880F991F0A94E2F7822BCD
:100BF0008C9381E081A30488F589E02D8081806455
:100C0000808381E090E0DF91CF911F910F91089553
:100C1000FC0181A1882329F0A489B5898C9186FFE4
:100C2000FBCF11A20895FC01A485B585FD01E05C10
:100C3000FF4F2081318132968081918128173907B9
:100C400079F080819181A80FB91F8C912081318129
:100C50002F5F3F4F2F7333273183208390E0089518
:100C60008FEF9FEF0895DC011C96ED91FC911D978D
:100C7000DF01A05CBF4F2D913C91119712968D9191
:100C80009C9111972817390739F08D919C91E80FA5
:100C9000F91F808190E008958FEF9FEF0895FC0188
:100CA00024853585F901E05CFF4F80819181329682
:100CB00020813181821B930B8F7399270895809136
:100CC000260490912704892B69F08AEC97E001971C
:100CD000F1F7109227041092260460E08091180426
:100CE0000C94610F08952F923F924F925F926F92F2
:100CF0007F928F929F92AF92BF92CF92DF92EF92AC
:100D0000FF920F931F93CF93DF93CDB7DEB7A097DA
:100D10000FB6F894DEBF0FBECDBF69877A878B8789
:100D20009C872D873E874F87588B80911E0490911A
:100D30001F04A0912004B091210489849A84AB847B
:100D4000BC84881A990AAA0ABB0A8091220490914D
:100D50002304A0912404B091250429013A01481AE2
:100D6000590A6A0A7B0A89829A82AB82BC82B7FEE0
:100D70000BC022273327A901281939094A095B0921
:100D800029833A834B835C8380911A0490911B04DE
:100D9000A0911C04B0911D048D839E83AF83B887FE
:100DA00029813A814B815C81BC01CD010E94991F50
:100DB0006B017C01A0E2DA0EE11CF11CA701960197
:100DC0000EE055954795379527950A95D1F7298BCC
:100DD0003A8B4B8B5C8B7301620177FE07C0CC248E
:100DE000DD247601C418D508E608F708A7019601A6
:100DF0006D817E818F8198850E94991FDC01CB01D6
:100E0000905EAF4FBF4F1EE0B595A795979587951C
:100E10001A95D1F72091340430913504409136046D
:100E2000509137042D8B3E8B4F8B588F29813A81FF
:100E30004B815C81C20ED31EE41EF51E2D893E89B6
:100E40004F89588DC20ED31EE41EF51EC092340485
:100E5000D0923504E0923604F0923704C988DA88DB
:100E6000EB88FC88C816D906EA06FB0614F46C0168
:100E70007D01C501B401EEE0660F771F881F991F41
:100E8000EA95D1F7FEE0440C551C661C771CFA95D8
:100E9000D1F7A70196010E94A91F298B3A8B4B8B92
:100EA0005C8BC301B201A70196010E94A91F298F83
:100EB0003A8F4B8F5C8F812CA0E29A2EA12CB12C03
:100EC00020E030E240E050E029833A834B835C83AA
:100ED0001D821E821F821886A701960121503109AA
:100EE000410951092D8F3E8F4F8F58A322242A94F8
:100EF000BFE03B2E2D813E814F8158858D8D9E8D8B
:100F0000AF8DB8A1281739074A075B070CF0C6C098
:100F1000009138041091390420913A0430913B0437
:100F20000F3F4FEF14072407340709F46CC080917A
:100F30003C04811168C049805A806B807C805EE0EF
:100F400075946794579447945A95D1F77501640145
:100F50006EE0F594E794D794C7946A95D1F7B301FE
:100F6000A20177FE07C044275527BA014419550945
:100F7000660977098D899E89AF89B88D480F591FF9
:100F80006A1F7B1FD701C601F7FE07C08827992774
:100F9000DC018C199D09AE09BF09840F951FA61F9E
:100FA000B71F081719072A073B076CF50E945F0651
:100FB00091E090933C0480911E0490911F04A091B5
:100FC0002004B0912104480E591E6A1E7B1E4092D7
:100FD0003D0450923E0460923F0470924004809120
:100FE000220490912304A0912404B0912504C80EFA
:100FF000D91EEA1EFB1EC0924104D0924204E09228
:101000004304F0924404298D3A8D4B8D5C8D820E01
:10101000931EA41EB51E29813A814B815C8189896A
:101020009A89AB89BC89280F391F4A1F5B1F298306
:101030003A834B835C83DA01C9012EE0B595A7950D
:10104000979587952A95D1F720911E0430911F041A
:10105000820F931FB101681B790B950184014EE04B
:1010600035952795179507954A95D1F780912204D4
:1010700090912304080F191FC101801B910B0E943E
:1010800019052D813E814F8158852F5F3F4F4F4F6E
:101090005F4F2D833E834F8358872CCF80913C0434
:1010A000811138C08091380490913904A0913A049C
:1010B000B0913B048F3FEFEF9E07AE07BE0751F1A3
:1010C0004091340450913504609136047091370496
:1010D00084179507A607B707ECF40E945F0681E026
:1010E00080933C0429853A854B855C8520933D049B
:1010F00030933E0440933F04509340048D859E8579
:10110000AF85B8898093410490934204A09343042F
:10111000B093440429853A854B855C8520931E0451
:1011200030931F0440932004509321048D859E85A5
:10113000AF85B8898093220490932304A09324045C
:10114000B09325048FEF9FE0BC01621B730BAD854C
:10115000BE858A1B9B0B0E9419058EE090E00197CB
:10116000F1F7A0960FB6F894DEBF0FBECDBFDF91AA
:10117000CF911F910F91FF90EF90DF90CF90BF9094
:10118000AF909F908F907F906F905F904F903F9027
:101190002F9008951F93CF93DF9300D0CDB7DEB784
:1011A0008FE793E00E944F06892BE1F011E08FE773
:1011B00093E00E944F06892BA9F08FE793E00E94ED
:1011C00013068A3019F410932A03F1CF89831A8207
:1011D00041E050E0BE016F5F7F4F8DE894E00E94D8
:1011E000420EE5CF0F900F90DF91CF911F910895A0
:1011F00090E0FC01E856F64F2491FC01EC57F64FC5
:101200008491882399F090E0880F991FFC01E6589B
:10121000F64FA591B491FC01E059F64F8591949158
:101220008FB7F894EC91E22BEC938FBF08952F9237
:101230003F924F925F926F927F928F929F92AF9266
:10124000BF92CF92DF92EF92FF920F931F93CF93B3
:10125000DF93CDB7DEB7E6970FB6F894DEBF0FBECB
:10126000CDBF9E8F8D8F78AB6FA729AB3AAB4BABC1
:101270005CAB8FA598A9181619060CF078C3ED8DF4
:10128000FE8D05911491ED8DFE8D3296C590D49012
:101290002D8D3E8D2C5F3F4F3E8F2D8F4FA558A932
:1012A0004150510958AB4FA717FF19C08091260430
:1012B00090912704892BA9F480913C04811111C0DD
:1012C0008AEC97E00197F1F761E070E070932704F2
:1012D00060932604809118040E94610F02C00E944E
:1012E0005F061F7749A85AA86BA87CA8400E511E1C
:1012F000611C711C80915D04811103C0E12CF12CF3
:10130000C3C0C201550CAA0BBB0B8D839E83AF8358
:10131000B8870D2C000CEE08FF0820918204309154
:101320008304409184045091850429833A834B833C
:101330005C83609166047091670480916804909169
:1013400069042D813E814F8158850E94991F4B0170
:101350005C016091720470917304809174049091A7
:101360007504A70196010E94991F860E971EA81E5C
:10137000B91E4EE0B594A794979487944A95D1F7F7
:10138000092C000CAA08BB0849815A816B817C8119
:10139000840E951EA61EB71E60915E0470915F04B8
:1013A00080916004909161042D813E814F81588528
:1013B0000E94991F2B013C0160916A0470916B049B
:1013C00080916C0490916D04A70196010E94991F71
:1013D000460E571E681E791E5EE0759467945794FA
:1013E00047945A95D1F7D20129813A814B815C818A
:1013F0000E94D91FA50194010E94A91F29013A0149
:1014000068E0560E611C711C609162047091630467
:1014100080916404909165042D813E814F815885AF
:101420000E94991F6D837E838F83988760916E04DD
:1014300070916F048091700490917104A7019601DE
:101440000E94991F2D813E814F815885260F371F9D
:10145000481F591FDA01C9016EE0B595A795979508
:1014600087956A95D1F7DC0129813A814B815C81AE
:101470000E94D91FA50194010E94A91F69017A0148
:1014800068E0D60EE11CF11C80902804909029049D
:10149000A0902A04B0902B04A3019201C501B401CD
:1014A0000E94991FDC01CB01905EAF4FBF4F2EE031
:1014B000B595A795979587952A95D1F700912C0416
:1014C00010912D0420912E0430912F04AC01BD0108
:1014D000400F511F621F731F4F8F58A369A37AA338
:1014E000A7019601C501B4010E94991FDC01CB013F
:1014F000905EAF4FBF4F3EE0B595A7959795879506
:101500003A95D1F7009130041091310420913204C2
:1015100030913304AC01BD01400F511F621F731F96
:101520004BA35CA36DA37EA3609145047091460418
:1015300080914704909148046FA378A789A79AA740
:101540008091490490914A04A0914B04B0914C04BD
:101550008BA79CA7ADA7BEA79C01AD016FA178A5E5
:1015600089A59AA50E947D059EAB8DAB2BA13CA1C0
:101570004DA15EA16F8D78A189A19AA10E947D05E0
:101580008C012091590430915A0440915B04509190
:101590005C042D873E874F87588B409151045091B2
:1015A00052046091530470915404498B5A8B6B8B95
:1015B0007C8B6091550470915604809157049091F2
:1015C00058046D8B7E8B8F8B988F80914D049091FA
:1015D0004E04A0914F04B0915004898F9A8FAB8F25
:1015E000BC8F2BA53CA54DA55EA529833A834B83D3
:1015F0005C83CFA0D8A4E9A4FAA44BA15CA16DA1FF
:101600007EA14D835E836F8378876F8D78A189A1DA
:101610009AA169877A878B879C87412C512C612CF2
:10162000712C812C912CA12CB12C8DA99EA9802BE1
:10163000912B892B09F461C18DA99EA98023912347
:10164000892B09F07BC18DA99EA9892B11F4180162
:1016500002C02DA83EA823FE4BC0C701B6010E94C0
:10166000771E4B015C0169857A858B859C856C1999
:101670007D098E099F090E94771E2B013C016D8513
:101680007E858F85988929813A814B815C81621B97
:10169000730B840B950B0E94771E9B01AC01C30159
:1016A000B2010E94081F2B013C016D817E818F8158
:1016B000988529813A814B815C81621B730B840B75
:1016C000950B0E94771E9B01AC01C301B2010E94E1
:1016D000CD1D9B01AC01C501B4010E94611D0E949A
:1016E0003F1E4B015C014D845E846F847888E2C0AC
:1016F00022FE4BC0C701B6010E94771E4B015C0160
:1017000069857A858B859C856C197D098E099F0971
:101710000E94771E2B013C0169897A898B899C89FB
:1017200029813A814B815C81621B730B840B950B81
:101730000E94771E9B01AC01C301B2010E94081FE9
:101740002B013C016D817E818F81988529813A81B1
:101750004B815C81621B730B840B950B0E94771E7F
:101760009B01AC01C301B2010E94CD1D9B01AC01E4
:10177000C501B4010E94611D0E943F1E4B015C0126
:1017800049885A886B887C8895C021FE49C0698148
:101790007A818B819C810E94771E4B015C016D8157
:1017A0007E818F81988529813A814B815C81621B82
:1017B000730B840B950B0E94771E2B013C016D89E6
:1017C0007E898F89988D6C197D098E099F090E94E9
:1017D000771E9B01AC01C301B2010E94081F2B01BF
:1017E0003C0169857A858B859C856C197D098E09FC
:1017F0009F090E94771E9B01AC01C301B2010E94A8
:10180000CD1D9B01AC01C501B4010E94611D0E9468
:101810003F1E2B013C018D889E88AF88B88C4AC042
:1018200020FE48C069817A818B819C810E94771E4D
:101830004B015C016D817E818F81988529813A8180
:101840004B815C81621B730B840B950B0E94771E8E
:101850002B013C01698D7A8D8B8D9C8D6C197D09D6
:101860008E099F090E94771E9B01AC01C301B20142
:101870000E94081F2B013C0169857A858B859C8518
:101880006C197D098E099F090E94771E9B01AC018E
:10189000C301B2010E94CD1D9B01AC01C501B40181
:1018A0000E94611D0E943F1E2B013C01898C9A8C75
:1018B000AB8CBC8C4DA95EA992012416350671F43F
:1018C000A301B401C5010E947D059EAB8DAB498289
:1018D0005A826B827C8264017501A7CEA301B40198
:1018E000C5010E947D058C014D825E826F827886E3
:1018F00089869A86AB86BC8698CE2FA138A549A545
:101900005AA5C216D306E406F50609F04AC0698155
:101910007A818B819C812BA53CA54DA55EA5621784
:10192000730784079507E9F52D813E814F8158851E
:1019300069857A858B859C850E9473064F8D58A199
:1019400069A17AA1409345045093460460934704EB
:10195000709348046BA17CA18DA19EA16093490462
:1019600070934A0480934B0490934C0482CCE69687
:101970000FB6F894DEBF0FBECDBFDF91CF911F91A0
:101980000F91FF90EF90DF90CF90BF90AF909F901E
:101990008F907F906F905F904F903F902F900C941E
:1019A0005F0629813A814B815C81C701B6010E94A3
:1019B0007306BACFEF92FF920F931F93CF93DF93EB
:1019C0007C0100E010E0C0E0D0E0F7018481958167
:1019D000E0917F03F09180030190F081E02D0817E2
:1019E0001907A0F4D7012D913C912115310529F05B
:1019F000D901A00FB11F6C9101C060E08FE793E0A7
:101A00000995C80FD91F0F5F1F4FDFCF6DE08FE71C
:101A100093E009958C01E0917F03F09180030190A0
:101A2000F081E02D6AE08FE793E00995C00FD11FA8
:101A30008C0F9D1FDF91CF911F910F91FF90EF9021
:101A40000895DF92EF92FF920F931F93CF93DF934E
:101A50007C018B01EA014617570720F4812F8A0188
:101A6000C62FD82F61E571E0C7010E944B0F80910E
:101A700091049091920480179107E0F08C179D07D4
:101A800008F4EC01E0918D04F0918E04EC0FFD1F41
:101A9000D080108260918D0470918E04600F711F50
:101AA000C7010E94BD0EE0918D04F0918E04EC0FF1
:101AB000FD1FD082C701DF91CF911F910F91FF9041
:101AC000EF90DF900895CF93DF93EC014091910464
:101AD000509192040E94210DCE01DF91CF91089583
:101AE0001F920F920FB60F9211242F933F938F9353
:101AF0009F93EF93FF932091DB043091DC0480915E
:101B0000DD049091DE042817390731F48091C1007B
:101B10008F7D8093C10014C0E091DD04F091DE045C
:101B2000E556FB4F20818091DD049091DE04019603
:101B30008F7399279093DE048093DD042093C60071
:101B4000FF91EF919F918F913F912F910F900FBE39
:101B50000F901F901895CF92DF92EF92FF920F9304
:101B60001F93CF93DF936C01EB017B01E40EF51E15
:101B700000E010E0CE15DF0561F06991D601ED912E
:101B8000FC910190F081E02DC6010995080F191F05
:101B9000F1CFC801DF91CF911F910F91FF90EF908E
:101BA000DF90CF900895CF93DF93EC0188819981E6
:101BB000009711F00E94E51B198218821D821C8279
:101BC0001B821A82DF91CF9108950F931F93CF93B9
:101BD000DF938C01EB01FC0180819181009799F0EA
:101BE000428153812C813D814217530750F0688117
:101BF00079810E94591D8C819D81F8019583848390
:101C000013C00E94E51B88819981F801918380832C
:101C10008A819B81938382838C819D819583848338
:101C2000198218821B821A821D821C82DF91CF9139
:101C30001F910F9108950F931F93CF93DF93EC01A2
:101C400088819981009729F02A813B8126173707DF
:101C500088F48B016F5F7F4F0E947D1C009761F0BD
:101C6000998388831B830A832C813D81232B11F464
:101C7000FC01108281E001C080E0DF91CF911F91D3
:101C80000F910895EF92FF920F931F93CF93DF93DD
:101C9000FC01248135816115710511F480E019C0C2
:101CA00041155105A9F07B01EC018A01020F131FB8
:101CB000B8010E941B0E882389F3288139818C8109
:101CC0009D81B701820F931F0E94591D1D830C83B4
:101CD00081E0DF91CF911F910F91FF90EF900895D8
:101CE000CF93DF93EC016115710561F0FB01019069
:101CF0000020E9F73197AF01461B570B0E94420EB7
:101D0000811103C0CE010E94D30DCE01DF91CF918E
:101D10000895CF93DF93EC01FB01448155816081ED
:101D200071810E94420E811103C0CE010E94D30D29
:101D3000CE01DF91CF910895EF92FF920F931F9301
:101D4000CF93DF93EC017B018A01BA010E941B0E45
:101D5000811104C0CE010E94D30D07C01D830C83E6
:101D6000B701888199810E94591DCE01DF91CF91E1
:101D70001F910F91FF90EF900895CF93DF93EC01A7
:101D80006115710559F0FB0101900020E9F73197C9
:101D9000AF01461B570B0E949C0E02C00E94D30D40
:101DA000CE01DF91CF910895CF93DF93EC01FB013A
:101DB0008617970761F0608171816115710529F0BF
:101DC000448155810E949C0E02C00E94D30DCE0119
:101DD000DF91CF910895FC01808191810C94E51BE6
:101DE0000F931F93CF93DF93CDB7DEB7A1970FB6B5
:101DF000F894DEBF0FBECDBF8C01CB01BA01F80154
:101E0000118210821382128215821482168230E0AF
:101E1000AE014F5F5F4F0E94F91ABE016F5F7F4FA7
:101E2000C8010E94BD0EA1960FB6F894DEBF0FBE8A
:101E3000CDBFDF91CF911F910F9108950F931F9305
:101E4000CF93DF93CDB7DEB762970FB6F894DEBFBE
:101E50000FBECDBF8C01CB01F8011182108213821D
:101E6000128215821482168250E0BE016F5F7F4F8E
:101E70000E94CE1ABE016F5F7F4FC8010E94BD0E47
:101E800062960FB6F894DEBF0FBECDBFDF91CF9143
:101E90001F910F910895FC0111821082138212820A
:101EA0001582148216826115710551F0FB010190B3
:101EB0000020E9F73197AF01461B570B0C949C0E9D
:101EC000089590E0FC01E455F64F3491FC01E8568A
:101ED000F64F2491FC01EC57F64FE491EE2309F400
:101EE0003BC0332339F1333091F038F43130A9F06D
:101EF000323001F584B58F7D12C0363091F0373025
:101F0000A1F03430B9F4809180008F7D03C08091BE
:101F100080008F77809380000DC084B58F7784BD5B
:101F200009C08091B0008F7703C08091B0008F7D91
:101F30008093B000F0E0EE0FFF1FE059F64FA5913F
:101F4000B4918FB7F894EC91611103C020952E23C2
:101F500001C02E2B2C938FBF08953FB7F89480912A
:101F6000E0049091E104A091E204B091E30426B56D
:101F7000A89B05C02F3F19F00196A11DB11D3FBFC1
:101F8000BA2FA92F982F8827820F911DA11DB11D4F
:101F9000BC01CD0142E0660F771F881F991F4A954B
:101FA000D1F708951F920F920FB60F9211242F931D
:101FB0003F938F939F93AF93BF9380911A03909118
:101FC0001B03A0911C03B0911D033091DF0423E09B
:101FD000230F2D3720F40196A11DB11D05C026E861
:101FE000230F0296A11DB11D2093DF0480931A03D5
:101FF00090931B03A0931C03B0931D038091E004F6
:102000009091E104A091E204B091E3040196A11D36
:10201000B11D8093E0049093E104A093E204B09397
:10202000E304BF91AF919F918F913F912F910F90BA
:102030000FBE0F901F901895CF93DF93CDB7DEB7EB
:102040002E970FB6F894DEBF0FBECDBF43E050E031
:1020500061E070E0CE0101960E94210D89819A8194
:10206000009719F00E94A41A03C060E070E0CB0151
:102070007093050160930401CE0101960E94EB0E5E
:1020800060910401709105014AE0CE0108960E941A
:102090001E0F6DEC72E0CE0101960E944B0FBE0147
:1020A000685F7F4FCE0101960E94890E0E94DA0C74
:1020B000CE0101960E94EB0ECE0108960E94EB0E17
:1020C0002E960FB6F894DEBF0FBECDBFDF91CF9135
:1020D0000895CF93DF93EC0161E571E00E944B0F0F
:1020E000809118039091190389349105F9F04CF40B
:1020F0008134910591F086349105D9F469EF72E04D
:102100001AC08335910561F08835910561F08D34F1
:10211000910579F46AEE72E00EC060EE72E00BC0D9
:1021200062EF72E008C062E073E005C066E073E051
:1021300002C06FE073E0CE010E94BD0ECE01DF91C0
:10214000CF9108951F920F920FB60F9211242F93E3
:102150004F935F938F939F93EF93FF938091C00072
:1021600082FD1CC02091C60080917B0390917C036E
:1021700001968F73992740917D0350917E038417B8
:10218000950771F0E0917B03F0917C03E55CFC4FD7
:10219000208390937C0380937B0302C08091C600D0
:1021A000FF91EF919F918F915F914F912F910F90A0
:1021B0000FBE0F901F901895CF93DF93CDB7DEB76A
:1021C000C559D1090FB6F894DEBF0FBECDBF7894C4
:1021D00084B5826084BD84B5816084BD85B582602C
:1021E00085BD85B5816085BD80916E0081608093DD
:1021F0006E00109281008091810082608093810046
:102200008091810081608093810080918000816055
:10221000809380008091B10084608093B1008091B0
:10222000B00081608093B00080917A0084608093D8
:102230007A0080917A00826080937A0080917A009F
:10224000816080937A0080917A00806880937A0020
:102250001092C1008CE090E0909339038093380392
:1022600088E08093330380E098E090932C03809380
:102270002B0390932E0380932D038AE090E090939C
:1022800035038093340387E090E090933703809385
:10229000360381E080933A0380E090E79093300327
:1022A00080932F0380E090EF90933203809331036B
:1022B0008AE00E94F808809136030E94F80861E0E5
:1022C000809134030E94610F61E0809136030E9487
:1022D000610F61E08AE00E94610F8AE00E94F808C5
:1022E0008CB580618CBD8CB580648CBD8DE00E9406
:1022F000F8088BE00E94F8088CB58F7D8CBD8CB5FA
:10230000837F8CBD8CB58C7F8CBD8DB581608DBD80
:10231000809118040E94F808E0919303F0919403CF
:1023200081E090E09C0100909F0302C0220F331FC8
:102330000A94E2F72083E0918F03F09190031082DA
:10234000E0919103F09192032FEC20831092A0036F
:10235000E0919503F091960340819C0100909B03CE
:1023600002C0220F331F0A94E2F7242B2083E0914E
:102370009503F091960340819C0100909C0302C05C
:10238000220F331F0A94E2F7242B2083E091950358
:10239000F091960340819C0100909D0302C0220FA2
:1023A000331F0A94E2F7242B2083E0919503F091E8
:1023B0009603208100909E0302C0880F991F0A9403
:1023C000E2F780958223808368EC70E08DE894E0EA
:1023D0000E941B0E80912A03882309F446C2809133
:1023E0002003909121030196909321038093200371
:1023F00060E471E0CE0101960E944B0F6DE874E03D
:10240000CE0101960E94890E0E94DA0CCE0101963F
:102410000E94EB0E8091910490919204892B41F0DF
:10242000E0918D04F0918E04309711F0608101C02D
:1024300060E0062E000C770B70931F0360931E0361
:102440004AE0CE018B599F4F0E941E0F62E571E05A
:10245000CE0101960E944B0FBE016B597F4FCE01FA
:1024600001960E94890E0E94DA0CCE0101960E940C
:10247000EB0ECE018B599F4F0E94EB0E61E571E090
:10248000CE018D589F4F0E944B0F80911E0390915B
:102490001F038934910509F46FC144F48134910517
:1024A00091F08634910509F4F4C0B5C183359105E6
:1024B00009F4EFC08835910509F432C18D349105D6
:1024C00009F0A9C19DC00E941C1063E070E0CE011C
:1024D00001960E94630DBE016F5F7F4FCE018D5844
:1024E0009F4F0E94E50DCE0101960E94EB0EE996EA
:1024F0008EAD9FADE997892B29F1E5960EAD1FAD05
:10250000E59768E671E0C8010E94501D892B19F417
:1025100085E090E013C06EE671E0C8010E94501D96
:10252000892B19F48BE090E009C063E771E0C801E2
:102530000E94501D892B31F48DE090E09093280388
:102540008093270380911E0390911F03909319039A
:1025500080931803809127039091280327E0289FF8
:10256000B001299F700D11246F557C4FAE961FAEA0
:102570001EAEAE97E0961FAE1EAEE097E2961FAE7F
:102580001EAEE297E3961FAEE397CE0184599F4FAC
:102590000E94D40ECE018B599F4F0E9469106DE7A7
:1025A00071E0CE0101960E944B0FBE016B597F4F27
:1025B000CE0101960E94890E60E571E00E94700EC6
:1025C000BE0164597F4F0E94890E66E971E00E9446
:1025D000700E0E94DA0CCE0101960E94EB0ECE0125
:1025E0008B599F4F0E94EB0ECE0184599F4F0E9442
:1025F000EB0E61E571E086E894E00E94BD0E28C113
:102600000E941C1080911E0390911F039093190348
:1026100080931803CE018B599F4F0E9469106DE77C
:1026200071E0CE0101960E944B0FBE016B597F4FA6
:10263000CE0101960E94890E0E94DA0CCE0101960D
:102640000E94EB0ECE018B599F4F0E94EB0E63E070
:1026500070E0CE0101960E94630D0D811E81CE01B6
:1026600001960E94EB0E0230110508F4F1C063E000
:1026700070E0CE0101960E94630DBE016F5F7F4F37
:1026800086E894E00E94E50DCE0101960E94EB0ED3
:102690006EC00E941C1080911E0390911F039093A6
:1026A000190380931803CE018B599F4F0E94691024
:1026B0006DE771E0CE0101960E944B0FBE016B5990
:1026C0007F4FCE0101960E94890E0E94DA0CCE0146
:1026D00001960E94EB0ECE018B599F4F0E94EB0E8C
:1026E00063E070E0CE0101960E94630D0D811E81B2
:1026F000CE0101960E94EB0E0230110508F4A8C02D
:1027000063E070E0CE0101960E94630DBE016F5F31
:102710007F4F86E894E00E94E50DCE01019696C0B9
:102720009093190380931803CE018B599F4F0E94F9
:10273000691060EA71E0CE0101960E944B0FBE0164
:102740006B597F4FCE0101960E94890E0E94DA0CD0
:10275000CE0101960E94EB0ECE018B599F4F0E9435
:10276000EB0E61E571E086E894E00E94BD0E1092E8
:102770002803109227036CC061E070E0CE0101963F
:102780000E94630D89819A81009729F00E94A41A02
:10279000AB01BC0103C040E050E0BA01409300012E
:1027A000509301016093020170930301CE010196E1
:1027B000CE56DF4F4883C259D040CD56DF4F5883A5
:1027C000C359D040CC56DF4F6883C459D040CB5654
:1027D000DF4F7883C559D0400E94EB0E2AE0CE56D9
:1027E000DF4F4881C259D040CD56DF4F5881C35981
:1027F000D040CC56DF4F6881C459D040CB56DF4F14
:102800007881C559D040CE018B599F4F0E94F00E60
:102810006DEA71E007C0CE018B599F4F0E9469108D
:102820006AEC71E0CE0101960E944B0FBE016B591C
:102830007F4FCE0101960E94890E0E94DA0CCE01D4
:1028400001960E94EB0ECE018B599F4F0E94EB0E1A
:1028500061E571E08DE894E00E94BD0E10922A03BC
:10286000CE018D589F4F0E94EB0E8FB7F894C09009
:102870001A03D0901B03E0901C03F0901D038FBF40
:102880008091000190910101A0910201B09103019A
:102890000097A105B10509F430C140912203509180
:1028A0002303609124037091250397018601041B83
:1028B000150B260B370B081719072A073B0708F4D7
:1028C0001CC181E080932903C0922203D09223038C
:1028D000E0922403F092250380918A0490918B0466
:1028E000009709F48AC0A7961FAE1EAEA797A996B7
:1028F0001FAE1EAEA997AB961FAE1EAEAB97AC96A1
:102900001FAEAC974AE0BE016F5F7F4F0E94261B4F
:10291000BE016F5F7F4FCE018B599F4F0E94BD0E4E
:1029200060910401709105014AE0CE0101960E9478
:102930001E0FCE0184599F4F0E9469102AE0B701F3
:10294000A601CE0186589F4F0E94F00EE5961FAE5D
:102950001EAEE597E7961FAE1EAEE797E9961FAE4F
:102960001EAEE997EA961FAEEA97BE0166587F4F02
:10297000CE018D589F4F0E94D40E65ED71E0CE01BF
:102980008D589F4F0E94700EBE0164597F4F0E9468
:10299000890E6CED71E00E94700EBE016F5F7F4F7B
:1029A0000E94890E63EE71E00E94700EBE016B59A9
:1029B0007F4F0E94890E6CEE71E00E94700E66E8F7
:1029C00074E00E94890E0E94DA0CCE018D589F4F50
:1029D0000E94EB0ECE0186589F4F0E94EB0ECE0157
:1029E00084599F4F0E94EB0ECE0101960E94EB0E80
:1029F000CE018B599F4F0E94EB0E8091270390913F
:102A00002803009709F479C01A8219821C821B825C
:102A10001E821D821F8227E0289FB001299F700D12
:102A200011246F557C4FCE0101960E94D40E609107
:102A30000401709105014AE0CE018B599F4F0E941D
:102A40001E0FCE0184599F4F0E9469102AE0B701E2
:102A5000A601CE0186589F4F0E94F00EE5961FAE4C
:102A60001EAEE597E7961FAE1EAEE797E9961FAE3E
:102A70001EAEE997EA961FAEEA97BE0166587F4FF1
:102A8000CE018D589F4F0E94D40E65ED71E0CE01AE
:102A90008D589F4F0E94700EBE0164597F4F0E9457
:102AA000890E6CED71E00E94700EBE016B597F4F74
:102AB0000E94890E62EF71E00E94700EBE016F5F8E
:102AC0007F4F0E94890E0E94DA0CCE018D589F4FD5
:102AD0000E94EB0ECE0186589F4F0E94EB0ECE0156
:102AE00084599F4F0E94EB0ECE018B599F4F0E943D
:102AF000EB0ECE0101960E94EB0E809129038823F4
:102B000009F4DEC380918A0490918B04892B09F427
:102B100064C36091040170910501072E000C880BBD
:102B2000990B0E94771E20E030E048EC52E40E94AE
:102B3000CD1D2B013C01AE961FAE1EAEAE97E096AA
:102B40001FAE1EAEE097E2961FAE1EAEE297E39672
:102B50001FAEE39766E874E0CE0184599F4F0E9450
:102B6000D40E20E030E048E453E4C301B2010E94F7
:102B7000081F9B01AC0160E070E080E895E40E94D2
:102B8000CD1D0E943F1ECF57DF4F79836883C15808
:102B9000D0408E010F5F1F4F643671051CF14AE073
:102BA000CE018B599F4F0E941E0F6EEF71E0C8013E
:102BB0000E944B0FBE016B597F4FC8010E94890EC6
:102BC0000E94DA0CC8010E94EB0ECE018B599F4F78
:102BD0000E94EB0E43E650E0CF57DF4F5983488306
:102BE000C158D040F80120E2CF01801B910BCF5794
:102BF000DF4FA881B981C158D0408A179B0714F4D0
:102C00002193F2CF10922C0410922D0410922E04D6
:102C100010922F0480E098E0A0E0B0E080933004B0
:102C200090933104A0933204B093330420E030E059
:102C300040E856E4C301B2010E94081F0E943F1EF3
:102C4000609328047093290480932A0490932B04A2
:102C5000CD57DF4F19821882C358D040212C312C18
:102C6000CF57DF4FE881F981C158D0403197C05725
:102C7000DF4FF983E883C059D040CF57DF4F288119
:102C80003981C158D0402C0F3D1FC657DF4F3983C3
:102C90002883CA58D040E2968EAD9FADE297CF57B9
:102CA000DF4F48815981C158D040840F951FCD57BF
:102CB000DF4FA881B981C358D040A817B90708F0E1
:102CC00086C28981893439F0873551F488EE93E0E2
:102CD000A0E0B0E009C088EC90E0A0E0B0E004C063
:102CE00082E593E0A0E0B0E0CB57DF4F9983888383
:102CF000C558D040CB57DF4F88819981C558D04007
:102D0000281639060CF00FC28FB7F89420911A03D9
:102D100030911B0340911C0350911D03C457DF4F9A
:102D2000288339834A835B83CC58D0408FBFEE24FD
:102D3000FF24E218F308C957DF4F19830883C758E7
:102D4000D040C757DF4F1882C958D040C957DF4F0E
:102D500088819981C758D040801B910BCF57DF4F96
:102D6000E881F981C158D0408E179F070CF075C1DA
:102D7000C957DF4FA881B981C758D040ED91C957D5
:102D8000DF4FB983A883C758D040E03231F0B1E0BB
:102D9000C757DF4FB883C958D0404701FF0CAA0876
:102DA000BB08E93409F447C0E73509F4B2C08E2FF7
:102DB00090E0FC01B197EA33F10508F02AC1EC5C20
:102DC000FF4F0C94C81FA501940166E070E088E5F0
:102DD00099E01DC1A501940165E170E084E099E0EE
:102DE00016C1A501940162E170E08CEB98E00FC17F
:102DF000A50194016EE070E084E898E008C1A501A7
:102E0000940168E070E084E698E001C1A5019401B6
:102E100066E070E08CE498E0FAC0A501940165E1F9
:102E200070E088EF97E0F3C0A501940166E070E0E0
:102E300080EE97E0ECC078ECC72ED12CE12CF12C81
:102E400006C062E5C62E63E0D62EE12CF12CA5016A
:102E5000940162E070E088ED97E067C0A5019401FD
:102E60006AE070E080EB97E0D2C0A501940166E0D3
:102E700070E088E997E0CBC0A501940163E070E0C1
:102E80008CE897E0C4C0A501940168E070E08CE68E
:102E900097E0BDC0A501940166E070E084E597E08D
:102EA000B6C0A501940165E170E080E097E0AFC095
:102EB000A50194016CE070E080ED96E0A8C0A5014A
:102EC000940167E170E084E796E0A1C0A501940158
:102ED0006EE070E08CE396E09AC0A501940164E195
:102EE00070E08CEE95E093C0A501940164E070E081
:102EF0008CED95E08CC0A50194016AE070E084EB54
:102F000095E085C0A501940164E070E084EA95E055
:102F10007EC058EEC52E53E0D52EE12CF12CA50134
:102F2000940168E070E084E895E00E94170977C09A
:102F3000A501940164E070E084E795E068C0A50114
:102F4000940165E070E080E695E061C0A501940120
:102F500066E070E088E495E05AC0A501940161E163
:102F600070E084E095E053C0A501940164E070E056
:102F700084EF94E04CC0A50194016EE070E08CEB0E
:102F800094E045C0A50194016FE070E080E894E012
:102F90003EC0A501940165E070E08CE694E037C086
:102FA000A501940161E170E088E294E030C0A501E0
:102FB000940167E170E08CEC93E029C0A5019401D5
:102FC00064E070E08CEB93E022C0A50194016DE118
:102FD00070E088E493E01BC0A501940167E170E014
:102FE0008CEE92E014C0A501940167E070E080EDE2
:102FF00092E00DC0A501940163E170E084E892E0E5
:1030000006C0A501940165E070E080E792E00E94AF
:10301000170942E5C42E43E0D42EE12CF12C8C0C90
:103020009D1CAE1CBF1C7401B401990C880B990B3C
:103030000E94771E4B015C01A301920160E070E0E9
:1030400080E895E40E94CD1D9B01AC01C501B4014F
:103050000E94031F18160CF079CEC757DF4FF88176
:10306000C958D040F11106C0CB57DF4F28803980B6
:10307000C558D040B101330C880B990B0E94771EC4
:103080006B017C01A301920160E070E088EC92E4A6
:103090000E94CD1D9B01AC01C701B6010E94611DBC
:1030A0000E943F1E1B012FB7F89480911A03909144
:1030B0001B03A0911C03B0911D032FBFC457DF4F0A
:1030C000288139814A815B81CC58D040821B930B87
:1030D000A40BB50B82339105A105B1050CF00ACE06
:1030E00032E3832E912CA12CB12C881A990AAA0ABA
:1030F000BB0A0E94AD0F7B0181149104A104B104AD
:1031000009F4F8CD0E94AD0F6E197F09683E734037
:1031100098F341E0841A9108A108B10858E1E51A32
:103120005CEFF50AE9CF281A390ADE011296F80198
:10313000CF01801B910BC057DF4F28813981C059C7
:10314000D040821793071CF48D918193F1CFE296C2
:103150008EAD9FADE297CD57DF4F48815981C3585F
:10316000D04048175907E0F4AE96EEADFFADAE97EC
:10317000309729F410922603E6E2F3E008C0CD5719
:10318000DF4F88819981C358D040E80FF91F8081B3
:10319000C657DF4FA881B981CA58D0408C9308C068
:1031A00080E2C657DF4FE881F981CA58D04080835A
:1031B000CD57DF4F28813981C358D0402F5F3F4F13
:1031C000CD57DF4F39832883C358D04064CDCE011B
:1031D00084599F4F0E94EB0E71C0809127039091FC
:1031E0002803059709F06AC0812C912C80E8A82E4D
:1031F0008FE3B82EC12C90E1D92EE12CF12C412C7B
:1032000020E1522E612C712C20E030E040E856E4A1
:10321000C501B4010E94081F0E943F1E609328044C
:103220007093290480932A0490932B0440922C04D9
:1032300050922D0460922E0470922F04C09230049C
:10324000D0923104E0923204F092330420E030E076
:10325000A90165E670E08CED90E00E941709C301BA
:10326000B2010E94771E2B013C0120E030E040EAD1
:1032700051E4C501B4010E94081F9B01AC01C301C8
:10328000B2010E94601D0E943F1E2B013C01B4E16F
:10329000CB1AD108E108F1082AE037ED43E25CE3FC
:1032A000C501B4010E94611D4B015C01E0EFCE1627
:1032B000E1E0DE06E104F10409F0A6CF1092290353
:1032C0000E94CA0887C8CF92DF92EF92FF92EFE781
:1032D000F3E01382128288EEC82E83E0D82EE12C10
:1032E000F12CC482D582E682F78284E391E0918357
:1032F00080838BE393E0958784878BE994E09787BD
:10330000868785EC90E0918B808B84EC90E0938BAA
:10331000828B80EC90E0958B848B81EC90E0978B96
:10332000868B82EC90E0918F808F86EC90E0938F7B
:10333000828F84E0848F83E0858F87E0868F85E0AD
:10334000878F81E080A361E372E084E994E00E94CA
:103350004B0F61E571E08DE894E00E944B0F61E551
:1033600071E086E894E00E944B0F84E2ECE0F1E02B
:10337000AEE5B4E001900D928A95E1F7E8E1F4E062
:1033800085E090E09183808380E091E0A0E0B0E070
:1033900082839383A483B583168217821086118655
:1033A000128613861486158615A616A617A610AAC9
:1033B00011AA12AA13AA14AA1786168681E090E011
:1033C000A0E0B0E0808B918BA28BB38B148A158A1E
:1033D000168A178A108E118E128E138E148E158EE9
:1033E000168E178E8FEF9FEFDC0180A391A3A2A30F
:1033F000B3A314A215AA16AA17AA10AE11AE12AE44
:1034000013AE14AE8FEF9FE0A0E0B0E080935504C0
:1034100090935604A0935704B09358048093590492
:1034200090935A04A0935B04B0935C0410925D04E3
:10343000C0928204D0928304E0928404F0928504C6
:103440006AE472E081EA93E00E944B0F6EE472E05E
:1034500088EA93E00E944B0F6BE572E08FEA93E0FD
:103460000E944B0F64E672E086EB93E00E944B0FE4
:103470006CE672E08DEB93E00E944B0F68E671E022
:1034800084EC93E00E944B0F66E772E08BEC93E0D4
:103490000E944B0F6BE772E082ED93E00E944B0FAE
:1034A00062E872E089ED93E00E944B0F62E972E0FE
:1034B00080EE93E00E944B0F6EE972E087EE93E09E
:1034C0000E944B0F6EE671E08EEE93E00E944B0F70
:1034D00069EA72E085EF93E00E944B0F63E771E0C9
:1034E0008CEF93E00E944B0F6FEA72E083E094E070
:1034F0000E944B0F67EB72E08AE094E00E944B0F52
:1035000063EC72E081E194E0FF90EF90DF90CF9068
:103510000C944B0FCF93DF93C8E1D4E02797CE01F3
:103520000E94EB0E83E0C13AD807C1F786E894E029
:103530000E94EB0E8DE894E00E94EB0E84E994E08B
:10354000DF91CF910C94EB0E1F93FC0199278827F4
:10355000BC01E89411911032E9F3193010F01E30DB
:10356000C8F31B3251F01D3249F4689406C00E9422
:10357000E41A610F711D811D911D119110531A30B4
:10358000B0F33EF490958095709561957F4F8F4F85
:103590009F4F1F910895F8940C944920453251058E
:1035A00020F4423010F00C94D91AFB011082CB01A8
:1035B0000895BB274A3031F4992322F4BDE2909557
:1035C00081959F4F0C94271B592F482F372F262F5B
:1035D000660F771F881F991F660F771F881F991F17
:1035E000620F731F841F951F660F771F881F991F17
:1035F00008952532310520F4223010F00C94041B7C
:10360000FA011082CA010895BB27FA01A62F62179A
:10361000710581059105330B30FB66F0AA27660F13
:10362000771F881F991FAA1FA21710F0A21B63956E
:103630003850A9F7A05DAA3308F0A95DA19336F729
:10364000B111B1931082CA010C94401BBB27FB013E
:103650005527AA27880F991FAA1FA41710F0A41B8B
:1036600083955051B9F7A05DAA3308F0A95DA193E5
:10367000009779F7B111B1931192CB010C94401BD3
:10368000DC01FC01672F71917723E1F7329704C0C9
:103690007C916D9370836291AE17BF07C8F3089554
:1036A000CF93DF938230910510F482E090E0E091B7
:1036B000E604F091E70420E030E0C0E0D0E030978D
:1036C00011F14081518148175907C0F04817590737
:1036D00061F482819381209719F09B838A832BC0A8
:1036E0009093E7048093E60426C02115310519F074
:1036F0004217530718F49A01BE01DF01EF0102805F
:10370000F381E02DDCCF2115310509F1281B390BA0
:103710002430310590F412968D919C911397611588
:10372000710521F0FB019383828304C09093E70429
:103730008093E604FD01329644C0FD01E20FF31FC1
:1037400081939193225031092D933C933AC020915B
:10375000E4043091E504232B41F4209108013091D9
:1037600009013093E5042093E4042091060130918F
:1037700007012115310541F42DB73EB740910A01EB
:1037800050910B01241B350BE091E404F091E5040A
:10379000E217F307A0F42E1B3F0B2817390778F028
:1037A000AC014E5F5F4F2417350748F04E0F5F1F87
:1037B0005093E5044093E4048193919302C0E0E0C8
:1037C000F0E0CF01DF91CF9108950F931F93CF9336
:1037D000DF93009709F48CC0FC01329713821282A8
:1037E0000091E6041091E7040115110581F4208190
:1037F0003181820F931F2091E4043091E504281752
:10380000390779F5F093E504E093E40471C0D80139
:1038100040E050E0AE17BF0750F412962D913C9156
:103820001397AD012115310509F1D901F3CF9D01A0
:10383000DA013383228360817181860F971F82179B
:10384000930769F4EC0128813981260F371F2E5F19
:103850003F4F318320838A819B8193838283452BD1
:1038600029F4F093E704E093E60442C01396FC9336
:10387000EE931297ED01499159919E01240F351F46
:10388000E217F30771F480819181840F951F0296EE
:1038900011969C938E938281938113969C938E9321
:1038A0001297E0E0F0E0D80112968D919C91139769
:1038B000009719F0F8018C01F6CF8D919C91980139
:1038C0002E5F3F4F820F931F2091E4043091E50457
:1038D0002817390769F4309729F41092E7041092F9
:1038E000E60402C0138212821093E5040093E404FC
:1038F000DF91CF911F910F910895A0E0B0E0E3E830
:10390000FCE10C94E51FEC01009721F4CB010E942F
:10391000501BB8C0FC01E60FF71F9C012250310973
:10392000E217F30708F4ACC0D9010D911C9111976F
:1039300006171707B0F00530110508F49FC0C8013D
:1039400004978617970708F499C002501109061BBF
:10395000170B019311936D937C93CF010E94E51B8C
:103960008DC05B01A01AB10A4C01800E911EA0917E
:10397000E604B091E70440E050E0E12CF12C109710
:1039800009F44AC0A815B905D1F56D907C9011973E
:10399000630182E0C80ED11CCA14DB0480F1A301CC
:1039A0004A195B096A0182E0C80ED11C1296BC90CC
:1039B00012971396AC91B5E0CB16D10440F0B282C9
:1039C000A38351834083D9016D937C930AC00E5F1A
:1039D0001F4FC301800F911FF90191838083EB2D4D
:1039E000FA2FE114F10431F0D7011396FC93EE9312
:1039F000129744C0F093E704E093E6043FC08D9132
:103A00009C9111974817590708F4AC017D01129653
:103A10000D90BC91A02DB3CF8091E4049091E5046A
:103A200088159905E1F446175707C8F480910601F7
:103A300090910701009741F48DB79EB740910A011C
:103A400050910B01841B950BE817F907C8F4F0930C
:103A5000E504E093E404F901718360830FC0CB01B6
:103A60000E94501B7C01009759F0A801BE010E94E2
:103A7000471DCE010E94E51BC70104C0CE0102C054
:103A800080E090E0CDB7DEB7EEE00C940120FB01C2
:103A9000DC0102C001900D9241505040D8F70895CA
:103AA000FB01DC018D91019080190110D9F3990B74
:103AB0000895FB01DC0101900D920020E1F70895CB
:103AC0005058BB27AA270E94781D0C94C91E0E943B
:103AD000BB1E38F00E94C21E20F039F49F3F19F43B
:103AE00026F40C94B81E0EF4E095E7FB0C94B21E7D
:103AF000E92F0E94DA1E58F3BA176207730784078A
:103B0000950720F079F4A6F50C94FC1E0EF4E095D0
:103B10000B2EBA2FA02D0B01B90190010C01CA0187
:103B2000A0011124FF27591B99F0593F50F4503E32
:103B300068F11A16F040A22F232F342F4427585F24
:103B4000F3CF469537952795A795F0405395C9F73C
:103B50007EF41F16BA0B620B730B840BBAF09150F4
:103B6000A1F0FF0FBB1F661F771F881FC2F70EC093
:103B7000BA0F621F731F841F48F487957795679566
:103B8000B795F7959E3F08F0B0CF9395880F08F052
:103B90009927EE0F9795879508950E94E11D0C9443
:103BA000C91E0E94C21E58F00E94BB1E40F029F49C
:103BB0005F3F29F00C94B21E51110C94FD1E0C9421
:103BC000B81E0E94DA1E68F39923B1F3552391F3CE
:103BD000951B550BBB27AA2762177307840738F07C
:103BE0009F5F5F4F220F331F441FAA1FA9F335D0D9
:103BF0000E2E3AF0E0E832D091505040E695001C8D
:103C0000CAF72BD0FE2F29D0660F771F881FBB1F46
:103C1000261737074807AB07B0E809F0BB0B802D24
:103C2000BF01FF2793585F4F3AF09E3F510578F050
:103C30000C94B21E0C94FD1E5F3FE4F3983ED4F347
:103C4000869577956795B795F7959F5FC9F7880F24
:103C5000911D9695879597F90895E1E0660F771F76
:103C6000881FBB1F621773078407BA0720F0621B07
:103C7000730B840BBA0BEE1F88F7E09508950E9432
:103C8000461E6894B1110C94FD1E08950E94E21E18
:103C900088F09F5798F0B92F9927B751B0F0E1F00D
:103CA000660F771F881F991F1AF0BA95C9F714C0BD
:103CB000B13091F00E94FC1EB1E008950C94FC1EFE
:103CC000672F782F8827B85F39F0B93FCCF38695F6
:103CD00077956795B395D9F73EF490958095709553
:103CE00061957F4F8F4F9F4F0895E89409C097FBD0
:103CF0003EF490958095709561957F4F8F4F9F4FC3
:103D00009923A9F0F92F96E9BB279395F695879506
:103D100077956795B795F111F8CFFAF4BB0F11F4C9
:103D200060FF1BC06F5F7F4F8F4F9F4F16C0882370
:103D300011F096E911C0772321F09EE8872F762FA6
:103D400005C0662371F096E8862F70E060E02AF0E7
:103D50009A95660F771F881FDAF7880F96958795D3
:103D600097F9089597F99F6780E870E060E00895FB
:103D70009FEF80EC089500240A9416161706180683
:103D80000906089500240A9412161306140605065F
:103D90000895092E0394000C11F4882352F0BB0FF0
:103DA00040F4BF2B11F460FF04C06F5F7F4F8F4F53
:103DB0009F4F089557FD9058440F551F59F05F3F8E
:103DC00071F04795880F97FB991F61F09F3F79F03D
:103DD00087950895121613061406551FF2CF4695BF
:103DE000F1DF08C0161617061806991FF1CF869541
:103DF0007105610508940895E894BB276627772725
:103E0000CB0197F908950E94751F08F48FEF08956C
:103E10000E941B1F0C94C91E0E94BB1E38F00E94FA
:103E2000C21E20F0952311F00C94B21E0C94B81E03
:103E300011240C94FD1E0E94DA1E70F3959FC1F3AD
:103E4000950F50E0551F629FF001729FBB27F00D48
:103E5000B11D639FAA27F00DB11DAA1F649F66279D
:103E6000B00DA11D661F829F2227B00DA11D621FEC
:103E7000739FB00DA11D621F839FA00D611D221FA6
:103E8000749F3327A00D611D231F849F600D211D8A
:103E9000822F762F6A2F11249F5750409AF0F1F00D
:103EA00088234AF0EE0FFF1FBB1F661F771F881F76
:103EB00091505040A9F79E3F510580F00C94B21EDE
:103EC0000C94FD1E5F3FE4F3983ED4F386957795FE
:103ED0006795B795F795E7959F5FC1F7FE2B880F1C
:103EE000911D9695879597F90895990F0008550F9C
:103EF000AA0BE0E8FEEF16161706E807F907C0F070
:103F000012161306E407F50798F0621B730B840B77
:103F1000950B39F40A2661F0232B242B252B21F451
:103F200008950A2609F4A140A6958FEF811D811DF1
:103F30000895DB018F939F930E94CE1FBF91AF9195
:103F4000A29F800D911DA39F900DB29F900D1124F3
:103F50000895052E97FB1EF400940E94C01F57FD84
:103F600007D00E94182007FC03D04EF40C94C01F09
:103F700050954095309521953F4F4F4F5F4F089595
:103F800090958095709561957F4F8F4F9F4F0895C5
:103F9000EE0FFF1F0590F491E02D09940E943A2046
:103FA000A59F900DB49F900DA49F800D911D11248D
:103FB0000895B7FF0C94CE1F0E94CE1F821B930B57
:103FC00008952F923F924F925F926F927F928F92BD
:103FD0009F92AF92BF92CF92DF92EF92FF920F9398
:103FE0001F93CF93DF93CDB7DEB7CA1BDB0B0FB6A2
:103FF000F894DEBF0FBECDBF09942A88398848885F
:104000005F846E847D848C849B84AA84B984C884F4
:10401000DF80EE80FD800C811B81AA81B981CE0FEB
:10402000D11D0FB6F894DEBF0FBECDBFED010895D0
:10403000A1E21A2EAA1BBB1BFD010DC0AA1FBB1FAC
:10404000EE1FFF1FA217B307E407F50720F0A21B1E
:10405000B30BE40BF50B661F771F881F991F1A948B
:1040600069F760957095809590959B01AC01BD01B5
:10407000CF010895A29FB001B39FC001A39F700D0F
:10408000811D1124911DB29F700D811D1124911D60
:10409000089514E0C1EED4E004C0FE010E94C81FE0
:0C40A0002196C23ED107C9F7F894FFCF6B
:1040AC00B80B000019000000E804200000400000DC
:1040BC0000000000000000000000000000400000B4
:1040CC0000000000000000000000000000400000A4
:1040DC0000000000C605AB0D4F061306330608069C
:1040EC00444542554720596F752073656E74203ACC
:1040FC0020004445425547206C61736572436F6DD7
:10410C006D616E64203D2000504C414E450042498B
:10411C004B450041524455494E4F334400444542AF
:10412C005547204C61736572206D6F646520736513
:10413C007420746F20002073656C65637465640073
:10414C004445425547204C617365722000444542FA
:10415C005547204C6173657220696E746572766187
:10416C006C2073657420746F2000444542554720C1
:10417C004C61736572204D6F646520002053697A21
:10418C00652000204C656E6774682000204D7367B5
:10419C00200020416E696D6174696F6E200044458A
:1041AC0042554720696E20647261775363726F6C5D
:1041BC006C6572202D206D617843686172206C698A
:1041CC006D6974656420746F2039392077617320B0
:1041DC00004348454C54454E48414D202D20313725
:1041EC0043202D2057494E4459004F4646004C451C
:1041FC005454455245464645435400505245534548
:10420C004E54530041524455494E4F004C41534576
:10421C005253484F57004C4F474F0057454C4F5641
:10422C00450041524455494E4F3244524F5441542B
:10423C0045005748415441424F5554334400524F66
:10424C00544154454355424500474C4F4245004F5D
:10425C00424A45435453004A554D50494E475445E4
:10426C00585400434F554E54444F574E004445420A
:10427C005547206C6173657253697A65203D200047
:10428C00416E696D6174696F6E004D617271756517
:10429C00650053746174696300466C617368696E80
:1042AC0067004F666600496E74657276616C0055E6
:0842BC006E6B6E6F776E00005F
:00000001FF
