:100000000C9420060C9448060C9448060C94480660
:100010000C9448060C9448060C9448060C94480628
:100020000C9448060C9448060C9448060C94480618
:100030000C9448060C9448060C9448060C94480608
:100040000C9416090C9448060C9442150C94071550
:100050000C9448060C9448060C9448060C944806E8
:100060000C9448060C944806BE0BF00BF00BF00BFA
:10007000F00BF00BF00BF00BF00BF00BF00BF00BA8
:10008000F00BCC0BDA0B780B7F0B860B8D0B940BE4
:100090009B0BA20BA90BB00BB70BD30BF00BF00B08
:1000A000F00BF00BC50BF00BAE0AB50ABC0AC30A85
:1000B000CA0AD10AD80ADF0AEC0AF90A000B070BB0
:1000C0000E0B150B1C0B230B2A0B310B380B3F0BA4
:1000D000460B4D0BF00B630B6A0B710BE10BF00B36
:1000E000E80BF501CE02F581D3022A81D3022A81E1
:1000F000CE025781D001C881D001F581CE02E70040
:100100005301E7806B01EA808201F0809901FA8057
:10011000AE010781C2011681D4012781E4013B8130
:10012000F1012781A102FB808F02D2807702AD808E
:100130005A028C803802708012025A80E8014A808C
:10014000BC0140808E013D805F0140803001E7802E
:100150005301DF023001E2825F01DF828E01D5822E
:10016000BC01C582E801AF8212029382380272821A
:100170005A024D82770224828F02F881A102E48123
:10018000F101F881E4010982D4011882C2012582BB
:10019000AE012F8299013582820138826B0138824B
:1001A0005301DF82300185004F004A81F500128142
:1001B00057011F80FF001A80FC0080804C00858062
:1001C0004F000503FC000083FF000D825701D5811D
:1001D000F5009A824F009F824C000583FC00B3011A
:1001E0000E00E18116000E822500398239006082FE
:1001F0005400EE81D200DA81C700C481BE00AD8117
:10020000B8009581B5007E81B6006781BA00508143
:10021000C2003B81CC00AD806300D2804600FB80F1
:100220002E0027811D005581110084810C00B381AF
:100230000E007C02D7007082C7003082CE00EB81B6
:10024000D700EB81D800EA81D800EF81DB00FC8188
:10025000DF007C82D700B303260098830E008683DC
:10026000070007830C00C4811800B18111009E8132
:100270000C007581030051810000FF800500C580DE
:100280001900E1801C00ED802700EE802B00EF803C
:100290002E00E6804300CC804F00B1804F00A1804B
:1002A00040009E803600A2802D009C803300958007
:1002B0003F00B28065000F818E003F81BD007281DA
:1002C000CB00B181C500FC81BB003882B4006382E1
:1002D000B2008382D900C3824B01CF824B01D88206
:1002E0004A01DF824801E8824501CF82D200728351
:1002F000C2006E83BD006783B9003483B900C78232
:10030000BD00BA828F00A5827C0083825F006E826E
:10031000510050824100B3832600E8008500D6805A
:100320007E00BC807300AF806A009D805C005980B5
:1003300083000280B3000080B5000080B600118009
:10034000BD004580C200E8808500DE002B00D4801F
:100350002000B4801C00A7801F00A2802700AB8073
:100360003C00C5804200D8803B00DE802B00DE8050
:100370002B00EA017600DF81A500B681AB00C981C0
:100380007100EA817600BB016F00AA81AB00A481F5
:100390006B00BB816F00A001AD007B81B7005B816A
:1003A000BB005081BA004781B9003381AB0019818D
:1003B0008D002E818C004E81880072817E00988194
:1003C0006F00A081AD000040FD3FF63FE93FD83F00
:1003D000C13FA63F853F603F363F073FD23E993E33
:1003E0005C3E193ED13D853D343DDE3C833C233CA3
:1003F000BF3B563BE93A773A003A853906398238AD
:10040000F9376C37DB364636AC350E356C34C633CF
:100410001C336E32BC3106314D308F2FCE2E092E5B
:10042000412D752CA52BD32AFC2923294628662784
:1004300084269E25B524C923DB22EA21F620FF1F4E
:10044000071F0B1E0E1D0E1C0C1B071A0119F91796
:10045000EF16E315D614C613B612A41190107B0F35
:10046000650E4E0D360C1D0B030AE808CC07B006CE
:100470009305760459033B021D0100001D01F3059D
:100480001D8100004D01F3054D8100000000F305C2
:100490004D81F305000000004D8100000000F305D0
:1004A000008000002F00F3052F8000000000F305FE
:1004B0004D81F305000000004D8100005903F30554
:1004C000008000001E012003E580E7021E81AE02CD
:1004D0005781E7021E8120031E017100E58038006C
:1004E0001E810000578138001E8171001D015F00D0
:1004F000EE802F001D8100004D812F001D815F00C7
:100500000000F902008029032F8088035F80B80370
:10051000BE80E8037C81E803DC81B8030B8288039A
:100520003B8229033B82CA020B826B02DC813B02C5
:100530001D81DC011D814D011D015F00EE802F003A
:100540001D8100004D812F001D815F002F00E803F9
:100550002F804D012F005F0000802F002F800000B2
:100560005F802F002F805F006B029A023B820B029C
:10057000DC81AC014D817C011D817C018E80AC0150
:100580002F800B0200809A020080CA022F8059033C
:100590008E80B8031D81E8034D81E803DC81B80338
:1005A0003B8259036B829A026B82AC013B82BE0094
:1005B000DC812F004D810000EE8000005F802F0065
:1005C0002F808E00EE00E8035F80B8032F80590370
:1005D0002F80F9025F809A02BE806B027C813B0211
:1005E0000B820B026B82AC019A824D019A82BE0093
:1005F0006B825F003B822F00AC810000EE80000028
:100600005F802F002F805F000080BE0000804D01C2
:100610002F80AC018E800B021D813B02DC816B02BE
:100620003B829A026B82F9026B8259033B82B803C8
:10063000AC81E803EE80E8039A02E803BE80000084
:100640000000E8039A82E8033B0259030B82B803D7
:100650007C81E8031D81E8038E80B8032F80290385
:1006600000803B0200804D012F808E008E802F0085
:100670001D8100004D810000DC812F003B828E0037
:100680006B821D016B824D013B82DC01DC813B02F0
:100690004D816B021D816B028E803B022F80DC013D
:1006A00000804D013B02E8035F80E8032F803B029E
:1006B0005F806B02EE809A027C819A020B826B0251
:1006C0006B820B029A827C019A821D016B828E00E2
:1006D0000B822F007C810000EE8000005F802F00E5
:1006E0002F805F000080BE00DC01E80300804D0128
:1006F000CA824D01DC01E803DC8100005F00E803F1
:100700006B82E8034D816B02DC816B023B823B0212
:100710006B820B029A827C019A821D016B828E0091
:100720000B822F007C810000EE8000005F802F0094
:100730002F805F000080BE002F00F9022F80290368
:100740005F8088038E80B803EE80E803AC81E80305
:100750000B82B8033B8288036B8229036B82CA0237
:100760003B826B02DC81DC01008000009A82000089
:10077000000029035F805903EE80E803EE8000004B
:100780001D01E8038E80B8032F80290300803B02FF
:100790000080AC012F80BE008E802F001D810000E4
:1007A0007C8100000B822F006B82BE009A82AC011C
:1007B0009A823B026B8229030B82B8037C81E80397
:1007C0001D81E8039A02E803008000000000E803AE
:1007D0009A82E803000000009A8200000000E8030B
:1007E0007C810B027C810000F902E8037C810B0212
:1007F0000000E8039A8200009A02E80300800000EB
:100800000000E803EE800000DC01E803EE80000059
:10081000DC01E803CA820000B803E803CA820000D2
:100820000000E8037C810000F902E8037C810000FD
:100830000000E80300801D012F808E008E802F00B5
:100840001D8100007C8100000B822F006B828E00D6
:100850009A821D019A82E8034D01E8034D81000050
:100860000000E8039A82E8039A0259033B82B80326
:10087000AC81E803EE80E8035F80B8030080590391
:100880000080F9022F809A025F806B02BE803B02DB
:10089000DC81DC013B82AC016B827C019A821D0110
:1008A0009A828E003B822F00AC810000EE80000017
:1008B0005F802F0000808E000000E80300800000B1
:1008C0000000E803AC81E8033B82B8036B82880335
:1008D0009A8229039A82CA026B826B023B823B0294
:1008E000AC810B0200800B024D010B029A820000CA
:1008F0001D014704BE8017045F80B8032F80590391
:100900000080CA020080DC012F804D015F80EE0074
:10091000BE808E001D815F00DC815F003B828E0007
:100920009A82EE00CA824D01F982DC01F982CA0284
:10093000CA8259039A82B8033B821704DC814704B8
:100940001D814704AC011D01CA8200000000E803BC
:10095000008000000000E803AC81E8033B82B8039C
:100960006B8288039A8229039A829A026B823B02E5
:100970003B820B02AC81DC010080DC011D01E8033D
:10098000BE80B8035F8059032F80F90200806B029C
:1009900000807C012F80EE005F808E00BE802F00E3
:1009A0001D810000DC8100003B822F009A828E00B6
:1009B000CA82EE00F9827C01F9826B02CA82F902D6
:1009C0009A8259033B82B803DC81E8031D81E80366
:1009D0000000E803008000000000E8039A820000A5
:1009E0009A02E8039A8200000000E80300800000F9
:1009F0000000E8037C810000F902E8037C8100002C
:100A0000F902E803F98200000000E803008000001A
:100A10003B8200000000E803008000009A02E80327
:100A200000804D01EE003B029A820000DC01E803E9
:100A3000DC81EE00AC815F007C812F001D81000015
:100A4000BE8000005F802F002F805F000080EE00DE
:100A500000804D010000E803008000000000E80372
:100A6000008000009A02E8039A82000000000B0256
:100A70009A820B02CA02F9029A8259033B82B80396
:100A8000DC81E8031D81E803BE80B8035F80590361
:100A90002F80F90200806B0200807C012F80EE0025
:100AA0005F808E00BE802F001D810000DC81000071
:100AB0003B822F009A828E00CA82EE00CA827C019D
:100AC000DC017C01CA827C010000E8030080000098
:100AD0000000E8036B82E80300000B027C810B023C
:100AE0000000E803008000000000E8036B82E803D8
:100AF00000000B027C810B02000000006B820000F2
:100B00000000E803008000000000E8034D81E803D6
:100B1000DC81B8033B8259036B82F9029A826B0233
:100B20009A827C016B82EE003B828E00DC812F007A
:100B30004D81000000800000CA02F9029A82590328
:100B40003B82B803DC81E8031D81E803BE80B80363
:100B50005F8059032F80F90200806B0200807C01C6
:100B60002F80EE005F808E00BE802F001D81000070
:100B7000DC8100003B822F009A828E00CA82EE0048
:100B80000000E803008000000000E803AC81E803F7
:100B90003B82B8036B8288039A8229039A82CA0235
:100BA0006B826B023B823B02AC810B0200000B02AA
:100BB000AC810B023B82DC016B82AC019A824D015D
:100BC0009A82BE006B825F003B822F00AC810000E6
:100BD000008000007C01E803008000007C01E80345
:100BE000F98200008E004D016B824D01000000076C
:100BF00000020100000304060000000000000000E5
:100C000000000000250028002B0000000000240048
:100C100027002A000404040404040404020202025B
:100C200002020303030303030102040810204080AF
:100C300001020408102001020408102028231223B6
:100C400011241FBECFEFD8E0DEBFCDBF12E0A0E081
:100C5000B1E0EAE5F4E502C005900D92A23AB107D1
:100C6000D9F724E0A2EAB2E001C01D92A237B20790
:100C7000E1F716E0CFE1D6E004C02197FE010E9423
:100C80008B29CE31D107C9F70E947C150C9494248E
:100C90000C940000CF92DF92EF92FF920F931F937C
:100CA000CF93DF936C01EB017B01E40EF51E00E0B6
:100CB00010E0CE15DF0561F06991D601ED91FC9150
:100CC0000190F081E02DC6010995080F191FF1CFA1
:100CD000C801DF91CF911F910F91FF90EF90DF90AE
:100CE000CF900895893621E0920718F0E6ECF3E002
:100CF00039C09C012F5031402A35310528F4E8E6EF
:100D0000F1E0E81BF90B2AC09C01255B31092A356B
:100D1000310530F4FC01EE0FFF1FE25AFD4F0EC00B
:100D20009C012B5531092A353105B8F4E4EBF0E08C
:100D3000E81BF90BEE0FFF1FEA53FC4F659174910E
:100D4000CB01A0E0B0E09C01AD0166277727CB0185
:100D5000621B730B840B950B0895FC01EE0FFF1FB4
:100D6000EA53FC4F6591749180E090E008959C01F6
:100D7000265A3F4F233C314018F0E6ECF3E03DC0EB
:100D80009C012F5031402A35310530F4FC01EE0F23
:100D9000FF1FE655FE4F0EC09C01255B31092A3529
:100DA0003105B8F4EEE0F1E0E81BF90BEE0FFF1FA0
:100DB000EA53FC4F65917491CB01A0E0B0E09C0137
:100DC000AD0166277727CB01621B730B840B950B54
:100DD00008959C012B5531092A35310530F4FC0169
:100DE000EE0FFF1FEE5EFC4F08C0EAE5F0E0E81BE7
:100DF000F90BEE0FFF1FEA53FC4F6591749180E0F1
:100E000090E00895FC01248135816217730748F44E
:100E100080819181009729F0FC01E60FF71F808106
:100E2000089580E00895FC012481358162177307DD
:100E300020F480819181009729F41092B80288EB08
:100E400092E00895860F971F0895FC012481358153
:100E5000232B31F421E061157105A1F0FB0108C0DD
:100E6000FC01808191816115710531F421E0FC0163
:100E70008081882339F005C00E94FF2621E0892B5C
:100E800009F020E0822F08950F931F93CF93DF93F3
:100E9000EC0188819981009729F02A813B812617EE
:100EA000370788F48B016F5F7F4F0E9421260097E0
:100EB00061F0998388831B830A832C813D81232BD6
:100EC00011F4FC01108281E001C080E0DF91CF913C
:100ED0001F910F910895EF92FF920F931F93CF935D
:100EE000DF93FC01248135816115710511F480E0E7
:100EF00019C041155105A9F07B01EC018A01020FCF
:100F0000131FB8010E944407882389F3288139817F
:100F10008C819D81B701820F931F0E9408271D833A
:100F20000C8381E0DF91CF911F910F91FF90EF90A3
:100F30000895CF93DF93EC0188819981009711F098
:100F40000E948925198218821D821C821B821A82A6
:100F5000DF91CF910895CF93DF93EC01FB014481A2
:100F60005581608171810E946B07811103C0CE01A0
:100F70000E949907CE01DF91CF910895EF92FF92E1
:100F80000F931F93CF93DF93EC017B018A01BA018A
:100F90000E944407811104C0CE010E94990707C036
:100FA0001D830C83B701888199810E940827CE0197
:100FB000DF91CF911F910F91FF90EF900895CF9304
:100FC000DF93EC016115710559F0FB0101900020E0
:100FD000E9F73197AF01461B570B0E94BE0702C0CD
:100FE0000E949907CE01DF91CF910895CF93DF93AF
:100FF000EC01FB018617970761F060817181611533
:10100000710529F0448155810E94BE0702C00E94EB
:101010009907CE01DF91CF910895FC0180819181E4
:101020000C9489250F931F93CF93DF93CDB7DEB731
:1010300062970FB6F894DEBF0FBECDBF8C01CB0117
:10104000F801118210821382128215821482168294
:1010500050E0BE016F5F7F4F0E949724BE016F5F1B
:101060007F4FC8010E94DF0762960FB6F894DEBF7B
:101070000FBECDBFDF91CF911F910F910895FC015D
:1010800011821082138212821582148216820C94AD
:10109000F607FC01118210821382128215821482DB
:1010A00016826115710551F0FB0101900020E9F7EE
:1010B0003197AF01461B570B0C94BE070895BF92A2
:1010C000CF92DF92EF92FF920F931F93CF93DF9314
:1010D0007C016B018A01E9012417350720F4812F77
:1010E0008901C42FD82F6BE871E0C7010E9449081D
:1010F000D60114968D919C91159780179107D0F089
:101100008C179D0708F4EC01D601ED91FC91119725
:10111000EC0FFD1FB08010824D915C91BA01600F01
:10112000711FC7010E94DF07D601ED91FC91EC0F02
:10113000FD1FB082C701DF91CF911F910F91FF90EA
:10114000EF90DF90CF90BF90089590E0FC01E451C4
:10115000F44F3491FC01E85DF34F2491FC01EC5E07
:10116000F34FE491EE2309F43BC0332339F13330DC
:1011700091F038F43130A9F0323001F584B58F7D2B
:1011800012C0363091F03730A1F03430B9F480918C
:1011900080008F7D03C0809180008F7780938000D6
:1011A0000DC084B58F7784BD09C08091B0008F7762
:1011B00003C08091B0008F7D8093B000F0E0EE0F0F
:1011C000FF1FE050F44FA591B4918FB7F894EC91C4
:1011D000611103C020952E2301C02E2B2C938FBFAD
:1011E00008953FB7F8948091B4029091B502A09110
:1011F000B602B091B70226B5A89B05C02F3F19F0E3
:101200000196A11DB11D3FBFBA2FA92F982F882786
:10121000820F911DA11DB11DBC01CD0142E0660FE1
:10122000771F881F991F4A95D1F708951F920F9233
:101230000FB60F9211242F933F938F939F93AF93E9
:10124000BF938091A2029091A302A091A402B091B9
:10125000A5023091B30223E0230F2D3720F401962D
:10126000A11DB11D05C026E8230F0296A11DB11DC9
:101270002093B3028093A2029093A302A093A402AE
:10128000B093A5028091B4029091B502A091B602EC
:10129000B091B7020196A11DB11D8093B402909345
:1012A000B502A093B602B093B702BF91AF919F91E0
:1012B0008F913F912F910F900FBE0F901F90189517
:1012C000CF93DF9300D01F92CDB7DEB719821A8279
:1012D0001B8261E070E086E694E00E941307FC0147
:1012E0008081898362E070E086E694E00E941307C3
:1012F000FC0180818A83CE0101960E944F24909345
:101300000501809304010F900F900F90DF91CF9112
:101310000895CF93DF93EC016BE871E00E944908D8
:101320008091A6029091A70289349105C1F194F4AD
:101330008134910529F12CF4C297A1F56BEE71E08F
:1013400033C08634910529F18834910559F568EF49
:1013500071E02AC083359105C9F04CF48D349105B4
:1013600091F080359105F1F46BED71E01DC086358B
:10137000910591F088359105A9F466E172E014C0F9
:1013800069EC71E011C063ED71E00EC064EE71E0D4
:101390000BC062EF71E008C068E072E005C06AE16E
:1013A00072E002C063E272E0CE010E94DF07CE016C
:1013B000DF91CF9108954F925F926F927F928F92BB
:1013C0009F92AF92BF92CF92DF92EF92FF92CF9314
:1013D000DF9380E090E00E9472064B015C0180E0A8
:1013E00090E00E94B7062B013C018CE0C82ED12C66
:1013F000E12CF12CC501B401A70196010E946C29D2
:1014000049015A01C301B201A70196010E946C294A
:10141000CA01B901A50194010E9469100E94E40D5E
:10142000C5E0D0E0CE010E9472064B015C01CE0106
:101430000E94B7062B013C01C501B401A70196012A
:101440000E946C2949015A01C301B201A70196010A
:101450000E946C29CA01B901A50194010E9469107A
:101460002596CD3681E0D807E9F6DF91CF91FF9040
:10147000EF90DF90CF90BF90AF909F908F907F9034
:101480006F905F904F900C94FE0D4F925F926F9211
:101490007F928F929F92AF92BF92CF92DF92EF9204
:1014A000FF920F931F93CF93DF93EC016B014901E0
:1014B0005A01270138011C141D041CF5FE01E5909A
:1014C000F490FE01329605911491249681E0C81A99
:1014D000D108F7FE03C00E94E40D02C00E94FE0D79
:1014E000A3019201200F311F411D511DE894F7F80F
:1014F000C501B4016E0D7F1D811D911D0E946910F3
:10150000DACFDF91CF911F910F91FF90EF90DF9095
:10151000CF90BF90AF909F908F907F906F905F9093
:101520004F900C94FE0D8F929F92AF92BF92EF92CC
:10153000FF920F931F9378018901893409F446C003
:10154000873509F4B1C090E0FC01B197ED33F105A6
:1015500008F046C1EC5CFF4F0C948B299A01AB015B
:1015600066E070E084ED9BE039C19A01AB0165E172
:1015700070E080E89BE032C19A01AB0162E170E06B
:1015800088E39BE02BC19A01AB016EE070E080E044
:101590009BE024C19A01AB0168E070E080EE9AE024
:1015A0001DC19A01AB0166E070E088EC9AE016C1BB
:1015B0009A01AB0165E170E084E79AE00FC19A01FE
:1015C000AB0166E070E08CE59AE008C138EC832E50
:1015D000912CA12CB12C06C022E5822E23E0922E64
:1015E000A12CB12C9A01AB0162E070E084E59AE095
:1015F00067C09A01AB016AE070E08CE29AE0EEC04D
:101600009A01AB0166E070E084E19AE0E7C09A01DC
:10161000AB0163E070E088E09AE0E0C09A01AB01C2
:1016200068E070E088EE99E0D9C09A01AB0166E00D
:1016300070E080ED99E0D2C09A01AB0165E170E005
:101640008CE799E0CBC09A01AB016CE070E08CE4D0
:1016500099E0C4C09A01AB0167E170E080EF98E0C7
:10166000BDC09A01AB016EE070E088EB98E0B6C0B7
:101670009A01AB0164E170E088E698E0AFC09A019E
:10168000AB0164E070E088E598E0A8C09A01AB0186
:101690006AE070E080E398E0A1C09A01AB0164E0E9
:1016A00070E080E298E09AC098EE892E93E0992E3F
:1016B000A12CB12C9A01AB0168E070E080E098E0C9
:1016C0000E94450A93C09A01AB0164E070E080EF8C
:1016D00097E084C09A01AB0165E070E08CED97E083
:1016E0007DC09A01AB0166E070E084EC97E076C0C3
:1016F0009A01AB0161E170E080E897E06FC09A0168
:10170000AB0164E070E080E797E068C09A01AB014C
:101710006EE070E088E397E061C09A01AB016FE092
:1017200070E08CEF96E05AC09A01AB0165E070E082
:1017300088EE96E053C09A01AB0161E170E084EA63
:1017400096E04CC09A01AB0167E170E088E496E056
:1017500045C09A01AB0164E070E088E396E03EC0CA
:101760009A01AB016DE170E084EC95E037C09A011D
:10177000AB0167E170E088E695E030C09A01AB010B
:1017800067E070E08CE495E029C09A01AB0163E169
:1017900070E080E095E022C09A01AB0165E070E066
:1017A0008CEE94E01BC09A01AB016AE070E084EC1F
:1017B00094E014C09A01AB0162E070E08CEB94E01D
:1017C0000DC09A01AB0168E070E08CE994E006C0BE
:1017D0009A01AB0168E070E08CE794E00E94450A52
:1017E00082E5882E83E0982EA12CB12CC501B4018E
:1017F0001F910F91FF90EF90BF90AF909F908F90AF
:101800000895CF92DF92EF92FF920F931F93CF93A1
:10181000DF938C01C0E0D0E0C12CD12C7601BE0159
:10182000C8010E9402078823C1F0893439F0873546
:1018300051F488EE93E0A0E0B0E009C088EC90E0BD
:10184000A0E0B0E004C082E593E0A0E0B0E0C80E04
:10185000D91EEA1EFB1E2196E2CFC701B601DF9119
:10186000CF911F910F91FF90EF90DF90CF9008954F
:101870002F923F924F925F926F927F928F929F92A0
:10188000AF92BF92CF92DF92EF92FF920F931F938E
:10189000CF93DF9300D000D0CDB7DEB79A83898392
:1018A000362E272E3C832B83C12CD12C2A01550F99
:1018B00066087708EB81FC81CE16DF0624F5832CC1
:1018C000922CE12CF12CB70189819A810E940207A8
:1018D0008823A9F0092C000CAA08BB0893018201F7
:1018E000B501A4010E94930ADC01CB01880D991D6A
:1018F000AA1DBB1D4C018FEFE81AF80AE4CF9FEF39
:10190000C91AD90AD7CF0F900F900F900F90DF917F
:10191000CF911F910F91FF90EF90DF90CF90BF90EC
:10192000AF909F908F907F906F905F904F903F907F
:101930002F9008950F931F93CF93DF93EC018B01AA
:1019400084E2ECE0F1E0DE0101900D928A95E1F78E
:10195000CB010E947206688379838A839B83C801C6
:101960000E94B7069B01AC0188279927DC01821BE6
:10197000930BA40BB50B88879987AA87BB87C801EF
:101980000E94B706688F798F8A8F9B8FC8010E944B
:10199000720668A379A38AA39BA3CE01DF91CF919E
:1019A0001F910F9108950F931F93CF93DF93EC0135
:1019B0008B0184E2ECE0F1E0DE0101900D928A956A
:1019C000E1F7CB010E947206688B798B8A8B9B8B27
:1019D000C8010E94B7066C8B7D8B8E8B9F8BC801D4
:1019E0000E94B7069B01AC0188279927DC01821B66
:1019F000930BA40BB50B8C8F9D8FAE8FBF8FC8013F
:101A00000E94720668A379A38AA39BA3CE01DF91EB
:101A1000CF911F910F9108952A989EBD0DB407FE96
:101A2000FDCF9EB58EBD0DB407FEFDCF8EB52A9AB3
:101A30000895CF93DF93EB014091C6025091C70206
:101A400021E030E0042E02C0220F331F0A94E2F797
:101A5000215031092817390708F4C9012CE030E07A
:101A6000241B350B02C0880F991F2A95E2F720919D
:101A7000BD023091BE022227307F822B932B9093A0
:101A8000BE028093BD020E940C0D4091C60250918F
:101A9000C70281E090E0042E02C0880F991F0A94CB
:101AA000E2F70197C817D90708F4CE012CE030E01F
:101AB000241B350B02C0880F991F2A95E2F720914D
:101AC000BF023091C0022227307F822B932B90934C
:101AD000C0028093BF020E940C0D8091C80288232F
:101AE00049F08091C4029091C50297FD03C05F98B0
:101AF00000005F9ADF91CF910895CF92DF92EF922D
:101B0000FF92C0902604D0902704E0902804F09023
:101B100029046C157D058E059F0584F0C0902E0468
:101B2000D0902F04E0903004F0903104C616D70610
:101B3000E806F90634F482E090E005C081E090E028
:101B400002C080E090E0C0902A04D0902B04E09086
:101B50002C04F0902D042C153D054E055F0514F462
:101B600084600EC0C0903204D0903304E0903404FE
:101B7000F0903504C216D306E406F5060CF488602E
:101B8000FF90EF90DF90CF90089590E0FC01E85D2A
:101B9000F34F2491FC01EC5EF34F8491882399F07C
:101BA00090E0880F991FFC01E65FF34FA591B49177
:101BB000FC01E050F44F859194918FB7F894EC912B
:101BC000E22BEC938FBF08958091FF039091000466
:101BD000892B99F48091150481110FC08AEC97E04C
:101BE0000197F1F781E090E0909300048093FF0368
:101BF00061E08091F1030C94A50808958091FF03A2
:101C000090910004892B69F08AEC97E00197F1F735
:101C1000109200041092FF0360E08091F1030C9495
:101C2000A50808952F923F924F925F926F927F92F4
:101C30008F929F92AF92BF92CF92DF92EF92FF92DC
:101C40000F931F93CF93DF93CDB7DEB7A0970FB657
:101C5000F894DEBF0FBECDBF69877A878B879C87DC
:101C60002D873E874F87588B8091F7039091F8031B
:101C7000A091F903B091FA0389849A84AB84BC845F
:101C8000881A990AAA0ABB0A8091FB039091FC0367
:101C9000A091FD03B091FE0329013A01481A590AA7
:101CA0006A0A7B0A89829A82AB82BC82B7FE0BC029
:101CB00022273327A901281939094A095B092983F1
:101CC0003A834B835C838091F3039091F403A0915A
:101CD000F503B091F6038D839E83AF83B887298186
:101CE0003A814B815C81BC01CD010E9448296B0186
:101CF0007C01A0E2DA0EE11CF11CA70196010EE0C6
:101D000055954795379527950A95D1F7298B3A8BA5
:101D10004B8B5C8B7301620177FE07C0CC24DD2402
:101D20007601C418D508E608F708A70196016D8169
:101D30007E818F8198850E944829DC01CB01905ECD
:101D4000AF4FBF4F1EE0B595A795979587951A950C
:101D5000D1F720910D0430910E0440910F04509161
:101D600010042D8B3E8B4F8B588F29813A814B81EC
:101D70005C81C20ED31EE41EF51E2D893E894F895B
:101D8000588DC20ED31EE41EF51EC0920D04D092D3
:101D90000E04E0920F04F0921004C988DA88EB88F0
:101DA000FC88C816D906EA06FB0614F46C017D010E
:101DB000C501B401EEE0660F771F881F991FEA95F1
:101DC000D1F7FEE0440C551C661C771CFA95D1F740
:101DD000A70196010E946C29298B3A8B4B8B5C8B57
:101DE000C301B201A70196010E946C29298F3A8F85
:101DF0004B8F5C8F812CA0E29A2EA12CB12C20E07D
:101E000030E240E050E029833A834B835C831D82BB
:101E10001E821F821886A7019601215031094109AF
:101E200051092D8F3E8F4F8F58A322242A94BFE053
:101E30003B2E2D813E814F8158858D8D9E8DAF8D9E
:101E4000B8A1281739074A075B070CF0C6C00091F4
:101E500011041091120420911304309114040F3FC7
:101E60004FEF14072407340709F46CC08091150460
:101E7000811168C049805A806B807C805EE07594D7
:101E80006794579447945A95D1F7750164016EE0B1
:101E9000F594E794D794C7946A95D1F7B301A2015A
:101EA00077FE07C044275527BA014419550966092A
:101EB00077098D899E89AF89B88D480F591F6A1F90
:101EC0007B1FD701C601F7FE07C088279927DC01D1
:101ED0008C199D09AE09BF09840F951FA61FB71F56
:101EE000081719072A073B076CF50E94FE0D91E0C1
:101EF000909315048091F7039091F803A091F90352
:101F0000B091FA03480E591E6A1E7B1E40921604B9
:101F10005092170460921804709219048091FB0388
:101F20009091FC03A091FD03B091FE03C80ED91E51
:101F3000EA1EFB1EC0921A04D0921B04E0921C04FD
:101F4000F0921D04298D3A8D4B8D5C8D820E931E6F
:101F5000A41EB51E29813A814B815C8189899A89A9
:101F6000AB89BC89280F391F4A1F5B1F29833A831D
:101F70004B835C83DA01C9012EE0B595A79597954F
:101F800087952A95D1F72091F7033091F803820FB6
:101F9000931FB101681B790B950184014EE03595C3
:101FA0002795179507954A95D1F78091FB03909156
:101FB000FC03080F191FC101801B910B0E94190D12
:101FC0002D813E814F8158852F5F3F4F4F4F5F4F8F
:101FD0002D833E834F8358872CCF80911504811128
:101FE00038C08091110490911204A0911304B09113
:101FF00014048F3FEFEF9E07AE07BE0751F14091EB
:102000000D0450910E0460910F0470911004841718
:102010009507A607B707ECF40E94FE0D81E08093B8
:10202000150429853A854B855C85209316043093E9
:10203000170440931804509319048D859E85AF852D
:10204000B88980931A0490931B04A0931C04B09346
:102050001D0429853A854B855C852093F7033093D1
:10206000F8034093F9035093FA038D859E85AF855D
:10207000B8898093FB039093FC03A093FD03B09376
:10208000FE038FEF9FE0BC01621B730BAD85BE8525
:102090008A1B9B0B0E94190D8EE090E00197F1F7CF
:1020A000A0960FB6F894DEBF0FBECDBFDF91CF91E3
:1020B0001F910F91FF90EF90DF90CF90BF90AF9066
:1020C0009F908F907F906F905F904F903F902F9058
:1020D00008952F923F924F925F926F927F928F92CC
:1020E0009F92AF92BF92CF92DF92EF92FF920F93A7
:1020F0001F93CF93DF93CDB7DEB7E5970FB6F89474
:10210000DEBF0FBECDBF2B013C0149015A018091BA
:102110003604882309F4BFC09201550C440B550BBB
:1021200029833A834B835C83092C000CAA08BB08E3
:1021300080915B0490915C04A0915D04B0915E0479
:1021400089879A87AB87BC8760913F047091400470
:1021500080914104909142040E9448296B017C01C6
:1021600060914B0470914C0480914D0490914E0409
:10217000A50194010E944829C60ED71EE81EF91E2B
:102180004EE0F594E794D794C7944A95D1F70D2C77
:10219000000CEE08FF0829853A854B855C85C20E48
:1021A000D31EE41EF51E60913704709138048091AF
:1021B000390490913A0429813A814B815C810E94D3
:1021C00048292B013C0160914304709144048091A3
:1021D000450490914604A50194010E944829460EA9
:1021E000571E681E791E5EE0759467945794479455
:1021F0005A95D1F7D20129853A854B855C850E9495
:102200009C29A70196010E946C2929013A0188E0C6
:10221000580E611C711C60913B0470913C048091CC
:102220003D0490913E0429813A814B815C810E945A
:10223000482969837A838B839C83609147047091DA
:1022400048048091490490914A04A50194010E9498
:10225000482929813A814B815C81260F371F481F0D
:10226000591FDA01C9016EE0B595A7959795879535
:102270006A95D1F7DC0129853A854B855C850E94FA
:102280009C29A70196010E946C2949015A0188E006
:10229000980EA11CB11CC0900104D0900204E090E3
:1022A0000304F0900404A3019201C701B6010E9447
:1022B0004829DC01CB01905EAF4FBF4F2EE0B595B2
:1022C000A795979587952A95D1F74090050450904A
:1022D000060460900704709008049C01AD01240D71
:1022E000351D461D571D2CA33DA34EA35FA3A5017D
:1022F0009401C701B6010E944829DC01CB01905E20
:10230000AF4FBF4F3EE0B595A795979587953A9506
:10231000D1F7C0900904D0900A04E0900B04F0902B
:102320000C049C01AD012C0D3D1D4E1D5F1D28A709
:1023300039A74AA75BA780911E0490911F04A09122
:102340002004B09121048CA79DA7AEA7BFA7209120
:10235000220430912304409124045091250428AB99
:1023600039AB4AAB5BABBC01CD010E947D0D9F87B1
:102370008E8728A539A54AA55BA56CA17DA18EA154
:102380009FA10E947D0D9BA38AA38091320490910E
:102390003304A0913404B09135048A8B9B8BAC8BB1
:1023A000BD8B20912A0430912B0440912C04509134
:1023B0002D042E8B3F8B488F598F80912E04909146
:1023C0002F04A0913004B09131048A8F9B8FAC8F81
:1023D000BD8F20912604309127044091280450910C
:1023E00029042E8F3F8F48A359A388A899A8AAA88B
:1023F000BBA8CCA4DDA4EEA4FFA488A599A5AAA59A
:10240000BBA589879A87AB87BC872CA13DA14EA12C
:102410005FA129833A834B835C838AA19BA14E856C
:102420005F85842B952B892B09F474C18AA19BA10C
:1024300084239523892B09F08AC1452B29F48AA18D
:102440009BA1998B888B04C0AE85BF85B98BA88B67
:10245000B889B3FF4AC0C701B6010E9426286D8320
:102460007E838F83988769817A818B819C816C19A7
:102470007D098E099F090E9426282B013C016A894B
:102480007B898C899D89681979098A099B090E9431
:1024900026289B01AC01C301B2010E94B7282B0181
:1024A0003C0169857A858B859C85681979098A093B
:1024B0009B090E9426289B01AC01C301B2010E9426
:1024C0007C279B01AC016D817E818F8198850E9464
:1024D00010270E94EE278B018DAB9CABEA89ED8320
:1024E000FB89FD872C883D88E6C0288922FF4AC0E9
:1024F000C701B6010E9426286D837E838F8398874B
:1025000069817A818B819C816C197D098E099F0973
:102510000E9426282B013C016E897F89888D998D28
:10252000681979098A099B090E9426289B01AC0138
:10253000C301B2010E94B7282B013C0169857A854D
:102540008B859C85681979098A099B090E94262830
:102550009B01AC01C301B2010E947C279B01AC012D
:102560006D817E818F8198850E9410270E94EE27C1
:102570008B018DAB9CAB3E893D834F894D87288C69
:10258000398C99C0588951FF4AC0C501B4010E94D5
:1025900026286D837E838F83988769857A858B85CE
:1025A0009C85681979098A099B090E9426282B01B4
:1025B0003C016A8D7B8D8C8D9D8D6C197D098E09FA
:1025C0009F090E9426289B01AC01C301B2010E9411
:1025D000B7282B013C0169817A818B819C816C1920
:1025E0007D098E099F090E9426289B01AC01C30129
:1025F000B2010E947C279B01AC016D817E818F819D
:1026000098850E9410270E94EE276D837D871C010C
:102610000A8D1B8D8C8D8DAB9D8D9CAB4CC0A8897C
:10262000A0FF49C0C501B4010E9426286D837E83A6
:102630008F83988769857A858B859C856819790948
:102640008A099B090E9426282B013C016E8D7F8DF3
:1026500088A199A16C197D098E099F090E942628DD
:102660009B01AC01C301B2010E94B7282B013C01C0
:1026700069817A818B819C816C197D098E099F0902
:102680000E9426289B01AC01C301B2010E947C2755
:102690009B01AC016D817E818F8198850E941027FE
:1026A0000E94EE276D837D871C010E8D1F8DB8A1C2
:1026B000BDABE9A1ECAB288939894E855F8524172C
:1026C000350789F42D813D85A101B8018DA99CA90B
:1026D0000E947D0D9F878E878D809D8451016801AA
:1026E000EDA8FCA89ACE2D813D85A101B8018DA948
:1026F0009CA90E947D0D9BA38AA35D8159878D852E
:102700008A872B863C8609831A839DA99B83ACA963
:10271000AC8383CE8CA59DA5AEA5BFA5C816D90652
:10272000EA06FB0609F044C028A939A94AA95BA911
:1027300082169306A406B506D9F529853A854B85F8
:102740005C8569817A818B819C810E94120E8CA1AB
:102750009DA1AEA1BFA180931E0490931F04A093DE
:102760002004B093210428A539A54AA55BA5209390
:102770002204309323044093240450932504E596C7
:102780000FB6F894DEBF0FBECDBFDF91CF911F9182
:102790000F91FF90EF90DF90CF90BF90AF909F9000
:1027A0008F907F906F905F904F903F902F90089503
:1027B000A5019401C701B6010E94120EBECFCF92AF
:1027C000DF92EF92FF920F931F93CF93DF936C01F1
:1027D00000E010E0C0E0D0E0F60184819581E09057
:1027E0005103F09052030817190780F4B801C6018D
:1027F0000E940207D701ED91FC91682F81E593E0DB
:102800000995C80FD91F0F5F1F4FE6CFD701ED9174
:10281000FC916DE081E593E009958C01E091510315
:10282000F09152030190F081E02D6AE081E593E0A0
:102830000995C00FD11F8C0F9D1FDF91CF911F9164
:102840000F91FF90EF90DF90CF90089508950F9330
:102850001F93CF93DF93FC01A685B7858D01005CA4
:102860001F4FE8018881998101968F739927AD01E7
:102870004E5B5F4FEA012881398182179307D1F3BC
:10288000E80128813981A20FB31F6C93A685B78513
:10289000A05CBF4F11969C938E93A689B7892C910B
:1028A00081E090E0078C02C0880F991F0A94E2F73C
:1028B000822B8C9381E081A30488F589E02D8081AF
:1028C0008064808381E090E0DF91CF911F910F9130
:1028D0000895FC0181A1882329F0A489B5898C91F0
:1028E00086FFFBCF11A20895FC01A485B585FD01EB
:1028F000E05CFF4F208131813296808191812817E1
:10290000390779F080819181A80FB91F8C912081BE
:1029100031812F5F3F4F2F7333273183208390E026
:1029200008958FEF9FEF0895DC011C96ED91FC91C7
:102930001D97DF01A05CBF4F2D913C91119712961E
:102940008D919C9111972817390739F08D919C91A1
:10295000E80FF91F808190E008958FEF9FEF0895B1
:10296000FC0124853585F901E05CFF4F8081918170
:10297000329620813181821B930B8F7399270895A2
:102980001F93CF93DF9300D0CDB7DEB781E593E0FF
:102990000E94B014892B19F111E081E593E00E94A7
:1029A000B014892BE1F081E593E00E9474148A3021
:1029B00019F410936D04F1CF20916A0430916B04E7
:1029C0002832310550F789831A8241E050E0BE0178
:1029D0006F5F7F4F86E694E00E946B07DECF0F901B
:1029E0000F90DF91CF911F910895CF93DF93EC016A
:1029F00041E050E06FE972E00E946B07811103C073
:102A0000CE010E949907CE01DF91CF9108951F92C8
:102A10000F920FB60F9211242F933F938F939F9392
:102A2000EF93FF932091090330910A0380910B03E8
:102A300090910C032817390731F48091C1008F7DE4
:102A40008093C10014C0E0910B03F0910C03E75395
:102A5000FD4F208180910B0390910C0301968F73A1
:102A6000992790930C0380930B032093C600FF914A
:102A7000EF919F918F913F912F910F900FBE0F90EB
:102A80001F9018951F920F920FB60F9211242F933B
:102A90004F935F938F939F93EF93FF938091C00029
:102AA00082FD1CC02091C60080914D0390914E0381
:102AB00001968F73992740914F03509150038417CB
:102AC000950771F0E0914D03F0914E03E35FFC4FE9
:102AD000208390934E0380934D0302C08091C600E3
:102AE000FF91EF919F918F915F914F912F910F9057
:102AF0000FBE0F901F901895CF93DF93CDB7DEB721
:102B0000C559D1090FB6F894DEBF0FBECDBF78947A
:102B100084B5826084BD84B5816084BD85B58260E2
:102B200085BD85B5816085BD80916E008160809393
:102B30006E001092810080918100826080938100FC
:102B4000809181008160809381008091800081600C
:102B5000809380008091B10084608093B100809167
:102B6000B00081608093B00080917A00846080938F
:102B70007A0080917A00826080937A0080917A0056
:102B8000816080937A0080917A00806880937A00D7
:102B90001092C1008CE090E09093C7028093C6022F
:102BA00088E08093C10280E098E09093BA0280931D
:102BB000B9029093BC028093BB028AE090E09093AC
:102BC000C3028093C20287E090E09093C502809395
:102BD000C40281E08093C80280E090E79093BE0237
:102BE0008093BD0280E090EF9093C0028093BF027B
:102BF0008AE00E94C50D8091C4020E94C50D61E06B
:102C00008091C2020E94A50861E08091C4020E94E6
:102C1000A50861E08AE00E94A5088AE00E94C50D2F
:102C20008CB580618CBD8CB580648CBD8DE00E94BC
:102C3000C50D8BE00E94C50D8CB58F7D8CBD8CB50C
:102C4000837F8CBD8CB58C7F8CBD8DB581608DBD37
:102C50008091F1030E94C50DE0916503F091660338
:102C600081E090E09C010090710302C0220F331FAD
:102C70000A94E2F72083E0916103F09162031082ED
:102C8000E0916303F09164032FEC208310927203B0
:102C9000E0916703F091680340819C0100906D030F
:102CA00002C0220F331F0A94E2F7242B2083E09105
:102CB0006703F091680340819C0100906E0302C09D
:102CC000220F331F0A94E2F7242B2083E09167033D
:102CD000F091680340819C0100906F0302C0220FB5
:102CE000331F0A94E2F7242B2083E0916703F091CD
:102CF000680320810090700302C0880F991F0A9416
:102D0000E2F780958223808364E670E086E694E0B3
:102D10000E94440780916D04882309F4C9C160E0D2
:102D200070E086E694E00E941307DC018C91893400
:102D300009F051C08091AA029091AB020196909344
:102D4000AB028093AA0260E070E086E694E00E9405
:102D50001307FC011081E12E012E000CFF08F092F8
:102D6000A902E092A8026BE871E0CE0184599F4F5E
:102D70000E944908193409F46CC17CF4113409F437
:102D800070C024F4123309F086C107C1163409F467
:102D900004C1183409F07FC100C1133509F4FDC026
:102DA0003CF41D3409F4F9C0103509F074C1F5C0C4
:102DB000163509F4F2C0183509F06DC188E590E0C8
:102DC0009093A7028093A6026BE871E08FE594E0F0
:102DD0000E94DF0739C1AF961DAE1EAE1FAEAF9782
:102DE00061E070E086E694E00E941307DC018C91BC
:102DF000AD968FAFAD9762E070E086E694E00E94FA
:102E00001307FC018081AE968FAFAE97CE01845937
:102E10009F4F0E944F249C01295131092B343105C9
:102E200008F488CF4AE0BC01CE0101960E94120846
:102E300064E671E0CE018B599F4F0E944908BE01A4
:102E40006F5F7F4FCE018B599F4F0E94AB070E944F
:102E5000DF13CE018B599F4F0E940D08CE010196C2
:102E60001DC10E94600920916A0430916B0443E007
:102E700050E066E674E0CE0101960E945F08AE96CF
:102E80008EAD9FADAE970097B1F0E0964EAD5FADC1
:102E9000E0972D813E814217530758F069817A816E
:102EA0000E9408278D819E81E2969FAF8EAFE297A8
:102EB00018C00E94892589819A81AE969FAF8EAFF6
:102EC000AE978B819C81E0969FAF8EAFE0978D810E
:102ED0009E81E2969FAF8EAFE2971A8219821C8282
:102EE0001B821E821D82CE0101960E940D086CE895
:102EF00071E0CE0184599F4F0E942507882319F065
:102F000085E090E03BC062E971E0CE0184599F4FBB
:102F10000E942507882319F086E090E02FC06BE916
:102F200071E0CE0184599F4F0E942507882319F034
:102F30008BE090E023C060EA71E0CE0184599F4F9E
:102F40000E942507882319F084E090E017C06AEA00
:102F500071E0CE0184599F4F0E942507882319F004
:102F600080E190E00BC064EB71E0CE0184599F4F8B
:102F70000E942507882331F081E190E09093B1020F
:102F80008093B002F092A702E092A6026BE871E093
:102F90008FE594E00E94DF077EC00E946009F092F6
:102FA000A702E092A60220916A0430916B0443E0EC
:102FB00050E066E674E0CE0101960E945F080D8144
:102FC0001E81CE0101960E940D080230110508F401
:102FD00062C020916A0430916B0443E050E066E6E1
:102FE00074E0CE0101960E945F08BE016F5F7F4FC3
:102FF000CE018B599F4F0E943F08E4961FAEE49785
:10300000E5961FAEE59741E050E0BE016D587F4F59
:10301000CE018B599F4F0E946B07811105C0CE01D5
:103020008B599F4F0E949907BE016B597F4F8FE5C7
:1030300094E00E94F607CE018B599F4F0E940D0825
:10304000CE0101960E940D081092B1021092B002BA
:1030500022C020916A0430916B0441E050E066E6A2
:1030600074E0CE0101960E945F0889819A810097E1
:1030700019F00E946D2403C060E070E0CB01609302
:103080000001709301018093020190930301CE012E
:1030900001960E940D08CE0184599F4F0E940D0891
:1030A0006BE871E086E694E00E94DF0710926D0401
:1030B0002FB7F8948091A2029091A302A091A4024C
:1030C000B091A5022FBF4091000150910101609184
:1030D000020170910301411551056105710509F463
:1030E000FDC00091AC021091AD022091AE02309172
:1030F000AF026C017D01C01AD10AE20AF30AC416BC
:10310000D506E606F70608F4E9C021E02093B202EE
:103110008093AC029093AD02A093AE02B093AF0245
:103120008091630490916404009709F473C0A7969A
:103130001FAE1EAEA797A9961FAE1EAEA997AB965F
:103140001FAE1EAEAB97AC961FAEAC974AE0BE0169
:103150006F5F7F4F0E94CA24BE016F5F7F4FCE0119
:103160008B599F4F0E94DF07609104017091050108
:103170004AE0CE0101960E941208CE0184599F4F69
:103180000E9489094AE064E670E0CE0186589F4FAC
:103190000E941208BE0166587F4FCE018D589F4F86
:1031A0000E943F08CE018D589F4F0E94F514BE012A
:1031B00064597F4F0E94AB070E94F514BE016F5FF8
:1031C0007F4F0E94AB070E94F514BE016B597F4FE1
:1031D0000E94AB070E94F5146FE574E00E94AB07F4
:1031E0000E94DF13CE018D589F4F0E940D08CE0123
:1031F00086589F4F0E940D08CE0184599F4F0E9410
:103200000D08CE0101960E940D08CE018B599F4FEB
:103210000E940D088091B0029091B102009709F4CC
:103220005DC027E0289FB001299F700D11246D58C3
:103230007C4FCE0101960E943F086091040170917D
:1032400005014AE0CE018B599F4F0E941208CE0122
:1032500084599F4F0E9489094AE064E670E0CE01DC
:1032600086589F4F0E941208BE0166587F4FCE01BC
:103270008D589F4F0E943F08CE018D589F4F0E944E
:10328000F514BE0164597F4F0E94AB070E94F514EC
:10329000BE016B597F4F0E94AB070E94F514BE011F
:1032A0006F5F7F4F0E94AB070E94DF13CE018D58E6
:1032B0009F4F0E940D08CE0186589F4F0E940D0817
:1032C000CE0184599F4F0E940D08CE018B599F4F0C
:1032D0000E940D08CE0101960E940D088091B20255
:1032E000882311F40C940E2380916304909164045C
:1032F000892B09F4C9C6E0905F04F09060046CE289
:1033000070E0C7010E94F426009721F08C010E198D
:103310001F0902C00FEF1FEF8091A6029091A70234
:103320008D349105E1F06CF48634910509F44CC5B7
:103330008834910509F405C2C29711F00C940C234E
:1033400054C48335910509F4DAC38635910509F42F
:10335000AFC28035910511F00C940C2354C36091D9
:10336000040170910501072E000C880B990B0E9437
:10337000262820E030E048EC52E40E947C272B0114
:103380003C016FE574E0CE018B599F4F0E943F08CE
:1033900020E030E048E453E4C301B2010E94B728C2
:1033A0009B01AC0160E070E080E895E40E947C271E
:1033B0000E94EE271B01643671051CF033E6232EB4
:1033C000312CAE014F5F5F4FCF57DF4F598348839A
:1033D000C158D040FA0120E2CF01CF57DF4FC8805B
:1033E000D980C158D0408C199D098215930514F4D9
:1033F0002193F2CF10920504109206041092070454
:103400001092080480E098E0A0E0B0E08093090406
:1034100090930A04A0930B04B0930C0420E030E0D6
:1034200040E856E4C301B2010E94B7280E94EE278B
:103430006093010470930204809303049093040446
:10344000AB96EEACFFACAB97C757DF4FF982E88283
:10345000C958D040CD57DF4F19821882C358D04089
:10346000E12CF12CC757DF4FC880D980C958D04014
:10347000C20CD31CCE56DF4FD982C882C259D0406D
:10348000910121503109CC56DF4F39832883C4592B
:10349000D0406E01C20CD31CC457DF4FD982C88202
:1034A000CC58D040CD57DF4FC880D980C358D040CA
:1034B000CE56DF4F28813981C259D040C216D3067B
:1034C0000CF03BC18981893439F0873551F488EE9D
:1034D00093E0A0E0B0E009C088EC90E0A0E0B0E0AC
:1034E00004C082E593E0A0E0B0E0C957DF4F9983C4
:1034F0008883C758D040C957DF4FC880D980C75884
:10350000D040EC14FD040CF0C8C08FB7F8942091A3
:10351000A2023091A3024091A4025091A502C25789
:10352000DF4F288339834A835B83CE58D0408FBFD7
:10353000002711270E191F09AE014F5F5F4F6A0167
:10354000C557DF4F1882CB58D040C601CF57DF4F49
:10355000E881F981C158D0408E1B9F0B82159305DD
:10356000B4F5D6018D916D01803231F0B1E0C557CF
:10357000DF4FB883CB58D0404801110FAA08BB08D1
:1035800000E010E09801B501A4010E94930ADC015B
:10359000CB01880D991DAA1DBB1D8C01BC01990F83
:1035A000880B990B0E9426284B015C01A301920114
:1035B00060E070E080E895E40E947C279B01AC010C
:1035C000C501B4010E94B22818160CF0BECFC55731
:1035D000DF4FC880CB58D040C11006C0C957DF4F5D
:1035E000E880F980C758D040B701FF0C880B990BD1
:1035F0000E9426286B017C01A301920160E070E02B
:1036000088EC92E40E947C279B01AC01C701B601C3
:103610000E9410270E94EE277B012FB7F89480911B
:10362000A2029091A302A091A402B091A5022FBF83
:10363000C257DF4F288139814A815B81CE58D04003
:10364000821B930BA40BB50B82339105A105B10529
:103650000CF051CF22E3822E912CA12CB12C881A90
:10366000990AAA0ABB0A0E94F1086B01811491040D
:10367000A104B10409F43FCF0E94F1086C197D093F
:10368000683E734098F341E0841A9108A108B1089C
:1036900058E1C51A5CEFD50AE9CFEC18FD08DE0148
:1036A0001296FE013196CF01CF57DF4FC880D980E7
:1036B000C158D0408C199D09CC56DF4FC880D980A5
:1036C000C459D0408C159D051CF48D918193EBCF8E
:1036D000CD57DF4FC880D980C358D040C757DF4F80
:1036E00028813981C958D040C216D30684F4B60166
:1036F000CE018B599F4F0E941307DC018C91C45758
:10370000DF4FE881F981CC58D040808308C080E247
:10371000C457DF4FA881B981CC58D0408C93CD5786
:10372000DF4FE881F981C358D0403196CD57DF4F44
:10373000F983E883C358D040B5CECE018B599F4F53
:10374000B4C06FE574E0CE018D589F4F0E943F08D2
:10375000BE016D587F4FCE0184599F4F0E943F0894
:10376000BE0164597F4FCE0101960E943F08CE01F1
:1037700001960E94010C6B017C01CE0101960E9412
:103780000D086091040170910501072E000C880B53
:10379000990B0E94262820E030E048EC52E40E9479
:1037A0007C2720E030E040E856E40E94B7280E94E1
:1037B000EE276093010470930204809303049093B6
:1037C000040480E094E0A0E0B0E0809305049093CE
:1037D0000604A0930704B09308048093090490930F
:1037E0000A04A0930B04B0930C048601D7FE02C018
:1037F0000F5F1F4F15950795119501951109FDE272
:10380000EF2EF12CA8E6CA2EDD24D394662463940F
:10381000B4E27B2E80ED882E87E0982EA12CB12C6F
:10382000C701B6010E945829BC01CE0101960E9431
:103830009A0C60923604FE013196A7E3B4E0872D1E
:1038400001900D928A95E1F780925B0490925C045E
:10385000A0925D04B0925E04BE0164597F4FCE0118
:103860008B599F4F0E943F0821E030E04CE05EEF13
:10387000B801CE018B599F4F0E94380CCE018B5955
:103880009F4F0E940D0898E0E90EF11CADEFEA167B
:10389000A2E0FA0629F610923604CE0184599F4F11
:1038A0000E940D08CE018D589F4F0E940D08B4C68E
:1038B0006FE574E0CE018D589F4F0E943F08BE0116
:1038C0006D587F4FCE0184599F4F0E943F08BE0123
:1038D00064597F4FCE0101960E943F08CE010196A8
:1038E0000E94010C6B017C01CE0101960E940D0823
:1038F0006091040170910501072E000C880B990B53
:103900000E94262820E030E048EC52E40E947C2708
:1039100020E030E040E856E40E94B7280E94EE27FD
:103920006093010470930204809303049093040451
:1039300020E034E040E050E020930504309306049A
:1039400040930704509308042093090430930A0419
:1039500040930B0450930C048601D7FE02C00F5F06
:103960001F4F159507951195019511094DE2E42E0C
:10397000F12C58E6C52EDD24D3946624639464E2CA
:10398000762E70ED872E77E0972EA12CB12CC701F3
:10399000B6010E945829BC01CE0101960E94D30CA9
:1039A00060923604FE013196A7E3B4E0872D0190C2
:1039B0000D928A95E1F780925B0490925C04A0924C
:1039C0005D04B0925E04BE0164597F4FCE018B59F5
:1039D0009F4F0E943F0821E030E04CE05EEFB801CD
:1039E000CE018B599F4F0E94380CCE018B599F4FAF
:1039F0000E940D0838E0E30EF11C4DEFE41642E0A2
:103A0000F40629F648CF6FE574E0CE0184599F4F44
:103A10000E943F08BE0164597F4FCE018B599F4FD2
:103A20000E943F08BE016B597F4FCE0101960E9454
:103A30003F08CE0101960E94010C6B017C01CE0172
:103A400001960E940D0880E098E0A0E0B0E080932D
:103A5000050490930604A0930704B0930804809390
:103A6000090490930A04A0930B04B0930C048601FC
:103A7000D7FE02C00F5F1F4F159507951195019551
:103A8000110926E4E22EF12C812C912C54012AE01C
:103A900037ED43E25CE3C501B4010E9410274B01FE
:103AA0005C0120E030E040E856E40E94B7280E9424
:103AB000EE276093010470930204809303049093B3
:103AC0000404BE016B597F4FCE0101960E943F084E
:103AD00021E030E040E050E0B801CE0101960E94C4
:103AE000380CCE0101960E940D0851E0E51AF1084C
:103AF00071F6CE018B599F4F0E940D08CAC36FE526
:103B000074E0CE018B599F4F0E943F08BE016B5954
:103B10007F4FCE0101960E943F08CE0101960E9480
:103B2000010C6B017C01CE0101960E940D08609191
:103B3000040170910501072E000C880B990B0E945F
:103B4000262820E030E048EC52E40E947C2720E068
:103B500030E040E856E40E94B7280E94EE276093C8
:103B6000010470930204809303049093040486017B
:103B7000D7FE02C00F5F1F4F159507951195019550
:103B80001109B3E6EB2EF12C812C88E0982EA12CA4
:103B9000B12C8092050490920604A0920704B09282
:103BA00008048092090490920A04A0920B04B09237
:103BB0000C04BE016B597F4FCE0101960E943F0855
:103BC00021E030E04CE05EEFB801CE0101960E94AA
:103BD000380CCE0101960E940D0881E0E81AF10828
:103BE000C1F6CE018B599F4F60CE101611060CF016
:103BF00013C5980140E050E06FE574E0CE018658AF
:103C00009F4F0E945F082091630430916404A801D3
:103C10004F5F5F4F6FE574E0CE018D589F4F0E945C
:103C20005F08BE016D587F4FCE0184599F4F0E949F
:103C30003F08BE0166587F4FCE018B599F4F0E94AF
:103C40003F08BE016B597F4FCE0101960E943F088D
:103C5000CE0101960E94010C6B017C01CE01019600
:103C60000E940D08BE0164597F4FCE0101960E944B
:103C70003F08CE0101960E94010C4B015C01CE0170
:103C800001960E940D086091040170910501072EB4
:103C9000000C880B990B0E94262820E030E048ECAD
:103CA00052E40E947C2720E030E040E856E40E9485
:103CB000B7280E94EE27609301047093020480935A
:103CC000030490930404C601D7FC0196959587954B
:103CD000EE24FF24E81AF90A840197FE02C00F5F60
:103CE0001F4F1595079511950195110963E6C62E8D
:103CF000D12C812C78E0972EA12CB12CE8E54E2E0A
:103D0000EAE05E2E612C712C8092050490920604EC
:103D1000A0920704B09208044092090450920A0449
:103D200060920B0470920C04BE016B597F4FCE0160
:103D300001960E943F0821E030E04CE05EEFB701C1
:103D4000CE0101960E94380CCE0101960E940D080A
:103D50008092050490920604A0920704B092080491
:103D60008092090490920A04A0920B04B0920C0471
:103D7000BE0164597F4FCE0101960E943F0821E0A9
:103D800030E04CE05EEFB801CE0101960E94380CA5
:103D9000CE0101960E940D0891E0C91AD10809F0E0
:103DA000B3CFCE018B599F4F0E940D08CE0184598D
:103DB0009F4F0E940D08CE018D589F4F0E940D0805
:103DC000CE0186589F4F71CD6FE574E0CE018D58BE
:103DD0009F4F0E943F08BE016D587F4FCE0184590E
:103DE0009F4F0E943F08BE016D587F4FCE018B59F7
:103DF0009F4F0E943F08E996EEACFFACE997C12CBB
:103E0000D12C21E0E21AF108F7FC15C0B601CE0171
:103E100084599F4F0E9413078C01B701CE018B5923
:103E20009F4F0E941307DC018C91F8018083FFEF04
:103E3000CF1ADF0AE6CFBE016B597F4FCE01019644
:103E40000E943F08CE0101960E94010C6B017C018B
:103E5000CE0101960E940D08B6010D2C000C880BB6
:103E6000990B0E9426289B01AC0160E070E88EE36C
:103E700095E40E947C2720E030E040E856E40E9470
:103E8000B7280E94EE276093010470930204809388
:103E900003049093040480E098E0A0E0B0E08093F5
:103EA000050490930604A0930704B093080480933C
:103EB000090490930A04A0930B04B0930C04C60168
:103EC000D7FC01969595879522243324281A390A20
:103ED00043E2C42ED12CBE0164597F4FCE0101961E
:103EE0000E943F0824E030E040E050E0B101CE0104
:103EF00001960E94380CCE0101960E940D08E996A9
:103F0000AEACBFACE99700E010E00A151B05DCF58C
:103F1000B801CE018B599F4F0E941307DC019C9082
:103F2000B801CE0184599F4F0E941307FC01808184
:103F3000891554F4B801CE0184599F4F0E9413078C
:103F4000FC0190819F5F9083B801CE018B599F4FF8
:103F50000E941307DC019C90B801CE0184599F4F49
:103F60000E941307FC018081981654F4B801CE0119
:103F700084599F4F0E941307FC01908191509083B8
:103F80000F5F1F4FC2CFF1E0CF1AD10809F0A3CFC6
:103F9000812C912C5401CC24CA942FE0D22EE12CF8
:103FA000F12C8092260490922704A0922804B092CB
:103FB000290410922A0410922B0410922C041092BF
:103FC0002D0444244A949FE0592E612C712CD70172
:103FD000C60188199909AA09BB0980932E049093F8
:103FE0002F04A0933004B0933104C0923204D092D5
:103FF0003304E0923404F0923504BE016B597F4FD4
:10400000CE0101960E943F0821E030E040E050E000
:10401000B101CE0101960E94380CCE0101960E949A
:104020000D0828E2820E911CA11CB11C30E68316FB
:1040300039E09306A104B10409F0B3CF109226042D
:1040400010922704109228041092290410922A0436
:1040500010922B0410922C0410922D0440922E04E6
:1040600050922F04609230047092310440923204D6
:10407000509233046092340470923504CE018B590F
:104080009F4F0E940D0809CC8091B0029091B1021F
:104090008630910509F473C1FCF48430910559F11F
:1040A000059709F0B9C2412C512C70E8672E7FE3C7
:1040B000772E812CE0E19E2EA12CB12CC12CF0E1B9
:1040C000DF2EE12CF12CCD57DF4FC882D982EA8256
:1040D000FB82C358D040E1C08031910509F4D9C1B9
:1040E000419709F099C204E610E0C12C88E0D82E6F
:1040F000E12CF12C39C263EC71E0CE0184599F4F61
:104100000E944908BE0164597F4FCE0101960E946A
:104110003F08CE0101960E94010C6B017C01CE018B
:1041200001960E940D0880E090E2A0E0B0E080934C
:10413000010490930204A0930304B0930404C60105
:10414000D7FC019695958795EE24FF24E81AF90A85
:10415000C12CD12C01E0B8E68B2E9924939414E263
:1041600088EA482E55245394612C712C0093360410
:10417000C601B4010E9458295C01BC01CE01019620
:104180000E94D30CFE013196A7E3B4E0812F019089
:104190000D928A95E1F780EA9FE0A0E0B0E080937D
:1041A0005B0490935C04A0935D04B0935E0420E0F4
:1041B00034E040E050E0209305043093060440933F
:1041C00007045093080488E596E0A0E0B0E08093EF
:1041D000090490930A04A0930B04B0930C04BE014D
:1041E00064597F4FCE018B599F4F0E943F0821E0B9
:1041F00030E04CE05EEFB701CE018B599F4F0E943B
:10420000380CCE018B599F4F0E940D08B501CE018D
:1042100001960E949A0CFE013196A7E3B4E0812F2B
:1042200001900D928A95E1F720E034E040E050E003
:104230002093050430930604409307045093080428
:104240004092090450920A0460920B0470920C048C
:1042500065EA71E0CE018B599F4F0E94490821E029
:1042600030E04CE05EEFB701CE018B599F4F0E94CA
:10427000380CCE018B599F4F0E940D0838E0C30EB9
:10428000D11C40EDC41642E0D40609F06FCF109265
:104290003604CE0184599F4F08CB20E030E040E83F
:1042A00056E4C301B2010E94B7280E94EE27609332
:1042B0000104709302048093030490930404CD5787
:1042C000DF4FC880D980EA80FB80C358D040C092BD
:1042D0000504D0920604E0920704F092080480924C
:1042E000090490920A04A0920B04B0920C04E12CF1
:1042F000F12C870120E030E0A90165E670E082E35F
:1043000092E00E94450ACD57DF4F688179818A810A
:104310009B81C358D0400E9426286B017C0120E07D
:1043200030E040EA51E4C301B2010E94B7289B018A
:10433000AC01C701B6010E940F270E94EE27CD579E
:10434000DF4F688379838A839B83C358D04024E1FD
:10435000821A9108A108B1082AE037ED43E25CE334
:10436000C301B2010E9410272B013C0130EF8316DC
:1043700031E09306A104B10409F08FCF4DC1412C67
:10438000512C40E8642E4FE3742E812C50E1952E81
:10439000A12CB12CC12C60E1D62EE12CF12CCD57F3
:1043A000DF4FC882D982EA82FB82C358D04020E026
:1043B00030E040E856E4C301B2010E94B7280E94F1
:1043C000EE2760930104709302048093030490939A
:1043D0000404CD57DF4FC880D980EA80FB80C358E2
:1043E000D040C0920504D0920604E0920704F092F7
:1043F00008048092090490920A04A0920B04B092DF
:104400000C04E12CF12C870120E030E0A90164E5E7
:1044100070E082EE90E00E94450ACD57DF4F688140
:1044200079818A819B81C358D0400E9426286B01E4
:104430007C0120E030E040EA51E4C301B2010E9477
:10444000B7289B01AC01C701B6010E940F270E944B
:10445000EE27CD57DF4F688379838A839B83C358C8
:10446000D04024E1821A9108A108B1082AE037ED72
:1044700043E25CE3C301B2010E9410272B013C011F
:1044800030EF831631E09306A104B10409F08FCF19
:10449000C3C080E098E0A0E0B0E080930504909372
:1044A0000604A0930704B093080480930904909332
:1044B0000A04A0930B04B0930C0439E3F32E98E2A2
:1044C000C92ED12C2AE0422E27ED522E23E2622E55
:1044D0002CE3722E812C912C540180E090E4A0E01A
:1044E000B0E08093010490930204A0930304B0937E
:1044F00004040E94DB0920E030E040E856E4C501F6
:10450000B4010E94B7280E94EE27609301047093C3
:10451000020480930304909304040EE21EEF2FEF35
:104520003FEF45EE5EEF6FEF7FEF8F2D0E94930A16
:10453000A3019201C501B4010E9410274B015C0147
:104540002FE632E143E05BE3C301B2010E94102792
:104550002B013C0191E0C91AD10809F0BECFFA94B1
:10456000A0E3FA12ACCF58C020E030E440E050E0C5
:1045700020930104309302044093030450930404F5
:10458000C0920504D0920604E0920704F092080459
:10459000C0920904D0920A04E0920B04F0920C0439
:1045A00021E038EF4FEF5FEF61E078EF8FEF9FEFA3
:1045B0000E9469100E94E40D21E038EF4FEF5FEF99
:1045C0006FEF77E080E090E00E9469102FEF37E016
:1045D00040E050E06FEF77E080E090E00E946910EB
:1045E0002FEF37E040E050E061E078EF8FEF9FEF92
:1045F0000E94691021E038EF4FEF5FEF61E078EF44
:104600008FEF9FEF0E9469100E94FE0D0E94DB0950
:104610000150110909F0A8CF1092B2020E94C014F3
:104620000C948A16CF93DF93C1EFD3E02797CE0186
:104630000E940D0883E0C337D807C1F78FE594E0E7
:104640000E940D0886E694E0DF91CF910C940D084E
:10465000CF92DF92EF92FF92E1E5F3E013821282B4
:1046600088EEC82E83E0D82EE12CF12CC482D582AE
:10467000E682F78288E591E0918380838DE093E084
:104680009587848789EC92E09787868785EC90E010
:10469000918B808B84EC90E0938B828B80EC90E00C
:1046A000958B848B81EC90E0978B868B82EC90E0ED
:1046B000918F808F86EC90E0938F828F84E0848F3F
:1046C00083E0858F87E0868F85E0878F81E080A3F8
:1046D0006BE871E086E694E00E9449086BE871E0BF
:1046E0008FE594E00E94490884E2E0E3F1E0A7E36B
:1046F000B4E001900D928A95E1F7E1EFF3E085E0F7
:1047000090E09183808380E091E0A0E0B0E082833C
:104710009383A483B583168217821086118612862E
:1047200013861486158615A616A617A610AA11AA12
:1047300012AA13AA14AA1786168681E090E0A0E0B8
:10474000B0E0808B918BA28BB38B148A158A168A6A
:10475000178A108E118E128E138E148E158E168E51
:10476000178E8FEF9FEFDC0180A391A3A2A3B3A3C9
:1047700014A215AA16AA17AA10AE11AE12AE13AE45
:1047800014AE8FEF9FE0A0E0B0E080932E049093F2
:104790002F04A0933004B09331048093320490939B
:1047A0003304A0933404B093350410923604C092BD
:1047B0005B04D0925C04E0925D04F0925E046BE2D4
:1047C00072E083E793E00E9449086FE272E08AE7B3
:1047D00093E00E9449086CE372E081E893E00E9454
:1047E000490865E472E088E893E00E94490860EABD
:1047F00071E08FE893E00E9449086CE871E086E977
:1048000093E00E94490862E971E08DE993E00E941B
:1048100049086DE472E084EA93E00E94490864E587
:1048200072E08BEA93E00E94490864E672E082EB52
:1048300093E00E94490860E772E089EB93E00E94F0
:1048400049086BE971E080EC93E00E9449086BE74E
:1048500072E087EC93E00E94490861E872E08EEC18
:1048600093E00E9449086BE872E085ED93E00E94B6
:10487000490863E972E08CED93E00E9449086AEA16
:1048800071E083EE93E00E94490864EB71E08AEEE8
:1048900093E0FF90EF90DF90CF900C944908FC01DB
:1048A00088279927E89421912032E9F3293010F0E4
:1048B0002E30C8F32B3241F02D3239F4689404C005
:1048C0000E94C224820F911D219120532A30C0F3EF
:1048D0001EF4909581959F4F08951F93FC01992791
:1048E0008827BC01E89411911032E9F3193010F0D7
:1048F0001E30C8F31B3251F01D3249F4689406C0D3
:104900000E94AD24610F711D811D911D11911053E5
:104910001A30B0F33EF490958095709561957F4F75
:104920008F4F9F4F1F910895F8940C94202A453281
:10493000510520F4423010F00C94A224FB011082A7
:10494000CB010895BB274A3031F4992322F4BDE20C
:10495000909581959F4F0C94CB24592F482F372F3A
:10496000262F660F771F881F991F660F771F881FD6
:10497000991F620F731F841F951F660F771F881F73
:10498000991F08957AE0979F902D879F802D910D14
:1049900011240895BB27FB015527AA27880F991FCB
:1049A000AA1FA41710F0A41B83955051B9F7A05D5E
:1049B000AA3308F0A95DA193009779F7B111B193DB
:1049C0001192CB010C94E424DC01FC01672F71915E
:1049D0007723E1F7329704C07C916D9370836291E5
:1049E000AE17BF07C8F30895CF93DF9382309105C8
:1049F00010F482E090E0E0917004F091710420E006
:104A000030E0C0E0D0E0309711F14081518148178B
:104A10005907C0F04817590761F4828193812097A4
:104A200019F09B838A832BC0909371048093700448
:104A300026C02115310519F04217530718F49A01C1
:104A4000BE01DF01EF010280F381E02DDCCF2115F3
:104A5000310509F1281B390B2430310590F41296E9
:104A60008D919C9113976115710521F0FB01938342
:104A7000828304C09093710480937004FD01329688
:104A800044C0FD01E20FF31F81939193225031093D
:104A90002D933C933AC020916E0430916F04232BE8
:104AA00041F4209108013091090130936F04209363
:104AB0006E0420910601309107012115310541F462
:104AC0002DB73EB740910A0150910B01241B350BC5
:104AD000E0916E04F0916F04E217F307A0F42E1B2F
:104AE0003F0B2817390778F0AC014E5F5F4F241752
:104AF000350748F04E0F5F1F50936F0440936E04CC
:104B00008193919302C0E0E0F0E0CF01DF91CF917B
:104B100008950F931F93CF93DF93009709F48CC0F0
:104B2000FC0132971382128200917004109171047B
:104B30000115110581F420813181820F931F20918D
:104B40006E0430916F042817390779F5F0936F04DC
:104B5000E0936E0471C0D80140E050E0AE17BF078B
:104B600050F412962D913C911397AD01211531050A
:104B700009F1D901F3CF9D01DA01338322836081EA
:104B80007181860F971F8217930769F4EC012881C2
:104B90003981260F371F2E5F3F4F318320838A8153
:104BA0009B8193838283452B29F4F0937104E093D6
:104BB000700442C01396FC93EE931297ED01499155
:104BC00059919E01240F351FE217F30771F480817C
:104BD0009181840F951F029611969C938E938281EA
:104BE000938113969C938E931297E0E0F0E0D801A6
:104BF00012968D919C911397009719F0F8018C01F2
:104C0000F6CF8D919C9198012E5F3F4F820F931F9D
:104C100020916E0430916F042817390769F430979A
:104C200029F4109271041092700402C0138212824F
:104C300010936F0400936E04DF91CF911F910F9139
:104C40000895A0E0B0E0E7E2F6E20C94A829EC01B8
:104C5000009721F4CB010E94F424B8C0FC01E60FB8
:104C6000F71F9C0122503109E217F30708F4ACC08A
:104C7000D9010D911C91119706171707B0F0053057
:104C8000110508F49FC0C80104978617970708F418
:104C900099C002501109061B170B019311936D93D4
:104CA0007C93CF010E9489258DC05B01A01AB10AB7
:104CB0004C01800E911EA0917004B091710440E0EF
:104CC00050E0E12CF12C109709F44AC0A815B90561
:104CD000D1F56D907C901197630182E0C80ED11CD4
:104CE000CA14DB0480F1A3014A195B096A0182E05E
:104CF000C80ED11C1296BC9012971396AC91B5E0D9
:104D0000CB16D10440F0B282A38351834083D901F2
:104D10006D937C930AC00E5F1F4FC301800F911FDC
:104D2000F90191838083EB2DFA2FE114F10431F026
:104D3000D7011396FC93EE93129744C0F09371043D
:104D4000E09370043FC08D919C91119748175907CB
:104D500008F4AC017D0112960D90BC91A02DB3CF4B
:104D600080916E0490916F0488159905E1F44617BF
:104D70005707C8F48091060190910701009741F40C
:104D80008DB79EB740910A0150910B01841B950B82
:104D9000E817F907C8F4F0936F04E0936E04F90183
:104DA000718360830FC0CB010E94F4247C010097C3
:104DB00059F0A801BE010E94EB26CE010E94892570
:104DC000C70104C0CE0102C080E090E0CDB7DEB7DD
:104DD000EEE00C94C429FB01DC0102C001900D92AD
:104DE00041505040D8F70895FC018191861721F079
:104DF0008823D9F7992708953197CF010895FB01AA
:104E0000DC018D91019080190110D9F3990B08955F
:104E1000FB01DC0101900D920020E1F7089550584C
:104E2000BB27AA270E9427270C9478280E946A286B
:104E300038F00E94712820F039F49F3F19F426F4CD
:104E40000C9467280EF4E095E7FB0C946128E92F99
:104E50000E94892858F3BA176207730784079507D9
:104E600020F079F4A6F50C94AB280EF4E0950B2E07
:104E7000BA2FA02D0B01B90190010C01CA01A001AC
:104E80001124FF27591B99F0593F50F4503E68F107
:104E90001A16F040A22F232F342F4427585FF3CF48
:104EA000469537952795A795F0405395C9F77EF419
:104EB0001F16BA0B620B730B840BBAF09150A1F062
:104EC000FF0FBB1F661F771F881FC2F70EC0BA0FE8
:104ED000621F731F841F48F4879577956795B79570
:104EE000F7959E3F08F0B0CF9395880F08F099276B
:104EF000EE0F9795879508950E9490270C94782837
:104F00000E94712858F00E946A2840F029F45F3FFF
:104F100029F00C94612851110C94AC280C9467284A
:104F20000E94892868F39923B1F3552391F3951BC7
:104F3000550BBB27AA2762177307840738F09F5FBA
:104F40005F4F220F331F441FAA1FA9F335D00E2E27
:104F50003AF0E0E832D091505040E695001CCAF794
:104F60002BD0FE2F29D0660F771F881FBB1F261757
:104F700037074807AB07B0E809F0BB0B802DBF012E
:104F8000FF2793585F4F3AF09E3F510578F00C94FD
:104F900061280C94AC285F3FE4F3983ED4F38695E7
:104FA00077956795B795F7959F5FC9F7880F911D1E
:104FB0009695879597F90895E1E0660F771F881F0A
:104FC000BB1F621773078407BA0720F0621B730BBD
:104FD000840BBA0BEE1F88F7E09508950E94F52721
:104FE0006894B1110C94AC2808950E94912888F01F
:104FF0009F5798F0B92F9927B751B0F0E1F0660F9D
:10500000771F881F991F1AF0BA95C9F714C0B130DD
:1050100091F00E94AB28B1E008950C94AB28672F63
:10502000782F8827B85F39F0B93FCCF3869577950C
:105030006795B395D9F73EF49095809570956195F5
:105040007F4F8F4F9F4F0895E89409C097FB3EF420
:1050500090958095709561957F4F8F4F9F4F9923C5
:10506000A9F0F92F96E9BB279395F6958795779543
:105070006795B795F111F8CFFAF4BB0F11F460FF03
:105080001BC06F5F7F4F8F4F9F4F16C0882311F05B
:1050900096E911C0772321F09EE8872F762F05C06F
:1050A000662371F096E8862F70E060E02AF09A950A
:1050B000660F771F881FDAF7880F9695879597F9FF
:1050C000089597F99F6780E870E060E008959FEF8A
:1050D00080EC089500240A9416161706180609068F
:1050E000089500240A94121613061406050608955E
:1050F000092E0394000C11F4882352F0BB0F40F4E6
:10510000BF2B11F460FF04C06F5F7F4F8F4F9F4F25
:10511000089557FD9058440F551F59F05F3F71F0A7
:105120004795880F97FB991F61F09F3F79F087950E
:105130000895121613061406551FF2CF4695F1DF97
:1051400008C0161617061806991FF1CF8695710527
:10515000610508940895E894BB2766277727CB015B
:1051600097F908950E94242908F48FEF08950E946A
:10517000CA280C9478280E946A2838F00E94712866
:1051800020F0952311F00C9461280C9467281124C9
:105190000C94AC280E94892870F3959FC1F3950F59
:1051A00050E0551F629FF001729FBB27F00DB11DAB
:1051B000639FAA27F00DB11DAA1F649F6627B00D3B
:1051C000A11D661F829F2227B00DA11D621F739F24
:1051D000B00DA11D621F839FA00D611D221F749F32
:1051E0003327A00D611D231F849F600D211D822F79
:1051F000762F6A2F11249F5750409AF0F1F08823A0
:105200004AF0EE0FFF1FBB1F661F771F881F9150CC
:105210005040A9F79E3F510580F00C9461280C94F2
:10522000AC285F3FE4F3983ED4F386957795679575
:10523000B795F795E7959F5FC1F7FE2B880F911DF6
:105240009695879597F90895990F0008550FAA0B21
:10525000E0E8FEEF16161706E807F907C0F0121689
:105260001306E407F50798F0621B730B840B950B8C
:1052700039F40A2661F0232B242B252B21F40895E1
:105280000A2609F4A140A6958FEF811D811D08957E
:10529000DB018F939F930E949129BF91AF91A29FB1
:1052A000800D911DA39F900DB29F900D1124089524
:1052B00097FB072E16F4009407D077FD09D00E94C3
:1052C000DB2907FC05D03EF4909581959F4F08950A
:1052D000709561957F4F0895052E97FB1EF40094FD
:1052E0000E94832957FD07D00E94EF2907FC03D0B5
:1052F0004EF40C94832950954095309521953F4F5D
:105300004F4F5F4F089590958095709561957F4FB1
:105310008F4F9F4F0895EE0FFF1F0590F491E02DE2
:1053200009940E94112AA59F900DB49F900DA49FEF
:10533000800D911D11240895B7FF0C9491290E94AE
:105340009129821B930B08952F923F924F925F9267
:105350006F927F928F929F92AF92BF92CF92DF9285
:10536000EF92FF920F931F93CF93DF93CDB7DEB7EA
:10537000CA1BDB0B0FB6F894DEBF0FBECDBF09947E
:105380002A88398848885F846E847D848C849B84D5
:10539000AA84B984C884DF80EE80FD800C811B81E3
:1053A000AA81B981CE0FD11D0FB6F894DEBF0FBE12
:1053B000CDBFED010895AA1BBB1B51E107C0AA1F79
:1053C000BB1FA617B70710F0A61BB70B881F991FA6
:1053D0005A95A9F780959095BC01CD010895A1E259
:1053E0001A2EAA1BBB1BFD010DC0AA1FBB1FEE1F5F
:1053F000FF1FA217B307E407F50720F0A21BB30BAA
:10540000E40BF50B661F771F881F991F1A9469F725
:1054100060957095809590959B01AC01BD01CF0181
:105420000895A29FB001B39FC001A39F700D811D7D
:105430001124911DB29F700D811D1124911D08959D
:1054400016E0CFE1D6E004C0FE010E948B29219630
:0A545000C032D107C9F7F894FFCF6E
:10545A00E803000019000000720420000040000068
:10546A0000000000000000000000000000400000F2
:10547A0000000000000000000000000000400000E2
:10548A0000400000000000000000000000000000D2
:10549A0000400000000000000000000000000000C2
:1054AA00004000000000000027144A06B0147414DB
:1054BA00941469144552524F522052616E67652006
:1054CA0032352D3939207265636569766564206CD9
:1054DA006173657253697A65203D2000504C414ED4
:1054EA0045004255494C44494E470042494B450004
:1054FA004C4153455253484F5700434F554E54441D
:10550A004F574E00434952434C45494E535155411A
:10551A005245004C4153455200416E696D617469B0
:10552A006F6E004D617271756565005072657365C5
:10553A006E7473005374617469630032204C696E2F
:10554A0065004D6572676500486F72697A6F6E749F
:10555A00616C205370696E00566572746963616C80
:10556A00205370696E004F666600496E74657276E4
:10557A00616C00556E6B6E6F776E004F4646004C3D
:10558A0045545445524546464543540050524553A6
:10559A00454E54530041524455494E4F0057454CCD
:1055AA004F56450041524455494E4F3244524F548A
:1055BA00415445005748415441424F5554334400E1
:1055CA00524F544154454355424500474C4F42457A
:1055DA000041524455494E4F3344004F424A4543D5
:1055EA005453004A554D50494E4754455854003A71
:0255FA000000AF
:00000001FF
